:100000000C941A0A0C94610A0C94610A0C946C17F3
:100010000C94610A0C94610A0C94610A0C94610AB4
:100020000C94610A0C94610A0C94F3330C94C5345B
:100030000C94FD250C94610A0C94610A0C94610ADD
:100040000C94610A0C94610A0C94610A0C94610A84
:100050000C94610A0C9456260C94610A0C94610A63
:100060000C94610A0C94610A0C94610A0C94610A64
:100070000C94610A0C94610A0C94610A0C94610A54
:100080000C94610A0C94610A0C94610A0C94610A44
:100090000C94610A0C94610A0C94610A0C94610A34
:1000A0000C94610A0C94610A0C94610A411B411B77
:1000B000731B731BC01BDE1BFF1CFF1CE91B7E1C7C
:1000C0008F1C8F1CEF1CFF1CFF1CF81C9F1D9F1D0D
:1000D000B11DB11DA81DB11DB11DB11D9F1D9F1DDD
:1000E000AD1DB11DB11DAD1D3235593551365935D6
:1000F0005136A535C83551361F362E36808182835C
:100100008485868788898A8B8C8D8E8F9091929337
:1001100094A0A1A2A3A4A5A6A7A8A9AAABACADAE82
:10012000AFB0B1B2B3B4C0C1C2C3C4C5C6C7C8C9F9
:10013000CACBCCCDCECFD0D1D2D3D400202020205A
:100140000053435220002020202000434150200033
:1001500020202020004E554D2000556E64656669B4
:100160006E6564004E554D5041440A00464E0A00EB
:1001700044656661756C740A004C617965723A2059
:100180000035001E001F0020002100220023002B4C
:100190000014001A000800150017002F00E10004E9
:1001A000001600070009000A004B00E0001D001BBC
:1001B000000600190005004F00E3002C005000E28B
:1001C00000280DA800290024002500260027002D66
:1001D000002E002A0030001C0018000C0012001332
:1001E0000031004E000B000D000E000F00330034F4
:1001F000005100110010003600370038004C00019B
:1002000053AA00A900025352004C00280001003AF2
:10021000003B003C003D003E003F000100010001AA
:1002200000520001000100010001000100500051D6
:10023000004F000100010001000100010001000168
:1002400000010001000100010001000100010001A6
:10025000000100400041004200430044004500010D
:100260000001000100010001000100010001000186
:100270000001000100010001005200010001000125
:100280000001000100500051004F00005301000127
:100290000002530100010001000100010001000102
:1002A0000001000100010001000100010001000146
:1002B0000001000100010001000100010001000136
:1002C00000010001000100010001000100005C01CB
:1002D0000001000100010001000100010001000116
:1002E0000001005300010056005700010001000109
:1002F000005F006000610001000100010001005C7E
:10030000005D005E00550001000100010059005A27
:10031000005B005400010000530100010001530183
:10032000006200630044454255473A2064697361A6
:10033000626C65642E0A0044454255473A20656E5A
:1003400061626C65642E0A000A0025303862003A4A
:10035000200025303258000A722F632030313233AA
:10036000343536370A006F6C65645F7363726F6C87
:100370006C5F6C65667420636D64206661696C6592
:10038000640A006F6C65645F6F666620636D64204D
:100390006661696C65640A0000AE6F6C65645F6FCE
:1003A0006E20636D64206661696C65640A0000AF4D
:1003B0006F6C65645F72656E64657239302064616C
:1003C0007461206661696C65640A006F6C65645FC6
:1003D00072656E6465722064617461206661696C27
:1003E00065640A006F6C65645F72656E6465722097
:1003F0006F666673657420636F6D6D616E642066F1
:1004000061696C65640A00646973706C61795F731B
:100410006574757032206661696C65640A0000DA83
:100420000281FFD9F1DB20A4A62EAF646973706C42
:1004300061795F666C6970706564206661696C657E
:10044000640A0000A0C06F6C65645F696E69742007
:10045000636D64206E6F726D616C20726F74617475
:10046000696F6E206661696C65640A0000A1C86FDF
:100470006C65645F696E697420636D642073657474
:100480002031206661696C65640A0000AED580A8E1
:100490001FD300408D1420000000000000003E5BD0
:1004A0004F5B3E003E6B4F6B3E001C3E7C3E1C0093
:1004B000183C7E3C18001C577D571C001C5E7F5E5C
:1004C0001C0000183C180000FFE7C3E7FF000018FD
:1004D00024180000FFE7DBE7FF0030483A060E0073
:1004E000262979292600407F05050700407F05253C
:1004F0003F005A3CE73C5A007F3E1C1C0800081C89
:100500001C3E7F0014227F2214005F5F005F5F00AB
:1005100006097F017F00006689956A00606060605F
:10052000600094A2FFA2940008047E04080010203A
:100530007E20100008082A1C0800081C2A08080051
:100540001E10101010000C1E0C1E0C0030383E380F
:100550003000060E3E0E0600000000000000000005
:100560005F000000000700070000147F147F1400E4
:10057000242A7F2A12002313086462003649562079
:100580005000000807030000001C22410000004149
:10059000221C00002A1C7F1C2A0008083E080800B4
:1005A0000080703000000808080808000000606043
:1005B00000002010080402003E5149453E00004260
:1005C0007F4000007249494946002141494D3300AE
:1005D0001814127F10002745454539003C4A494907
:1005E0003100412111090700364949493600464981
:1005F00049291E00000014000000004034000000E3
:100600000008142241001414141414000041221490
:1006100008000201590906003E415D594E007C1256
:1006200011127C007F49494936003E414141220078
:100630007F4141413E007F49494941007F09090905
:1006400001003E41415173007F0808087F000041CE
:100650007F4100002040413F01007F0814224100FB
:100660007F40404040007F021C027F007F04081052
:100670007F003E4141413E007F09090906003E419D
:1006800051215E007F091929460026494949320057
:1006900003017F0103003F4040403F001F204020F6
:1006A0001F003F4038403F006314081463000304F8
:1006B000780403006159494D4300007F41414100E6
:1006C000020408102000004141417F0004020102A1
:1006D0000400404040404000000307080000205450
:1006E000547840007F28444438003844444428006B
:1006F000384444287F0038545454180000087E09B8
:10070000020018A4A49C78007F0804047800004428
:100710007D4000002040403D00007F102844000044
:1007200000417F4000007C04780478007C080404C9
:100730007800384444443800FC1824241800182455
:100740002418FC007C080404080048545454240075
:1007500004043F4424003C4040207C001C204020F6
:100760001C003C4030403C004428102844004C9081
:1007700090907C004464544C4400000836410000D2
:10078000000077000000004136080000020102046A
:1007900002003C2623263C000000000000004040F0
:1007A00040F0F8F8FF38FFF8F83FF8F8FF38FFF8A6
:1007B000F8F040404000000000000080C0C0C08051
:1007C0000000C0C08000000080C0C000C0C00000A9
:1007D00080C0C00000000000C0C0C0C0C000C0C0D9
:1007E0000000000000000000000000000000000009
:1007F00000000000000000000000000000000000F9
:1008000000000000000000000000000000000000E8
:1008100000000000000000C0F0F8FC3E1E060100D1
:1008200000007F4141417F007F4141417F000080C6
:10083000C0E07E5B4F5BFEC00000C000DCD7DEDEA8
:10084000DED7DC00C0000000000000000000000057
:100850000000000000000000000000000000494906
:1008600049FFFFFFFFE0DFBFBF00BFBFDFE0FFFFCB
:10087000FFFF49494900000000001F3F6060E0BFE2
:100880001F007F7F071E381E077F7F007F7F0E1FA0
:100890003B716000000000007F7F0C0C0C007E7E2E
:1008A000007F7E0303007F7E03037E7E03037F7E43
:1008B000000F3E703C063C703E0F00327B49493FC2
:1008C0007E007F7E0303001E3F69696F26000000E3
:1008D00000000000000000030F1F3F3C7870600024
:1008E00000007F4141417F007F4141417F00307BDB
:1008F0007F7830202030787F3B0003000F7F0F0F80
:100900000F7F0F0003000000000000000000000047
:1009100000000000000000000000000000000101D5
:1009200001070F0F7F0F7F0F0F7E0F0F7F0F7F0FBE
:100930000F0701010100000000000000000000019D
:1009400001000000000000000000000000000000A6
:100950000000000000000000000000000000000097
:100960000000000000000000000000000000000087
:100970000000000000000000000000000000000077
:100980000000000000000000000000000000000067
:100990000000000000000000000000000000000057
:1009A0000000000000000000000000000000000047
:1009B0000000000000000000000000000000000037
:1009C0000000000000000000000000000000000027
:1009D00000000000000000000A002530325820000E
:1009E0006B6579626F6172645F7265706F72743A81
:1009F00020000A0025303258006B6579626F617201
:100A0000645F7365745F6C65643A2000290A002591
:100A100075002F002575005D280025640020002545
:100A20006400200025640020002564007C0025303F
:100A30003258006D6F7573656B6579205B62746EFB
:100A40007C782079207620685D287265702F61633C
:100A50006C293A205B006D6B5F776865656C5F742D
:100A6000696D655F746F5F6D6178203D2025640A54
:100A7000006D6B5F776865656C5F6D61785F737043
:100A8000656564203D2025640A006D6B5F74696DA7
:100A9000655F746F5F6D6178203D2025640A006D8D
:100AA0006B5F6D61785F7370656564203D202564C0
:100AB0000A006D6B5F696E74657276616C203D2013
:100AC00025640A006D6B5F64656C6179203D2025AB
:100AD000640A006D6B5F776865656C5F74696D654E
:100AE0005F746F5F6D6178203D2025640A006D6B37
:100AF0005F776865656C5F6D61785F73706565646D
:100B0000203D2025640A006D6B5F74696D655F741C
:100B10006F5F6D6178203D2025640A006D6B5F6D0D
:100B200061785F7370656564203D2025640A006DFF
:100B30006B5F696E74657276616C203D2025640A76
:100B4000006D6B5F64656C6179203D2025640A004F
:100B50000A00257500363A20776865656C5F746910
:100B60006D655F746F5F6D61783A20000A002575CE
:100B700000353A20776865656C5F6D61785F7370EA
:100B80006565643A20000A00257500343A207469CE
:100B90006D655F746F5F6D61783A20000A0025759E
:100BA00000333A206D61785F73706565643A2000A8
:100BB0000A00257500323A20696E74657276616CA0
:100BC000286D73293A20000A00257500313A206407
:100BD000656C6179282A31306D73293A20000A0941
:100BE0002D2056616C756573202D0A004D3E004D19
:100BF00025643E20003F007365742064656661755E
:100C00006C740A00433E2000776865726520646555
:100C10006C74613A20637572736F723D25642C2089
:100C2000776865656C3D25640A5365652068747452
:100C3000703A2F2F656E2E77696B697065646961F4
:100C40002E6F72672F77696B692F4D6F7573655FB4
:100C50006B6579730A000A092D204D6F7573656BFA
:100C60006579202D0A4553432F713A0971756974CE
:100C70000A313A0964656C6179282A31306D73292B
:100C80000A323A09696E74657276616C286D73294F
:100C90000A333A096D61785F73706565640A343AA6
:100CA0000974696D655F746F5F6D61780A353A0923
:100CB000776865656C5F6D61785F73706565640A00
:100CC000363A09776865656C5F74696D655F746F46
:100CD0005F6D61780A0A703A097072696E742076E5
:100CE000616C7565730A643A09736574206465669E
:100CF00061756C74730A75703A092B310A646F77E9
:100D00006E3A092D310A706775703A092B31300A35
:100D10007067646F776E3A092D31300A0A73706517
:100D20006564203D2064656C7461202A206D6178C3
:100D30005F7370656564202A202872657065617430
:100D4000202F2074696D655F746F5F6D6178290A6B
:100D5000003F004D3E2000433E20004C25640A0029
:100D600074696D65725F72656164333228293A2057
:100D70002530346C580A006B6579626F6172645F6C
:100D800069646C653A2025580A006B6579626F6169
:100D900072645F70726F746F636F6C3A2025580ACB
:100DA00000686F73745F6B6579626F6172645F6C0A
:100DB00065647328293A2025580A000A092D205312
:100DC0007461747573202D0A004743433A20352E11
:100DD000342E30204156522D4C4942433A20322E77
:100DE000302E30204156525F415243483A206176BE
:100DF00072350A004F5054494F4E533A204C5546D5
:100E000041204D4F5553454B45592045585452416B
:100E10004B455920434F4E534F4C4520434F4D4D6A
:100E2000414E4420343039360A004255494C443A48
:100E30002020284D61722032312032303231290A8F
:100E4000005649443A203078343434442874736866
:100E50006F727429205049443A2030783335333743
:100E60002844616374796C2D4D616E75666F726D87
:100E700020283578372929205645523A20307830B5
:100E80003030310A000A092D2056657273696F6E81
:100E9000202D0A000A092D20436F6E736F6C6520A8
:100EA0002D0A4553432F713A09717569740A6D3AD9
:100EB000096D6F7573656B65790A000A092D204D00
:100EC00061676963202D0A443A09446562756720A9
:100ED0004D65737361676520546F67676C650A5869
:100EE0003A094D6174726978204465627567204DD6
:100EF0006F646520546F67676C65202D2053686FA1
:100F000077206B65797072657373657320696E20E5
:100F10006D617472697820677269640A4B3A094B93
:100F20006579626F61726420446562756720546FF1
:100F300067676C65202D2053686F77206B6579702B
:100F400072657373207265706F72740A4D3A09444A
:100F500065627567204D6F75736520546F67676CA8
:100F6000650A563A0956657273696F6E0A533A09F3
:100F70005374617475730A433A0941637469766105
:100F8000746520436F6E736F6C65204D6F64650AE6
:100F900046312D4631303A095377697463682074BD
:100FA0006F204C6179657220302D39202846313010
:100FB000203D204C30290A302D393A095377697485
:100FC000636820746F204C6179657220302D390A76
:100FD00047524156453A0953776974636820746FE4
:100FE000204C6179657220302028616C7465726EC6
:100FF000617465290A423A094A756D7020746F2040
:10100000426F6F746C6F616465720A4553433A09AD
:101010004A756D7020746F20426F6F746C6F6164DD
:1010200065722028616C7465726E617465290A4569
:101030003A095072696E7420454550524F4D205305
:10104000657474696E67730A4253504143453A09A7
:10105000436C65617220454550524F4D0A000A00AD
:101060002575002E6E6B726F3A20000A0025750000
:101070002E737761705F6261636B736C6173685F1D
:101080006261636B73706163653A20000A002575C5
:10109000002E737761705F67726176655F65736359
:1010A0003A20000A002575002E6E6F5F6775693A59
:1010B00020000A002575002E737761705F72616CE5
:1010C000745F726775693A20000A002575002E73F7
:1010D0007761705F6C616C745F6C6775693A200052
:1010E0000A002575002E737761705F7263746C5F00
:1010F000726775693A20000A002575002E737761C2
:10110000705F6C63746C5F6C6775693A20000A00ED
:101110002575002E636170736C6F636B5F746F5F16
:10112000636F6E74726F6C3A20000A002575002E92
:10113000737761705F636F6E74726F6C5F63617001
:10114000736C6F636B3A20000A0025303258006BD5
:1011500065796D61705F636F6E6669672E72617726
:101160003A20000A002575002E6D6F7573653A20D0
:10117000000A002575002E6B6579626F6172643A12
:1011800020000A002575002E6D61747269783A207E
:10119000000A002575002E656E61626C653A2000BC
:1011A0000A00253032580064656275675F636F6EB0
:1011B0006669672E7261773A20000A00257500641F
:1011C000656661756C745F6C617965723A20003F89
:1011D000000A6D6F7573653A206F66660A000A6DC6
:1011E0006F7573653A206F6E0A000A6B6579626FDE
:1011F0006172643A206F66660A000A6B6579626FF5
:101200006172643A206F6E0A000A6D6174726978C7
:101210003A206F66660A000A6D61747269783A2036
:101220006F6E0A000A64656275673A206F66660A27
:10123000000A64656275673A206F6E0A000A0A4AFE
:10124000756D70696E6720746F20626F6F746C6F5C
:10125000616465722E2E2E2000433E2000436C6593
:101260006172696E6720454550524F4D0A006565B1
:10127000636F6E6669673A0A005B735D004B657960
:10128000626F6172642073746172742E0A005B571E
:101290005D005B535D005B525D005B445D005B4342
:1012A0005D002C03440061006300740079006C0051
:1012B0002D004D0061006E00750066006F00720029
:1012C0006D0020002800350078003700290000005C
:1012D0000E037400730068006F0072007400000059
:1012E0000403090409025B00030100A0FA090400D9
:1012F0000001030101000921110100012240000742
:1013000005810308000A0904010001030000000927
:1013100021110100012281000705820320000A0932
:101320000402000203000000092111010001222231
:1013300000070583032000010705030320000112B5
:10134000011001000000084D443735010001020082
:10135000010631FF0974A1010975150026FF0095EA
:1013600020750881020976150026FF009520750872
:101370009102C005010902A10185020901A1000530
:1013800009190129051500250195057501810295A9
:1013900001750381010501093009311581257F950A
:1013A000027508810609381581257F950175088128
:1013B00006050C0A38021581257F950175088106FE
:1013C000C0C005010980A101850319012AB70015D4
:1013D0000126B700950175108100C0050C0901A117
:1013E00001850419012AA002150126A002950175A4
:1013F000108100C005010906A101050719E029E7D0
:101400001500250195087501810295017508810176
:101410000507190029FF150026FF009506750881AC
:1014200000050819012905950575019102950175B9
:10143000039101C011241FBECFEFDAE0DEBFCDBFA4
:1014400004B603FE27C08091D5049091D604A091E4
:10145000D704B091D8048730904BA740B04BD1F45B
:101460001092D5041092D6041092D7041092D8048A
:1014700014BE84B7877F84BF0FB6F894A895809177
:101480006000886180936000109260000FBEE0E011
:10149000F8E3099511E0A0E0B1E0E0E3FEE602C068
:1014A00005900D92A83BB107D9F724E0A8EBB1E075
:1014B00001C01D92A53DB207E1F70E942A310C94AC
:1014C00016370C940000FF93EF93E091B801F09170
:1014D000B901309709F00995EF91FF910895FC014A
:1014E0008591803011F0EFDFFBCF0895FF27E0E218
:1014F00030E247FF0CC0419597FF09C0EDE26095CF
:10150000709580959095611D711D811D911D27FF1E
:1015100002C0219530E350E2AA27660F771F881F8B
:10152000991FAA1FA41710F0A41B63955A95A9F739
:10153000AA3008F0A95FA05DAF93F395611571051E
:101540008105910541F7ED3211F4EF93F395F21710
:1015500018F43F93F395FBCF8F91B5DFFA95E1F740
:101560000895E991F9918591803021F0853219F043
:10157000AADFF9CF089520E0E89455915532C1F3E0
:10158000503311F4689455915A3348F4505390F302
:10159000220F022E220F220F200D250FF4CF0EF462
:1015A000219589919991533619F3533729F1533580
:1015B00059F1BC0188279927E8945C3621F4899178
:1015C000999168945591543639F446EF7EF077FF3F
:1015D0000DC08FEF9FEF0AC055374AE039F05835FC
:1015E00040E121F0523642E009F00895FF93EF9375
:1015F0007DDFEF91FF91B7CFFF93EF93FC018191D6
:101600008030B9F360DFFBCFFF93EF9368DFF1CF5A
:10161000DF93CF93CDB7DEB72596A3DFCF91DF91D0
:101620000895CF930E94FA0F60E0882339F08CEF81
:1016300090E00E94CB11CF910C94441389E791E084
:101640000E94CB11609171027091720280917302BD
:10165000909174020E944924813059F030F0823018
:1016600071F460E084E691E007C060E080E791E01B
:1016700003C060E08CE691E00E94CB1105C060E001
:101680008AE591E00E94DD110E941B18C82F80FDA1
:1016900003C080E591E002C085E591E060E00E9432
:1016A000CB11C1FD03C086E491E002C08BE491E060
:1016B00060E00E94CB11C2FD03C08CE391E002C048
:1016C00081E491E060E0CF910C94CB1181E008952A
:1016D00081E008950C94680B08950C946C0B1F9393
:1016E000CF93DF9300D000D01F92CDB7DEB74983F0
:1016F0005A836B8330910B0289819A81311114C016
:10170000662359F0222349F00E941223182F682FD4
:1017100089819A810E94BB2203C00E94E622182F71
:1017200069817A81812F04C00E94122369817A81A4
:101730000F900F900F900F900F90DF91CF911F910E
:101740000C943C0CFC01262F4081518162817381F5
:1017500084810C946F0BCF93DF93EC0160E00E94C7
:10176000A20BBE01DF91CF910C946D0B0E94AB24B4
:10177000811102C00E9452250C949D0E0C94990E6A
:1017800008950E948D1D0E94C00B2FEF84E39CE002
:10179000215080409040E1F700C000000C947C266E
:1017A0000F931F93CF93DF93EC0161E00E94A20B94
:1017B0008C01BE010E946A0B882309F442C0BE015D
:1017C000C8010E942E148823E1F1BE01C8010E94C5
:1017D00080148823B1F1BE01C8010E94AB15882393
:1017E00081F18A81882331F101308CE5180751F0AD
:1017F0000F3D8CE51807D9F001151C45D9F40E945E
:10180000C10B1FC080918602C82FC095C170C0FB5C
:1018100080F980938602CC2329F087E393E00E942D
:101820006F0A0FC085E293E00E946F0A0BC00E940E
:10183000522507C0CE01DF91CF911F910F910C94DB
:10184000660BC0E08C2FDF91CF911F910F9108950F
:1018500008950C94280C81E008950C942B0CCF93E0
:10186000C82F0E94290C8C2F0E942D0CCF91089517
:1018700080E090E00895089526E4829FC00111243D
:10188000FC0127E0729FE00DF11D1124E60FF11D10
:10189000EE0FFF1FEF57FE4F859194910895880F2B
:1018A000991FFC01E85BFC4F859194910895CF93BB
:1018B000DF930E943C0C0E946F0DEC018115904556
:1018C00008F041C0C11580E4D80708F0D1C0C83E77
:1018D000D10510F5C03ED10508F0FDC0C83AD105CC
:1018E00078F4C53AD10508F0A2C0C130D10509F499
:1018F000F2C008F4EEC0C430D10508F0ECC0E9C075
:10190000CF3BD10508F49BC0C03CD10508F4E1C031
:10191000CE01805C91099EC0C11590E2D90758F4B0
:10192000C11521E0D20708F0D6C0C03FD10508F4A8
:10193000D0C0D065D0C0C11580E3D80708F08EC0F4
:10194000CE019F7087C0C11595E5D90708F043C047
:10195000C11524E5D20708F0A2C0C11582E5D80759
:1019600008F5C11591E5D90708F085C0CE0174E0EE
:10197000969587957A95E1F783709C2F937021E077
:1019800030E002C0220F331F9A95E2F73C68382BF3
:10199000CF70C695C69580E2C89FE0011124C22B86
:1019A000D32B99C09E01237033278C2F8695869563
:1019B000C115D34508F064C0C1E0D0E002C0CC0F2F
:1019C000DD1F2A95E2F720E2829FC0011124C82B77
:1019D000D92BDC6880C0C11529E5D207A0F4C11558
:1019E00088E5D80708F060C0C11596E5D90708F06A
:1019F00070C08C2F0E94030E8F71C82FD0E0DC2F97
:101A0000CC27D06268C0C1152AE5D20708F451C0BE
:101A1000CE0190568115904208F05BC08D2F8F71DA
:101A20000E94030EDD27D0628F71D82B54C0C55A97
:101A3000D0E0CE5ADE4FC881D0E0D0644CC0C85A46
:101A4000D0E0CC0FDD1FCC5DDE4F0990D881C02DDA
:101A5000D46441C00E944F0CEC013DC0CE019927D7
:101A6000D3FF03C0EC01D86C36C0EC01D06C33C09E
:101A7000DF70D06A30C0DC2FCC27C16FD06A2BC09A
:101A8000C1E0D0E002C0CC0FDD1F2A95E2F720E2D2
:101A9000829FC0011124C82BD92BDA681CC0DC2F0F
:101AA000CC27C46FD06A17C0DC2FCC27C06FD06A98
:101AB00012C08C2F8F700E94030E94E0D695C795AC
:101AC0009A95E1F7CF70D0E0DC2FCC27D069C82BF6
:101AD00002C0C0E0D0E0CE01DF91CF9108958238FE
:101AE000910569F1B0F48133910509F46DC048F4B2
:101AF0008932910509F463C08A32910509F469C0FD
:101B000008958533910509F455C089339105B9F0DD
:101B10000895833E910569F138F4803E9105B1F056
:101B2000823E910509F10895863E9105A9F1873E0F
:101B30009105B9F1843E910509F064C023C020915C
:101B4000C60420FD4FC021FD4DC008958091C604FC
:101B500080FD44C08091C70480FF44C08091C604CA
:101B600084FD42C083EE4DC08091C60482FF38C020
:101B7000F5CF8091C60482FD33C08091C70480FDFB
:101B800031C0ECCF8091C70481FF32C08091C60480
:101B900084FD2AC087EE35C08091C60483FF26C02D
:101BA000F5CF8091C60483FD21C08091C70481FDDB
:101BB0001FC0ECCF8091C60485FD1CC01DC0809164
:101BC000C60485FD19C016C08091C60486FD16C0E6
:101BD00017C08091C60486FD13C010C089E311C0F0
:101BE00082EE0FC080EE0DC080E00BC086EE09C013
:101BF00084EE07C089E205C085E303C08AE201C024
:101C000081E390E008959091C60492FF0DC0282FC3
:101C10002871283019F4877F846006C0282F24712A
:101C2000243011F48B7F886093FF0DC0282F28711A
:101C3000283119F4877E846106C0282F247124314D
:101C400011F48B7E88612091C70420FF0DC0382FCE
:101C50003871383019F4877F816006C0382F3171B0
:101C6000313011F48E7F886021FF0DC0282F28713C
:101C7000283119F4877E816106C0282F2171213116
:101C800011F48E7E886194FD877E0895E82FF0E040
:101C9000E055FD4F80810895CF92DF92EF92FF9241
:101CA0000F931F93CF93DF9387E593E00E946F0A12
:101CB00080EBE82E82E0F82EC0E0D0E092E5C92E5D
:101CC00093E0D92E0AE413E0DF93CF93DF92CF9213
:101CD0000E94080B8FE493E00E946F0AF701819144
:101CE0007F010E9499241F928F931F930F930E944C
:101CF000080B88E493E00E946F0A21968DB79EB787
:101D000008960FB6F8949EBF0FBE8DBFCA30D1059E
:101D1000D9F6DF91CF911F910F91FF90EF90DF9057
:101D2000CF90089580EA8A95F1F7089508950C946C
:101D3000960E0C94970E0C94960E0C949B0EF894A1
:101D4000E82FE295EF70F0E031A1282F2F7081E0AD
:101D500090E001C0880F2A95EAF7982F9095932379
:101D600091A392A1892B82A37894089508950F934B
:101D70001F93CF93DF930E941010809100018091F8
:101D80000001811102C095E001C090E09093BB0278
:101D900085E0891B8093BA0286E60E949F0E87E940
:101DA0000E949F0E86EC0E949F0E84E30E949F0E6D
:101DB00085E30E949F0EC5E5D1E00CE511E0899115
:101DC0000E949F0E0C171D07D1F7E6EAF2E0A0EB88
:101DD000B2E011921D9282E0E03BF807D1F785E076
:101DE0000E94AE0F0E94B60BDF91CF911F910F9111
:101DF0000C941A100E94FA0F882309F18091BA02FC
:101E000090E080559D4F0E942D10811114C080914B
:101E1000BA018F5F8093BA01863078F0E091BA0200
:101E2000F0E0E055FD4F80E090E0119201968530A2
:101E30009105D9F702C01092BA010C94BE0B8091A3
:101E4000BB0290E080559D4F0E9448100C94B60E46
:101E50008F929F92AF92BF92CF92DF92EF92FF92BA
:101E60000F931F93CF93DF938CE5A82E81E0B82EBC
:101E7000C6EAD2E091E6E92E91E0F92E912C01E03C
:101E800010E06501F5018081F894E82FE295EF708C
:101E9000F0E021A18F70A80102C0440F551F8A9560
:101EA000E2F7CA01922F982B91A392A180958923E2
:101EB00082A378940E94920EE5E5F1E020E030E004
:101EC000812C4191A42FA295AF70B0E090968C9197
:101ED00090E04F7002C0959587954A95E2F780FD96
:101EE00007C0802F022E01C0880F0A94EAF701C0B4
:101EF00080E0882A2F5F3F4F2730310511F75FEFD1
:101F0000A51AB50AF60180810E949F0E8881881665
:101F100019F0888281E001C080E0982A2196EA14B5
:101F2000FB0409F0AECF6091BB0270E060557D4FBD
:101F3000292D45E086EA92E00E94AF0F0E94FA0E3A
:101F4000892DDF91CF911F910F91FF90EF90DF903E
:101F5000CF90BF90AF909F908F9008950895FF927B
:101F60000F931F93CF93DF938C01F62ED72FC42F9F
:101F7000222349F081E08093BD010E942F26909397
:101F8000BC018093BB018091BD018823C1F0809189
:101F9000BB019091BC010E944726069780F0EF2D6F
:101FA000FD2FD8014C2F50E0CD01801B910B8417E1
:101FB00095071CF48D918193F7CF1092BD01DF91AD
:101FC000CF911F910F91FF90089588EC9091E300BD
:101FD00097FD0EC0EFE3FCE93197F1F700C0000078
:101FE0008150A1F70E9478331092CC0480E00895CC
:101FF00081E008958091BE01811109C00E94E50F22
:10200000811102C082E001C081E08093BE0181E0C5
:102010009091BE01913009F080E008950C94FA0F80
:102020000E940E10809300010E94FA0F81110C94FF
:10203000211008950E94FA0F811102C00C942710FC
:10204000089561E070E081E091E00C941E1761E07A
:1020500070E081E091E00C942517CF93DF93D82FA7
:10206000C92F0E94BD17892B79F4ED2FFC2F80E03A
:1020700090E0DC01A054BE4F2C9121930196853055
:102080009105B9F781E001C080E0DF91CF9108951B
:1020900020E030E0FC014191CF01F901E054FE4F16
:1020A00040832F5F3F4F25303105A1F70895EF9210
:1020B000FF920F931F93CF93DF93EC017B0164E6B4
:1020C00070E088E70E94E2158C01EC0EFD1ECE1533
:1020D000DF0561F017FD0AC0FE01849164E670E03F
:1020E0000E9439168C012196892B89F30E94BD1616
:1020F000C801DF91CF911F910F91FF90EF9008954C
:102100000895ECEBF2E080E092E0DF019C011D928B
:1021100021503040E1F7F093C104E093C0048FEF09
:102120009FEF9093F3018093F20108950E94801035
:102130008093EE0180FD02C080E801C080E28093C0
:10214000ED010E94DC156DE070E08BE894E00E94E8
:102150005710892B19F08FE694E00EC08091EE01A4
:1021600063E070E081FD0CC08CE694E00E945710A3
:10217000892B79F086E494E00E946F0A80E008954C
:1021800083E494E00E945710892B19F08BE294E0CD
:10219000F3CF6DE070E08EE194E00E945710892B40
:1021A00019F087E094E0E8CF0E943B26DC01CB01E8
:1021B000805A9541AF4FBF4F8093BC049093BD04AC
:1021C000A093BE04B093BF040E94811081E080936D
:1021D000F1018093F0011092EF0108952091ED013B
:1021E00036E0839FC0011124629F800D911D112450
:1021F000811522E0920714F080E090E084549D4F16
:102200009093C1048093C00408952091C00430913C
:10221000C104265B32404091ED01642F70E0C9019A
:102220000E949036481B463010F4240F311D2115B2
:1022300082E0380710F020E030E024543D4F309326
:10224000C1042093C0040895CF93DF938A3011F422
:1022500081E003C08D3029F480E0DF91CF910C94B0
:102260009A11C62F682F8091C0049091C10426E076
:10227000FC01A5ECB1E001900D922A95E1F7603EDA
:1022800030F026E0FC0111922A95E9F70AC0F6E049
:102290006F9FB001112468567B4F46E050E00E94CA
:1022A000BE36C11135C0C091C004D091C10446E012
:1022B00050E0BE0185EC91E00E94C736892BB1F158
:1022C000CC5BD2409E0185E0369527958A95E1F753
:1022D00081E090E0AC0102C0440F551F2A95E2F75F
:1022E0002091F2013091F301242B352B259645E006
:1022F000D695C7954A95E1F702C0880F991FCA95F0
:10230000E2F7822B932B9093F3018093F2010EC09E
:10231000E091C004F091C1049F012A5F3F4F2E1746
:102320003F0709F2808180958193F9CFDF91CF91AA
:102330000C940511CF93E82F2091C0043091C10473
:102340002C5B32404091ED01642F70E0C9010E9486
:102350009036481B842FEE2359F066E00E948436A5
:10236000C82FC150B0F060E080E20E942411F9CF84
:10237000A901480F511D4115524018F080E020E09E
:1023800030E0280F311D24543D4F3093C104209379
:10239000C004CF9108951F93CF93DF93EC01162FC4
:1023A000FE018491882329F0612F0E942411219637
:1023B000F7CFDF91CF911F9108950E94CB1181E05B
:1023C0000C949A118091F101882321F10E943B26FF
:1023D000DC01CB01805A9541AF4FBF4F8093BC04C5
:1023E0009093BD04A093BE04B093BF048091F0010C
:1023F000811110C062E070E08EEA93E00E945710F5
:10240000892B29F08AE993E00E946F0A03C081E0DA
:102410008093F0018091F00108956F927F928F92E6
:102420009F92AF92BF92CF92DF92EF92FF920F9363
:102430001F93CF93DF938091F101882309F4F7C0B4
:102440002091F2013091F3012115310509F4EFC01B
:102450008091EF018111EBC061E070E0082F10E086
:102460003B01082E02C0660C771C0A94E2F7A90112
:1024700046215721452B11F48F5FF0CF9091EE014B
:10248000980165E0220F331F6A95E1F790FD12C0B5
:102490008295880F807680930B01220F232F221FB5
:1024A000330B319520930E01815E80930C011092C5
:1024B0000F0112C045E0369527954A95E1F7220FA6
:1024C000220F220F20930B0110920E01295F2093FF
:1024D0000C0183E080930F0124E630E047E050E0F8
:1024E00069E071E088E70E946916892B19F084EE93
:1024F00093E07EC08091EE0180FD16C0A80195E0BA
:10250000440F551F9A95E1F744545D4F04E610E0DF
:1025100020E230E060E488E70E949016892B09F4FD
:1025200077C08BEC93E064C080E2EBECF1E0DF017C
:102530001D928A95E9F785E0000F111F8A95E1F752
:10254000AAE6B1E046E651E0992493942D91EA0180
:102550008991AE01B801680F711D64547D4F30E060
:1025600025533E4FF90197E07F01E21AF30AA92CA7
:1025700001C0AA0CEA94EAF77B01B12CE70189912A
:102580007E018A21892E8B18D82DD770CD2E0D2E45
:10259000000CDD08C82F01C0CC0FDA95EAF7D19402
:1025A000C194D108D7E0CD22DD2401C08695CA941C
:1025B000EAF78C2BD0808D298083B39488E0B81201
:1025C000DDCF915031969F3F79F6C1E0AE36BC0722
:1025D00009F0BCCF04E610E020E230E04BEC51E023
:1025E00060E488E70E949016892B91F080EB93E0DD
:1025F000DF91CF911F910F91FF90EF90DF90CF90DF
:10260000BF90AF909F908F907F906F900C946F0AC7
:102610000E94E211E301C095D0958091F201909162
:10262000F301C823D923D093F301C093F201DF91C2
:10263000CF911F910F91FF90EF90DF90CF90BF90BF
:10264000AF909F908F907F906F9008958091F1014F
:102650009091F0018823A9F0992389F062E070E05D
:1026600088E993E00E945710892B39F083E893E0C2
:102670000E946F0A8091F00108951092F0019091EC
:10268000F00181E089270895CF93DF93CDB7DEB7BE
:1026900029970FB6F894DEBF0FBECDBF9091F10120
:1026A0008091EF01992381F12091F2013091F301A2
:1026B000232B41F5811126C0198287E28A831B8270
:1026C0008091EB018C838091EC018D8380911001CE
:1026D0008E831F828FEF88878FE2898724E630E020
:1026E00049E050E0BE016F5F7F4F88E70E946916A6
:1026F000892B29F086E693E00E946F0A03C081E0EF
:102700008093EF018091EF0129960FB6F894DEBF18
:102710000FBECDBFDF91CF9108950F931F9380918E
:10272000F101882329F160E080E00E94EE100E9410
:10273000110B0E940D128091F0018823C9F00E94B4
:102740003B260091BC041091BD042091BE04309141
:10275000BF04DC01CB01801B910BA20BB30B8F3F9D
:102760009F4FAF4FBF4720F41F910F910C9426133A
:102770001F910F9108950F931F93CF93DF93C42F51
:10278000D22FFC0182818823C9F04093F6010E9478
:102790002F269093F5018093F40180E28C0F88300E
:1027A00008F057C0C77081E001C0880FCA95EAF7EA
:1027B000DF91CF911F910F910C94FD1A8091F6013A
:1027C000481330C08091F4019091F5010E94472692
:1027D000883C910538F510E21D0FCD17B9F080E265
:1027E0008C0F883040F4C77081E001C0880FCA9513
:1027F000EAF70E94041B183028F581E09D2F97709E
:1028000001C0880F9A95EAF70E94FD1A802F0E9456
:10281000EA1A1830F0F4D77081E001C0880FDA9519
:10282000EAF70AC080E28C0F883098F4C77081E024
:1028300001C0880FCA95EAF7DF91CF911F910F91E0
:102840000C94041B802FDF91CF911F910F910C945A
:10285000EA1ADF91CF911F910F9108950F939C0178
:10286000CB01243F4CE5340731F188F4293DFCE5E8
:102870003F07D9F02A3D4CE5340779F1283D3C4526
:10288000A9F506E221EE41EE68ED7CE52BC0263F7E
:10289000FCE53F07E1F0A8F0273F3C4539F507E2AA
:1028A00025EE46EE67EF7CE51DC007E225EE45EE1E
:1028B00069ED7CE517C006E221EE40EE64EF7CE5B1
:1028C00011C007E225EE44EE65EF7CE50BC006E2A1
:1028D00021EE42EE66EF7CE505C008E221E045EE20
:1028E0006AED7CE50E94BB1380E008C0FC01828198
:1028F000882319F01092F60101C081E00F9108952C
:10290000CF93DF93EC01FB018281882309F41FC17F
:10291000C230FCE5DF0708F41BC1C6319CE5D907CE
:1029200038F09E012B5F3C452930310508F010C17D
:102930000E94BE249093C7048093C604C031ECE586
:10294000DE0709F4C3C008F041C0C8308CE5D807E1
:1029500009F49AC0F0F4C430ECE5DE0709F487C04E
:1029600068F4C2308CE5D80709F477C0C330DC4581
:1029700009F0E3C08091C604826076C0C630ECE501
:10298000DE0709F46EC008F07BC08091C604886041
:102990006BC0CC308CE5D80709F485C068F4CA3028
:1029A000ECE5DE0709F474C008F079C00E948D1DC3
:1029B0008091C604806858C0CE308CE5D80709F4F1
:1029C00076C008F07FC08091C6048BC0CC3FECE598
:1029D000DE0709F44FC018F5C3318CE5D80709F4B8
:1029E0007DC078F4C131ECE5DE0709F473C0C23173
:1029F000DC4509F0A2C00E948D1D8091C6048F772E
:102A000033C0C5318CE5D80709F472C008F486C01C
:102A1000CB3FDC4509F091C08091C7043EC0C11591
:102A2000FDE5DF0709F45FC058F4CE3F9CE5D90708
:102A300009F444C008F43FC08091C70482602DC0EF
:102A4000C230FDE5DF0709F475C008F45DC0C3308E
:102A5000DD4509F072C080E06EC08091C6048160DF
:102A600003C08091C60480618093C60466C08091D3
:102A7000C60411C08091C70482608093C7045DC002
:102A80008091C6048062F0CF8091C6048064ECCF50
:102A90008091C60488608460E7CF8160EECF80912A
:102AA000C6048E7FE1CF8091C6048D7FDDCF8091FB
:102AB000C604877FD9CF8091C70418C08091C7040E
:102AC0008D7FDBCF8091C6048F7ECECF8091C604F0
:102AD0008F7DCACF8091C6048F7BC6CF8091C604FC
:102AE000877F8B7FC1CF8091C7048D7F8E7FC5CFBD
:102AF0008091C60482FB222720F991E0922790FB67
:102B000082F990FB83F9B0CF8091C704982F9095FC
:102B100091708E7F892B90FB81F9AFCF0E948D1D24
:102B20008091C60487FB222720F991E0922790FB31
:102B300087F99ACF81E00E9454258091C604909134
:102B4000C7040E94CF240E948D1D80E001C081E057
:102B5000DF91CF910895CF93DF9386319C4541F566
:102B6000EB010E949323982F8A81209111013091CB
:102B70001201882379F09A7A81E009F480E0809349
:102B8000F701911102C069E201C065E3C9010E9429
:102B90009B250AC08091F701811102C069E201C042
:102BA00065E3C9010E949D250E94E12380E001C0E8
:102BB00081E0DF91CF9108951092B9008CE080936D
:102BC000B8000895EF92FF920F931F93CF93DF9376
:102BD000182FEB011092BC0084EA8093BC000E9485
:102BE0002F267C018091BC0087FD0EC0CF3F8FEF68
:102BF000D807C1F30E942F268E199F098C179D07B5
:102C000088F38EEF9FEF2EC08091B900887F8830C7
:102C100041F08091B900887F803119F08FEF9FEFEC
:102C200021C01093BB0084E88093BC000E942F2633
:102C30008C018091BC0087FD0CC0CF3F8FEFD8077F
:102C4000C1F30E942F26801B910B8C179D0788F3E0
:102C5000D8CF8091B900887F883111F08034F1F6A7
:102C600080E090E0DF91CF911F910F91FF90EF9066
:102C700008950F931F93CF93DF93EB018093BB00D5
:102C800084E88093BC000E942F268C018091BC00B8
:102C900087FD0EC0CF3F8FEFD807C1F30E942F26CC
:102CA000801B910B8C179D0788F38EEF9FEF0CC054
:102CB0002091B900287F81E090E0283211F480E073
:102CC00090E0919581959109DF91CF911F910F919E
:102CD0000895CF92DF92EF92FF920F931F93CF93BD
:102CE000DF936B018A017901B9010E94E215E601C7
:102CF0000C0D1D1DC017D10761F424E92093BC0001
:102D0000DF91CF911F910F91FF90EF90DF90CF90C7
:102D1000089597FDF2CFB70189910E943916EACF45
:102D2000CF92DF92EF92FF920F931F93CF93DF9397
:102D3000C62F6A017901B8010E94E21597FD11C002
:102D4000B8018C2F0E943916E601EC0CFD1CCE1543
:102D5000DF0539F097FD05C0B80189910E94391649
:102D6000F6CF24E92093BC00DF91CF911F910F9102
:102D7000FF90EF90DF90CF90089584E98093BC009E
:102D800008958EE14A9B02C08150E1F74A9BFECF35
:102D900008955A9880E28A95F1F75A9A0895FC01AD
:102DA0002AE02A95F1F728E090E080E031E040E168
:102DB0004A95F1F7880F4A9B02C08160932700C0B3
:102DC000000040E14A95F1F7215089F720E12A956A
:102DD000F1F729B100C0000030E13A95F1F722FB8C
:102DE000222720F992272081920F90830895EF9255
:102DF000FF920F931F93CF93DF931F92CDB7DEB750
:102E000019828C017C01E60EF11C0E151F0551F094
:102E10000E94C116CE0101960E94CF16F80181933F
:102E20008F01F3CF81E09981911180E00F90DF91C4
:102E3000CF911F910F91FF90EF9008959093F9011A
:102E40008093F801529A5A9A08959093F9018093C9
:102E5000F80152985A9AEA9AE9E6F0E080818F7C6C
:102E600080830895615091E001C0990F6A95EAF757
:102E700020E031E0992361F0492F482319F05A9A54
:102E8000232701C05A9840E24A95F1F79695F2CF70
:102E9000222311F05A9A01C05A9880E28A95F1F7DC
:102EA0005A980895FF920F931F93CF93DF93EC01ED
:102EB0008C01060F111DC017D10741F0F9900E9437
:102EC000C91668E08F2D0E943217F5CFDF91CF91A0
:102ED0001F910F91FF9008951F920F920FB60F92BE
:102EE00011242F933F934F935F936F937F938F930F
:102EF0009F93AF93BF93CF93DF93EF93FF935A9832
:102F0000529AC091F801D091F9016D81662321F0A8
:102F10008E819F810E9452170E94C91680E18A9576
:102F2000F1F75A9852985A9A80E18A95F1F76A8196
:102F3000662351F08B819C810E94F716E881F9810C
:102F4000811104C082E003C0E881F98188E08083B8
:102F50000E94C116FF91EF91DF91CF91BF91AF9188
:102F60009F918F917F916F915F914F913F912F91A1
:102F70000F900FBE0F901F901895CF93DF93C091C5
:102F8000F801D091F901F894529A5A9885E08A95FF
:102F9000F1F7000052985A9A80E28A95F1F74A9B1D
:102FA0000AC0529A5A9AE881F98181E08083789424
:102FB00081E090E02CC06D81662381F08E819F813D
:102FC0000E94F71681110AC0529A5A9AE881F98133
:102FD00082E08083789482E090E019C00E94C1165C
:102FE00080E28A95F1F75A98529A80E18A95F1F732
:102FF0006A81662321F08B819C810E9452170E9476
:10300000C916E881F9811082789480E090E0DF9120
:10301000CF9108959093FF018093FE010895E09170
:10302000FE01F091FF01309721F00190F081E02D39
:10303000099480E00895E091FE01F091FF0130973E
:1030400011F480E008950190F081E02D0995089534
:10305000EF92FF920F931F93CF93DF93E091FE01C6
:10306000F091FF013097B1F18C010280F381E02DE6
:1030700009958091860282FF2DC080FF04C080EEFA
:1030800099E00E946F0AE80118E08AEDE82E89E0D5
:10309000F82E8091860280FF0BC088811F928F934B
:1030A000FF92EF920E94080B0F900F900F900F90DD
:1030B000115021961111EDCF8091860280FF0AC038
:1030C00088ED99E0DF91CF911F910F91FF90EF90E4
:1030D0000C946F0ADF91CF911F910F91FF90EF90A9
:1030E0000895E091FE01F091FF01309739F022E060
:1030F000DC012C930480F581E02D09940895209142
:10310000FC013091FD012817390771F09093FD0102
:103110008093FC01E091FE01F091FF01309721F0D6
:103120000680F781E02D099408952091FA013091ED
:10313000FB012817390771F09093FB018093FA0186
:10314000E091FE01F091FF01309721F00084F185BC
:10315000E02D0994089585B7806885BF85B780689C
:1031600085BF08950C94FA0F08950C94B4180C942C
:10317000B4180C94B7180C94B4180C94BB180C9495
:10318000B4180E94AB180E94BF180C94BD180E947E
:1031900026260E94B70E80E00E9496100E948D267F
:1031A0000C94B918CF93C82F8091860282FF1EC05D
:1031B00080FF04C089EF99E00E946F0A8091860227
:1031C00080FF0CC01F92CF9384EF99E09F938F9361
:1031D0000E94080B0F900F900F900F908091860225
:1031E00080FF04C082EF99E00E946F0A8C2FCF917C
:1031F0000C942F0C9F92AF92BF92CF92DF92EF92DE
:10320000FF920F931F93CF93DF93CDB7DEB72A972B
:103210000FB6F894DEBF0FBECDBF0E94B5180E9456
:10322000B4180E94280FC82E0E94B218811111C034
:103230008FEF89838A831B820E942F268160782FDB
:103240009D838C8349815A816B818D810E949F1956
:1032500040C081E0A82E82E0B82E00E010E0902E61
:10326000802F0E94460EE82EF501D1905F01D826EE
:1032700031F40F5F1F4F0A30110589F7D9CF8091C4
:10328000860281FD0E944C0E80E0FF24F3949D2D68
:103290009F21D1F08E839F82EF2081E009F480E0AE
:1032A00088870E942F268160782F9A8789874E8190
:1032B0005F8168858A850E949F19F801EF5FFD4F45
:1032C0008081F826F08205C08F5FFF0C8730F9F609
:1032D000D0CF0E948D13C1100E94E2110E94BE281F
:1032E0000E940F18909100028917B9F00E940F18E0
:1032F000809300022A960FB6F894DEBF0FBECDBFB2
:10330000DF91CF911F910F91FF90EF90DF90CF90C1
:10331000BF90AF909F900C94D2182A960FB6F89455
:10332000DEBF0FBECDBFDF91CF911F910F91FF90F8
:10333000EF90DF90CF90BF90AF909F900895CF9384
:10334000DF93CDB7DEB72B970FB6F894DEBF0FBE75
:10335000CDBF4F83588769877A878B87DE011196A7
:1033600086E0FD0111928A95E9F785E0FE01379626
:1033700001900D928A95E1F749815A816B817C8198
:103380008D819E810E9480202B960FB6F894DEBF1F
:103390000FBECDBFDF91CF910895FC018081918157
:1033A0000E9454230895CF93882309F4A9C0C82FFD
:1033B0008238C1F40E940F1881FDA2C069E3809198
:1033C0001101909112010E949B250E94E1232FEF91
:1033D00081EE94E0215080409040E1F700C0000071
:1033E00069E319C0833801F50E940F1880FD88C079
:1033F00063E580911101909112010E949B250E942A
:10340000E1232FEF81EE94E0215080409040E1F7DE
:1034100000C0000063E580911101909112010E94AB
:103420009D25CF910C94E1238438C1F40E940F189C
:1034300082FD66C067E480911101909112010E94A3
:103440009B250E94E1232FEF81EE94E021508040E4
:103450009040E1F700C0000067E4DDCF8CEF8C0FF7
:10346000813AF8F48C2F0E94C02D811149C06C2F35
:1034700080911101909112010E946525882349F0E5
:103480006C2F80911101909112010E949D250E9444
:10349000E1236C2F80911101909112010E949B25D4
:1034A000C0CF80E28C0F883048F4C77081E001C043
:1034B000880FCA95EAF70E949623B3CFEBE5EC0F8D
:1034C000E33040F4F0E0E456FE4F808190E0CF918D
:1034D0000C947F18E8E5EC0FE73150F4F0E0EE0FC4
:1034E000FF1FE259FE4F80819181CF910C94951876
:1034F000C03F30F08C2F0E943127CF910C941E28B2
:10350000CF910895882309F464C0823879F40E9429
:103510000F1881FF5EC069E3809111019091120143
:103520000E949B250E94E12369E310C08338B1F417
:103530000E940F1880FF4DC063E5809111019091AA
:1035400012010E949B250E94E12363E580911101F5
:10355000909112010E949D250C94E123843879F406
:103560000E940F1882FF35C067E48091110190918D
:1035700012010E949B250E94E12367E4E7CF9CEFA4
:10358000980F913A10F4682FE1CF90E2980F98309D
:1035900050F4877091E001C0990F8A95EAF7892F5E
:1035A0000E949C23D9CF9BE5980F933020F480E0B4
:1035B00090E00C947F1898E5980F973120F480E004
:1035C00090E00C949518803F20F00E9499270C946D
:1035D0001E280895CF93C82F0E94D319C93349F4E8
:1035E0002FEF87EE93E0215080409040E1F700C03C
:1035F00000008C2FCF910C94821A882321F00E9416
:1036000096230C94E1230895882321F00E949C23A3
:103610000C94E1230895CF92DF92EF92FF920F93E3
:103620001F93CF93DF937C01062FC72FFC011581D9
:1036300012951F70D281D1110E94B3230E948C2356
:10364000882399F0DD2389F08C2F807F803421F04E
:1036500080E2800F883048F082E00E942B240E9494
:103660008C2391E0D82ED92601C0D12CCC2EC29427
:103670008FE0C8228C2D90E0FC01EA5AFF4F0C9499
:10368000B8368C2F807FCF70882311F0C295C07F11
:10369000DD2399F0CC2309F48DC180E2800F8830BE
:1036A00010F0011104C08C2F0E94962303C08C2FB0
:1036B0000E94A6230E94E1237DC1802F0E94821ACE
:1036C000CC2309F49CC180E2800F883010F00111F6
:1036D00004C08C2F0E949C2303C08C2F0E94AC231B
:1036E0000E94E1238CC18C2F807FCF70803211F03B
:1036F000C295C07F002319F00130C9F022C0DD233C
:1037000071F0112341F0113031F40E94C6238C2B4B
:103710000E94CE2374C10E94C6238C2B1DC011238E
:1037200019F0113009F46BC10E94D72325C0DD23A5
:1037300021F0163008F063C10EC0153008F05FC1EB
:103740001BC0DD2361F0112331F0F701858180FF7B
:1037500031C18F7085838C2F0E94FD1A50C11123B7
:1037600059F0093309F037C1FFEF27EE83E0F1503C
:1037700020408040E1F72DC18C2F0E94041B3FC1E7
:103780008C2F86958695837019F0813061F037C152
:10379000DD2321F0802F9C2F937002C080E090E009
:1037A0000E947F1834C1DD2321F0802F9C2F93705D
:1037B00002C080E090E00E94951829C1802FDD238F
:1037C00019F00E94312702C00E9499270E941E28EA
:1037D0001EC18C2F837009F045C0D11114C1402F38
:1037E000429546954770440F440F602F6F70862FA7
:1037F00090E0A0E0B0E0042E04C0880F991FAA1F3B
:10380000BB1F0A94D2F704FF10C00FE010E020E0C5
:1038100030E004C0000F111F221F331F4A95D2F75A
:10382000009510952095309503C000E010E09801B8
:10383000C695C695C370BC01CD01602B712B822B40
:10384000932BC23049F058F4C13019F00E94D121B5
:10385000DAC00E94BF21D7C00E94E321D4C00E94D9
:10386000BD21D1C0DD2319F08C2F817001C0869558
:10387000882309F4C8C0402F429546954770440FED
:10388000440F602F6F70862F90E0A0E0B0E0042E10
:1038900004C0880F991FAA1FBB1F0A94D2F704FF08
:1038A00010C00FE010E020E030E004C0000F111F56
:1038B000221F331F4A95D2F7009510952095309519
:1038C00003C000E010E09801C695C695C370BC0126
:1038D000CD01602B712B822B932BC23049F058F411
:1038E000C13019F00E9496228EC00E9484228BC0A3
:1038F0000E94A82288C00E94F72185C0CF70DD23D6
:1039000039F08C2F0E941D22802F0E94FD1A7BC04F
:10391000802F0E94041B8C2F0E943E2274C0023F05
:1039200001F128F4003F41F0013FA1F03FC0033F07
:10393000F9F0043F39F13AC0DD2341F0153008F0C9
:103940005EC08C2F8F710E94632259C0163008F020
:1039500056C0F7CFDD2339F08C2F8F710E941D22C6
:103960004EC0DD23C9F38C2F8F710E943E2247C0C9
:10397000DD2329F08C2F8F710E94082240C00E9405
:1039800003223DC0DD2349F0CF718C2F0E941D2200
:1039900063E08C2F0E94162432C081E00E942B2409
:1039A000123068F182E00E942B2429C0DD2331F01F
:1039B000112391F2802F0E94D31921C0112399F273
:1039C000093349F49FEFE7EEF3E09150E040F04017
:1039D000E1F700C00000802F0E94821A10C04C2F17
:1039E0004F70602FC7010E94380C0E942E210FC01B
:1039F0004C2F4F70602FC7010E943B0C08C088EF0E
:103A00008C0D843020F40E940F180E942F0CDD20B2
:103A1000C9F00E94882380FD15C0F70112820E9420
:103A200082230E941D22C7010E94431D0E948223FF
:103A3000DF91CF911F910F91FF90EF90DF90CF908A
:103A40000C943E22DF91CF911F910F91FF90EF9048
:103A5000DF90CF9008950F931F93CF93DF93EC01E6
:103A6000688179818A810E945F238C010E94BA2239
:103A70000E94AB21B801CE010E940B1BDF91CF91B8
:103A80001F910F910895CF93DF93EC019881898165
:103A90002B813C81232B31F08F3F31F481E09F3F1C
:103AA00019F403C081E001C080E080FD19C0CE019F
:103AB0000E94D00B81110CC00E948C23882381F0BE
:103AC0008A81882369F082E0DF91CF910C942B24C6
:103AD000CE010E942B1DCE01DF91CF910C94AB0B38
:103AE000DF91CF9108950E94B3230E94C3230E94C7
:103AF000E1230E94D1290E941E2880E090E00E94CC
:103B00007F1880E090E00C949518809111019091BD
:103B100012010E949F250C94731D0E94A3230C94F4
:103B2000851DE92FE295EF704E2F50E0FA01329794
:103B3000EE30F105B0F4EA59FF4F0C94B836803FEF
:103B400091F018F4883E68F40EC0843F51F40BC025
:103B5000883E48F0813F29F406C093FB882780F90E
:103B6000089580E0089581E008950E9454230E9402
:103B7000911D0895CF93DF9300D000D01F92CDB751
:103B8000DEB70F900F900F900F900F90DF91CF91B5
:103B90000895CF93DF9300D000D000D0CDB7DEB72B
:103BA00026960FB6F894DEBF0FBECDBFDF91CF9142
:103BB00008951F93CF93DF93C0910C0216E080917C
:103BC0000D02C81799F0D0E01C9FF0011D9FF00D69
:103BD0001124E25FFD4F40815181628173818481B4
:103BE00095810E94C91D2196C770E9CFDF91CF91C1
:103BF0001F91089540913E0250913F026091400212
:103C00007091410280914202909143020C94C91D2F
:103C100020910C0290910D0256E02917A9F030E096
:103C2000529FF001539FF00D1124E25FFD4F71810F
:103C3000761306C07081781303C07281741306C0B6
:103C40002F5F3F4F2770E9CF80E0089581E008950E
:103C50000F931F93CF93DF938091430282958F70D0
:103C600009F05DC080914002882309F458C080911A
:103C70000C0210910D0260913E0270913F02C091C2
:103C80004102D091420291E06F3F09F090E0292F6C
:103C900006E0811709F443C0209721F07F3F21F00F
:103CA00030E003C031E001C0322F90E030FD34C07D
:103CB000089FF001099FF00D1124DF01A25FBD4FA5
:103CC00011963C911197371327C03C91361324C0AD
:103CD00012963C91129731111FC013964D915C9131
:103CE00014974C1B5D0B483C5105B0F48091430286
:103CF0008F70806180934302ED5EFD4F80818F70F5
:103D0000806180838EE392E00E94431DDF91CF911A
:103D10001F910F910C94D91D01968770BACFDF9136
:103D2000CF911F910F9108958F929F92AF92BF9262
:103D3000CF92DF92EF92FF920F931F93CF93DF9377
:103D4000CDB7DEB761970FB6F894DEBF0FBECDBF1B
:103D50008C0185E0F801DE011D9601900D928A9597
:103D6000E1F7D801DC901196EC9011971296CC9067
:103D700090913E0220913F024091410250914202B7
:103D80004115510531F02F3F31F481E09F3F19F487
:103D900003C081E001C080E080FD81C1F801838023
:103DA00094808EE3A82E82E0B82EF0904002B401F9
:103DB000641B750BFF2009F418C180914302382F52
:103DC000307F683C710508F0D1C031118AC0E21221
:103DD00014C0D91212C0FC2CC1100FC08F708061AA
:103DE000809343020E94FA1DC5010E94431D8091E9
:103DF0004302D80115968C936FC18114910439F058
:103E0000BFEFEB1206C081E0DB1203C003C081E00C
:103E100001C080E080FD03C081E08C2502C080E00D
:103E200090E080FF10C04C2D6E2D8D2D0E94081E3D
:103E3000882349F08EE392E00E94431DEEE3F2E016
:103E400086E0DF01A4C0892839F0BFEFEB1206C07D
:103E500081E0DB1203C003C081E001C080E080FD8F
:103E600003C081E08C2502C080E090E0E82FE17083
:103E7000BE2E80FF2CC04C2D6E2D8D2D0E94081E55
:103E8000F82E811124C0DD86EE868D859E850E94E8
:103E90005423292F22952F70223018F0243090F4CB
:103EA00005C09F7059F0811109C016C19F7031F093
:103EB000D80115969C91907F09F40EC1805E8830E0
:103EC00008F40AC1C8010E94431DFB2C05C1FC2C4B
:103ED000CC2009F401C180914302816080934302A8
:103EE0005BC0E21206C0D91204C0C11002C0F801C2
:103EF000A0C0DD86EE868D859E850E94B51D882337
:103F000079F1CC2069F120914302822F82958F7044
:103F100090E0029774F080913E0290913F02988762
:103F20008F8319869B868A862C87CE0107960E94EE
:103F3000431D86E0F801AEE3B2E001900D928A9550
:103F4000E1F70E94281E0E94FA1D0DC0E21631F111
:103F5000DD86EE868D859E850E94B51D81112DC062
:103F6000C8010E94431DFF24F394B6C03111EECF67
:103F7000782D998A888A4D2D5E2D6C2D89890E9415
:103F8000BA1D8EE392E00E94431D86E0D5011D928A
:103F90008A95E9F70E94FA1DF12C9EC0D912D8CF5C
:103FA000C110D6CFF8018583C8010E94431D86E069
:103FB000D5011D928A95E9F78FC0CC2089F2209116
:103FC0004302822F82958F7090E002970CF4B1CF5C
:103FD00080913E0290913F029A8389831B829D8249
:103FE0008C822E83CE010196A2CF683C710508F029
:103FF00047C0FC2CCC2009F4B3CFE21230C0D91258
:104000002EC02091430220FD21C0822F82958F7007
:10401000482F50E041155105C9F0F80125834F3074
:10402000510541F08F5F982F9295907F822F8F706E
:10403000892B8583C8010E94431D86E0F801AEE309
:10404000B2E001900D928A95E1F744C086E0F80154
:10405000AEE3B2E001900D928A95E1F73DC0DD86B6
:10406000EE868D859E850E94B51D811162CF80915F
:104070004302816080934302C8010E94431D2CC00B
:10408000782D998A888A4D2D5E2D6C2D89890E9404
:10409000BA1D86E0D5011D928A95E9F71BC0CC2098
:1040A00009F45ECFDD86EE868D859E850E94B51D66
:1040B000F82E882309F454CF86E0F801AEE3B2E08D
:1040C00001900D928A95E1F78EE392E00E94CD195E
:1040D0000E94281E0E94FA1D8F2D61960FB6F8943B
:1040E000DEBF0FBECDBFDF91CF911F910F91FF902B
:1040F000EF90DF90CF90BF90AF909F908F900895FA
:104100001F93CF93DF93CDB7DEB72C970FB6F894FC
:10411000DEBF0FBECDBF4F83588769877A878B87F5
:104120009C87CE0107960E94941E8823D1F09F8120
:1041300088852A853B85232B31F08F3F31F481E040
:104140009F3F19F403C081E001C080E080FD47C0BB
:104150004F81588569857A858B859C850E94C91D0C
:104160003EC086E0FE013796DE01119601900D9269
:104170008A95E1F7FF81E8856A857B856115710580
:1041800031F0EF3F31F481E0FF3F19F403C081E0EB
:1041900001C080E080FD23C020910D0230E0C90104
:1041A00001968770992740910C0250E0841795077B
:1041B000F1F1F983EA837D836C8396E0929FD001CD
:1041C000939FB00D1124A25FBD4FFE013196019067
:1041D0000D929A95E1F780930D020E94D91D16E089
:1041E00080910C0290910D02891771F1189FC00106
:1041F0001124825F9D4F0E94941E882329F1E09133
:104200000C021E9FF0011124E25FFD4F408151819D
:1042100062817381848195810E94C91D80910C0205
:1042200090E001968770992780930C02D9CF0E9465
:104230008D1D10920D0210920C02EEE3F2E086E06A
:10424000DF011D928A95E9F72C960FB6F894DEBF30
:104250000FBECDBFDF91CF911F910895EF92FF92D6
:104260000F931F93CF93DF938C01892B09F46CC0BC
:10427000F12CEE24E394E8012196F801849184372F
:1042800040F4843008F051C0813081F0823019F15F
:104290005BC0853709F444C0A8F19CE7980F9037BC
:1042A00008F052C08F770E94821A41C00E5F1F4FE4
:1042B000FE01849190E2980F983050F48770FE2DA3
:1042C00001C0FF0F8A95EAF78F2F0E94B62314C012
:1042D0000E94D3192DC00E5F1F4FFE01849190E202
:1042E000980F983060F48770FE2D01C0FF0F8A95FB
:1042F000EAF78F2F0E94BC230E94E12319C00E947D
:10430000821A16C00E5F1F4FFE01C491CC2381F0AC
:104310008FE99FE00197F1F700C00000C150F6CF90
:104320000E5F1F4FFE01F49003C00E94D3198E014F
:104330008F2D882309F49FCFEFE9FFE03197F1F744
:1043400000C000008150F5CFDF91CF911F910F91F8
:10435000FF90EF900895089508950C94AC210C946B
:10436000AD210E94AF216093750270937602809315
:104370007702909378020C94731D0C94B1210F93E3
:104380001F9300917502109176022091770230916F
:104390007802602B712B822B932B1F910F910C9421
:1043A000B1210F931F930091750210917602209115
:1043B00077023091780260237123822393231F9127
:1043C0000F910C94B1210F931F93009175021091DE
:1043D0007602209177023091780260277127822738
:1043E00093271F910F910C94B1210C94AC210E9442
:1043F000F52160937102709372028093730290931F
:1044000074020C94731D60E070E0CB010C94F721F2
:104410000F931F9341E050E060E070E08A019B0140
:1044200004C0000F111F221F331F8A95D2F7C90144
:10443000B8011F910F910C94F7210F931F9341E046
:1044400050E060E070E004C0440F551F661F771F06
:104450008A95D2F78091710290917202A0917302B5
:10446000B09174028A019B01082B192B2A2B3B2B3C
:10447000C901B8011F910F910C94F7210F931F935D
:1044800041E050E060E070E004C0440F551F661F3B
:10449000771F8A95D2F740955095609570958091D9
:1044A000710290917202A0917302B09174028A011C
:1044B0009B01082319232A233B23C901B8011F911B
:1044C0000F910C94F7210F931F9341E050E060E0AF
:1044D00070E004C0440F551F661F771F8A95D2F7FE
:1044E0008091710290917202A0917302B091740256
:1044F0008A019B01082719272A273B27C901B801F0
:104500001F910F910C94F7210F931F93009171024B
:10451000109172022091730230917402602B712B02
:10452000822B932B1F910F910C94F7210F931F93C4
:104530000091710210917202209173023091740205
:1045400060237123822393231F910F910C94F721F1
:104550000F931F93009171021091720220917302C8
:104560003091740260277127822793271F910F9142
:104570000C94F721089527E0929F800D1124E82FD5
:10458000E695E695E695877051E001C0550F8A954E
:10459000EAF785E0E89FF0011124EC5BFD4F20E095
:1045A00030E070E04081CB01022E02C096958795E5
:1045B0000A94E2F78170819584278523842781936B
:1045C0002F5F3F4F2530310569F7089527E0929F0F
:1045D000800D1124682F669566956695982F9770C3
:1045E00085E0689FB001112440E050E080E0FB01CD
:1045F000E40FF51FEC5BFD4F208130E0092E02C077
:10460000369527950A94E2F721703327042E01C0CE
:10461000220F0A94EAF7822B4F5F5F4F4530510516
:1046200031F70895BF92CF92DF92EF92FF920F93EE
:104630001F93CF93DF938C01C0907102D0907202D0
:10464000E0907302F090740280917502909176026E
:10465000A0917702B0917802C82AD92AEA2AFB2AC7
:10466000CFE1D0E0D701C6010C2E04C0B695A795C6
:10467000979587950A94D2F780FD04C0219790F70B
:10468000B12C07C0BC2EB8018C2F0E94570C01978B
:10469000A9F38B2DDF91CF911F910F91FF90EF9098
:1046A000DF90CF90BF900895CF93DF93EC010E94ED
:1046B0001223BE010E94570CDF91CF9108951F93E2
:1046C000CF93DF93EB0190910B02992321F0CB0163
:1046D0000E94542313C0882349F0CB010E94122367
:1046E000182F682FCE010E94BB2204C0CB010E946C
:1046F000E622182FBE01812F0E94570CDF91CF9127
:104700001F910895809179028595859585950895E5
:10471000809179028770089590917902977081E075
:1047200009F480E0089580918502089590918502B2
:10473000892B809385020895809590918502892325
:1047400080938502089510928502089590918402C5
:10475000892B809384020895809590918402892307
:1047600080938402089510928402089590918302A8
:10477000892B8093830208958095909183028923E9
:1047800080938302089510928302089580917A02A3
:10479000089508950C94C9230C94CA2390917A0229
:1047A000981721F080937A020C94CC23089580917D
:1047B0007A02882329F010927A0280E00C94CC23AC
:1047C0000895E0911101F09112018091850280839A
:1047D000E0911101F0911201908180918402892B66
:1047E0008083E0911101F091120190818091830208
:1047F000892B808380917A02882381F0E0911101D6
:10480000F09112019081892B808380911101909108
:1048100012010E94592581110E94D7238091110114
:10482000909112010C9428180C94C92398E0899F48
:1048300090011124262B209379020E941D22809141
:1048400079028595859585950C94142410927902AA
:1048500080E00C9414242091790280958223809327
:104860007902982F977079F430E0482F082E000CC9
:10487000550B2417350739F08595859585950E9448
:104880003E220C94262408959093B9018093B80198
:104890000895CF92DF92EF92FF926C01EE24FF24F5
:1048A000C114D104E104F10421F0C701B60120E1F3
:1048B00001C020E0C72ED82EE92EFF24C114D10458
:1048C000E104F10419F0285FC701B6016B017C0116
:1048D00054E0F694E794D794C7945A95D1F7C1144D
:1048E000D104E104F10419F02C5FC701B6016B019A
:1048F0007C0142E0F694E794D794C7944A95D1F7A7
:10490000C114D104E104F10419F02E5FC701B6010E
:10491000DC01CB01B695A79597958795892B8A2BB6
:104920008B2B09F02F5F822FFF90EF90DF90CF90BD
:1049300008958295982F937344E0949F90011124D9
:104940008C7C86958695282B822F8575880F2A7AF0
:104950002695822B089580E090E00E94DC3621E0CD
:104960008C3E9E4F09F020E0822F089582E090E077
:104970000C94D43683E090E00C94D436CF9384E04A
:1049800090E00E94D436C82F81E290E00E94D43695
:104990002C2F30E0A901582BCA01CF910895CF9355
:1049A000C92F682F84E090E00E94E2366C2F81E2EC
:1049B00090E0CF910C94E236AB01BC018FE090E027
:1049C0000C94F436AB01BC0183E190E00C94F43616
:1049D00060E070E0CB010C94E22460E070E0CB0179
:1049E0000E94DC240C94E8246CEE7EEF80E090E0E2
:1049F0000E94003760E082E090E00E94E23660E0D2
:104A000083E090E00E94E2361092750210927602E6
:104A1000109277021092780260E084E090E00E94A9
:104A2000E23660E081E290E00E94E23660E085E0FC
:104A300090E00E94E23660E086E090E00E94E2367C
:104A40006FEF87E090E00E94E23640E050E0BA016C
:104A500088E090E00E94F43660E08DE090E00E94F3
:104A6000E23640E050E0BA0188E190E00E94F4367E
:104A700060E087E190E00E94E23640E050E0BA0159
:104A80008CE190E00E94F43660E080E290E00E94C9
:104A9000E23640E050E0BA0188E190E00E94F4364E
:104AA0000C94ED240C94F424682F8EE090E00C9488
:104AB000E236FC01329697E080E0915029F0219196
:104AC0002223D9F38F5FF9CF0895662349F0FC01C3
:104AD000329608962191621729F0E817F907D1F765
:104AE00080E0089581E008959C01FC0132969FEFDB
:104AF00080E04191461789F09F3F19F4411101C0B0
:104B0000982F8F5F8630A9F79F3F39F0F901E90FA1
:104B1000F11D97FDFA956283089508959C012A5F1F
:104B20003F4FFC014281461301C012820196821759
:104B30009307B9F708950C9474250C948E2502966A
:104B400026E0FC0111922A95E9F7089508950C9446
:104B5000A6250C94A625CF930E94A9250E94280F74
:104B60000E94A725C0E08C2F0E94460E811104C030
:104B7000CF5FCA30C1F701C081E0CF9108950C9496
:104B8000A6250C94BF250E94C1258091CC048430B9
:104B900049F11092870220E488E190E00FB6F89482
:104BA000A895809360000FBE2093600080E00E9473
:104BB0002F0C0E94C12583B7817F846083BF83B798
:104BC000816083BF7894889583B78E7F83BF0FB64B
:104BD000F894A8958091600088618093600010929D
:104BE00060000FBE08950C94A6250E948D1D0E94A2
:104BF0000F180E942F0C0C94F3251F920F920FB6E2
:104C00000F9211248F939F93AF93BF93809187024C
:104C1000811113C08091C2049091C304A091C40477
:104C2000B091C5044196A11DB11D8093C20490931B
:104C3000C304A093C404B093C504BF91AF919F91E6
:104C40008F910F900FBE0F901F90189582E084BD3A
:104C500093E095BD9AEF97BD80936E0008952FB7AE
:104C6000F8948091C2049091C304A091C404B091BF
:104C7000C5042FBF08952FB7F8946091C2047091B6
:104C8000C3048091C4049091C5042FBF08959C0172
:104C90004FB7F8948091C2049091C304A091C404CA
:104CA000B091C5044FBF821B930B089578941F9257
:104CB0000F920FB60F9211248F939F93AF93BF93D0
:104CC0008091C2049091C304A091C404B091C50422
:104CD0000196A11DB11D8093C2049093C304A093BB
:104CE000C404B093C504BF91AF919F918F910F9071
:104CF0000FBE0F901F90189587E797E790930108D4
:104D0000809300089AE088E10FB6F894A895809304
:104D100060000FBE90936000FFCF0E94AB24811112
:104D200002C00E9452250E94B624809386020E94EF
:104D3000BE249093C7048093C6040E94BA24682FAF
:104D400070E080E090E00E94BD216091710270915E
:104D5000720280917302909174020C94F5218091FB
:104D6000900280FF0BC06091170185E0689FB00141
:104D7000112475956795759567952BC081FF09C0BE
:104D80006091170185E0689FB001112475956795C2
:104D900020C082FF07C06091170185E0689FB001C5
:104DA000112417C090918F029923D1F060911601C0
:104DB000961788F72091170185E0289F900111240C
:104DC000929FA001939F500D112470E0CA010E9490
:104DD000A4366038710540F46115710519F406C0F8
:104DE00065E070E0862F08958FE7089581E00895CB
:104DF0008091900280FF08C06091140170E0759569
:104E000067957595679521C081FF06C06091140173
:104E100070E07595679519C082FF04C06091140118
:104E200070E010C090918E02992399F06091130167
:104E30009617A0F780911401899FC001112470E09A
:104E40000E94A4366038710540F46115710519F4AB
:104E500006C061E070E0862F08958FE7089581E035
:104E60000895803F21F40E94AF26819504C0813FC0
:104E700029F40E94AF26809394020895823F21F482
:104E80000E94AF26819504C0833F29F40E94AF267B
:104E9000809393020895893F19F40E94F82605C073
:104EA0008A3F31F40E94F8268195809395020895F7
:104EB0008B3F21F40E94F826819504C08C3F29F491
:104EC0000E94F826809396020895843F21F48091F1
:104ED0009202816017C0853F21F480919202826026
:104EE00011C0863F21F48091920284600BC0873FFD
:104EF00021F480919202886005C0883F31F480914E
:104F0000920280618093920208958D3F21F48091F6
:104F1000900281600BC08E3F21F4809190028260EC
:104F200005C08F3F29F480919002846080939002A5
:104F30000895803F39F48091940287FF6AC01092EF
:104F4000940267C0813F29F4809194021816BCF343
:104F500060C090919302823F29F497FF5AC010924B
:104F6000930257C0833F19F41916CCF352C09091A5
:104F70009502893F31F419160CF04BC0109295023E
:104F800048C08A3F19F497FF44C0F8CF8B3F39F4EB
:104F90008091960287FF3DC0109296023AC08C3FE6
:104FA00029F4809196021816BCF333C0843F21F493
:104FB000809192028E7F17C0853F21F480919202EA
:104FC0008D7F11C0863F21F4809192028B7F0BC0B0
:104FD000873F21F480919202877F05C0883F31F49A
:104FE000809192028F7E8093920213C08D3F21F4B4
:104FF000809190028E7F0BC08E3F21F480919002B1
:105000008D7F05C08F3F29F4809190028B7F809324
:10501000900280919302811106C0809194028111C7
:1050200002C010928F0280919502811106C080917A
:105030009602811102C010928E020895809186021C
:1050400083FF7EC083E39AE00E946F0A8091920200
:105050001F928F938EE29AE09F938F930E94080B8A
:105060008CE29AE00E946F0A80919302282F082E0A
:10507000000C330B3F938F9389E29AE09F938F93B9
:105080000E94080B87E29AE00E946F0A80919402C6
:10509000282F082E000C330B3F938F9384E29AE065
:1050A0009F938F930E94080B82E29AE00E946F0AFE
:1050B00080919502282F082E000C330B3F938F937D
:1050C0008FE19AE09F938F930E94080B8DE19AE005
:1050D0000E946F0A80919602282F082E000C330B35
:1050E0003F938F938AE19AE09F938F930E94080BDE
:1050F00087E19AE00E946F0A80918F021F928F933E
:1051000084E19AE09F938F930E94080B82E19AE0DA
:105110000E946F0A809190021F928F938FE09AE015
:105120009F938F930E94080B8CE09AE00E946F0A75
:105130008DB79EB74C960FB6F8949EBF0FBE8DBF2D
:105140000E942F2620919302211104C020919402E5
:10515000222321F090938D0280938C02209195025E
:10516000211104C020919602222321F090938B02FA
:1051700080938A0281E992E00C947118EF92FF9279
:105180000F931F93CF93DF9300D000D000D0CDB703
:10519000DEB786E0E1E9F2E0DE01119601900D92C2
:1051A0008A95E1F7E0909302F090940200919502C5
:1051B000109196021092930210929402109295020E
:1051C00010929602E11003C0FF2009F45DC08091A7
:1051D0008C0290918D020E944726AC0190918F0223
:1051E000992339F02091180130E02417350758F041
:1051F0004BC0209189028AE0289F90011124241736
:10520000350718F041C09F3F19F09F5F90938F02C0
:10521000EE2061F00E94AF261E1414F09FEF01C033
:1052200091E0989F902D112490939302FF2061F0BC
:105230000E94AF261F1414F09FEF01C091E0989FC9
:10524000902D112490939402309193023323E1F036
:10525000209194022223C1F045EB3403C0011124B4
:10526000992319F09093930203C081E080939302F5
:1052700035EB2303C0011124992319F09093940274
:1052800003C081E080939402011103C0112309F44B
:105290005DC080918A0290918B020E944726AC01EA
:1052A00090918E02992339F02091150130E0241756
:1052B000350758F04BC0209188028AE0289F900162
:1052C00011242417350718F041C09F3F19F09F5F44
:1052D00090938E02002361F00E94F826101614F0BD
:1052E0009FEF01C091E0989F902D1124909395021B
:1052F000112361F00E94F826111614F09FEF01C0EF
:1053000091E0989F902D11249093960230919502F0
:105310003323E1F0209196022223C1F045EB3403C0
:10532000C0011124992319F09093950203C081E0E4
:105330008093950235EB2303C0011124992319F0C2
:105340009093960203C081E080939602809193022D
:1053500081110BC080919402811107C08091950248
:10536000811103C08091960281110E941E28EB8258
:10537000FC820D831E8386E0FE013196A1E9B2E036
:1053800001900D928A95E1F726960FB6F894DEBF4C
:105390000FBECDBFDF91CF911F910F91FF90EF9086
:1053A0000895E1E9F2E086E0DF011D928A95E9F7D0
:1053B00010928F0210928E0210929002089586E54C
:1053C0009CE00E946F0A1F9281E08F931F9285E0FC
:1053D0008F9388E09CE09F938F930E94080B0F901F
:1053E0000F900F900F900F900F9008958330E9F178
:1053F00028F4813061F0823009F10895853009F494
:1054000062C008F449C0863009F474C008958091E0
:105410008902262F30E0280F311D2F3F310524F45B
:10542000680F6093890203C08FEF80938902809197
:1054300089021F928F9381E49BE072C080911801D2
:10544000262F30E0280F311D2F3F310524F4680F3F
:105450006093180103C08FEF8093180180911801A9
:105460001F928F938FE29BE05BC080911701262FE4
:1054700030E0280F311D2F3F310524F4680F609371
:10548000170103C08FEF80931701809117011F92BE
:105490008F938CE19BE044C080911601262F30E071
:1054A000280F311D2F3F310524F4680F609316013A
:1054B00003C08FEF80931601809116011F928F9386
:1054C00087E09BE02DC080911401262F30E0280F4B
:1054D000311D2F3F310524F4680F6093140103C080
:1054E0008FEF80931401809114011F928F938EEEA1
:1054F0009AE016C080911301262F30E0280F311D4D
:105500002F3F310524F4680F6093130103C08FEF20
:1055100080931301809113011F928F9383ED9AE082
:105520009F938F930E94080B0F900F900F900F90F6
:105530000895833081F128F4813059F08230D1F020
:105540000895853009F449C0B8F1863009F456C091
:10555000089580918902681720F4861B8093890240
:1055600002C010928902809189021F928F9384EC6D
:105570009AE054C080911801681720F4861B80932C
:10558000180102C010921801809118011F928F9388
:1055900082EB9AE043C080911701681720F4861BC4
:1055A0008093170102C010921701809117011F927A
:1055B0008F938FE99AE032C080911601681720F42A
:1055C000861B8093160102C010921601809116016D
:1055D0001F928F938AE89AE021C080911401681786
:1055E00020F4861B8093140102C010921401809154
:1055F00014011F928F9381E79AE010C080911301EC
:10560000681720F4861B8093130102C010921301C7
:10561000809113011F928F9386E59AE09F938F9359
:105620000E94080B0F900F900F900F900895CF934A
:10563000C82F1F928F938BE59DE09F938F930E94BD
:10564000080B81E090E0A0E0B0E0BC01CD0104C017
:10565000660F771F881F991FCA95D2F70E94BD2138
:105660000F900F900F900F90CF910C948D1DCF93B2
:10567000DF938B3109F4EAC108F08BC18B3009F458
:10568000AEC108F065C1863009F4ACC120F48530A4
:1056900009F4BAC15DC2873009F4BDC1883009F090
:1056A00057C28EE692E10E946F0A8FEB91E10E9451
:1056B0006F0A0E94BA241F928F938CEB91E19F9303
:1056C0008F930E94080B8AEB91E10E946F0A0E945F
:1056D000B624C82F87EA91E10E946F0A1F92CF93E8
:1056E00082EA91E19F938F930E94080B80EA91E1F7
:1056F0000E946F0A86E991E10E946F0A8C2F8170E7
:105700001F928F9383E991E19F938F930E94080BDF
:1057100081E991E10E946F0A87E891E10E946F0A96
:10572000C1FB882780F91F928F9384E891E19F93B2
:105730008F930E94080B82E891E10E946F0A86E72E
:1057400091E10E946F0AC2FB882780F91F928F9314
:1057500083E791E19F938F930E94080B81E791E18A
:105760000E946F0A88E691E10E946F0AC3FBCC2772
:10577000C0F91F92CF9385E691E19F938F930E948A
:10578000080B83E691E10E946F0A0E94BE24EC019F
:105790008FE491E10E946F0ADF93CF938AE491E155
:1057A0009F938F930E94080B88E491E10E946F0AF7
:1057B0008FE291E10E946F0A8C2F81701F928F936C
:1057C0008CE291E19F938F930E94080B8DB79EB757
:1057D00080960FB6F8949EBF0FBE8DBF8AE291E10E
:1057E0000E946F0A83E191E10E946F0AC1FB882742
:1057F00080F91F928F9380E191E19F938F930E9494
:10580000080B8EE091E10E946F0A8CEF90E10E94FC
:105810006F0A8D2F81701F928F9389EF90E19F9374
:105820008F930E94080B87EF90E10E946F0A85EE2C
:1058300090E10E946F0AD695D1701F92DF9382EE9D
:1058400090E19F938F930E94080B80EE90E10E945D
:105850006F0A8EEC90E10E946F0AC2FB882780F9E4
:105860001F928F938BEC90E19F938F930E94080B74
:1058700089EC90E10E946F0A87EB90E10E946F0A29
:10588000C3FB882780F91F928F9384EB90E19F934D
:105890008F930E94080B82EB90E10E946F0A88EAC6
:1058A00090E10E946F0AC4FB882780F91F928F93B2
:1058B00085EA90E19F938F930E94080B83EA90E121
:1058C0000E946F0A81E990E10E946F0AC5FB882758
:1058D00080F91F928F938EE890E19F938F930E949F
:1058E000080B8CE890E10E946F0A80E790E10E942B
:1058F0006F0AC6FB882780F91F928F938DE690E18F
:105900009F938F930E94080B8DB79EB780960FB61A
:10591000F8949EBF0FBE8DBF8BE690E10E946F0A88
:1059200083E690E10E946F0AC7FBCC27C0F91F9263
:10593000CF9380E690E19F938F930E94080B8EE5B2
:1059400090E10E946F0A0F900F900F900F9045C04A
:10595000803109F4A5C020F48E3009F48BC0F8C062
:10596000863109F4B8C0893109F0F2C085E89EE0BB
:105970000E946F0A81E49EE00E946F0A8AE29EE024
:105980000E946F0A84EF9DE00E946F0A89EC9DE0FF
:1059900084C08A32E1F060F4873209F4D5C028F47B
:1059A0008E3108F4D5C08D51D0C0893269F1D0C094
:1059B000833448F48A3308F0C5C0853309F4C4C081
:1059C000883369F0C5C0833409F4BEC0C1C08DE519
:1059D00092E10E946F0A0E945225C1E0BEC08BEB8B
:1059E0009EE05BC080918602817F8E7F80938602DD
:1059F00084E99EE00E946F0A89E592E10E946F0AA5
:105A000081E080939802E9CF8DE392E10E946F0AD2
:105A10000E94C10BE2CF80918602C82FC095C17051
:105A2000C0FB80F980938602CC2329F081E392E1C8
:105A30000E946F0A92C084E292E10E946F0A8091F4
:105A40008602897F877F80938602C7CF90918602E6
:105A500091FBCC27C0F981E0C827892FC0FB81F9D1
:105A600080938602CC2319F087E192E129C089E076
:105A700092E113C09091860292FBCC27C0F981E09D
:105A8000C827892FC0FB82F980938602CC2319F0A6
:105A90008AEF91E115C08AEE91E10E946F0A9DCFD5
:105AA0009091860293FBCC27C0F981E0C827892F0B
:105AB000C0FB83F980938602CC2351F08EED91E1F7
:105AC0000E946F0A8091860281608093860245C0A1
:105AD00081ED91E1E2CF8BEB9DE00E946F0A0E9485
