:100000000C949F060C94450F0C94E6060C94E6069F
:100010000C94E6060C94E6060C94E6060C94E606B0
:100020000C94E6060C94E6060C94632B0C94352C89
:100030000C946D1D0C94E6060C94E6060C94E606F2
:100040000C94E6060C94E6060C94E6060C94E60680
:100050000C94E6060C94C61D0C94E6060C94E60679
:100060000C94E6060C94E6060C94E6060C94E60660
:100070000C94E6060C94E6060C94E6060C94E60650
:100080000C94E6060C94E6060C94E6060C94E60640
:100090000C94E6060C94E6060C94E6060C94E60630
:1000A0000C94E6060C94E6060C94E6060113011384
:1000B0003313331380139E13BF14BF14A9133E14BC
:1000C0004F144F14AF14BF14BF14B8145F155F154D
:1000D0007115711568157115711571155F155F151D
:1000E0006D15711571156D15A22CC92CC12DC92C5A
:1000F000C12D152D382DC12D8F2D9E2D35001E00A3
:100100001F0020002100220023002B0014001A00F1
:100110000800150017002F00E1000400160007007A
:1001200009000A004B00E0001D001B00060019003A
:1001300005004F00E3002C005000E200280DA8004D
:10014000290024002500260027002D002E002A006B
:1001500030001C0018000C001200130031004E008B
:100160000B000D000E000F00330034005100110091
:1001700010003600370038004C000153AA0002532B
:10018000A90052004C00280001003A003B003C004E
:100190003D003E003F00010001000100520001004F
:1001A0000100010001000100500051004F0001005A
:1001B0000100010001000100010001000100010037
:1001C00001000100010001000100010001004000E8
:1001D00041004200430044004500010001000100CD
:1001E0000100010001000100010001000100010007
:1001F00001000100520001000100010001000100A6
:10020000500051004F000053010002530100010053
:1002100001000100010001000100010001000100D6
:1002200001000100010001000100010001000100C6
:1002300001000100010001000100010001000100B6
:100240000100010001000100005C0100010001004B
:100250000100010001000100010001000100530044
:100260000100560057000100010001005F0060001E
:10027000610001000100010001005C005D005E0002
:10028000550001000100010059005A005B005400B4
:1002900001000053010001530100010062006300EE
:1002A00044454255473A2064697361626C65642E27
:1002B0000A0044454255473A20656E61626C6564A8
:1002C0002E0A000A0025303862003A20002530321C
:1002D00058000A722F632030313233343536370AF2
:1002E000000A002530325820006B6579626F617218
:1002F000645F7265706F72743A20000A00253032B4
:1003000058006B6579626F6172645F7365745F6CCE
:1003100065643A2000290A002575002F0025750024
:100320005D2800256400200025640020002564006D
:1003300020002564007C0025303258006D6F7573F5
:10034000656B6579205B62746E7C782079207620FD
:10035000685D287265702F61636C293A205B006DBF
:100360006B5F776865656C5F74696D655F746F5FFF
:100370006D6178203D2025640A006D6B5F776865AC
:10038000656C5F6D61785F7370656564203D2025E5
:10039000640A006D6B5F74696D655F746F5F6D619A
:1003A00078203D2025640A006D6B5F6D61785F7376
:1003B00070656564203D2025640A006D6B5F696E81
:1003C00074657276616C203D2025640A006D6B5F58
:1003D00064656C6179203D2025640A006D6B5F7750
:1003E0006865656C5F74696D655F746F5F6D61787A
:1003F000203D2025640A006D6B5F776865656C5F42
:100400006D61785F7370656564203D2025640A0026
:100410006D6B5F74696D655F746F5F6D6178203DB2
:100420002025640A006D6B5F6D61785F7370656590
:1004300064203D2025640A006D6B5F696E746572EF
:1004400076616C203D2025640A006D6B5F64656CED
:100450006179203D2025640A000A00257500363A9E
:1004600020776865656C5F74696D655F746F5F6D3B
:1004700061783A20000A00257500353A20776865D2
:10048000656C5F6D61785F73706565643A20000A22
:1004900000257500343A2074696D655F746F5F6D77
:1004A00061783A20000A00257500333A206D6178A2
:1004B0005F73706565643A20000A00257500323A62
:1004C00020696E74657276616C286D73293A20001C
:1004D0000A00257500313A2064656C6179282A315B
:1004E000306D73293A20000A092D2056616C75651C
:1004F00073202D0A004D3E004D25643E20003F0034
:100500007365742064656661756C740A00433E20EF
:100510000077686572652064656C74613A20637564
:1005200072736F723D25642C20776865656C3D257C
:10053000640A53656520687474703A2F2F656E2EB7
:1005400077696B6970656469612E6F72672F77696F
:100550006B692F4D6F7573655F6B6579730A000A60
:10056000092D204D6F7573656B6579202D0A4553F4
:10057000432F713A09717569740A313A0964656CDF
:100580006179282A31306D73290A323A09696E740B
:10059000657276616C286D73290A333A096D61784A
:1005A0005F73706565640A343A0974696D655F74D8
:1005B0006F5F6D61780A353A09776865656C5F6DC4
:1005C00061785F73706565640A363A0977686565B6
:1005D0006C5F74696D655F746F5F6D61780A0A7036
:1005E0003A097072696E742076616C7565730A647D
:1005F0003A097365742064656661756C74730A7575
:10060000703A092B310A646F776E3A092D310A70FE
:100610006775703A092B31300A7067646F776E3AEC
:10062000092D31300A0A7370656564203D206465C8
:100630006C7461202A206D61785F73706565642039
:100640002A2028726570656174202F2074696D6599
:100650005F746F5F6D6178290A003F004D3E200096
:10066000433E20004C25640A0074696D65725F7218
:10067000656164333228293A202530346C580A00E9
:100680006B6579626F6172645F69646C653A20259D
:10069000580A006B6579626F6172645F70726F7483
:1006A0006F636F6C3A2025580A00686F73745F6B34
:1006B0006579626F6172645F6C65647328293A20A2
:1006C00025580A000A092D20537461747573202D72
:1006D0000A004743433A20352E342E3020415652EB
:1006E0002D4C4942433A20322E302E302041565272
:1006F0005F415243483A20617672350A004F5054A8
:10070000494F4E533A204C554641204D4F55534585
:100710004B45592045585452414B455920434F4E63
:10072000534F4C4520434F4D4D414E4420343039BA
:10073000360A004255494C443A2020284A616E202E
:1007400032332032303231290A005649443A2030BF
:100750007834343444287473686F72742920504993
:10076000443A203078333533372844616374796CE8
:100770002D4D616E75666F726D2028357837292989
:10078000205645523A203078303030310A000A097C
:100790002D2056657273696F6E202D0A000A092D8F
:1007A00020436F6E736F6C65202D0A4553432F7184
:1007B0003A09717569740A6D3A096D6F7573656BE5
:1007C00065790A000A092D204D61676963202D0AA9
:1007D000443A094465627567204D657373616765C6
:1007E00020546F67676C650A583A094D61747269E5
:1007F00078204465627567204D6F646520546F678B
:10080000676C65202D2053686F77206B6579707257
:10081000657373657320696E206D617472697820E9
:10082000677269640A4B3A094B6579626F61726459
:1008300020446562756720546F67676C65202D20C2
:1008400053686F77206B657970726573732072657A
:10085000706F72740A4D3A094465627567204D6F76
:1008600075736520546F67676C650A563A0956655B
:100870007273696F6E0A533A095374617475730A1F
:10088000433A09416374697661746520436F6E73FE
:100890006F6C65204D6F64650A46312D4631303AE4
:1008A0000953776974636820746F204C61796572AD
:1008B00020302D392028463130203D204C30290A67
:1008C000302D393A0953776974636820746F204C6E
:1008D0006179657220302D390A47524156453A09EF
:1008E00053776974636820746F204C617965722056
:1008F000302028616C7465726E617465290A423A11
:10090000094A756D7020746F20426F6F746C6F614F
:100910006465720A4553433A094A756D7020746FD5
:1009200020426F6F746C6F616465722028616C7413
:1009300065726E617465290A453A095072696E7470
:1009400020454550524F4D2053657474696E67734E
:100950000A4253504143453A09436C656172204550
:100960004550524F4D0A000A002575002E6E6B72DD
:100970006F3A20000A002575002E737761705F6260
:1009800061636B736C6173685F6261636B737061E9
:1009900063653A20000A002575002E737761705F49
:1009A00067726176655F6573633A20000A0025759A
:1009B000002E6E6F5F6775693A20000A002575008A
:1009C0002E737761705F72616C745F726775693ADC
:1009D00020000A002575002E737761705F6C616CD2
:1009E000745F6C6775693A20000A002575002E73E4
:1009F0007761705F7263746C5F726775693A20002B
:100A00000A002575002E737761705F6C63746C5FEC
:100A10006C6775693A20000A002575002E636170C5
:100A2000736C6F636B5F746F5F636F6E74726F6C08
:100A30003A20000A002575002E737761705F636F9E
:100A40006E74726F6C5F636170736C6F636B3A206E
:100A5000000A0025303258006B65796D61705F6364
:100A60006F6E6669672E7261773A20000A002575FD
:100A7000002E6D6F7573653A20000A002575002EF3
:100A80006B6579626F6172643A20000A0025750017
:100A90002E6D61747269783A20000A002575002E67
:100AA000656E61626C653A20000A0025303258009C
:100AB00064656275675F636F6E6669672E726177E2
:100AC0003A20000A0025750064656661756C745FE4
:100AD0006C617965723A20003F000A6D6F7573652D
:100AE0003A206F66660A000A6D6F7573653A206F6B
:100AF0006E0A000A6B6579626F6172643A206F66F4
:100B0000660A000A6B6579626F6172643A206F6EE3
:100B10000A000A6D61747269783A206F66660A008D
:100B20000A6D61747269783A206F6E0A000A646512
:100B30006275673A206F66660A000A6465627567C7
:100B40003A206F6E0A000A0A4A756D70696E672056
:100B5000746F20626F6F746C6F616465722E2E2EDD
:100B60002000433E2000436C656172696E6720453A
:100B70004550524F4D0A006565636F6E6669673A6E
:100B80000A005B735D004B6579626F61726420736C
:100B9000746172742E0A005B575D005B535D005BED
:100BA000525D005B445D005B435D002C03440061CB
:100BB000006300740079006C002D004D0061006E30
:100BC00000750066006F0072006D0020002800357F
:100BD0000078003700290000000E037400730068DD
:100BE000006F007200740000000403090409025B36
:100BF00000030100A0FA090400000103010100093B
:100C000021110100012240000705810308000A09A3
:100C100004010001030000000921110100012281EB
:100C2000000705820320000A0904020002030000F5
:100C30000009211101000122220007058303200081
:100C40000107050303200001120110010000000844
:100C50004D4437350100010200010631FF0974A13E
:100C6000010975150026FF00952075088102097697
:100C7000150026FF00952075089102C005010902A4
:100C8000A10185020901A100050919012905150025
:100C90002501950575018102950175038101050105
:100CA000093009311581257F9502750881060938BB
:100CB0001581257F950175088106050C0A380215F6
:100CC00081257F950175088106C0C005010980A1B5
:100CD00001850319012AB700150126B70095017592
:100CE000108100C0050C0901A101850419012AA089
:100CF00002150126A002950175108100C0050109A9
:100D000006A101050719E029E715002501950875D9
:100D10000181029501750881010507190029FF1558
:100D20000026FF00950675088100050819012905B0
:100D3000950575019102950175039101C00011247B
:100D40001FBECFEFDAE0DEBFCDBF04B603FE27C083
:100D50008091900290919102A0919202B0919302A1
:100D60008730904BA740B04BD1F410929002109274
:100D70009102109292021092930214BE84B7877F60
:100D800084BF0FB6F894A895809160008861809325
:100D90006000109260000FBEE0E0F8E3099511E0FA
:100DA000A0E0B1E0E4EEFCE502C005900D92A83AA7
:100DB000B107D9F722E0A8EAB1E001C01D92A0393D
:100DC000B207E1F70E949A280C94702E0C94000050
:100DD000FF93EF93E091A801F091A901309709F0FA
:100DE0000995EF91FF910895FC018591803011F0F4
:100DF000EFDFFBCF0895FF27E0E230E247FF0CC0B2
:100E0000419597FF09C0EDE26095709580959095AA
:100E1000611D711D811D911D27FF02C0219530E3C9
:100E200050E2AA27660F771F881F991FAA1FA417D1
:100E300010F0A41B63955A95A9F7AA3008F0A95F92
:100E4000A05DAF93F395611571058105910541F79B
:100E5000ED3211F4EF93F395F21718F43F93F395F5
:100E6000FBCF8F91B5DFFA95E1F70895E991F991FC
:100E70008591803021F0853219F0AADFF9CF0895ED
:100E800020E0E89455915532C1F3503311F4689441
:100E900055915A3348F4505390F3220F022E220FEB
:100EA000220F200D250FF4CF0EF4219589919991F1
:100EB000533619F3533729F1533559F1BC018827BB
:100EC0009927E8945C3621F4899199916894559119
:100ED000543639F446EF7EF077FF0DC08FEF9FEF69
:100EE0000AC055374AE039F0583540E121F0523612
:100EF00042E009F00895FF93EF937DDFEF91FF91BA
:100F0000B7CFFF93EF93FC0181918030B9F360DF9D
:100F1000FBCFFF93EF9368DFF1CFDF93CF93CDB794
:100F2000DEB72596A3DFCF91DF91089581E0089584
:100F300081E008950C94980708950C949C071F93E2
:100F4000CF93DF9300D000D01F92CDB7DEB7498397
:100F50005A836B833091CC0189819A81311114C0FD
:100F6000662359F0222349F00E94D21A182F682FC5
:100F700089819A810E947B1A03C00E94A61A182FA9
:100F800069817A81812F04C00E94D21A69817A8195
:100F90000F900F900F900F900F90DF91CF911F91B6
:100FA0000C946C08FC01262F408151816281738171
:100FB00084810C949F07CF93DF93EC0160E00E9443
:100FC000D207BE01DF91CF910C949D070E941B1C9C
:100FD000811102C00E94C21C0C94CD0A0C94C90A53
:100FE00008950E944D150E94F0072FEF84E39CE0C6
:100FF000215080409040E1F700C000000C94EC1DAF
:101000000F931F93CF93DF93EC0161E00E94D2070F
:101010008C01BE010E949A07882309F442C0BE01D8
:10102000C8010E94EE0C8823E1F1BE01C8010E94B4
:10103000400D8823B1F1BE01C8010E946B0E8823C8
:1010400081F18A81882331F101308CE5180751F054
:101050000F3D8CE51807D9F001151C45D9F40E9405
:10106000F1071FC080914702C82FC095C170C0FB17
:1010700080F980934702CC2329F082EB92E00E9412
:10108000F4060FC080EA92E00E94F4060BC00E94B2
:10109000C21C07C0CE01DF91CF911F910F910C941C
:1010A0009607C0E08C2FDF91CF911F910F9108958B
:1010B00008950C94580881E008950C945B08CF9330
:1010C000C82F0E9459088C2F0E945D08CF91089567
:1010D00080E090E00895089526E4829FC0011124E5
:1010E000FC0127E0729FE00DF11D1124E60FF11DB8
:1010F000EE0FFF1FE450FF4F859194910895880FE4
:10110000991FFC01ED53FD4F859194910895CF9364
:10111000DF930E946C080E949F09EC0181159045A5
:1011200008F041C0C11580E4D80708F0D1C0C83E1E
:10113000D10510F5C03ED10508F0FDC0C83AD10573
:1011400078F4C53AD10508F0A2C0C130D10509F440
:10115000F2C008F4EEC0C430D10508F0ECC0E9C01C
:10116000CF3BD10508F49BC0C03CD10508F4E1C0D9
:10117000CE01805C91099EC0C11590E2D90758F458
:10118000C11521E0D20708F0D6C0C03FD10508F450
:10119000D0C0D065D0C0C11580E3D80708F08EC09C
:1011A000CE019F7087C0C11595E5D90708F043C0EF
:1011B000C11524E5D20708F0A2C0C11582E5D80701
:1011C00008F5C11591E5D90708F085C0CE0174E096
:1011D000969587957A95E1F783709C2F937021E01F
:1011E00030E002C0220F331F9A95E2F73C68382B9B
:1011F000CF70C695C69580E2C89FE0011124C22B2E
:10120000D32B99C09E01237033278C2F869586950A
:10121000C115D34508F064C0C1E0D0E002C0CC0FD6
:10122000DD1F2A95E2F720E2829FC0011124C82B1E
:10123000D92BDC6880C0C11529E5D207A0F4C115FF
:1012400088E5D80708F060C0C11596E5D90708F011
:1012500070C08C2F0E94330A8F71C82FD0E0DC2F12
:10126000CC27D06268C0C1152AE5D20708F451C066
:10127000CE0190568115904208F05BC08D2F8F7182
:101280000E94330ADD27D0628F71D82B54C0C55A13
:10129000D0E0C65BDE4FC881D0E0D0644CC0C85AF5
:1012A000D0E0CC0FDD1FC45EDE4F0990D881C02D89
:1012B000D46441C00E947F08EC013DC0CE01992753
:1012C000D3FF03C0EC01D86C36C0EC01D06C33C046
:1012D000DF70D06A30C0DC2FCC27C16FD06A2BC042
:1012E000C1E0D0E002C0CC0FDD1F2A95E2F720E27A
:1012F000829FC0011124C82BD92BDA681CC0DC2FB7
:10130000CC27C46FD06A17C0DC2FCC27C06FD06A3F
:1013100012C08C2F8F700E94330A94E0D695C79527
:101320009A95E1F7CF70D0E0DC2FCC27D069C82B9D
:1013300002C0C0E0D0E0CE01DF91CF9108958238A5
:10134000910569F1B0F48133910509F46DC048F459
:101350008932910509F463C08A32910509F469C0A4
:1013600008958533910509F455C089339105B9F085
:101370000895833E910569F138F4803E9105B1F0FE
:10138000823E910509F10895863E9105A9F1873EB7
:101390009105B9F1843E910509F064C023C0209104
:1013A000810220FD4FC021FD4DC008958091810232
:1013B00080FD44C08091820280FF44C08091810200
:1013C00084FD42C083EE4DC08091810282FF38C00F
:1013D000F5CF8091810282FD33C08091820280FD31
:1013E00031C0ECCF8091820281FF32C080918102B6
:1013F00084FD2AC087EE35C08091810283FF26C01C
:10140000F5CF8091810283FD21C08091820281FD10
:101410001FC0ECCF8091810285FD1CC01DC0809152
:10142000810285FD19C016C08091810286FD16C01B
:1014300017C08091810286FD13C010C089E311C0DE
:1014400082EE0FC080EE0DC080E00BC086EE09C0BA
:1014500084EE07C089E205C085E303C08AE201C0CB
:1014600081E390E008959091810292FF0DC0282FB2
:101470002871283019F4877F846006C0282F2471D2
:10148000243011F48B7F886093FF0DC0282F2871C2
:10149000283119F4877E846106C0282F24712431F5
:1014A00011F48B7E88612091820220FF0DC0382FBD
:1014B0003871383019F4877F816006C0382F317158
:1014C000313011F48E7F886021FF0DC0282F2871E4
:1014D000283119F4877E816106C0282F21712131BE
:1014E00011F48E7E886194FD877E0895E82FF0E0E8
:1014F000EF58FD4F80810895CF92DF92EF92FF92D7
:101500000F931F93CF93DF9382ED92E00E94F40636
:1015100081E7E82E82E0F82EC0E0D0E09DECC92EF5
:1015200092E0D92E05EC12E0DF93CF93DF92CF92B9
:101530000E948D078AEC92E00E94F406F7018191E7
:101540007F010E94091C1F928F931F930F930E948B
:101550008D0783EC92E00E94F40621968DB79EB72A
:1015600008960FB6F8949EBF0FBE8DBFCA30D10546
:10157000D9F6DF91CF911F910F91FF90EF90DF90FF
:10158000CF90089580EA8A95F1F7089508950C9414
:10159000C60A0C94C70A0C94C60A0C94CB0AF89499
:1015A000E82FE295EF70F0E031A1282F2F7081E055
:1015B00090E001C0880F2A95EAF7982F9095932321
:1015C00091A392A1892B82A37894089508950F93F3
:1015D0001F93CF93DF930E94340C80910001809180
:1015E0000001811102C095E001C090E090937C025F
:1015F00085E0891B80937B0286E60E94CF0A87E9FB
:101600000E94CF0A86EC0E94CF0A84E30E94CF0A90
:1016100085E30E94CF0ACDE4D1E004E511E0899191
:101620000E94CF0A0C171D07D1F7E7E6F2E0A1E709
:10163000B2E011921D9282E0E137F807D1F785E020
:101640000E94DE0B0E94E607DF91CF911F910F9160
:101650000C943E0C0E94150C882309F180917B02AA
:1016600090E08F589D4F0E94510C811114C08091C1
:10167000AA018F5F8093AA01863078F0E0917B0207
:10168000F0E0EF58FD4F80E090E011920196853038
:101690009105D9F702C01092AA010C94EE0780912F
:1016A0007C0290E08F589D4F0E946C0C0C94E60ACF
:1016B0008F929F92AF92BF92CF92DF92EF92FF9262
:1016C0000F931F93CF93DF9384E5A82E81E0B82E6C
:1016D000C7E6D2E099E5E92E91E0F92E912C01E0E0
:1016E00010E06501F5018081F894E82FE295EF7034
:1016F000F0E021A18F70A80102C0440F551F8A9508
:10170000E2F7CA01922F982B91A392A18095892389
:1017100082A378940E94C20AEDE4F1E020E030E078
:10172000812C4191A42FA295AF70B0E090968C913E
:1017300090E04F7002C0959587954A95E2F780FD3D
:1017400007C0802F022E01C0880F0A94EAF701C05B
:1017500080E0882A2F5F3F4F2730310511F75FEF78
:10176000A51AB50AF60180810E94CF0A88818816E1
:1017700019F0888281E001C080E0982A2196EA145D
:10178000FB0409F0AECF60917C0270E06F587D4F92
:10179000292D45E087E692E00E94DF0B0E942A0B8C
:1017A000892DDF91CF911F910F91FF90EF90DF90E6
:1017B000CF90BF90AF909F908F9008950895FF9223
:1017C0000F931F93CF93DF938C01F62ED72FC42F47
:1017D000222349F081E08093AD010E949F1D9093E8
:1017E000AC018093AB018091AD018823C1F0809161
:1017F000AB019091AC010E94B71D069780F0EF2DD0
:10180000FD2FD8014C2F50E0CD01801B910B841788
:1018100095071CF48D918193F7CF1092AD01DF9164
:10182000CF911F910F91FF9008958091AE0181118A
:1018300012C08091D80080618093D8008AE18A9597
:10184000F1F700C08091D90080FD02C082E001C0A4
:1018500081E08093AE0181E09091AE01913009F07A
:1018600080E008950C94150C0E94320C80930001C6
:101870000E94150C81110C94450C08950E94150CC2
:10188000811102C00C944B0C089561E070E081E07E
:1018900091E00C94F70E61E070E081E091E00C942F
:1018A000FE0ECF93DF93D82FC92F0E94960F892B5E
:1018B00079F4ED2FFC2F80E090E0DC01A055BE4FC5
:1018C0002C912193019685309105B9F781E001C0F3
:1018D00080E0DF91CF91089520E030E0FC0141915C
:1018E000CF01F901E055FE4F40832F5F3F4F253078
:1018F0003105A1F708950F931F93CF93DF93C42F62
:10190000D22FFC0182818823C9F04093B7010E9445
:101910009F1D9093B6018093B50180E28C0F8830B3
:1019200008F057C0C77081E001C0880FCA95EAF778
:10193000DF91CF911F910F910C94BD128091B7014F
:10194000481330C08091B5019091B6010E94B71D37
:10195000883C910538F510E21D0FCD17B9F080E2F3
:101960008C0F883040F4C77081E001C0880FCA95A1
:10197000EAF70E94C412183028F581E09D2F977075
:1019800001C0880F9A95EAF70E94BD12802F0E942D
:10199000AA121830F0F4D77081E001C0880FDA95F0
:1019A000EAF70AC080E28C0F883098F4C77081E0B3
:1019B00001C0880FCA95EAF7DF91CF911F910F916F
:1019C0000C94C412802FDF91CF911F910F910C9432
:1019D000AA12DF91CF911F910F9108950F939C014F
:1019E000CB01243F4CE5340731F188F4293DFCE577
:1019F0003F07D9F02A3D4CE5340779F1283D3C45B5
:101A0000A9F506E221EE41EE68ED7CE52BC0263F0C
:101A1000FCE53F07E1F0A8F0273F3C4539F507E238
:101A200025EE46EE67EF7CE51DC007E225EE45EEAC
:101A300069ED7CE517C006E221EE40EE64EF7CE53F
:101A400011C007E225EE44EE65EF7CE50BC006E22F
:101A500021EE42EE66EF7CE505C008E221E045EEAE
:101A60006AED7CE50E947B0C80E008C0FC0182816D
:101A7000882319F01092B70101C081E00F910895F9
:101A8000CF93DF93EC01FB018281882309F41FC10E
:101A9000C230FCE5DF0708F41BC1C6319CE5D9075D
:101AA00038F09E012B5F3C452930310508F010C10C
:101AB0000E942E1C9093820280938102C031ECE53B
:101AC000DE0709F4C3C008F041C0C8308CE5D80770
:101AD00009F49AC0F0F4C430ECE5DE0709F487C0DD
:101AE00068F4C2308CE5D80709F477C0C330DC4510
:101AF00009F0E3C080918102826076C0C630ECE5D7
:101B0000DE0709F46EC008F07BC080918102886016
:101B10006BC0CC308CE5D80709F485C068F4CA30B6
:101B2000ECE5DE0709F474C008F079C00E944D1599
:101B300080918102806858C0CE308CE5D80709F4C6
:101B400076C008F07FC0809181028BC0CC3FECE56D
:101B5000DE0709F44FC018F5C3318CE5D80709F446
:101B60007DC078F4C131ECE5DE0709F473C0C23101
:101B7000DC4509F0A2C00E944D15809181028F774B
:101B800033C0C5318CE5D80709F472C008F486C0AB
:101B9000CB3FDC4509F091C0809182023EC0C11567
:101BA000FDE5DF0709F45FC058F4CE3F9CE5D90797
:101BB00009F444C008F43FC08091820282602DC0C5
:101BC000C230FDE5DF0709F475C008F45DC0C3301D
:101BD000DD4509F072C080E06EC0809181028160B5
:101BE00003C08091810280618093810266C08091F0
:101BF000810211C0809182028260809382025DC066
:101C0000809181028062F0CF809181028064ECCF6C
:101C10008091810288608460E7CF8160EECF8091FF
:101C200081028E7FE1CF809181028D7FDDCF809117
:101C30008102877FD9CF8091820218C08091820271
:101C40008D7FDBCF809181028F7ECECF809181020C
:101C50008F7DCACF809181028F7BC6CF8091810218
:101C6000877F8B7FC1CF809182028D7F8E7FC5CF92
:101C70008091810282FB222720F991E0922790FB3C
:101C800082F990FB83F9B0CF80918202982F9095D2
:101C900091708E7F892B90FB81F9AFCF0E944D15FB
:101CA0008091810287FB222720F991E0922790FB07
:101CB00087F99ACF81E00E94C41C809181029091A3
:101CC00082020E943F1C0E944D1580E001C081E00D
:101CD000DF91CF910895CF93DF9386319C4541F5F5
:101CE000EB010E94531B982F8A81209109013091AA
:101CF0000A01882379F09A7A81E009F480E08093E0
:101D0000B801911102C069E201C065E3C9010E94F6
:101D10000B1D0AC08091B801811102C069E201C0A7
:101D200065E3C9010E940D1D0E94A11B80E001C056
:101D300081E0DF91CF9108958EE1489B02C08150F0
:101D4000E1F7489BFECF0895589880E28A95F1F715
:101D5000589A0895FC012AE02A95F1F728E090E0CE
:101D600080E031E040E14A95F1F7880F489B02C0DE
:101D70008160932700C0000040E14A95F1F72150AF
:101D800089F720E12A95F1F729B100C0000030E180
:101D90003A95F1F7217092272081920F9083089550
:101DA000EF92FF920F931F93CF93DF931F92CDB7C4
:101DB000DEB719828C017C01E60EF11C0E151F05A1
:101DC00051F00E949C0ECE0101960E94AA0EF801CD
:101DD00081938F01F3CF81E09981911180E00F9081
:101DE000DF91CF911F910F91FF90EF900895909305
:101DF000BA018093B901509A589A08959093BA0104
:101E00008093B9015098589AE89AE9E6F0E0808109
:101E10008C7F80830895615091E001C0990F6A958D
:101E2000EAF720E031E0992361F0492F482319F0C7
:101E3000589A232701C0589840E24A95F1F79695A1
:101E4000F2CF222311F0589A01C0589880E28A9567
:101E5000F1F758980895FF920F931F93CF93DF9354
:101E6000EC018C01060F111DC017D10741F0F9904C
:101E70000E94A40E68E08F2D0E940B0FF5CFDF911A
:101E8000CF911F910F91FF9008951F920F920FB65F
:101E90000F9211242F933F934F935F936F937F93F0
:101EA0008F939F93AF93BF93CF93DF93EF93FF9362
:101EB0005898509AC091B901D091BA016D816623AA
:101EC00021F08E819F810E942B0F0E94A40E80E141
:101ED0008A95F1F758985098589A80E18A95F1F7C9
:101EE0006A81662351F08B819C810E94D00EE8812B
:101EF000F981811104C082E003C0E881F98188E0A2
:101F000080830E949C0EFF91EF91DF91CF91BF9152
:101F1000AF919F918F917F916F915F914F913F9181
:101F20002F910F900FBE0F901F901895CF93DF93B6
:101F3000C091B901D091BA01F894509A589885E0AF
:101F40008A95F1F700005098589A80E28A95F1F747
:101F5000489B0AC0509A589AE881F98181E08083B1
:101F6000789481E090E02CC06D81662381F08E81B1
:101F70009F810E94D00E81110AC0509A589AE88120
:101F8000F98182E08083789482E090E019C00E9419
:101F90009C0E80E28A95F1F75898509A80E18A95D4
:101FA000F1F76A81662321F08B819C810E942B0FBF
:101FB0000E94A40EE881F9811082789480E090E07C
:101FC000DF91CF9108959093C0018093BF01089550
:101FD000E091BF01F091C001309721F00190F081B4
:101FE000E02D099480E00895EF92FF920F931F93E4
:101FF000CF93DF93E091BF01F091C0013097B1F131
:102000008C010280F381E02D09958091470282FFC7
:102010002DC080FF04C089EE92E00E94F406E80122
:1020200018E083EEE82E82E0F82E8091470280FFD0
:102030000BC088811F928F93FF92EF920E948D07B1
:102040000F900F900F900F90115021961111EDCF1E
:102050008091470280FF0AC081EE92E0DF91CF912C
:102060001F910F91FF90EF900C94F406DF91CF91A8
:102070001F910F91FF90EF900895E091BF01F091B3
:10208000C001309739F022E0DC012C930480F58107
:10209000E02D099408952091BD013091BE012817CB
:1020A000390771F09093BE018093BD01E091BF01AB
:1020B000F091C001309721F00680F781E02D09945E
:1020C00008952091BB013091BC012817390771F0A8
:1020D0009093BC018093BB01E091BF01F091C001DE
:1020E000309721F00084F185E02D0994089585B79B
:1020F000806885BF85B7806885BF08950C94150CEE
:1021000008950C9480100C9480100C9483100C94FF
:1021100080100C9487100C9480100E9477100E94FD
:102120008B100C9489100E94961D0E94E70A0E9451
:10213000FD1D0C948510CF93C82F8091470282FF1C
:102140001EC080FF04C082E093E00E94F4068091EC
:10215000470280FF0CC01F92CF938DEF92E09F93B8
:102160008F930E948D070F900F900F900F9080918A
:10217000470280FF04C08BEF92E00E94F4068C2F90
:10218000CF910C945F08AF92BF92CF92DF92EF9203
:10219000FF920F931F93CF93DF93CDB7DEB72A97AC
:1021A0000FB6F894DEBF0FBECDBF0E9481100E9413
:1021B00080100E94580B0E947E10811111C08FEF79
:1021C00089838A831B820E949F1D8160782F9D8353
:1021D0008C8349815A816B818D810E945F1140C03F
:1021E00082ECA82E81E0B82E00E010E0C02E802FF7
:1021F0000E94760AE82EF501D1905F01D82631F4CD
:102200000F5F1F4F0A30110589F7D9CF8091470220
:1022100081FD0E947C0A80E0FF24F3949D2D9F2184
:10222000D1F08E83CF82EF2081E009F480E08887AF
:102230000E949F1D8160782F9A8789874E815F81D8
:1022400068858A850E945F11F801EE53FE4F8081F8
:10225000F826F08205C08F5FFF0C8730F9F6D0CFEB
:102260000E942E200E94E80F9091C1018917B1F0C1
:102270000E94E80F8093C1012A960FB6F894DEBF42
:102280000FBECDBFDF91CF911F910F91FF90EF90C7
:10229000DF90CF90BF90AF900C949B102A960FB612
:1022A000F894DEBF0FBECDBFDF91CF911F910F918C
:1022B000FF90EF90DF90CF90BF90AF900895CF93B5
:1022C000DF93CDB7DEB72B970FB6F894DEBF0FBE06
:1022D000CDBF4F83588769877A878B87DE01119638
:1022E00086E0FD0111928A95E9F785E0FE013796B7
:1022F00001900D928A95E1F749815A816B817C8129
:102300008D819E810E9440182B960FB6F894DEBFF7
:102310000FBECDBFDF91CF910895FC0180819181E7
:102320000E94141B0895CF93882309F4A9C0C82FD5
:102330008238C1F40E94E80F81FDA2C069E3809158
:10234000090190910A010E940B1D0E94A11B2FEF11
:1023500081EE94E0215080409040E1F700C0000001
:1023600069E319C0833801F50E94E80F80FD88C039
:1023700063E58091090190910A010E940B1D0E9462
:10238000A11B2FEF81EE94E0215080409040E1F7B7
:1023900000C0000063E58091090190910A010E944C
:1023A0000D1DCF910C94A11B8438C1F40E94E80F3D
:1023B00082FD66C067E48091090190910A010E9444
:1023C0000B1D0E94A11B2FEF81EE94E02150804055
:1023D0009040E1F700C0000067E4DDCF8CEF8C0F88
:1023E000813AF8F48C2F0E943025811149C06C2F5E
:1023F0008091090190910A010E94D51C882349F01F
:102400006C2F8091090190910A010E940D1D0E947C
:10241000A11B6C2F8091090190910A010E940B1D54
:10242000C0CF80E28C0F883048F4C77081E001C0D3
:10243000880FCA95EAF70E94561BB3CFEBE5EC0F65
:10244000E33040F4F0E0E457FE4F808190E0CF911C
:102450000C944B10E8E5EC0FE73150F4F0E0EE0F90
:10246000FF1FE25AFE4F80819181CF910C94611041
:10247000C03F30F08C2F0E94A11ECF910C948E1F74
:10248000CF910895882309F464C0823879F40E94BA
:10249000E80F81FF5EC069E38091090190910A0114
:1024A0000E940B1D0E94A11B69E310C08338B1F488
:1024B0000E94E80F80FF4DC063E580910901909173
:1024C0000A010E940B1D0E94A11B63E58091090176
:1024D00090910A010E940D1D0C94A11B843879F47F
:1024E0000E94E80F82FF35C067E480910901909156
:1024F0000A010E940B1D0E94A11B67E4E7CF9CEF1D
:10250000980F913A10F4682FE1CF90E2980F98302D
:1025100050F4877091E001C0990F8A95EAF7892FEE
:102520000E945C1BD9CF9BE5980F933020F480E08C
:1025300090E00C944B1098E5980F973120F480E0D0
:1025400090E00C946110803F20F00E94091F0C94D1
:102550008E1F0895CF93C82F0E949311C93349F459
:102560002FEF87EE93E0215080409040E1F700C0CC
:1025700000008C2FCF910C944212882321F00E94EE
:10258000561B0C94A11B0895882321F00E945C1B0C
:102590000C94A11B0895CF92DF92EF92FF920F93BC
:1025A0001F93CF93DF937C01062FC72FFC0115816A
:1025B00012951F70D281D1110E94731B0E944C1B77
:1025C000882399F0DD2389F08C2F807F803421F0DF
:1025D00080E2800F883048F082E00E94EB1B0E946E
:1025E0004C1B91E0D82ED92601C0D12CCC2EC29400
:1025F0008FE0C8228C2D90E0FC01EA5AFF4F0C942A
:10260000142E8C2F807FCF70882311F0C295C07F4D
:10261000DD2399F0CC2309F48DC180E2800F88304E
:1026200010F0011104C08C2F0E94561B03C08C2F88
:102630000E94661B0E94A11B7DC1802F0E94421236
:10264000CC2309F49CC180E2800F883010F0011186
:1026500004C08C2F0E945C1B03C08C2F0E946C1B3B
:102660000E94A11B8CC18C2F807FCF70803211F013
:10267000C295C07F002319F00130C9F022C0DD23CC
:1026800071F0112341F0113031F40E94861B8C2B24
:102690000E948E1B74C10E94861B8C2B1DC01123AF
:1026A00019F0113009F46BC10E94971B25C0DD237E
:1026B00021F0163008F063C10EC0153008F05FC17C
:1026C0001BC0DD2361F0112331F0F701858180FF0C
:1026D00031C18F7085838C2F0E94BD1250C1112390
:1026E00059F0093309F037C1FFEF27EE83E0F150CD
:1026F00020408040E1F72DC18C2F0E94C4123FC1C1
:102700008C2F86958695837019F0813061F037C1E2
:10271000DD2321F0802F9C2F937002C080E090E099
:102720000E944B1034C1DD2321F0802F9C2F937029
:1027300002C080E090E00E94611029C1802FDD235B
:1027400019F00E94A11E02C00E94091F0E948E1F44
:102750001EC18C2F837009F045C0D11114C1402FC8
:10276000429546954770440F440F602F6F70862F37
:1027700090E0A0E0B0E0042E04C0880F991FAA1FCB
:10278000BB1F0A94D2F704FF10C00FE010E020E056
:1027900030E004C0000F111F221F331F4A95D2F7EB
:1027A000009510952095309503C000E010E0980149
:1027B000C695C695C370BC01CD01602B712B822BD1
:1027C000932BC23049F058F4C13019F00E9491198E
:1027D000DAC00E947F19D7C00E94A319D4C00E94FA
:1027E0007D19D1C0DD2319F08C2F817001C0869531
:1027F000882309F4C8C0402F429546954770440F7E
:10280000440F602F6F70862F90E0A0E0B0E0042EA0
:1028100004C0880F991FAA1FBB1F0A94D2F704FF98
:1028200010C00FE010E020E030E004C0000F111FE6
:10283000221F331F4A95D2F70095109520953095A9
:1028400003C000E010E09801C695C695C370BC01B6
:10285000CD01602B712B822B932BC23049F058F4A1
:10286000C13019F00E94561A8EC00E94441A8BC0C3
:102870000E94681A88C00E94B71985C0CF70DD23F6
:1028800039F08C2F0E94DD19802F0E94BD127BC071
:10289000802F0E94C4128C2F0E94FE1974C0023F28
:1028A00001F128F4003F41F0013FA1F03FC0033F98
:1028B000F9F0043F39F13AC0DD2341F0153008F05A
:1028C0005EC08C2F8F710E94231A59C0163008F0F9
:1028D00056C0F7CFDD2339F08C2F8F710E94DD19A0
:1028E0004EC0DD23C9F38C2F8F710E94FE1947C0A3
:1028F000DD2329F08C2F8F710E94C81940C00E94DF
:10290000C3193DC0DD2349F0CF718C2F0E94DD1922
:1029100063E08C2F0E94D61B32C081E00E94EB1B2B
:10292000123068F182E00E94EB1B29C0DD2331F0F8
:10293000112391F2802F0E94931121C0112399F24B
:10294000093349F49FEFE7EEF3E09150E040F040A7
:10295000E1F700C00000802F0E94421210C04C2FEF
:102960004F70602FC7010E9468080E94EE180FC0C8
:102970004C2F4F70602FC7010E946B0808C088EF72
:102980008C0D843020F40E94E80F0E945F08DD2047
:10299000C9F00E94481B80FD15C0F70112820E94F9
:1029A000421B0E94DD19C7010E9403150E94421BB1
:1029B000DF91CF911F910F91FF90EF90DF90CF901B
:1029C0000C94FE19DF91CF911F910F91FF90EF9022
:1029D000DF90CF9008950F931F93CF93DF93EC0177
:1029E000688179818A810E941F1B8C010E947A1A5A
:1029F0000E946B19B801CE010E94CB12DF91CF91DA
:102A00001F910F910895CF93DF93EC0198818981F5
:102A10002B813C81232B31F08F3F31F481E09F3FAC
:102A200019F403C081E001C080E080FD19C0CE012F
:102A30000E94000881110CC00E944C1B882381F069
:102A40008A81882369F082E0DF91CF910C94EB1B9F
:102A5000CE010E94EB14CE01DF91CF910C94DB07E5
:102A6000DF91CF9108950E94731B0E94831B0E94E7
:102A7000A11B0E9441210E948E1F80E090E00E94D5
:102A80004B1080E090E00C946110809109019091CE
:102A90000A010E940F1D0C9433150E94631B0C94B5
:102AA0004515E92FE295EF704E2F50E0FA0132976D
:102AB000EE30F105B0F4EA59FF4F0C94142E803F2C
:102AC00091F018F4883E68F40EC0843F51F40BC0B6
:102AD000883E48F0813F29F406C093FB882780F99F
:102AE000089580E0089581E008950E94141B0E94DB
:102AF00051150895CF93DF9300D000D01F92CDB72A
:102B0000DEB70F900F900F900F900F90DF91CF9145
:102B10000895CF93DF9300D000D000D0CDB7DEB7BB
:102B200026960FB6F894DEBF0FBECDBFDF91CF91D2
:102B300008951F93CF93DF93C091CD0116E080914C
:102B4000CE01C81799F0D0E01C9FF0011D9FF00D39
:102B50001124E153FE4F4081518162817381848150
:102B600095810E9489152196C770E9CFDF91CF9199
:102B70001F9108954091FF01509100026091010260
:102B80007091020280910302909104020C948915C5
:102B90002091CD019091CE0156E02917A9F030E0A7
:102BA000529FF001539FF00D1124E153FE4F7181AC
:102BB000761306C07081781303C07281741306C047
:102BC0002F5F3F4F2770E9CF80E0089581E008959F
:102BD0000F931F93CF93DF938091040282958F70A0
:102BE00009F05DC080910102882309F458C08091EA
:102BF000CD011091CE016091FF0170910002C09152
:102C00000202D091030291E06F3F09F090E0292F7A
:102C100006E0811709F443C0209721F07F3F21F09F
:102C200030E003C031E001C0322F90E030FD34C00D
:102C3000089FF001099FF00D1124DF01A153BE4F41
:102C400011963C911197371327C03C91361324C03D
:102C500012963C91129731111FC013964D915C91C1
:102C600014974C1B5D0B483C5105B0F48091040255
:102C70008F70806180930402EC52FE4F80818F70D0
:102C8000806180838FEF91E00E940315DF91CF91E7
:102C90001F910F910C94991501968770BACFDF910F
:102CA000CF911F910F9108958F929F92AF92BF92F3
:102CB000CF92DF92EF92FF920F931F93CF93DF9308
:102CC000CDB7DEB761970FB6F894DEBF0FBECDBFAC
:102CD0008C0185E0F801DE011D9601900D928A9528
:102CE000E1F7D801DC901196EC9011971296CC90F8
:102CF0009091FF0120910002409102025091030245
:102D00004115510531F02F3F31F481E09F3F19F417
:102D100003C081E001C080E080FD81C1F8018380B3
:102D200094808FEFA82E81E0B82EF0900102B401BC
:102D3000641B750BFF2009F418C180910402382F21
:102D4000307F683C710508F0D1C031118AC0E212B1
:102D500014C0D91212C0FC2CC1100FC08F7080613A
:102D6000809304020E94BA15C5010E940315809148
:102D70000402D80115968C936FC18114910439F027
:102D8000BFEFEB1206C081E0DB1203C003C081E09D
:102D900001C080E080FD03C081E08C2502C080E09E
:102DA00090E080FF10C04C2D6E2D8D2D0E94C81517
:102DB000882349F08FEF91E00E940315EFEFF1E0D7
:102DC00086E0DF01A4C0892839F0BFEFEB1206C00E
:102DD00081E0DB1203C003C081E001C080E080FD20
:102DE00003C081E08C2502C080E090E0E82FE17014
:102DF000BE2E80FF2CC04C2D6E2D8D2D0E94C8152F
:102E0000F82E811124C0DD86EE868D859E850E9478
:102E1000141B292F22952F70223018F0243090F4A3
:102E200005C09F7059F0811109C016C19F7031F023
:102E3000D80115969C91907F09F40EC1805E883070
:102E400008F40AC1C8010E940315FB2C05C1FC2C23
:102E5000CC2009F401C180910402816080930402B6
:102E60005BC0E21206C0D91204C0C11002C0F80152
:102E7000A0C0DD86EE868D859E850E94751588230F
:102E800079F1CC2069F120910402822F82958F7014
:102E900090E0029774F08091FF0190910002988772
:102EA0008F8319869B868A862C87CE0107960E947F
:102EB000031586E0F801AFEFB1E001900D928A951D
:102EC000E1F70E94E8150E94BA150DC0E21631F133
:102ED000DD86EE868D859E850E94751581112DC03B
:102EE000C8010E940315FF24F394B6C03111EECF40
:102EF000782D998A888A4D2D5E2D6C2D89890E94A6
:102F00007A158FEF91E00E94031586E0D5011D929E
:102F10008A95E9F70E94BA15F12C9EC0D912D8CF34
:102F2000C110D6CFF8018583C8010E94031586E041
:102F3000D5011D928A95E9F78FC0CC2089F22091A6
:102F40000402822F82958F7090E002970CF4B1CF2B
:102F50008091FF01909100029A8389831B829D8258
:102F60008C822E83CE010196A2CF683C710508F0B9
:102F700047C0FC2CCC2009F4B3CFE21230C0D912E8
:102F80002EC02091040220FD21C0822F82958F70D7
:102F9000482F50E041155105C9F0F80125834F3005
:102FA000510541F08F5F982F9295907F822F8F70FF
:102FB000892B8583C8010E94031586E0F801AFEFD5
:102FC000B1E001900D928A95E1F744C086E0F801E6
:102FD000AFEFB1E001900D928A95E1F73DC0DD863B
:102FE000EE868D859E850E947515811162CF809138
:102FF0000402816080930402C8010E9403152CC062
:10300000782D998A888A4D2D5E2D6C2D89890E9494
:103010007A1586E0D5011D928A95E9F71BC0CC2070
:1030200009F45ECFDD86EE868D859E850E9475153E
:10303000F82E882309F454CF86E0F801AFEFB1E011
:1030400001900D928A95E1F78FEF91E00E948D112A
:103050000E94E8150E94BA158F2D61960FB6F8945C
:10306000DEBF0FBECDBFDF91CF911F910F91FF90BB
:10307000EF90DF90CF90BF90AF909F908F9008958A
:103080001F93CF93DF93CDB7DEB72C970FB6F8948D
:10309000DEBF0FBECDBF4F83588769877A878B8786
:1030A0009C87CE0107960E9454168823D1F09F81F9
:1030B00088852A853B85232B31F08F3F31F481E0D1
:1030C0009F3F19F403C081E001C080E080FD47C04C
:1030D0004F81588569857A858B859C850E948915E5
:1030E0003EC086E0FE013796DE01119601900D92FA
:1030F0008A95E1F7FF81E8856A857B856115710511
:1031000031F0EF3F31F481E0FF3F19F403C081E07B
:1031100001C080E080FD23C02091CE0130E0C901D4
:103120000196877099274091CD0150E0841795074B
:10313000F1F1F983EA837D836C8396E0929FD0015D
:10314000939FB00D1124A153BE4FFE013196019003
:103150000D929A95E1F78093CE010E94991516E0A1
:103160008091CD019091CE01891771F1189FC00116
:10317000112481539E4F0E945416882329F1E09117
:10318000CD011E9FF0011124E153FE4F408151817A
:1031900062817381848195810E9489158091CD011E
:1031A00090E00196877099278093CD01D9CF0E9436
:1031B0004D151092CE011092CD01EFEFF1E086E0B7
:1031C000DF011D928A95E9F72C960FB6F894DEBFC1
:1031D0000FBECDBFDF91CF911F910895EF92FF9267
:1031E0000F931F93CF93DF938C01892B09F46CC04D
:1031F000F12CEE24E394E8012196F80184918437C0
:1032000040F4843008F051C0813081F0823019F1EF
:103210005BC0853709F444C0A8F19CE7980F90374C
:1032200008F052C08F770E94421241C00E5F1F4FBC
:10323000FE01849190E2980F983050F48770FE2D33
:1032400001C0FF0F8A95EAF78F2F0E94761B14C0EA
:103250000E9493112DC00E5F1F4FFE01849190E2DA
:10326000980F983060F48770FE2D01C0FF0F8A958B
:10327000EAF78F2F0E947C1B0E94A11B19C00E949D
:10328000421216C00E5F1F4FFE01C491CC2381F085
:103290008FE99FE00197F1F700C00000C150F6CF21
:1032A0000E5F1F4FFE01F49003C00E9493118E0128
:1032B0008F2D882309F49FCFEFE9FFE03197F1F7D5
:1032C00000C000008150F5CFDF91CF911F910F9189
:1032D000FF90EF900895089508950C946C190C9444
:1032E0006D190E946F1960933602709337028093B4
:1032F0003802909339020C9433150C9471190F9382
:103300001F930091360210913702209138023091BC
:103310003902602B712B822B932B1F910F910C94F0
:1033200071190F931F93009136021091370220916B
:1033300038023091390260237123822393231F9135
:103340000F910C9471190F931F93009136021091F5
:103350003702209138023091390260277127822785
:1033600093271F910F910C9471190C946C190E9462
:10337000B5196093320270933302809334029093B4
:1033800035020C94331560E070E0CB010C94B71952
:103390000F931F9341E050E060E070E08A019B01D1
:1033A00004C0000F111F221F331F8A95D2F7C901D5
:1033B000B8011F910F910C94B7190F931F9341E01F
:1033C00050E060E070E004C0440F551F661F771F97
:1033D0008A95D2F78091320290913302A091340203
:1033E000B09135028A019B01082B192B2A2B3B2B0C
:1033F000C901B8011F910F910C94B7190F931F9336
:1034000041E050E060E070E004C0440F551F661FCB
:10341000771F8A95D2F74095509560957095809169
:10342000320290913302A0913402B09135028A01A8
:103430009B01082319232A233B23C901B8011F91AB
:103440000F910C94B7190F931F9341E050E060E087
:1034500070E004C0440F551F661F771F8A95D2F78E
:103460008091320290913302A0913402B0913502E2
:103470008A019B01082719272A273B27C901B80180
:103480001F910F910C94B7190F931F930091320263
:10349000109133022091340230913502602B712B50
:1034A000822B932B1F910F910C94B7190F931F939D
:1034B0000091320210913302209134023091350292
:1034C00060237123822393231F910F910C94B719CA
:1034D0000F931F9300913202109133022091340216
:1034E0003091350260277127822793271F910F9112
:1034F0000C94B719089527E0929F800D1124E82FAE
:10350000E695E695E695877051E001C0550F8A95DE
:10351000EAF785E0E89FF0011124EB5FFD4F20E022
:1035200030E070E04081CB01022E02C09695879575
:103530000A94E2F7817081958427852384278193FB
:103540002F5F3F4F2530310569F7089527E0929F9F
:10355000800D1124682F669566956695982F977053
:1035600085E0689FB001112440E050E080E0FB015D
:10357000E40FF51FEB5FFD4F208130E0092E02C004
:10358000369527950A94E2F721703327042E01C05F
:10359000220F0A94EAF7822B4F5F5F4F45305105A7
:1035A00031F70895BF92CF92DF92EF92FF920F937F
:1035B0001F93CF93DF938C01C0903202D0903302DF
:1035C000E0903402F09035028091360290913702FB
:1035D000A0913802B0913902C82AD92AEA2AFB2AD6
:1035E000CFE1D0E0D701C6010C2E04C0B695A79557
:1035F000979587950A94D2F780FD04C0219790F79C
:10360000B12C07C0BC2EB8018C2F0E9487080197EF
:10361000A9F38B2DDF91CF911F910F91FF90EF9028
:10362000DF90CF90BF900895CF93DF93EC010E947D
:10363000D21ABE010E948708DF91CF9108951F938F
:10364000CF93DF93EB019091CC01992321F0CB0133
:103650000E94141B13C0882349F0CB010E94D21A88
:10366000182F682FCE010E947B1A04C0CB010E9444
:10367000A61A182FBE01812F0E948708DF91CF91D3
:103680001F91089580913A028595859585950895B5
:1036900080913A028770089590913A02977081E084
:1036A00009F480E0089580914602089590914602C1
:1036B000892B809346020895809590914602892334
:1036C0008093460208951092460208959091450213
:1036D000892B809345020895809590914502892316
:1036E00080934502089510924502089590914402F6
:1036F000892B8093440208958095909144028923F8
:1037000080934402089510924402089580913B02F0
:10371000089508950C94891B0C948A1B90913B0288
:10372000981721F080933B020C948C1B0895809194
:103730003B02882329F010923B0280E00C948C1B02
:103740000895E0910901F0910A0180914602808379
:10375000E0910901F0910A01908180914502892B45
:103760008083E0910901F0910A01908180914402E7
:10377000892B808380913B02882381F0E0910901AD
:10378000F0910A019081892B8083809109019091A9
:103790000A010E94C91C81110E94971B8091090196
:1037A00090910A010C94F40F0C94891B98E0899F66
:1037B00090011124262B20933A020E94DD1980915A
:1037C0003A028595859585950C94D41B10923A0202
:1037D00080E00C94D41B20913A0280958223809340
:1037E0003A02982F977079F430E0482F082E000C99
:1037F000550B2417350739F08595859585950E94D9
:10380000FE190C94E61B08959093A9018093A801DA
:1038100008958295982F937344E0949F900111240A
:103820008C7C86958695282B822F8575880F2A7A21
:103830002695822B089580E090E00E94362E21E0AC
:103840008C3E9E4F09F020E0822F089582E090E0A8
:103850000C942E2E83E090E00C942E2ECF9384E0D7
:1038600090E00E942E2EC82F81E290E00E942E2E22
:103870002C2F30E0A901582BCA01CF910895CF9386
:10388000C92F682F84E090E00E943C2E6C2F81E2CB
:1038900090E0CF910C943C2EAB01BC018FE090E006
:1038A0000C944E2EAB01BC0183E190E00C944E2EA3
:1038B00060E070E0CB010C94521C60E070E0CB0142
:1038C0000E944C1C0C94581C6CEE7EEF80E090E043
:1038D0000E945A2E60E082E090E00E943C2E60E060
:1038E00083E090E00E943C2E109236021092370244
:1038F000109238021092390260E084E090E00E9459
:103900003C2E60E081E290E00E943C2E60E085E089
:1039100090E00E943C2E60E086E090E00E943C2E09
:103920006FEF87E090E00E943C2E40E050E0BA014B
:1039300088E090E00E944E2E60E08DE090E00E94D2
:103940003C2E40E050E0BA0188E190E00E944E2E0B
:1039500060E087E190E00E943C2E40E050E0BA0138
:103960008CE190E00E944E2E60E080E290E00E94A8
:103970003C2E40E050E0BA0188E190E00E944E2EDB
:103980000C945D1C0C94641C682F8EE090E00C94E9
:103990003C2EFC01329697E080E0915029F0219175
:1039A0002223D9F38F5FF9CF0895662349F0FC01F4
:1039B000329608962191621729F0E817F907D1F796
:1039C00080E0089581E008959C01FC0132969FEF0C
:1039D00080E04191461789F09F3F19F4411101C0E1
:1039E000982F8F5F8630A9F79F3F39F0F901E90FD3
:1039F000F11D97FDFA956283089508959C012A5F51
:103A00003F4FFC014281461301C01282019682178A
:103A10009307B9F708950C94E41C0C94FE1C0296CD
:103A200026E0FC0111922A95E9F7089508950C9477
:103A3000161D0C94161DCF930E94191D0E94580B41
:103A40000E94171DC0E08C2F0E94760A811104C0CD
:103A5000CF5FCA30C1F701C081E0CF9108950C94C7
:103A6000161D0C942F1D0E94311D809187028430F9
:103A700049F11092480220E488E190E00FB6F894F2
:103A8000A895809360000FBE2093600080E00E94A4
:103A90005F080E94311D83B7817F846083BF83B735
:103AA000816083BF7894889583B78E7F83BF0FB67C
:103AB000F894A895809160008861809360001092CE
:103AC00060000FBE08950C94161D0E944D150E94B3
:103AD000E80F0E945F080C94631D1F920F920FB6AF
:103AE0000F9211248F939F93AF93BF9380914802BD
:103AF000811113C080917D0290917E02A0917F027E
:103B0000B09180024196A11DB11D80937D029093DA
:103B10007E02A0937F02B0938002BF91AF919F91EC
:103B20008F910F900FBE0F901F90189582E084BD6B
:103B300093E095BD9AEF97BD80936E0008952FB7DF
:103B4000F89480917D0290917E02A0917F02B091C5
:103B500080022FBF08952FB7F89460917D02709175
:103B60007E0280917F02909180022FBF08959C0178
:103B70004FB7F89480917D0290917E02A0917F02D0
:103B8000B09180024FBF821B930B089578941F92CF
:103B90000F920FB60F9211248F939F93AF93BF9301
:103BA00080917D0290917E02A0917F02B09180026F
:103BB0000196A11DB11D80937D0290937E02A0937A
:103BC0007F02B0938002BF91AF919F918F910F9030
:103BD0000FBE0F901F90189587E797E79093010805
:103BE000809300089AE088E10FB6F894A895809336
:103BF00060000FBE90936000FFCF0E941B1C8111DC
:103C000002C00E94C21C0E94261C809347020E9490
:103C10002E1C90938202809381020E942A1C682F9E
:103C200070E080E090E00E947D1960913202709116
:103C3000330280913402909135020C94B519809131
:103C4000510280FF0BC060910F0185E0689FB001B9
:103C5000112475956795759567952BC081FF09C0EF
:103C600060910F0185E0689FB001112475956795FB
:103C700020C082FF07C060910F0185E0689FB001FE
:103C8000112417C0909150029923D1F060910E0138
:103C9000961788F720910F0185E0289F9001112445
:103CA000929FA001939F500D112470E0CA010E94C1
:103CB000002E6038710540F46115710519F406C0D5
:103CC00065E070E0862F08958FE7089581E00895FC
:103CD0008091510280FF08C060910C0170E07595E1
:103CE00067957595679521C081FF06C060910C01AD
:103CF00070E07595679519C082FF04C060910C0152
:103D000070E010C090914F02992399F060910B01DF
:103D10009617A0F780910C01899FC001112470E0D3
:103D20000E94002E6038710540F46115710519F488
:103D300006C061E070E0862F08958FE7089581E066
:103D40000895803F21F40E941F1E819504C0813F89
:103D500029F40E941F1E809355020895823F21F48A
:103D60000E941F1E819504C0833F29F40E941F1EDC
:103D7000809354020895893F19F40E94681E05C07B
:103D80008A3F31F40E94681E8195809356020895FF
:103D90008B3F21F40E94681E819504C08C3F29F45A
:103DA0000E94681E809357020895843F21F48091F9
:103DB0005302816017C0853F21F4809153028260D5
:103DC00011C0863F21F48091530284600BC0873F6D
:103DD00021F480915302886005C0883F31F48091BE
:103DE000530280618093530208958D3F21F48091A6
:103DF000510281600BC08E3F21F48091510282609C
:103E000005C08F3F29F48091510284608093510254
:103E10000895803F39F48091550287FF6AC010925F
:103E2000550267C0813F29F4809155021816BCF3F2
:103E300060C090915402823F29F497FF5AC01092BB
:103E4000540257C0833F19F41916CCF352C0909115
:103E50005602893F31F419160CF04BC010925602ED
:103E600048C08A3F19F497FF44C0F8CF8B3F39F41C
:103E70008091570287FF3DC0109257023AC08C3F95
:103E800029F4809157021816BCF333C0843F21F403
:103E9000809153028E7F17C0853F21F48091530299
:103EA0008D7F11C0863F21F4809153028B7F0BC020
:103EB000873F21F480915302877F05C0883F31F40A
:103EC000809153028F7E8093530213C08D3F21F463
:103ED000809151028E7F0BC08E3F21F48091510260
:103EE0008D7F05C08F3F29F4809151028B7F809395
:103EF000510280915402811106C0809155028111B6
:103F000002C01092500280915602811106C0809129
:103F10005702811102C010924F020895809147020A
:103F200083FF7EC08CE393E00E94F40680915302ED
:103F30001F928F9387E393E09F938F930E948D0747
:103F400085E393E00E94F40680915402282F082E06
:103F5000000C330B3F938F9382E393E09F938F93F7
:103F60000E948D0780E393E00E94F4068091550241
:103F7000282F082E000C330B3F938F938DE293E094
:103F80009F938F930E948D078BE293E00E94F4062B
:103F900080915602282F082E000C330B3F938F93ED
:103FA00088E293E09F938F930E948D0786E293E0CF
:103FB0000E94F40680915702282F082E000C330B24
:103FC0003F938F9383E293E09F938F930E948D079B
:103FD00080E293E00E94F406809150021F928F933A
:103FE0008DE193E09F938F930E948D078BE193E087
:103FF0000E94F406809151021F928F9388E193E012
:104000009F938F930E948D0785E193E00E94F406B1
:104010008DB79EB74C960FB6F8949EBF0FBE8DBF5E
:104020000E949F1D20915402211104C0209155022D
:10403000222321F090934E0280934D02209156024C
:10404000211104C020915702222321F090934C02A9
:1040500080934B0282E592E00C943D10EF92FF9228
:104060000F931F93CF93DF9300D000D000D0CDB734
:10407000DEB786E0E2E5F2E0DE01119601900D92F6
:104080008A95E1F7E0905402F090550200915602B3
:10409000109157021092540210925502109256023B
:1040A00010925702E11003C0FF2009F45DC0809117
:1040B0004D0290914E020E94B71DAC0190915002AA
:1040C000992339F02091100130E02417350758F07A
:1040D0004BC020914A028AE0289F900111242417A6
:1040E000350718F041C09F3F19F09F5F9093500231
:1040F000EE2061F00E941F1E1E1414F09FEF01C0FD
:1041000091E0989F902D112490935402FF2061F02C
:104110000E941F1E1F1414F09FEF01C091E0989F92
:10412000902D112490935502309154023323E1F0E5
:10413000209155022223C1F045EB3403C001112424
:10414000992319F09093540203C081E080935402A4
:1041500035EB2303C0011124992319F090935502E4
:1041600003C081E080935502011103C0112309F4BB
:104170005DC080914B0290914C020E94B71DAC0132
:1041800090914F02992339F020910D0130E02417CE
:10419000350758F04BC0209149028AE0289F9001D2
:1041A00011242417350718F041C09F3F19F09F5F75
:1041B00090934F02002361F00E94681E101614F0C5
:1041C0009FEF01C091E0989F902D1124909356028B
:1041D000112361F00E94681E111614F09FEF01C0B8
:1041E00091E0989F902D11249093570230915602A0
:1041F0003323E1F0209157022223C1F045EB340331
:10420000C0011124992319F09093560203C081E054
:104210008093560235EB2303C0011124992319F032
:104220009093570203C081E080935702809154021B
:1042300081110BC080915502811107C080915602F7
:10424000811103C08091570281110E948E1FEB8261
:10425000FC820D831E8386E0FE013196A2E5B2E06A
:1042600001900D928A95E1F726960FB6F894DEBF7D
:104270000FBECDBFDF91CF911F910F91FF90EF90B7
:104280000895E2E5F2E086E0DF011D928A95E9F704
:104290001092500210924F021092510208958FE531
:1042A00095E00E94F4061F9281E08F931F9285E0B3
:1042B0008F9381E195E09F938F930E948D070F90DC
:1042C0000F900F900F900F900F9008958330E9F1A9
:1042D00028F4813061F0823009F10895853009F4C5
:1042E00062C008F449C0863009F474C00895809112
:1042F0004A02262F30E0280F311D2F3F310524F4CC
:10430000680F60934A0203C08FEF80934A02809146
:104310004A021F928F938AE494E072C08091100148
:10432000262F30E0280F311D2F3F310524F4680F70
:104330006093100103C08FEF8093100180911001F2
:104340001F928F9388E394E05BC080910F01262F2A
:1043500030E0280F311D2F3F310524F4680F6093A2
:104360000F0103C08FEF80930F0180910F011F9207
:104370008F9385E294E044C080910E01262F30E0B7
:10438000280F311D2F3F310524F4680F60930E0173
:1043900003C08FEF80930E0180910E011F928F93C7
:1043A00080E194E02DC080910C01262F30E0280F91
:1043B000311D2F3F310524F4680F60930C0103C0B9
:1043C0008FEF80930C0180910C011F928F9387EFE8
:1043D00093E016C080910B01262F30E0280F311D8D
:1043E0002F3F310524F4680F60930B0103C08FEF5A
:1043F00080930B0180910B011F928F938CED93E0C2
:104400009F938F930E948D070F900F900F900F90A6
:104410000895833081F128F4813059F08230D1F051
:104420000895853009F449C0B8F1863009F456C0C2
:10443000089580914A02681720F4861B80934A02EF
:1044400002C010924A0280914A021F928F938DEC13
:1044500093E054C080911001681720F4861B80936C
:10446000100102C010921001809110011F928F93D1
:104470008BEB93E043C080910F01681720F4861BFB
:1044800080930F0102C010920F0180910F011F92C3
:104490008F9388EA93E032C080910E01681720F470
:1044A000861B80930E0102C010920E0180910E01B6
:1044B0001F928F9383E993E021C080910C016817CC
:1044C00020F4861B80930C0102C010920C01809195
:1044D0000C011F928F938AE793E010C080910B012B
:1044E000681720F4861B80930B0102C010920B0109
:1044F00080910B011F928F938FE593E09F938F9391
:104500000E948D070F900F900F900F900895CF93FA
:10451000C82F1F928F9384E696E09F938F930E94FB
:104520008D0781E090E0A0E0B0E0BC01CD0104C0C7
:10453000660F771F881F991FCA95D2F70E947D19B1
:104540000F900F900F900F90CF910C944D15CF932B
:10455000DF938B3109F4EAC108F08BC18B3009F489
:10456000AEC108F065C1863009F4ACC120F48530D5
:1045700009F4BAC15DC2873009F4BDC1883009F0C1
:1045800057C287E79BE00E94F40688EC9AE00E94FD
:10459000F4060E942A1C1F928F9385EC9AE09F9349
:1045A0008F930E948D0783EC9AE00E94F4060E948C
:1045B000261CC82F80EB9AE00E94F4061F92CF932E
:1045C0008BEA9AE09F938F930E948D0789EA9AE085
:1045D0000E94F4068FE99AE00E94F4068C2F817005
:1045E0001F928F938CE99AE09F938F930E948D077F
:1045F0008AE99AE00E94F40680E99AE00E94F406B3
:10460000C1FB882780F91F928F938DE89AE09F93D2
:104610008F930E948D078BE89AE00E94F4068FE743
:104620009AE00E94F406C2FB882780F91F928F93BC
:104630008CE79AE09F938F930E948D078AE79AE018
:104640000E94F40681E79AE00E94F406C3FBCC279F
:10465000C0F91F92CF938EE69AE09F938F930E94AA
:104660008D078CE69AE00E94F4060E942E1CEC0155
:1046700088E59AE00E94F406DF93CF9383E59AE001
:104680009F938F930E948D0781E59AE00E94F40624
:1046900088E39AE00E94F4068C2F81701F928F931A
:1046A00085E39AE09F938F930E948D078DB79EB705
:1046B00080960FB6F8949EBF0FBE8DBF83E39AE03D
:1046C0000E94F4068CE19AE00E94F406C1FB882760
:1046D00080F91F928F9389E19AE09F938F930E94B4
:1046E0008D0787E19AE00E94F40685E09AE00E9437
:1046F000F4068D2F81701F928F9382E09AE09F9332
:104700008F930E948D0780E09AE00E94F4068EEE5F
:1047100099E00E94F406D695D1701F92DF938BEE3C
:1047200099E09F938F930E948D0789EE99E00E94F4
:10473000F40687ED99E00E94F406C2FB882780F911
:104740001F928F9384ED99E09F938F930E948D0722
:1047500082ED99E00E94F40680EC99E00E94F40654
:10476000C3FB882780F91F928F938DEB99E09F936D
:104770008F930E948D078BEB99E00E94F40681EBEA
:1047800099E00E94F406C4FB882780F91F928F935A
:104790008EEA99E09F938F930E948D078CEA99E0AF
:1047A0000E94F4068AE999E00E94F406C5FB882776
:1047B00080F91F928F9387E999E09F938F930E94CE
:1047C0008D0785E999E00E94F40689E799E00E9447
:1047D000F406C6FB882780F91F928F9386E799E03D
:1047E0009F938F930E948D078DB79EB780960FB6CB
:1047F000F8949EBF0FBE8DBF84E799E00E94F40637
:104800008CE699E00E94F406C7FBCC27C0F91F9202
:10481000CF9389E699E09F938F930E948D0787E657
:1048200099E00E94F4060F900F900F900F9045C0F2
:10483000803109F4A5C020F48E3009F48BC0F8C093
:10484000863109F4B8C0893109F0F2C08EE897E0EA
:104850000E94F4068AE497E00E94F40683E397E05E
:104860000E94F4068DEF96E00E94F40682ED96E039
:1048700084C08A32E1F060F4873209F4D5C028F4AC
:104880008E3108F4D5C08D51D0C0893269F1D0C0C5
:10489000833448F48A3308F0C5C0853309F4C4C0B2
:1048A000883369F0C5C0833409F4BEC0C1C086E650
:1048B0009BE00E94F4060E94C21CC1E0BEC084ECD2
:1048C00097E05BC080914702817F8E7F8093470293
:1048D0008DE997E00E94F40682E69BE00E94F406D0
:1048E00081E080935902E9CF86E49BE00E94F406C0
:1048F0000E94F107E2CF80914702C82FC095C17096
:10490000C0FB80F980934702CC2329F08AE39BE027
:104910000E94F40692C08DE29BE00E94F406809112
:104920004702897F877F80934702C7CF90914702D4
:1049300091FBCC27C0F981E0C827892FC0FB81F902
:1049400080934702CC2319F080E29BE029C082E1EA
:104950009BE013C09091470292FBCC27C0F981E005
:10496000C827892FC0FB82F980934702CC2319F016
:1049700083E09BE015C083EF9AE00E94F4069DCF90
:104980009091470293FBCC27C0F981E0C827892F7B
:10499000C0FB83F980934702CC2351F087EE9AE065
:1049A0000E94F4068091470281608093470245C0CF
:1049B0008AED9AE0E2CF84EC96E00E94F4060E9431
:1049C000E80F1F928F938AEA96E09F938F930E943D
:1049D0008D0780911B011F928F9383E996E09F932F
:1049E0008F930E948D07809166021F928F9380E8BB
:1049F00096E09F938F930E948D070E94AB1D9F931B
:104A00008F937F936F9389E696E09F938F930E9495
:104A10008D078DB79EB742960FB6F8949EBF0FBE16
:104A20008DBF4BCF895301C080E00E94872245CFC4
:104A300088ED9AE00E94F406C0E08C2FDF91CF91C0
:104A4000089580E008950C9421258E518A3030F429
:104A5000E82FF0E0E157FE4F8081089580E008954F
:104A6000CF93C82F80915902813059F020F08230C5
:104A700009F445C037C10E94531B823209F034C18A
:104A800004C00E94531B823261F48C2F0E942325A4
:104A9000811104C08C2F0E94A7222FC081E090E0DA
:104AA0002CC08C2F0E942125811126C0C431E1F039
:104AB00070F4CB3081F0C031D1F40E944F218CE5ED
:104AC00096E00E94F40682E08093590215C0C93234
:104AD00059F0C83361F48DE997E00E94F40680E64E
:104AE00096E00E94F40608C010925902FFC08AE5C1
:104AF00096E00E94F406FAC081E08170F9C0C432E9
:104B000018F5CE3108F0BFC0CB3091F1C0F4C730FA
:104B100009F0CEC010924A0284E180931001C09344
:104B20000F018CE380930E0188E080930C0188E2F2
:104B300080930B0180E095E00E94F406BCC0C33175
:104B400049F1C431C1F0B4C0CB3409F4A6C028F493
:104B5000C93289F0C83361F0ABC0C13509F49BC0DC
:104B6000C23509F496C0CE3409F0A2C06AE09BC0F9
:104B70000E944F21A0C080915802882319F0109202
:104B8000580299C08DE095E00E94F40681E0809380
:104B90005902AEC087EE94E00E94F40685ED94E0E1
:104BA0000E94F40680914A021F928F9382ED94E056
:104BB0009F938F930E948D0780ED94E00E94F406EE
:104BC0008EEB94E00E94F406809110011F928F9367
:104BD0008BEB94E09F938F930E948D0789EB94E079
:104BE0000E94F4068AEA94E00E94F40680910F0184
:104BF0001F928F9387EA94E09F938F930E948D0773
:104C000085EA94E00E94F40684E994E00E94F406A8
:104C100080910E011F928F9381E994E09F938F936F
:104C20000E948D078FE894E00E94F4068AE794E0E2
:104C30000E94F40680910C011F928F9387E794E005
:104C40009F938F930E948D0785E794E00E94F4065E
:104C50008EE594E00E94F40680910B011F928F93E1
:104C60008BE594E09F938F930E948D0789E594E0F4
:104C70000E94F4068DB79EB748960FB6F8949EBF73
:104C80000FBE8DBF18C08C2F0E942525809358021F
:104C900012C061E003C061E006C06AE08091580282
:104CA0000E94662108C0809158020E94092203C018
:104CB0008EEF94E013C080915802882369F01F9210
:104CC0008F9388EF94E09F938F930E948D070F90AE
:104CD0000F900F900F9004C085EF94E00E94F406AF
:104CE00081E006C01092590280E002C080E005CF4A
:104CF000CF9108958091650208959FB7F89410921E
:104D00005C029FBF90918702943009F057C0909148
:104D1000E9009F703091EC00232F217030FD20E8D6
:104D2000922B23E02093E9002091EB0020FF43C069
:104D30002091EE0027FF3FC020915A02222321F04C
:104D40002091E80025FF37C010925A0226E03091EA
:104D5000E80035FD15C030918702343061F530919F
:104D6000EB0035FD28C0215021F481E080935A02E8
:104D700022C0EFE9FFE03197F1F700C00000E7CF74
:104D80008093F1008091E80085FD0AC08091E800E1
:104D900080FFFCCF8091E8008E778093E80006C00A
:104DA0008FB7F89421E020935C028FBF9F7090939F
:104DB000E90080E008959F709093E9008FEF0895D7
:104DC000CF93DF9300D01F92CDB7DEB790918702CB
:104DD000943019F589837B836A8382E08093E900AC
:104DE0008FEF9091E800815095FD06C095ED9A9562
:104DF000F1F700008111F5CF8091E80085FF0DC02B
:104E000040E050E063E070E0CE0101960E94572937
:104E10008091E8008E778093E8000F900F900F90BC
:104E2000DF91CF910895BC0184E00C94E026BC0191
:104E300083E00C94E02622E02093E9002FEF3091EC
:104E4000E800215035FD06C035ED3A95F1F7000038
:104E50002111F5CF2091E80025FF0BC040E050E084
:104E600066E070E00E9457298091E8008E77809379
:104E7000E8000895CF93DF9321E02093E9002FEF1E
:104E80003091E800215035FD06C035ED3A95F1F737
:104E900000002111F5CF2091E80025FF14C0EC019E
:104EA00040E050E068E070E00E9457298091E800FF
:104EB0008E778093E80088E0FE01ADE5B2E00190D6
:104EC0000D928A95E1F7DF91CF91089587EA9BE0F3
:104ED0000E94F40680918602811109C00E94E82A8E
:104EE0000E94452B8091E20084608093E200089547
:104EF00083EA9BE00E94F4061092860208958FE9EF
:104F00009BE00C94F4068BE99BE00C94F40687E993
:104F10009BE00E94F4060C94651D20915B022F5FBC
:104F2000822F62E30E94F42D992319F020935B02F3
:104F3000089510925B0280915C02882371F1809148
:104F40008702843041F58091E9008F702091EC0058
:104F5000922F917020FD90E8892B93E09093E900C7
:104F60009091EB0090FF14C09091EE0097FF10C05D
:104F70009091E80095FF03C01092F100F9CF909155
:104F8000E80090FF05C09091E8009E779093E800BC
:104F90008F708093E90010925C02089542E061EC0A
:104FA00081E00E94612A42E261EC82E00E94612A73
:104FB00042E261EC83E00C94612A809189028330A3
:104FC00009F460C030F4813071F0823009F499C086
:104FD00008958A3009F485C08B3009F46BC089309C
:104FE00009F0A7C020C080918802813A09F0A1C0D1
:104FF0008091E800877F8093E80080918C029091F7
:105000008D02892B21F468E08DE592E003C060E019
:1050100080E090E070E00E94A2298091E8008B7708
:105020008093E800089580918802813209F081C060
:1050300080918C0290918D02029708F07AC0809145
:10504000E800877F8093E8008091E80082FD05C03A
:10505000809187028111F8CF6CC02091F30080917C
:10506000F20090E0922B029729F48091F1008B7F5F
:10507000813021F48091F100809365028091E800F5
:105080008B7753C080918802813A09F052C0809199
:105090008C0290918D02892B09F04BC08091E80021
:1050A000877F8093E8008091E80080FFFCCF8091AB
:1050B0001B0136C0809188028132D9F580918C0223
:1050C00090918D02892BA9F58091E800877F8093CC
:1050D000E8000E94962A80918A0280931B010C941A
:1050E0004D1580918802813221F58091E800877FFB
:1050F0008093E8000E94962A80918B02809366023A
:10510000089580918802813AA1F48091E800877F18
:105110008093E8008091E80080FFFCCF80916602D8
:105120008093F1008091E8008E778093E8000C94E2
:10513000962A089584B7877F84BF0FB6F894A89500
:1051400080916000886180936000109260000FBEC3
:1051500090E080E80FB6F89480936100909361002E
:105160000FBE0E948D100E94E82A0E94452B80915C
:10517000E20084608093E2008DE796E20E94041CC6
:1051800078940E94D92D0E94931081E191E00E94B1
:10519000E30F86E89BE00E94F40680918702853049
:1051A00089F482E89BE00E94F4060E94331D8091FE
:1051B0008502882391F30E941B1D882371F30E94AE
:1051C0004129EBCF0E94C3100E9481100E948010E1
:1051D000E4CF0C94EB28292F332723303105C9F075
:1051E00060F42130310581F02230310509F041C0F1
:1051F0008BE590E02DEE3BE040C021323105E1F03F
:105200002232310531F135C082E190E028E43CE002
:1052100034C099278130910549F028F0029749F56B
:10522000EBEAFBE005C0E9EEFBE002C0E9EDFBE0E4
:10523000849190E09F0121C063307105D0F4660F26
:10524000771FFB01EE55FE4F2081318189E090E010
:1052500014C06330710568F4FB01EE0FFF1FE456C4
:10526000FE4F20813181FB01E756FE4F808190E0A7
:1052700004C080E090E020E030E0FA013183208338
:10528000089580E189BD82E189BD09B400FEFDCFAA
:105290008091D8008F7D8093D8008091E00082605B
:1052A0008093E0008091E00081FDFCCF0895CF92D3
:1052B000DF92EF92FF920F931F93CF93DF93EC0156
:1052C0008B017A010E94B52A811133C0E114F104E7
:1052D00039F0F70180819181081B190BC80FD91F84
:1052E000C12CD12C0115110519F18091E80085FD23
:1052F00016C08091E8008E778093E800E114F104F5
:1053000049F0F70180819181C80ED91ED182C082F7
:1053100085E00FC00E94B52A882321F30AC0899135
:105320008093F10001501109FFEFCF1ADF0ADACFA5
:1053300080E0DF91CF911F910F91FF90EF90DF9070
:10534000CF90089520918E0230918F022617370753
:1053500048F06115710539F42091E8002E7720930B
:10536000E80001C0B901FC0120E06115710579F187
:10537000809187028823F1F18530F1F18091E80076
:1053800083FD3CC08091E80082FD2EC08091E80042
:1053900080FFEBCF2091F3008091F20090E0922B00
:1053A0006115710551F08830910538F421912093F1
:1053B000F100615071090196F3CF21E0089709F0DF
:1053C00020E08091E8008E778093E800CECF211115
:1053D000CFCF0AC080918702882361F0853061F0C9
:1053E0008091E80083FD0AC08091E80082FFF2CF3F
:1053F00080E0089582E0089583E0089581E00895B3
:1054000020918E0230918F022617370748F06115E0
:10541000710539F42091E8002E772093E80001C04F
:10542000B901FC0120E06115710591F180918702BD
:10543000882309F440C0853009F43FC08091E8001A
:1054400083FD3DC08091E80082FD2FC08091E8007F
:1054500080FFE9CF2091F3008091F20090E0922B41
:105460006115710559F08830910540F4249120931D
:10547000F1003196615071090196F2CF21E0089751
:1054800009F020E08091E8008E778093E800CBCF90
:105490002111CCCF0AC080918702882361F085302A
:1054A00061F08091E80083FD0AC08091E80082FFEE
:1054B000F2CF80E0089582E0089583E0089581E0CE
:1054C0000895982F973068F59093E900981739F070
:1054D0007091EC002091ED005091F00003C0242F5A
:1054E000762F50E021FD02C09F5FECCF3091EB00A2
:1054F0003E7F3093EB003091ED003D7F3093ED0027
:105500003091EB0031603093EB007093EC0020930E
:10551000ED005093F0002091EE0027FDE5CF80E0F4
:1055200008958F708093E90081E00895809188024A
:1055300087FF11C08091E80082FD05C0809187023D
:105540008111F8CF11C08091E8008B770BC080915A
:105550008702882349F08091E80080FFF8CF80918E
:10556000E8008E778093E80008952091E400309160
:10557000E50095E64091EC00842F817040FF23C048
:105580008091E80080FD1DC080918702882399F0FA
:10559000853099F08091EB0085FD11C04091E400C9
:1055A0005091E5002417350729F3915011F09A0125
:1055B000E1CF84E0089582E0089583E0089581E0DA
:1055C000089580E008954091E80042FFDDCF0895FE
:1055D0000E94562B0E945E2BE0EEF0E080818160FD
:1055E0008083E8EDF0E080818F77808319BCA7EDA0
:1055F000B0E08C918E7F8C9380818F7E808310921F
:10560000860208950F931F93CF93DF930E94562B2A
:105610000E945E2BC8EDD0E088818F7788838881D7
:105620008068888388818F7D888319BC1092870267
:1056300010928302109285021092840200EE10E014
:10564000F80180818B7F808388818160888342E03C
:1056500060E080E00E94612AE1EEF0E080818E7FD0
:105660008083E2EEF0E080818160808380818860C9
:105670008083F80180818E7F808388818061888328
:10568000DF91CF911F910F910895E8EDF0E08081B7
:105690008F7E8083E7EDF0E080818160808384E00D
:1056A00082BF81E0809386020C94022BE8EDF0E04B
:1056B00080818E7F80831092E20008951092DA003C
:1056C0001092E10008951F920F920FB60F921124CD
:1056D0002F933F934F935F936F937F938F939F93FA
:1056E000AF93BF93EF93FF938091E10082FF0BC0D4
:1056F0008091E20082FF07C08091E1008B7F809360
:10570000E1000E948D278091DA0080FF1FC0809108
:10571000D80080FF1BC08091DA008E7F8093DA0072
:105720008091D90080FF0DC080E189BD82E189BDF3
:1057300009B400FEFDCF81E0809387020E946627B6
:1057400005C019BC109287020E9478278091E10061
:1057500080FF19C08091E20080FF15C08091E200B7
:105760008E7F8093E2008091E20080618093E2006E
:105770008091D80080628093D80019BC85E0809326
:1057800087020E9483278091E10084FF30C08091CE
:10579000E20084FF2CC080E189BD82E189BD09B4AB
:1057A00000FEFDCF8091D8008F7D8093D80080913E
:1057B000E1008F7E8093E1008091E2008F7E8093F4
:1057C000E2008091E20081608093E2008091830298
:1057D000882311F084E007C08091E30087FD02C0B8
:1057E00081E001C083E0809387020E948727809137
:1057F000E10083FF29C08091E20083FF25C08091F2
:10580000E100877F8093E10082E08093870210921D
:1058100083028091E1008E7F8093E1008091E2001D
:105820008E7F8093E2008091E20080618093E200AD
:1058300042E060E080E00E94612A8091F000886090
:105840008093F0000E947F27FF91EF91BF91AF916D
:105850009F918F917F916F915F914F913F912F9188
:105860000F900FBE0F901F9018951F920F920FB6BA
:105870000F9211242F933F934F935F936F937F93D6
:105880008F939F93AF93BF93CF93DF93EF93FF9348
:10589000C091E900CF708091EC00D82FD17080FDCD
:1058A000D0E81092E9008091F000877F8093F000AB
:1058B00078940E94792C1092E9008091F000886021
:1058C0008093F000CD2BCF70C093E900FF91EF9152
:1058D000DF91CF91BF91AF919F918F917F916F9108
:1058E0005F914F913F912F910F900FBE0F901F909E
:1058F00018951F93CF93DF93CDB7DEB7AA970FB656
:10590000F894DEBF0FBECDBFE8E8F2E08091F10071
:10591000819322E0E039F207C9F70E94DD278091E8
:10592000E80083FF2EC18091880290918902492F5F
:1059300050E04A30510508F024C1FA01EC58FF4FFD
:105940000C94142E803821F0823809F01AC108C056
:105950008091840290918502992389F082600FC022
:1059600080918C028F70873008F00BC18093E90022
:105970008091EB0085FB882780F91092E9009091D7
:10598000E800977F9093E8008093F1001092F10077
:10599000D1C0282F2D7F09F0F4C0882319F0823060
:1059A00061F0EFC080918A02813009F0EAC0933043
:1059B00009F080E0809385022EC080918A028111D7
:1059C0002AC080918C028F702FEF280F263008F0AC
:1059D000D8C08093E9002091EB0020FF1CC09330D9
:1059E00021F48091EB00806214C09091EB009061F3
:1059F0009093EB0021E030E0A90102C0440F551F55
:105A00008A95E2F74093EA001092EA008091EB0059
:105A100088608093EB001092E9008091E800877F16
:105A20008093E8000E94962AACC08111AAC0109110
:105A30008A021F778091E3008078812B8093E300B6
:105A40008091E800877F8093E8000E94962A8091E9
:105A5000E80080FFFCCF8091E30080688093E30042
:105A6000111102C082E001C083E08093870289C0E7
:105A70008058823008F085C080918A0290918B0214
:105A80008C3D53E0950779F583E08A838AE2898328
:105A90004FB7F894DE01139620E03EE051E2E32F89
:105AA000F0E050935700E49120FF03C0E295EF70BF
:105AB0003F5FEF708E2F90E0EA3010F0C79601C084
:105AC000C0968D939D932F5F243149F74FBF8091EE
:105AD000E800877F8093E8006AE270E0CE010196DB
