:100000000C94C8060C94950F0C940F070C940F07D2
:100010000C940F070C940F070C940F070C940F0708
:100020000C940F070C940F070C94B32B0C94852C95
:100030000C94BD1D0C940F070C940F070C940F0724
:100040000C940F070C940F070C940F070C940F07D8
:100050000C940F070C94161E0C940F070C940F07AA
:100060000C940F070C940F070C940F070C940F07B8
:100070000C940F070C940F070C940F070C940F07A8
:100080000C940F070C940F070C940F070C940F0798
:100090000C940F070C940F070C940F070C940F0788
:1000A0000C940F070C940F070C940F075113511366
:1000B00083138313D013EE130F150F15F9138E143A
:1000C0009F149F14FF140F150F150815AF15AF15CA
:1000D000C115C115B815C115C115C115AF15AF159D
:1000E000BD15C115C115BD15F22C192D112E192DD7
:1000F000112E652D882D112EDF2DEE2D4B4C3A2023
:100100006B633A203078253034582C20636F6C3A7A
:100110002025752C20726F773A2025752C2070725F
:1001200065737365643A2025622C2074696D653AA5
:100130002025752C20696E746572727570743A2072
:1001400025622C20636F756E743A2025750A003580
:10015000001E001F0020002100220023002B00149D
:10016000001A000800150017002F00E10004001617
:1001700000070009000A004B00E0001D001B0006FC
:1001800000190005004F00E3002C005000E2002899
:100190000DA800290024002500260027002D002E90
:1001A000002A0030001C0018000C0012001300315F
:1001B000004E000B000D000E000F00330034005104
:1001C00000110010003600370038004C000153AA1F
:1001D000000253A90052004C00280001003A003BE5
:1001E000003C003D003E003F0001000100010052C4
:1001F0000001000100010001000100500051004F0A
:1002000000010001000100010001000100010001E6
:1002100000010001000100010001000100010001D6
:10022000004000410042004300440045000100013D
:1002300000010001000100010001000100010001B6
:100240000001000100010052000100010001000155
:10025000000100500051004F000053010002530103
:100260000001000100010001000100010001000186
:100270000001000100010001000100010001000176
:100280000001000100010001000100010001000166
:100290000001000100010001000100005C010001FB
:1002A0000001000100010001000100010001000146
:1002B0000053000100560057000100010001005FDB
:1002C000006000610001000100010001005C005DB0
:1002D000005E00550001000100010059005A005B5A
:1002E00000540001000053010001530100010062AD
:1002F00000630044454255473A2064697361626C6B
:1003000065642E0A0044454255473A20656E616295
:100310006C65642E0A000A0025303862003A20001D
:1003200025303258000A722F632030313233343591
:1003300036370A000A002530325820006B65796292
:100340006F6172645F7265706F72743A20000A00A8
:1003500025303258006B6579626F6172645F736536
:10036000745F6C65643A2000290A002575002F002F
:100370002575005D2800256400200025640020000C
:1003800025640020002564007C0025303258006D73
:100390006F7573656B6579205B62746E7C7820790C
:1003A000207620685D287265702F61636C293A2081
:1003B0005B006D6B5F776865656C5F74696D655F29
:1003C000746F5F6D6178203D2025640A006D6B5F5E
:1003D000776865656C5F6D61785F737065656420D3
:1003E0003D2025640A006D6B5F74696D655F746FF5
:1003F0005F6D6178203D2025640A006D6B5F6D6143
:10040000785F7370656564203D2025640A006D6B1C
:100410005F696E74657276616C203D2025640A0008
:100420006D6B5F64656C6179203D2025640A006D09
:100430006B5F776865656C5F74696D655F746F5F2E
:100440006D6178203D2025640A006D6B5F776865DB
:10045000656C5F6D61785F7370656564203D202514
:10046000640A006D6B5F74696D655F746F5F6D61C9
:1004700078203D2025640A006D6B5F6D61785F73A5
:1004800070656564203D2025640A006D6B5F696EB0
:1004900074657276616C203D2025640A006D6B5F87
:1004A00064656C6179203D2025640A000A00257589
:1004B00000363A20776865656C5F74696D655F74B6
:1004C0006F5F6D61783A20000A00257500353A208B
:1004D000776865656C5F6D61785F73706565643AB8
:1004E00020000A00257500343A2074696D655F7438
:1004F0006F5F6D61783A20000A00257500333A205D
:100500006D61785F73706565643A20000A00257537
:1005100000323A20696E74657276616C286D7329B9
:100520003A20000A00257500313A2064656C617933
:10053000282A31306D73293A20000A092D2056618E
:100540006C756573202D0A004D3E004D25643E20DC
:10055000003F007365742064656661756C740A0001
:10056000433E200077686572652064656C74613A6B
:1005700020637572736F723D25642C207768656502
:100580006C3D25640A53656520687474703A2F2F9A
:10059000656E2E77696B6970656469612E6F72672D
:1005A0002F77696B692F4D6F7573655F6B65797315
:1005B0000A000A092D204D6F7573656B6579202D32
:1005C0000A4553432F713A09717569740A313A0922
:1005D00064656C6179282A31306D73290A323A09D1
:1005E000696E74657276616C286D73290A333A09F5
:1005F0006D61785F73706565640A343A0974696D7A
:10060000655F746F5F6D61780A353A097768656573
:100610006C5F6D61785F73706565640A363A09775F
:100620006865656C5F74696D655F746F5F6D617837
:100630000A0A703A097072696E742076616C756589
:10064000730A643A097365742064656661756C7435
:10065000730A75703A092B310A646F776E3A092D67
:10066000310A706775703A092B31300A7067646F10
:10067000776E3A092D31300A0A7370656564203D42
:100680002064656C7461202A206D61785F737065E9
:100690006564202A2028726570656174202F20749B
:1006A000696D655F746F5F6D6178290A003F004D69
:1006B0003E2000433E20004C25640A0074696D65AD
:1006C000725F72656164333228293A202530346CB8
:1006D000580A006B6579626F6172645F69646C656A
:1006E0003A2025580A006B6579626F6172645F7009
:1006F000726F746F636F6C3A2025580A00686F73CD
:10070000745F6B6579626F6172645F6C6564732896
:10071000293A2025580A000A092D2053746174755E
:1007200073202D0A004743433A20352E342E3020C3
:100730004156522D4C4942433A20322E302E302021
:100740004156525F415243483A20617672350A0061
:100750004F5054494F4E533A204C554641204D4F2F
:100760005553454B45592045585452414B45592006
:10077000434F4E534F4C4520434F4D4D414E442027
:10078000343039360A004255494C443A2020284A30
:10079000616E2032342032303231290A0056494409
:1007A0003A20307834343444287473686F72742972
:1007B000205049443A203078333533372844616338
:1007C00074796C2D4D616E75666F726D2028357869
:1007D000372929205645523A203078303030310AB6
:1007E000000A092D2056657273696F6E202D0A006C
:1007F0000A092D20436F6E736F6C65202D0A4553D7
:10080000432F713A09717569740A6D3A096D6F75F4
:1008100073656B65790A000A092D204D616769636C
:10082000202D0A443A094465627567204D6573734B
:1008300061676520546F67676C650A583A094D61B6
:1008400074726978204465627567204D6F64652015
:10085000546F67676C65202D2053686F77206B6538
:10086000797072657373657320696E206D6174723F
:10087000697820677269640A4B3A094B6579626F3F
:1008800061726420446562756720546F67676C65A8
:10089000202D2053686F77206B65797072657373B4
:1008A000207265706F72740A4D3A0944656275670B
:1008B000204D6F75736520546F67676C650A563AF3
:1008C0000956657273696F6E0A533A0953746174FD
:1008D00075730A433A09416374697661746520430C
:1008E0006F6E736F6C65204D6F64650A46312D46DF
:1008F00031303A0953776974636820746F204C6112
:1009000079657220302D392028463130203D204C29
:1009100030290A302D393A09537769746368207495
:100920006F204C6179657220302D390A475241564B
:10093000453A0953776974636820746F204C617974
:10094000657220302028616C7465726E617465294F
:100950000A423A094A756D7020746F20426F6F74B5
:100960006C6F616465720A4553433A094A756D704C
:1009700020746F20426F6F746C6F61646572202801
:10098000616C7465726E617465290A453A0950722A
:10099000696E7420454550524F4D205365747469FB
:1009A0006E67730A4253504143453A09436C65618F
:1009B0007220454550524F4D0A000A002575002E01
:1009C0006E6B726F3A20000A002575002E737761F6
:1009D000705F6261636B736C6173685F6261636BAC
:1009E00073706163653A20000A002575002E7377E5
:1009F00061705F67726176655F6573633A20000AB4
:100A0000002575002E6E6F5F6775693A20000A0039
:100A10002575002E737761705F72616C745F726709
:100A200075693A20000A002575002E737761705FA2
:100A30006C616C745F6C6775693A20000A002575FB
:100A4000002E737761705F7263746C5F7267756993
:100A50003A20000A002575002E737761705F6C6381
:100A6000746C5F6C6775693A20000A002575002E6A
:100A7000636170736C6F636B5F746F5F636F6E74D1
:100A8000726F6C3A20000A002575002E7377617032
:100A90005F636F6E74726F6C5F636170736C6F63B2
:100AA0006B3A20000A0025303258006B65796D6181
:100AB000705F636F6E6669672E7261773A20000A15
:100AC000002575002E6D6F7573653A20000A0025AC
:100AD00075002E6B6579626F6172643A20000A00BE
:100AE0002575002E6D61747269783A20000A002520
:100AF00075002E656E61626C653A20000A00253033
:100B000032580064656275675F636F6E6669672E51
:100B10007261773A20000A00257500646566617588
:100B20006C745F6C617965723A20003F000A6D6FEA
:100B30007573653A206F66660A000A6D6F75736596
:100B40003A206F6E0A000A6B6579626F6172643ACF
:100B5000206F66660A000A6B6579626F6172643A9B
:100B6000206F6E0A000A6D61747269783A206F66B0
:100B7000660A000A6D61747269783A206F6E0A0025
:100B80000A64656275673A206F66660A000A6465E2
:100B90006275673A206F6E0A000A0A4A756D7069BD
:100BA0006E6720746F20626F6F746C6F6164657222
:100BB0002E2E2E2000433E2000436C656172696E2C
:100BC0006720454550524F4D0A006565636F6E665C
:100BD00069673A0A005B735D004B6579626F617209
:100BE000642073746172742E0A005B575D005B535E
:100BF0005D005B525D005B445D005B435D002C0368
:100C0000440061006300740079006C002D004D0009
:100C100061006E00750066006F0072006D002000BC
:100C20002800350078003700290000000E0374000A
:100C3000730068006F007200740000000403090470
:100C400009025B00030100A0FA090400000103018E
:100C5000010009211101000122400007058103085C
:100C6000000A09040100010300000009211101002C
:100C7000012281000705820320000A090402000204
:100C80000300000009211101000122220007058351
:100C900003200001070503032000011201100100D9
:100CA0000000084D4437350100010200010631FF04
:100CB0000974A1010975150026FF009520750881AA
:100CC000020976150026FF00952075089102C005DF
:100CD000010902A10185020901A1000509190129E3
:100CE00005150025019505750181029501750381A2
:100CF000010501093009311581257F9502750881AB
:100D00000609381581257F950175088106050C0AAD
:100D100038021581257F950175088106C0C005013F
:100D20000980A101850319012AB700150126B70022
:100D3000950175108100C0050C0901A101850419F8
:100D4000012AA002150126A002950175108100C09C
:100D500005010906A101050719E029E7150025018C
:100D60009508750181029501750881010507190033
:100D700029FF150026FF0095067508810005081952
:100D8000012905950575019102950175039101C031
:100D900011241FBECFEFDAE0DEBFCDBF04B603FEE5
:100DA00027C08091900290919102A0919202B091FF
:100DB00093028730904BA740B04BD1F41092900231
:100DC00010929102109292021092930214BE84B774
:100DD000877F84BF0FB6F894A895809160008861E2
:100DE00080936000109260000FBEE0E0F8E3099588
:100DF00011E0A0E0B1E0E4E8FDE502C005900D924D
:100E0000A83AB107D9F722E0A8EAB1E001C01D92E3
:100E1000A039B207E1F70E94EA280C94C02E0C9486
:100E20000000FF93EF93E091A801F091A9013097A2
:100E300009F00995EF91FF910895FC0185918030AB
:100E400011F0EFDFFBCF0895FF27E0E230E247FF2C
:100E50000CC0419597FF09C0EDE2609570958095B3
:100E60009095611D711D811D911D27FF02C0219567
:100E700030E350E2AA27660F771F881F991FAA1F29
:100E8000A41710F0A41B63955A95A9F7AA3008F08F
:100E9000A95FA05DAF93F39561157105810591057B
:100EA00041F7ED3211F4EF93F395F21718F43F93F5
:100EB000F395FBCF8F91B5DFFA95E1F70895E991AE
:100EC000F9918591803021F0853219F0AADFF9CFB0
:100ED000089520E0E89455915532C1F3503311F450
:100EE000689455915A3348F4505390F3220F022ED0
:100EF000220F220F200D250FF4CF0EF4219589919A
:100F00009991533619F3533729F1533559F1BC01EF
:100F100088279927E8945C3621F4899199916894FF
:100F20005591543639F446EF7EF077FF0DC08FEFC0
:100F30009FEF0AC055374AE039F0583540E121F0BB
:100F4000523642E009F00895FF93EF937DDFEF9171
:100F5000FF91B7CFFF93EF93FC0181918030B9F3FC
:100F600060DFFBCFFF93EF9368DFF1CFDF93CF9389
:100F7000CDB7DEB72596A3DFCF91DF910895FB01B2
:100F8000258122952F701F922F93258121701F920A
:100F90002F9324812F9323812F9322811F922F93AC
:100FA00021811F922F9320811F922F939F938F93C4
:100FB0008CEF90E09F938F930E94B6078DB79EB7FA
:100FC00040960FB6F8949EBF0FBE8DBF81E0089586
:100FD00081E008950C94BF0708950C94EC071F93CB
:100FE000CF93DF9300D000D01F92CDB7DEB74983F7
:100FF0005A836B833091CC0189819A81311114C05D
:10100000662359F0222349F00E94221B182F682FD3
:1010100089819A810E94CB1A03C00E94F61A182F68
:1010200069817A81812F04C00E94221B69817A81A3
:101030000F900F900F900F900F90DF91CF911F9115
:101040000C94BC08FC01262F408151816281738180
:1010500084810C94EF07CF93DF93EC0160E00E9452
:101060002208BE01DF91CF910C94ED070E946B1C0A
:10107000811102C00E94121D0C941D0B0C94190BBF
:1010800008950E949D150E9440082FEF84E39CE084
:10109000215080409040E1F700C000000C943C1EBD
:1010A0000F931F93CF93DF93EC0161E00E9422081E
:1010B0008C01BE010E94EA07882309F442C0BE01E8
:1010C000C8010E943E0D8823E1F1BE01C8010E94C3
:1010D000900D8823B1F1BE01C8010E94BB0E882388
:1010E00081F18A81882331F101308CE5180751F0B4
:1010F0000F3D8CE51807D9F001151C45D9F40E9465
:1011000041081FC080914702C82FC095C170C0FB25
:1011100080F980934702CC2329F085E093E00E9478
:101120001D070FC083EF92E00E941D070BC00E94B5
:10113000121D07C0CE01DF91CF911F910F910C942A
:10114000E807C0E08C2FDF91CF911F910F91089598
:1011500008950C94A80881E008950C94AB08CF93EF
:10116000C82F0E94A9088C2F0E94AD08CF91089526
:1011700080E090E00895089526E4829FC001112444
:10118000FC0127E0729FE00DF11D1124E60FF11D17
:10119000EE0FFF1FE15BFE4F859194910895880F3C
:1011A000991FFC01EA5EFC4F859194910895CF93BD
:1011B000DF930E94BC080E94EF09EC018115904565
:1011C00008F041C0C11580E4D80708F0D1C0C83E7E
:1011D000D10510F5C03ED10508F0FDC0C83AD105D3
:1011E00078F4C53AD10508F0A2C0C130D10509F4A0
:1011F000F2C008F4EEC0C430D10508F0ECC0E9C07C
:10120000CF3BD10508F49BC0C03CD10508F4E1C038
:10121000CE01805C91099EC0C11590E2D90758F4B7
:10122000C11521E0D20708F0D6C0C03FD10508F4AF
:10123000D0C0D065D0C0C11580E3D80708F08EC0FB
:10124000CE019F7087C0C11595E5D90708F043C04E
:10125000C11524E5D20708F0A2C0C11582E5D80760
:1012600008F5C11591E5D90708F085C0CE0174E0F5
:10127000969587957A95E1F783709C2F937021E07E
:1012800030E002C0220F331F9A95E2F73C68382BFA
:10129000CF70C695C69580E2C89FE0011124C22B8D
:1012A000D32B99C09E01237033278C2F869586956A
:1012B000C115D34508F064C0C1E0D0E002C0CC0F36
:1012C000DD1F2A95E2F720E2829FC0011124C82B7E
:1012D000D92BDC6880C0C11529E5D207A0F4C1155F
:1012E00088E5D80708F060C0C11596E5D90708F071
:1012F00070C08C2F0E94830A8F71C82FD0E0DC2F22
:10130000CC27D06268C0C1152AE5D20708F451C0C5
:10131000CE0190568115904208F05BC08D2F8F71E1
:101320000E94830ADD27D0628F71D82B54C0C55A22
:10133000D0E0C65BDE4FC881D0E0D0644CC0C85A54
:10134000D0E0CC0FDD1FC45EDE4F0990D881C02DE8
:10135000D46441C00E94CF08EC013DC0CE01992762
:10136000D3FF03C0EC01D86C36C0EC01D06C33C0A5
:10137000DF70D06A30C0DC2FCC27C16FD06A2BC0A1
:10138000C1E0D0E002C0CC0FDD1F2A95E2F720E2D9
:10139000829FC0011124C82BD92BDA681CC0DC2F16
:1013A000CC27C46FD06A17C0DC2FCC27C06FD06A9F
:1013B00012C08C2F8F700E94830A94E0D695C79537
:1013C0009A95E1F7CF70D0E0DC2FCC27D069C82BFD
:1013D00002C0C0E0D0E0CE01DF91CF910895823805
:1013E000910569F1B0F48133910509F46DC048F4B9
:1013F0008932910509F463C08A32910509F469C004
:1014000008958533910509F455C089339105B9F0E4
:101410000895833E910569F138F4803E9105B1F05D
:10142000823E910509F10895863E9105A9F1873E16
:101430009105B9F1843E910509F064C023C0209163
:10144000810220FD4FC021FD4DC008958091810291
:1014500080FD44C08091820280FF44C0809181025F
:1014600084FD42C083EE4DC08091810282FF38C06E
:10147000F5CF8091810282FD33C08091820280FD90
:1014800031C0ECCF8091820281FF32C08091810215
:1014900084FD2AC087EE35C08091810283FF26C07B
:1014A000F5CF8091810283FD21C08091820281FD70
:1014B0001FC0ECCF8091810285FD1CC01DC08091B2
:1014C000810285FD19C016C08091810286FD16C07B
:1014D00017C08091810286FD13C010C089E311C03E
:1014E00082EE0FC080EE0DC080E00BC086EE09C01A
:1014F00084EE07C089E205C085E303C08AE201C02B
:1015000081E390E008959091810292FF0DC0282F11
:101510002871283019F4877F846006C0282F247131
:10152000243011F48B7F886093FF0DC0282F287121
:10153000283119F4877E846106C0282F2471243154
:1015400011F48B7E88612091820220FF0DC0382F1C
:101550003871383019F4877F816006C0382F3171B7
:10156000313011F48E7F886021FF0DC0282F287143
:10157000283119F4877E816106C0282F217121311D
:1015800011F48E7E886194FD877E0895E82FF0E047
:10159000EF58FD4F80810895CF92DF92EF92FF9236
:1015A0000F931F93CF93DF9385E293E00E941D0773
:1015B00081E7E82E82E0F82EC0E0D0E090E2C92E6C
:1015C00093E0D92E08E113E0DF93CF93DF92CF921F
:1015D0000E94B6078DE193E00E941D07F7018191FB
:1015E0007F010E94591C1F928F931F930F930E949B
:1015F000B60786E193E00E941D0721968DB79EB73E
:1016000008960FB6F8949EBF0FBE8DBFCA30D105A5
:10161000D9F6DF91CF911F910F91FF90EF90DF905E
:10162000CF90089580EA8A95F1F7089508950C9473
:10163000160B0C94170B0C94160B0C941B0BF894B4
:10164000E82FE295EF70F0E031A1282F2F7081E0B4
:1016500090E001C0880F2A95EAF7982F9095932380
:1016600091A392A1892B82A37894089508950F9352
:101670001F93CF93DF930E94840C8091000180918F
:101680000001811102C095E001C090E090937C02BE
:1016900085E0891B80937B0286E60E941F0B87E909
:1016A0000E941F0B86EC0E941F0B84E30E941F0BFD
:1016B00085E30E941F0BCDE4D1E004E511E08991A0
:1016C0000E941F0B0C171D07D1F7E7E6F2E0A1E718
:1016D000B2E011921D9282E0E137F807D1F785E080
:1016E0000E942E0C0E943608DF91CF911F910F911E
:1016F0000C948E0C0E94650C882309F180917B026A
:1017000090E08F589D4F0E94A10C811114C08091D0
:10171000AA018F5F8093AA01863078F0E0917B0266
:10172000F0E0EF58FD4F80E090E011920196853097
:101730009105D9F702C01092AA010C943E0880913D
:101740007C0290E08F589D4F0E94BC0C0C94360B8D
:101750008F929F92AF92BF92CF92DF92EF92FF92C1
:101760000F931F93CF93DF9384E5A82E81E0B82ECB
:10177000C7E6D2E099E5E92E91E0F92E912C01E03F
:1017800010E06501F5018081F894E82FE295EF7093
:10179000F0E021A18F70A80102C0440F551F8A9567
:1017A000E2F7CA01922F982B91A392A180958923E9
:1017B00082A378940E94120BEDE4F1E020E030E087
:1017C000812C4191A42FA295AF70B0E090968C919E
:1017D00090E04F7002C0959587954A95E2F780FD9D
:1017E00007C0802F022E01C0880F0A94EAF701C0BB
:1017F00080E0882A2F5F3F4F2730310511F75FEFD8
:10180000A51AB50AF60180810E941F0B88818816EF
:1018100019F0888281E001C080E0982A2196EA14BC
:10182000FB0409F0AECF60917C0270E06F587D4FF1
:10183000292D45E087E692E00E942F0C0E947A0B4A
:10184000892DDF91CF911F910F91FF90EF90DF9045
:10185000CF90BF90AF909F908F9008950895FF9282
:101860000F931F93CF93DF938C01F62ED72FC42FA6
:10187000222349F081E08093AD010E94EF1D9093F7
:10188000AC018093AB018091AD018823C1F08091C0
:10189000AB019091AC010E94071E069780F0EF2DDE
:1018A000FD2FD8014C2F50E0CD01801B910B8417E8
:1018B00095071CF48D918193F7CF1092AD01DF91C4
:1018C000CF911F910F91FF9008958091AE018111EA
:1018D00012C08091D80080618093D8008AE18A95F7
:1018E000F1F700C08091D90080FD02C082E001C004
:1018F00081E08093AE0181E09091AE01913009F0DA
:1019000080E008950C94650C0E94820C8093000185
:101910000E94650C81110C94950C08950E94650C31
:10192000811102C00C949B0C089561E070E081E08D
:1019300091E00C94470F61E070E081E091E00C943D
:101940004E0FCF93DF93D82FC92F0E94E60F892B1C
:1019500079F4ED2FFC2F80E090E0DC01A055BE4F24
:101960002C912193019685309105B9F781E001C052
:1019700080E0DF91CF91089520E030E0FC014191BB
:10198000CF01F901E055FE4F40832F5F3F4F2530D7
:101990003105A1F708950F931F93CF93DF93C42FC1
:1019A000D22FFC0182818823C9F04093B7010E94A5
:1019B000EF1D9093B6018093B50180E28C0F8830C3
:1019C00008F057C0C77081E001C0880FCA95EAF7D8
:1019D000DF91CF911F910F910C940D138091B7015E
:1019E000481330C08091B5019091B6010E94071E46
:1019F000883C910538F510E21D0FCD17B9F080E253
:101A00008C0F883040F4C77081E001C0880FCA9500
:101A1000EAF70E941413183028F581E09D2F977083
:101A200001C0880F9A95EAF70E940D13802F0E943B
:101A3000FA121830F0F4D77081E001C0880FDA95FF
:101A4000EAF70AC080E28C0F883098F4C77081E012
:101A500001C0880FCA95EAF7DF91CF911F910F91CE
:101A60000C941413802FDF91CF911F910F910C9440
:101A7000FA12DF91CF911F910F9108950F939C015E
:101A8000CB01243F4CE5340731F188F4293DFCE5D6
:101A90003F07D9F02A3D4CE5340779F1283D3C4514
:101AA000A9F506E221EE41EE68ED7CE52BC0263F6C
:101AB000FCE53F07E1F0A8F0273F3C4539F507E298
:101AC00025EE46EE67EF7CE51DC007E225EE45EE0C
:101AD00069ED7CE517C006E221EE40EE64EF7CE59F
:101AE00011C007E225EE44EE65EF7CE50BC006E28F
:101AF00021EE42EE66EF7CE505C008E221E045EE0E
:101B00006AED7CE50E94CB0C80E008C0FC0182817C
:101B1000882319F01092B70101C081E00F91089558
:101B2000CF93DF93EC01FB018281882309F41FC16D
:101B3000C230FCE5DF0708F41BC1C6319CE5D907BC
:101B400038F09E012B5F3C452930310508F010C16B
:101B50000E947E1C9093820280938102C031ECE54A
:101B6000DE0709F4C3C008F041C0C8308CE5D807CF
:101B700009F49AC0F0F4C430ECE5DE0709F487C03C
:101B800068F4C2308CE5D80709F477C0C330DC456F
:101B900009F0E3C080918102826076C0C630ECE536
:101BA000DE0709F46EC008F07BC080918102886076
:101BB0006BC0CC308CE5D80709F485C068F4CA3016
:101BC000ECE5DE0709F474C008F079C00E949D15A9
:101BD00080918102806858C0CE308CE5D80709F426
:101BE00076C008F07FC0809181028BC0CC3FECE5CD
:101BF000DE0709F44FC018F5C3318CE5D80709F4A6
:101C00007DC078F4C131ECE5DE0709F473C0C23160
:101C1000DC4509F0A2C00E949D15809181028F775A
:101C200033C0C5318CE5D80709F472C008F486C00A
:101C3000CB3FDC4509F091C0809182023EC0C115C6
:101C4000FDE5DF0709F45FC058F4CE3F9CE5D907F6
:101C500009F444C008F43FC08091820282602DC024
:101C6000C230FDE5DF0709F475C008F45DC0C3307C
:101C7000DD4509F072C080E06EC080918102816014
:101C800003C08091810280618093810266C080914F
:101C9000810211C0809182028260809382025DC0C5
:101CA000809181028062F0CF809181028064ECCFCC
:101CB0008091810288608460E7CF8160EECF80915F
:101CC00081028E7FE1CF809181028D7FDDCF809177
:101CD0008102877FD9CF8091820218C080918202D1
:101CE0008D7FDBCF809181028F7ECECF809181026C
:101CF0008F7DCACF809181028F7BC6CF8091810278
:101D0000877F8B7FC1CF809182028D7F8E7FC5CFF1
:101D10008091810282FB222720F991E0922790FB9B
:101D200082F990FB83F9B0CF80918202982F909531
:101D300091708E7F892B90FB81F9AFCF0E949D150A
:101D40008091810287FB222720F991E0922790FB66
:101D500087F99ACF81E00E94141D809181029091B1
:101D600082020E948F1C0E949D1580E001C081E0CC
:101D7000DF91CF910895CF93DF9386319C4541F554
:101D8000EB010E94A31B982F8A81209109013091B9
:101D90000A01882379F09A7A81E009F480E080933F
:101DA000B801911102C069E201C065E3C9010E9456
:101DB0005B1D0AC08091B801811102C069E201C0B7
:101DC00065E3C9010E945D1D0E94F11B80E001C016
:101DD00081E0DF91CF9108958EE1489B02C0815050
:101DE000E1F7489BFECF0895589880E28A95F1F775
:101DF000589A0895FC012AE02A95F1F728E090E02E
:101E000080E031E040E14A95F1F7880F489B02C03D
:101E10008160932700C0000040E14A95F1F721500E
:101E200089F720E12A95F1F729B100C0000030E1DF
:101E30003A95F1F7217092272081920F90830895AF
:101E4000EF92FF920F931F93CF93DF931F92CDB723
:101E5000DEB719828C017C01E60EF11C0E151F0500
:101E600051F00E94EC0ECE0101960E94FA0EF8018C
:101E700081938F01F3CF81E09981911180E00F90E0
:101E8000DF91CF911F910F91FF90EF900895909364
:101E9000BA018093B901509A589A08959093BA0163
:101EA0008093B9015098589AE89AE9E6F0E0808169
:101EB0008C7F80830895615091E001C0990F6A95ED
:101EC000EAF720E031E0992361F0492F482319F027
:101ED000589A232701C0589840E24A95F1F7969501
:101EE000F2CF222311F0589A01C0589880E28A95C7
:101EF000F1F758980895FF920F931F93CF93DF93B4
:101F0000EC018C01060F111DC017D10741F0F990AB
:101F10000E94F40E68E08F2D0E945B0FF5CFDF91D9
:101F2000CF911F910F91FF9008951F920F920FB6BE
:101F30000F9211242F933F934F935F936F937F934F
:101F40008F939F93AF93BF93CF93DF93EF93FF93C1
:101F50005898509AC091B901D091BA016D81662309
:101F600021F08E819F810E947B0F0E94F40E80E100
:101F70008A95F1F758985098589A80E18A95F1F728
:101F80006A81662351F08B819C810E94200FE88139
:101F9000F981811104C082E003C0E881F98188E001
:101FA00080830E94EC0EFF91EF91DF91CF91BF9162
:101FB000AF919F918F917F916F915F914F913F91E1
:101FC0002F910F900FBE0F901F901895CF93DF9316
:101FD000C091B901D091BA01F894509A589885E00F
:101FE0008A95F1F700005098589A80E28A95F1F7A7
:101FF000489B0AC0509A589AE881F98181E0808311
:10200000789481E090E02CC06D81662381F08E8110
:102010009F810E94200F81110AC0509A589AE8812E
:10202000F98182E08083789482E090E019C00E9478
:10203000EC0E80E28A95F1F75898509A80E18A95E3
:10204000F1F76A81662321F08B819C810E947B0FCE
:102050000E94F40EE881F9811082789480E090E08B
:10206000DF91CF9108959093C0018093BF010895AF
:10207000E091BF01F091C001309721F00190F08113
:10208000E02D099480E00895EF92FF920F931F9343
:10209000CF93DF93E091BF01F091C0013097B1F190
:1020A0008C010280F381E02D09958091470282FF27
:1020B0002DC080FF04C08CE393E00E941D07E8015F
:1020C00018E086E3E82E83E0F82E8091470280FF37
:1020D0000BC088811F928F93FF92EF920E94B607E8
:1020E0000F900F900F900F90115021961111EDCF7E
:1020F0008091470280FF0AC084E393E0DF91CF9193
:102100001F910F91FF90EF900C941D07DF91CF91DD
:102110001F910F91FF90EF900895E091BF01F09112
:10212000C001309739F022E0DC012C930480F58166
:10213000E02D099408952091BD013091BE0128172A
:10214000390771F09093BE018093BD01E091BF010A
:10215000F091C001309721F00680F781E02D0994BD
:1021600008952091BB013091BC012817390771F007
:102170009093BC018093BB01E091BF01F091C0013D
:10218000309721F00084F185E02D0994089585B7FA
:10219000806885BF85B7806885BF08950C94650CFD
:1021A00008950C94D0100C94D0100C94D3100C946F
:1021B000D0100C94D7100C94D0100E94C7100E941D
:1021C000DB100C94D9100E94E61D0E94370B0E9470
:1021D0004D1E0C94D510CF93C82F8091470282FFDB
:1021E0001EC080FF04C085E593E00E941D0780911A
:1021F000470280FF0CC01F92CF9380E593E09F932E
:102200008F930E94B6070F900F900F900F908091C0
:10221000470280FF04C08EE493E00E941D078C2FCC
:10222000CF910C94AF08AF92BF92CF92DF92EF9212
:10223000FF920F931F93CF93DF93CDB7DEB72A970B
:102240000FB6F894DEBF0FBECDBF0E94D1100E9422
:10225000D0100E94A80B0E94CE10811111C08FEFE8
:1022600089838A831B820E94EF1D8160782F9D8362
:102270008C8349815A816B818D810E94AF1140C04E
:1022800082ECA82E81E0B82E00E010E0C02E802F56
:102290000E94C60AE82EF501D1905F01D82631F4DC
:1022A0000F5F1F4F0A30110589F7D9CF8091470280
:1022B00081FD0E94CC0A80E0FF24F3949D2D9F2194
:1022C000D1F08E83CF82EF2081E009F480E088870F
:1022D0000E94EF1D8160782F9A8789874E815F81E8
:1022E00068858A850E94AF11F801EE53FE4F808108
:1022F000F826F08205C08F5FFF0C8730F9F6D0CF4B
:102300000E947E200E9438109091C1018917B1F07F
:102310000E9438108093C1012A960FB6F894DEBF50
:102320000FBECDBFDF91CF911F910F91FF90EF9026
:10233000DF90CF90BF90AF900C94EB102A960FB621
:10234000F894DEBF0FBECDBFDF91CF911F910F91EB
:10235000FF90EF90DF90CF90BF90AF900895CF9314
:10236000DF93CDB7DEB72B970FB6F894DEBF0FBE65
:10237000CDBF4F83588769877A878B87DE01119697
:1023800086E0FD0111928A95E9F785E0FE01379616
:1023900001900D928A95E1F749815A816B817C8188
:1023A0008D819E810E9490182B960FB6F894DEBF07
:1023B0000FBECDBFDF91CF910895FC018081918147
:1023C0000E94641B0895CF93882309F4A9C0C82FE5
:1023D0008238C1F40E94381081FDA2C069E3809167
:1023E000090190910A010E945B1D0E94F11B2FEFD1
:1023F00081EE94E0215080409040E1F700C0000061
:1024000069E319C0833801F50E94381080FD88C047
:1024100063E58091090190910A010E945B1D0E9471
:10242000F11B2FEF81EE94E0215080409040E1F7C6
:1024300000C0000063E58091090190910A010E94AB
:102440005D1DCF910C94F11B8438C1F40E943810AB
:1024500082FD66C067E48091090190910A010E94A3
:102460005B1D0E94F11B2FEF81EE94E02150804014
:102470009040E1F700C0000067E4DDCF8CEF8C0FE7
:10248000813AF8F48C2F0E948025811149C06C2F6D
:102490008091090190910A010E94251D882349F02D
:1024A0006C2F8091090190910A010E945D1D0E948C
:1024B000F11B6C2F8091090190910A010E945B1D14
:1024C000C0CF80E28C0F883048F4C77081E001C033
:1024D000880FCA95EAF70E94A61BB3CFEBE5EC0F75
:1024E000E33040F4F0E0E457FE4F808190E0CF917C
:1024F0000C949B10E8E5EC0FE73150F4F0E0EE0FA0
:10250000FF1FE25AFE4F80819181CF910C94B11050
:10251000C03F30F08C2F0E94F11ECF910C94DE1F33
:10252000CF910895882309F464C0823879F40E9419
:10253000381081FF5EC069E38091090190910A0122
:102540000E945B1D0E94F11B69E310C08338B1F447
:102550000E94381080FF4DC063E580910901909181
:102560000A010E945B1D0E94F11B63E58091090135
:1025700090910A010E945D1D0C94F11B843879F43E
:102580000E94381082FF35C067E480910901909164
:102590000A010E945B1D0E94F11B67E4E7CF9CEFDC
:1025A000980F913A10F4682FE1CF90E2980F98308D
:1025B00050F4877091E001C0990F8A95EAF7892F4E
:1025C0000E94AC1BD9CF9BE5980F933020F480E09C
:1025D00090E00C949B1098E5980F973120F480E0E0
:1025E00090E00C94B110803F20F00E94591F0C9491
:1025F000DE1F0895CF93C82F0E94E311C93349F419
:102600002FEF87EE93E0215080409040E1F700C02B
:1026100000008C2FCF910C949212882321F00E94FD
:10262000A61B0C94F11B0895882321F00E94AC1B7B
:102630000C94F11B0895CF92DF92EF92FF920F93CB
:102640001F93CF93DF937C01062FC72FFC011581C9
:1026500012951F70D281D1110E94C31B0E949C1B36
:10266000882399F0DD2389F08C2F807F803421F03E
:1026700080E2800F883048F082E00E943B1C0E947C
:102680009C1B91E0D82ED92601C0D12CCC2EC2940F
:102690008FE0C8228C2D90E0FC01EA5AFF4F0C9489
:1026A000642E8C2F807FCF70882311F0C295C07F5D
:1026B000DD2399F0CC2309F48DC180E2800F8830AE
:1026C00010F0011104C08C2F0E94A61B03C08C2F98
:1026D0000E94B61B0E94F11B7DC1802F0E949212A6
:1026E000CC2309F49CC180E2800F883010F00111E6
:1026F00004C08C2F0E94AC1B03C08C2F0E94BC1BFB
:102700000E94F11B8CC18C2F807FCF70803211F022
:10271000C295C07F002319F00130C9F022C0DD232B
:1027200071F0112341F0113031F40E94D61B8C2B33
:102730000E94DE1B74C10E94D61B8C2B1DC011236E
:1027400019F0113009F46BC10E94E71B25C0DD238D
:1027500021F0163008F063C10EC0153008F05FC1DB
:102760001BC0DD2361F0112331F0F701858180FF6B
:1027700031C18F7085838C2F0E940D1350C111239E
:1027800059F0093309F037C1FFEF27EE83E0F1502C
:1027900020408040E1F72DC18C2F0E9414133FC1CF
:1027A0008C2F86958695837019F0813061F037C142
:1027B000DD2321F0802F9C2F937002C080E090E0F9
:1027C0000E949B1034C1DD2321F0802F9C2F937039
:1027D00002C080E090E00E94B11029C1802FDD236B
:1027E00019F00E94F11E02C00E94591F0E94DE1FB4
:1027F0001EC18C2F837009F045C0D11114C1402F28
:10280000429546954770440F440F602F6F70862F96
:1028100090E0A0E0B0E0042E04C0880F991FAA1F2A
:10282000BB1F0A94D2F704FF10C00FE010E020E0B5
:1028300030E004C0000F111F221F331F4A95D2F74A
:10284000009510952095309503C000E010E09801A8
:10285000C695C695C370BC01CD01602B712B822B30
:10286000932BC23049F058F4C13019F00E94E1199D
:10287000DAC00E94CF19D7C00E94F319D4C00E94B9
:10288000CD19D1C0DD2319F08C2F817001C0869540
:10289000882309F4C8C0402F429546954770440FDD
:1028A000440F602F6F70862F90E0A0E0B0E0042E00
:1028B00004C0880F991FAA1FBB1F0A94D2F704FFF8
:1028C00010C00FE010E020E030E004C0000F111F46
:1028D000221F331F4A95D2F7009510952095309509
:1028E00003C000E010E09801C695C695C370BC0116
:1028F000CD01602B712B822B932BC23049F058F401
:10290000C13019F00E94A61A8EC00E94941A8BC082
:102910000E94B81A88C00E94071A85C0CF70DD23B4
:1029200039F08C2F0E942D1A802F0E940D137BC02E
:10293000802F0E9414138C2F0E944E1A74C0023FE5
:1029400001F128F4003F41F0013FA1F03FC0033FF7
:10295000F9F0043F39F13AC0DD2341F0153008F0B9
:102960005EC08C2F8F710E94731A59C0163008F008
:1029700056C0F7CFDD2339F08C2F8F710E942D1AAE
:102980004EC0DD23C9F38C2F8F710E944E1A47C0B1
:10299000DD2329F08C2F8F710E94181A40C00E94ED
:1029A000131A3DC0DD2349F0CF718C2F0E942D1AE0
:1029B00063E08C2F0E94261C32C081E00E943B1CE9
:1029C000123068F182E00E943B1C29C0DD2331F007
:1029D000112391F2802F0E94E31121C0112399F25B
:1029E000093349F49FEFE7EEF3E09150E040F04007
:1029F000E1F700C00000802F0E94921210C04C2FFF
:102A00004F70602FC7010E94B8080E943E190FC086
:102A10004C2F4F70602FC7010E94BB0808C088EF81
:102A20008C0D843020F40E9438100E94AF08DD2005
:102A3000C9F00E94981B80FD15C0F70112820E9408
:102A4000921B0E942D1AC7010E9453150E94921BCF
:102A5000DF91CF911F910F91FF90EF90DF90CF907A
:102A60000C944E1ADF91CF911F910F91FF90EF9030
:102A7000DF90CF9008950F931F93CF93DF93EC01D6
:102A8000688179818A810E946F1B8C010E94CA1A19
:102A90000E94BB19B801CE010E941B13DF91CF9198
:102AA0001F910F910895CF93DF93EC019881898155
:102AB0002B813C81232B31F08F3F31F481E09F3F0C
:102AC00019F403C081E001C080E080FD19C0CE018F
:102AD0000E94500881110CC00E949C1B882381F029
:102AE0008A81882369F082E0DF91CF910C943B1CAE
:102AF000CE010E943B15CE01DF91CF910C942B08A3
:102B0000DF91CF9108950E94C31B0E94D31B0E94A6
:102B1000F11B0E9491210E94DE1F80E090E00E9444
:102B20009B1080E090E00C94B1108091090190918D
:102B30000A010E945F1D0C9483150E94B31B0C9424
:102B40009515E92FE295EF704E2F50E0FA0132977C
:102B5000EE30F105B0F4EA59FF4F0C94642E803F3B
:102B600091F018F4883E68F40EC0843F51F40BC015
:102B7000883E48F0813F29F406C093FB882780F9FE
:102B8000089580E0089581E008950E94641B0E94EA
:102B9000A1150895CF93DF9300D000D01F92CDB739
:102BA000DEB70F900F900F900F900F90DF91CF91A5
:102BB0000895CF93DF9300D000D000D0CDB7DEB71B
:102BC00026960FB6F894DEBF0FBECDBFDF91CF9132
:102BD00008951F93CF93DF93C091CD0116E08091AC
:102BE000CE01C81799F0D0E01C9FF0011D9FF00D99
:102BF0001124E153FE4F40815181628173818481B0
:102C000095810E94D9152196C770E9CFDF91CF91A8
:102C10001F9108954091FF015091000260910102BF
:102C20007091020280910302909104020C94D915D4
:102C30002091CD019091CE0156E02917A9F030E006
:102C4000529FF001539FF00D1124E153FE4F71810B
:102C5000761306C07081781303C07281741306C0A6
:102C60002F5F3F4F2770E9CF80E0089581E00895FE
:102C70000F931F93CF93DF938091040282958F70FF
:102C800009F05DC080910102882309F458C0809149
:102C9000CD011091CE016091FF0170910002C091B1
:102CA0000202D091030291E06F3F09F090E0292FDA
:102CB00006E0811709F443C0209721F07F3F21F0FF
:102CC00030E003C031E001C0322F90E030FD34C06D
:102CD000089FF001099FF00D1124DF01A153BE4FA1
:102CE00011963C911197371327C03C91361324C09D
:102CF00012963C91129731111FC013964D915C9121
:102D000014974C1B5D0B483C5105B0F480910402B4
:102D10008F70806180930402EC52FE4F80818F702F
:102D2000806180838FEF91E00E945315DF91CF91F6
:102D30001F910F910C94E91501968770BACFDF911E
:102D4000CF911F910F9108958F929F92AF92BF9252
:102D5000CF92DF92EF92FF920F931F93CF93DF9367
:102D6000CDB7DEB761970FB6F894DEBF0FBECDBF0B
:102D70008C0185E0F801DE011D9601900D928A9587
:102D8000E1F7D801DC901196EC9011971296CC9057
:102D90009091FF01209100024091020250910302A4
:102DA0004115510531F02F3F31F481E09F3F19F477
:102DB00003C081E001C080E080FD81C1F801838013
:102DC00094808FEFA82E81E0B82EF0900102B4011C
:102DD000641B750BFF2009F418C180910402382F81
:102DE000307F683C710508F0D1C031118AC0E21211
:102DF00014C0D91212C0FC2CC1100FC08F7080619A
:102E0000809304020E940A16C5010E945315809106
:102E10000402D80115968C936FC18114910439F086
:102E2000BFEFEB1206C081E0DB1203C003C081E0FC
:102E300001C080E080FD03C081E08C2502C080E0FD
:102E400090E080FF10C04C2D6E2D8D2D0E94181625
:102E5000882349F08FEF91E00E945315EFEFF1E0E6
:102E600086E0DF01A4C0892839F0BFEFEB1206C06D
:102E700081E0DB1203C003C081E001C080E080FD7F
:102E800003C081E08C2502C080E090E0E82FE17073
:102E9000BE2E80FF2CC04C2D6E2D8D2D0E9418163D
:102EA000F82E811124C0DD86EE868D859E850E94D8
:102EB000641B292F22952F70223018F0243090F4B3
:102EC00005C09F7059F0811109C016C19F7031F083
:102ED000D80115969C91907F09F40EC1805E8830D0
:102EE00008F40AC1C8010E945315FB2C05C1FC2C33
:102EF000CC2009F401C18091040281608093040216
:102F00005BC0E21206C0D91204C0C11002C0F801B1
:102F1000A0C0DD86EE868D859E850E94C51588231E
:102F200079F1CC2069F120910402822F82958F7073
:102F300090E0029774F08091FF01909100029887D1
:102F40008F8319869B868A862C87CE0107960E94DE
:102F5000531586E0F801AFEFB1E001900D928A952C
:102F6000E1F70E9438160E940A160DC0E21631F1F0
:102F7000DD86EE868D859E850E94C51581112DC04A
:102F8000C8010E945315FF24F394B6C03111EECF4F
:102F9000782D998A888A4D2D5E2D6C2D89890E9405
:102FA000CA158FEF91E00E94531586E0D5011D925E
:102FB0008A95E9F70E940A16F12C9EC0D912D8CF43
:102FC000C110D6CFF8018583C8010E94531586E051
:102FD000D5011D928A95E9F78FC0CC2089F2209106
:102FE0000402822F82958F7090E002970CF4B1CF8B
:102FF0008091FF01909100029A8389831B829D82B8
:103000008C822E83CE010196A2CF683C710508F018
:1030100047C0FC2CCC2009F4B3CFE21230C0D91247
:103020002EC02091040220FD21C0822F82958F7036
:10303000482F50E041155105C9F0F80125834F3064
:10304000510541F08F5F982F9295907F822F8F705E
:10305000892B8583C8010E94531586E0F801AFEFE4
:10306000B1E001900D928A95E1F744C086E0F80145
:10307000AFEFB1E001900D928A95E1F73DC0DD869A
:10308000EE868D859E850E94C515811162CF809147
:103090000402816080930402C8010E9453152CC071
:1030A000782D998A888A4D2D5E2D6C2D89890E94F4
:1030B000CA1586E0D5011D928A95E9F71BC0CC2080
:1030C00009F45ECFDD86EE868D859E850E94C5154E
:1030D000F82E882309F454CF86E0F801AFEFB1E071
:1030E00001900D928A95E1F78FEF91E00E94DD113A
:1030F0000E9438160E940A168F2D61960FB6F8941A
:10310000DEBF0FBECDBFDF91CF911F910F91FF901A
:10311000EF90DF90CF90BF90AF909F908F900895E9
:103120001F93CF93DF93CDB7DEB72C970FB6F894EC
:10313000DEBF0FBECDBF4F83588769877A878B87E5
:103140009C87CE0107960E94A4168823D1F09F8108
:1031500088852A853B85232B31F08F3F31F481E030
:103160009F3F19F403C081E001C080E080FD47C0AB
:103170004F81588569857A858B859C850E94D915F4
:103180003EC086E0FE013796DE01119601900D9259
:103190008A95E1F7FF81E8856A857B856115710570
:1031A00031F0EF3F31F481E0FF3F19F403C081E0DB
:1031B00001C080E080FD23C02091CE0130E0C90134
:1031C0000196877099274091CD0150E084179507AB
:1031D000F1F1F983EA837D836C8396E0929FD001BD
:1031E000939FB00D1124A153BE4FFE013196019063
:1031F0000D929A95E1F78093CE010E94E91516E0B1
:103200008091CD019091CE01891771F1189FC00175
:10321000112481539E4F0E94A416882329F1E09126
:10322000CD011E9FF0011124E153FE4F40815181D9
:1032300062817381848195810E94D9158091CD012D
:1032400090E00196877099278093CD01D9CF0E9495
:103250009D151092CE011092CD01EFEFF1E086E0C6
:10326000DF011D928A95E9F72C960FB6F894DEBF20
:103270000FBECDBFDF91CF911F910895EF92FF92C6
:103280000F931F93CF93DF938C01892B09F46CC0AC
:10329000F12CEE24E394E8012196F801849184371F
:1032A00040F4843008F051C0813081F0823019F14F
:1032B0005BC0853709F444C0A8F19CE7980F9037AC
:1032C00008F052C08F770E94921241C00E5F1F4FCC
:1032D000FE01849190E2980F983050F48770FE2D93
:1032E00001C0FF0F8A95EAF78F2F0E94C61B14C0FA
:1032F0000E94E3112DC00E5F1F4FFE01849190E2EA
:10330000980F983060F48770FE2D01C0FF0F8A95EA
:10331000EAF78F2F0E94CC1B0E94F11B19C00E945C
:10332000921216C00E5F1F4FFE01C491CC2381F094
:103330008FE99FE00197F1F700C00000C150F6CF80
:103340000E5F1F4FFE01F49003C00E94E3118E0137
:103350008F2D882309F49FCFEFE9FFE03197F1F734
:1033600000C000008150F5CFDF91CF911F910F91E8
:10337000FF90EF900895089508950C94BC190C9453
:10338000BD190E94BF196093360270933702809373
:103390003802909339020C9483150C94C1190F9341
:1033A0001F9300913602109137022091380230911C
:1033B0003902602B712B822B932B1F910F910C9450
:1033C000C1190F931F93009136021091370220917B
:1033D00038023091390260237123822393231F9195
:1033E0000F910C94C1190F931F9300913602109105
:1033F00037022091380230913902602771278227E5
:1034000093271F910F910C94C1190C94BC190E9421
:10341000051A6093320270933302809334029093C2
:1034200035020C94831560E070E0CB010C94071A10
:103430000F931F9341E050E060E070E08A019B0130
:1034400004C0000F111F221F331F8A95D2F7C90134
:10345000B8011F910F910C94071A0F931F9341E02D
:1034600050E060E070E004C0440F551F661F771FF6
:103470008A95D2F78091320290913302A091340262
:10348000B09135028A019B01082B192B2A2B3B2B6B
:10349000C901B8011F910F910C94071A0F931F9344
:1034A00041E050E060E070E004C0440F551F661F2B
:1034B000771F8A95D2F740955095609570958091C9
:1034C000320290913302A0913402B09135028A0108
:1034D0009B01082319232A233B23C901B8011F910B
:1034E0000F910C94071A0F931F9341E050E060E096
:1034F00070E004C0440F551F661F771F8A95D2F7EE
:103500008091320290913302A0913402B091350241
:103510008A019B01082719272A273B27C901B801DF
:103520001F910F910C94071A0F931F930091320271
:10353000109133022091340230913502602B712BAF
:10354000822B932B1F910F910C94071A0F931F93AB
:1035500000913202109133022091340230913502F1
:1035600060237123822393231F910F910C94071AD8
:103570000F931F9300913202109133022091340275
:103580003091350260277127822793271F910F9171
:103590000C94071A089527E0929F800D1124E82FBC
:1035A000E695E695E695877051E001C0550F8A953E
:1035B000EAF785E0E89FF0011124EB5FFD4F20E082
:1035C00030E070E04081CB01022E02C096958795D5
:1035D0000A94E2F78170819584278523842781935B
:1035E0002F5F3F4F2530310569F7089527E0929FFF
:1035F000800D1124682F669566956695982F9770B3
:1036000085E0689FB001112440E050E080E0FB01BC
:10361000E40FF51FEB5FFD4F208130E0092E02C063
:10362000369527950A94E2F721703327042E01C0BE
:10363000220F0A94EAF7822B4F5F5F4F4530510506
:1036400031F70895BF92CF92DF92EF92FF920F93DE
:103650001F93CF93DF938C01C0903202D09033023E
:10366000E0903402F090350280913602909137025A
:10367000A0913802B0913902C82AD92AEA2AFB2A35
:10368000CFE1D0E0D701C6010C2E04C0B695A795B6
:10369000979587950A94D2F780FD04C0219790F7FB
:1036A000B12C07C0BC2EB8018C2F0E94D7080197FF
:1036B000A9F38B2DDF91CF911F910F91FF90EF9088
:1036C000DF90CF90BF900895CF93DF93EC010E94DD
:1036D000221BBE010E94D708DF91CF9108951F934E
:1036E000CF93DF93EB019091CC01992321F0CB0193
:1036F0000E94641B13C0882349F0CB010E94221B47
:10370000182F682FCE010E94CB1A04C0CB010E9453
:10371000F61A182FBE01812F0E94D708DF91CF9192
:103720001F91089580913A02859585958595089514
:1037300080913A028770089590913A02977081E0E3
:1037400009F480E008958091460208959091460220
:10375000892B809346020895809590914602892393
:103760008093460208951092460208959091450272
:10377000892B809345020895809590914502892375
:103780008093450208951092450208959091440255
:10379000892B809344020895809590914402892357
:1037A00080934402089510924402089580913B0250
:1037B000089508950C94D91B0C94DA1B90913B0248
:1037C000981721F080933B020C94DC1B08958091A4
:1037D0003B02882329F010923B0280E00C94DC1B12
:1037E0000895E0910901F0910A01809146028083D9
:1037F000E0910901F0910A01908180914502892BA5
:103800008083E0910901F0910A0190818091440246
:10381000892B808380913B02882381F0E09109010C
:10382000F0910A019081892B808380910901909108
:103830000A010E94191D81110E94E71B8091090154
:1038400090910A010C9444100C94D91B98E0899F24
:1038500090011124262B20933A020E942D1A809168
:103860003A028595859585950C94241C10923A0210
:1038700080E00C94241C20913A028095822380934E
:103880003A02982F977079F430E0482F082E000CF8
:10389000550B2417350739F08595859585950E9438
:1038A0004E1A0C94361C08959093A9018093A80198
:1038B00008958295982F937344E0949F900111246A
:1038C0008C7C86958695282B822F8575880F2A7A81
:1038D0002695822B089580E090E00E94862E21E0BC
:1038E0008C3E9E4F09F020E0822F089582E090E008
:1038F0000C947E2E83E090E00C947E2ECF9384E097
:1039000090E00E947E2EC82F81E290E00E947E2EE1
:103910002C2F30E0A901582BCA01CF910895CF93E5
:10392000C92F682F84E090E00E948C2E6C2F81E2DA
:1039300090E0CF910C948C2EAB01BC018FE090E015
:103940000C949E2EAB01BC0183E190E00C949E2E62
:1039500060E070E0CB010C94A21C60E070E0CB0151
:103960000E949C1C0C94A81C6CEE7EEF80E090E002
:103970000E94AA2E60E082E090E00E948C2E60E01F
:1039800083E090E00E948C2E109236021092370253
:10399000109238021092390260E084E090E00E94B8
:1039A0008C2E60E081E290E00E948C2E60E085E049
:1039B00090E00E948C2E60E086E090E00E948C2EC9
:1039C0006FEF87E090E00E948C2E40E050E0BA015B
:1039D00088E090E00E949E2E60E08DE090E00E94E2
:1039E0008C2E40E050E0BA0188E190E00E949E2ECB
:1039F00060E087E190E00E948C2E40E050E0BA0148
:103A00008CE190E00E949E2E60E080E290E00E94B7
:103A10008C2E40E050E0BA0188E190E00E949E2E9A
:103A20000C94AD1C0C94B41C682F8EE090E00C94A8
:103A30008C2EFC01329697E080E0915029F0219184
:103A40002223D9F38F5FF9CF0895662349F0FC0153
:103A5000329608962191621729F0E817F907D1F7F5
:103A600080E0089581E008959C01FC0132969FEF6B
:103A700080E04191461789F09F3F19F4411101C040
:103A8000982F8F5F8630A9F79F3F39F0F901E90F32
:103A9000F11D97FDFA956283089508959C012A5FB0
:103AA0003F4FFC014281461301C0128201968217EA
:103AB0009307B9F708950C94341D0C944E1D02968B
:103AC00026E0FC0111922A95E9F7089508950C94D7
:103AD000661D0C94661DCF930E94691D0E94A80B61
:103AE0000E94671DC0E08C2F0E94C60A811104C08D
:103AF000CF5FCA30C1F701C081E0CF9108950C9427
:103B0000661D0C947F1D0E94811D80918702843068
:103B100049F11092480220E488E190E00FB6F89451
:103B2000A895809360000FBE2093600080E00E9403
:103B3000AF080E94811D83B7817F846083BF83B7F4
:103B4000816083BF7894889583B78E7F83BF0FB6DB
:103B5000F894A8958091600088618093600010922D
:103B600060000FBE08950C94661D0E949D150E9472
:103B700038100E94AF080C94B31D1F920F920FB61D
:103B80000F9211248F939F93AF93BF93809148021C
:103B9000811113C080917D0290917E02A0917F02DD
:103BA000B09180024196A11DB11D80937D0290933A
:103BB0007E02A0937F02B0938002BF91AF919F914C
:103BC0008F910F900FBE0F901F90189582E084BDCB
:103BD00093E095BD9AEF97BD80936E0008952FB73F
:103BE000F89480917D0290917E02A0917F02B09125
:103BF00080022FBF08952FB7F89460917D027091D5
:103C00007E0280917F02909180022FBF08959C01D7
:103C10004FB7F89480917D0290917E02A0917F022F
:103C2000B09180024FBF821B930B089578941F922E
:103C30000F920FB60F9211248F939F93AF93BF9360
:103C400080917D0290917E02A0917F02B0918002CE
:103C50000196A11DB11D80937D0290937E02A093D9
:103C60007F02B0938002BF91AF919F918F910F908F
:103C70000FBE0F901F90189587E797E79093010864
:103C8000809300089AE088E10FB6F894A895809395
:103C900060000FBE90936000FFCF0E946B1C8111EB
:103CA00002C00E94121D0E94761C809347020E944F
:103CB0007E1C90938202809381020E947A1C682F5E
:103CC00070E080E090E00E94CD1960913202709126
:103CD000330280913402909135020C94051A809140
:103CE000510280FF0BC060910F0185E0689FB00119
:103CF000112475956795759567952BC081FF09C04F
:103D000060910F0185E0689FB0011124759567955A
:103D100020C082FF07C060910F0185E0689FB0015D
:103D2000112417C0909150029923D1F060910E0197
:103D3000961788F720910F0185E0289F90011124A4
:103D4000929FA001939F500D112470E0CA010E9420
:103D5000502E6038710540F46115710519F406C0E4
:103D600065E070E0862F08958FE7089581E008955B
:103D70008091510280FF08C060910C0170E0759540
:103D800067957595679521C081FF06C060910C010C
:103D900070E07595679519C082FF04C060910C01B1
:103DA00070E010C090914F02992399F060910B013F
:103DB0009617A0F780910C01899FC001112470E033
:103DC0000E94502E6038710540F46115710519F498
:103DD00006C061E070E0862F08958FE7089581E0C6
:103DE0000895803F21F40E946F1E819504C0813F99
:103DF00029F40E946F1E809355020895823F21F49A
:103E00000E946F1E819504C0833F29F40E946F1E9B
:103E1000809354020895893F19F40E94B81E05C08A
:103E20008A3F31F40E94B81E81958093560208950E
:103E30008B3F21F40E94B81E819504C08C3F29F469
:103E40000E94B81E809357020895843F21F4809108
:103E50005302816017C0853F21F480915302826034
:103E600011C0863F21F48091530284600BC0873FCC
:103E700021F480915302886005C0883F31F480911D
:103E8000530280618093530208958D3F21F4809105
:103E9000510281600BC08E3F21F4809151028260FB
:103EA00005C08F3F29F480915102846080935102B4
:103EB0000895803F39F48091550287FF6AC01092BF
:103EC000550267C0813F29F4809155021816BCF352
:103ED00060C090915402823F29F497FF5AC010921B
:103EE000540257C0833F19F41916CCF352C0909175
:103EF0005602893F31F419160CF04BC0109256024D
:103F000048C08A3F19F497FF44C0F8CF8B3F39F47B
:103F10008091570287FF3DC0109257023AC08C3FF4
:103F200029F4809157021816BCF333C0843F21F462
:103F3000809153028E7F17C0853F21F480915302F8
:103F40008D7F11C0863F21F4809153028B7F0BC07F
:103F5000873F21F480915302877F05C0883F31F469
:103F6000809153028F7E8093530213C08D3F21F4C2
:103F7000809151028E7F0BC08E3F21F480915102BF
:103F80008D7F05C08F3F29F4809151028B7F8093F4
:103F9000510280915402811106C080915502811115
:103FA00002C01092500280915602811106C0809189
:103FB0005702811102C010924F020895809147026A
:103FC00083FF7EC08FE893E00E941D07809153021B
:103FD0001F928F938AE893E09F938F930E94B60776
:103FE00088E893E00E941D0780915402282F082E34
:103FF000000C330B3F938F9385E893E09F938F934F
:104000000E94B60783E893E00E941D078091550245
:10401000282F082E000C330B3F938F9380E893E0FA
:104020009F938F930E94B6078EE793E00E941D072F
:1040300080915602282F082E000C330B3F938F934C
:104040008BE793E09F938F930E94B60789E793E0F5
:104050000E941D0780915702282F082E000C330B59
:104060003F938F9386E793E09F938F930E94B607C9
:1040700083E793E00E941D07809150021F928F9367
:1040800080E793E09F938F930E94B6078EE693E0BC
:104090000E941D07809151021F928F938BE693E03F
:1040A0009F938F930E94B60788E693E00E941D07B6
:1040B0008DB79EB74C960FB6F8949EBF0FBE8DBFBE
:1040C0000E94EF1D20915402211104C0209155023D
:1040D000222321F090934E0280934D0220915602AC
:1040E000211104C020915702222321F090934C0209
:1040F00080934B0282E592E00C948D10EF92FF9238
:104100000F931F93CF93DF9300D000D000D0CDB793
:10411000DEB786E0E2E5F2E0DE01119601900D9255
:104120008A95E1F7E0905402F09055020091560212
:10413000109157021092540210925502109256029A
:1041400010925702E11003C0FF2009F45DC0809176
:104150004D0290914E020E94071EAC0190915002B8
:10416000992339F02091100130E02417350758F0D9
:104170004BC020914A028AE0289F90011124241705
:10418000350718F041C09F3F19F09F5F9093500290
:10419000EE2061F00E946F1E1E1414F09FEF01C00C
:1041A00091E0989F902D112490935402FF2061F08C
:1041B0000E946F1E1F1414F09FEF01C091E0989FA2
:1041C000902D112490935502309154023323E1F045
:1041D000209155022223C1F045EB3403C001112484
:1041E000992319F09093540203C081E08093540204
:1041F00035EB2303C0011124992319F09093550244
:1042000003C081E080935502011103C0112309F41A
:104210005DC080914B0290914C020E94071EAC0140
:1042200090914F02992339F020910D0130E024172D
:10423000350758F04BC0209149028AE0289F900131
:1042400011242417350718F041C09F3F19F09F5FD4
:1042500090934F02002361F00E94B81E101614F0D4
:104260009FEF01C091E0989F902D112490935602EA
:10427000112361F00E94B81E111614F09FEF01C0C7
:1042800091E0989F902D11249093570230915602FF
:104290003323E1F0209157022223C1F045EB340390
:1042A000C0011124992319F09093560203C081E0B4
:1042B0008093560235EB2303C0011124992319F092
:1042C0009093570203C081E080935702809154027B
:1042D00081110BC080915502811107C08091560257
:1042E000811103C08091570281110E94DE1FEB8271
:1042F000FC820D831E8386E0FE013196A2E5B2E0CA
:1043000001900D928A95E1F726960FB6F894DEBFDC
:104310000FBECDBFDF91CF911F910F91FF90EF9016
:104320000895E2E5F2E086E0DF011D928A95E9F763
:104330001092500210924F0210925102089582EB97
:1043400095E00E941D071F9281E08F931F9285E0E8
:104350008F9384E695E09F938F930E94B6070F900A
:104360000F900F900F900F900F9008958330E9F108
:1043700028F4813061F0823009F10895853009F424
:1043800062C008F449C0863009F474C00895809171
:104390004A02262F30E0280F311D2F3F310524F42B
:1043A000680F60934A0203C08FEF80934A028091A6
:1043B0004A021F928F938DE994E072C080911001A0
:1043C000262F30E0280F311D2F3F310524F4680FD0
:1043D0006093100103C08FEF809310018091100152
:1043E0001F928F938BE894E05BC080910F01262F82
:1043F00030E0280F311D2F3F310524F4680F609302
:104400000F0103C08FEF80930F0180910F011F9266
:104410008F9388E794E044C080910E01262F30E00E
:10442000280F311D2F3F310524F4680F60930E01D2
:1044300003C08FEF80930E0180910E011F928F9326
:1044400083E694E02DC080910C01262F30E0280FE8
:10445000311D2F3F310524F4680F60930C0103C018
:104460008FEF80930C0180910C011F928F938AE44F
:1044700094E016C080910B01262F30E0280F311DEB
:104480002F3F310524F4680F60930B0103C08FEFB9
:1044900080930B0180910B011F928F938FE294E028
:1044A0009F938F930E94B6070F900F900F900F90DD
:1044B0000895833081F128F4813059F08230D1F0B1
:1044C0000895853009F449C0B8F1863009F456C022
:1044D000089580914A02681720F4861B80934A024F
:1044E00002C010924A0280914A021F928F9380E28A
:1044F00094E054C080911001681720F4861B8093CB
:10450000100102C010921001809110011F928F9330
:104510008EE094E043C080910F01681720F4861B61
:1045200080930F0102C010920F0180910F011F9222
:104530008F938BEF93E032C080910E01681720F4C7
:10454000861B80930E0102C010920E0180910E0115
:104550001F928F9386EE93E021C080910C01681723
:1045600020F4861B80930C0102C010920C018091F4
:104570000C011F928F938DEC93E010C080910B0182
:10458000681720F4861B80930B0102C010920B0168
:1045900080910B011F928F9382EB93E09F938F93F7
:1045A0000E94B6070F900F900F900F900895CF9331
:1045B000C82F1F928F9387EB96E09F938F930E9453
:1045C000B60781E090E0A0E0B0E0BC01CD0104C0FE
:1045D000660F771F881F991FCA95D2F70E94CD19C1
:1045E0000F900F900F900F90CF910C949D15CF933B
:1045F000DF938B3109F4EAC108F08BC18B3009F4E9
:10460000AEC108F065C1863009F4ACC120F4853034
:1046100009F4BAC15DC2873009F4BDC1883009F020
:1046200057C28AEC9BE00E941D078BE19BE00E9431
:104630001D070E947A1C1F928F9388E19BE09F9335
:104640008F930E94B60786E19BE00E941D070E949F
:10465000761CC82F83E09BE00E941D071F92CF931A
:104660008EEF9AE09F938F930E94B6078CEF9AE0AB
:104670000E941D0782EF9AE00E941D078C2F817017
:104680001F928F938FEE9AE09F938F930E94B607AD
:104690008DEE9AE00E941D0783EE9AE00E941D07AE
:1046A000C1FB882780F91F928F9380EE9AE09F9339
:1046B0008F930E94B6078EED9AE00E941D0782ED4F
:1046C0009AE00E941D07C2FB882780F91F928F93F2
:1046D0008FEC9AE09F938F930E94B6078DEC9AE03F
:1046E0000E941D0784EC9AE00E941D07C3FBCC27A3
:1046F000C0F91F92CF9381EC9AE09F938F930E9411
:10470000B6078FEB9AE00E941D070E947E1CEC0109
:104710008BEA9AE00E941D07DF93CF9386EA9AE026
:104720009F938F930E94B60784EA9AE00E941D0728
:104730008BE89AE00E941D078C2F81701F928F9347
:1047400088E89AE09F938F930E94B6078DB79EB733
:1047500080960FB6F8949EBF0FBE8DBF86E89AE094
:104760000E941D078FE69AE00E941D07C1FB882763
:1047700080F91F928F938CE69AE09F938F930E940B
:10478000B6078AE69AE00E941D0788E59AE00E9433
:104790001D078D2F81701F928F9385E59AE09F935F
:1047A0008F930E94B60783E59AE00E941D0781E47B
:1047B0009AE00E941D07D695D1701F92DF938EE379
:1047C0009AE09F938F930E94B6078CE39AE00E9431
:1047D0001D078AE29AE00E941D07C2FB882780F924
:1047E0001F928F9387E29AE09F938F930E94B60760
:1047F00085E29AE00E941D0783E19AE00E941D076E
:10480000C3FB882780F91F928F9380E19AE09F93E2
:104810008F930E94B6078EE09AE00E941D0784E005
:104820009AE00E941D07C4FB882780F91F928F938E
:1048300081E09AE09F938F930E94B6078FEF99E0F3
:104840000E941D078DEE99E00E941D07C5FB882779
:1048500080F91F928F938AEE99E09F938F930E9425
:10486000B60788EE99E00E941D078CEC99E00E9443
:104870001D07C6FB882780F91F928F9389EC99E06A
:104880009F938F930E94B6078DB79EB780960FB601
:10489000F8949EBF0FBE8DBF87EC99E00E941D0764
:1048A0008FEB99E00E941D07C7FBCC27C0F91F9230
:1048B000CF938CEB99E09F938F930E94B6078AEB7E
:1048C00099E00E941D070F900F900F900F9045C028
:1048D000803109F4A5C020F48E3009F48BC0F8C0F3
:1048E000863109F4B8C0893109F0F2C081EE97E051
:1048F0000E941D078DE997E00E941D0786E897E05A
:104900000E941D0780E597E00E941D0785E297E061
:1049100084C08A32E1F060F4873209F4D5C028F40B
:104920008E3108F4D5C08D51D0C0893269F1D0C024
:10493000833448F48A3308F0C5C0853309F4C4C011
:10494000883369F0C5C0833409F4BEC0C1C089EBA7
:104950009BE00E941D070E94121DC1E0BEC087E1BE
:1049600098E05BC080914702817F8E7F80934702F1
:1049700080EF97E00E941D0785EB9BE00E941D07DA
:1049800081E080935902E9CF89E99BE00E941D07ED
:104990000E944108E2CF80914702C82FC095C170A4
:1049A000C0FB80F980934702CC2329F08DE89BE07F
:1049B0000E941D0792C080E89BE00E941D07809125
:1049C0004702897F877F80934702C7CF9091470234
:1049D00091FBCC27C0F981E0C827892FC0FB81F962
:1049E00080934702CC2319F083E79BE029C085E63A
:1049F0009BE013C09091470292FBCC27C0F981E065
:104A0000C827892FC0FB82F980934702CC2319F075
:104A100086E59BE015C086E49BE00E941D079DCFC4
:104A20009091470293FBCC27C0F981E0C827892FDA
:104A3000C0FB83F980934702CC2351F08AE39BE0CB
:104A40000E941D078091470281608093470245C004
:104A50008DE29BE0E2CF87E197E00E941D070E9474
:104A600038101F928F938DEF96E09F938F930E9443
:104A7000B60780911B011F928F9386EE96E09F935D
:104A80008F930E94B607809166021F928F9383EDE9
:104A900096E09F938F930E94B6070E94FB1D9F9301
:104AA0008F937F936F938CEB96E09F938F930E94ED
:104AB000B6078DB79EB742960FB6F8949EBF0FBE4D
:104AC0008DBF4BCF895301C080E00E94D72245CFD4
:104AD0008BE29BE00E941D07C0E08C2FDF91CF91FD
:104AE000089580E008950C9471258E518A3030F439
:104AF000E82FF0E0E157FE4F8081089580E00895AF
:104B0000CF93C82F80915902813059F020F0823024
:104B100009F445C037C10E94A31B823209F034C199
:104B200004C00E94A31B823261F48C2F0E94732563
:104B3000811104C08C2F0E94F7222FC081E090E0E9
:104B40002CC08C2F0E947125811126C0C431E1F048
:104B500070F4CB3081F0C031D1F40E949F218FEAF4
:104B600096E00E941D0782E08093590215C0C93269
:104B700059F0C83361F480EF97E00E941D0783EB82
:104B800096E00E941D0708C010925902FFC08DEAEE
:104B900096E00E941D07FAC081E08170F9C0C4321E
:104BA00018F5CE3108F0BFC0CB3091F1C0F4C7305A
:104BB00009F0CEC010924A0284E180931001C093A4
:104BC0000F018CE380930E0188E080930C0188E252
:104BD00080930B0183E595E00E941D07BCC0C331A3
:104BE00049F1C431C1F0B4C0CB3409F4A6C028F4F3
:104BF000C93289F0C83361F0ABC0C13509F49BC03C
:104C0000C23509F496C0CE3409F0A2C06AE09BC058
:104C10000E949F21A0C080915802882319F0109211
:104C2000580299C080E695E00E941D0781E08093BC
:104C30005902AEC08AE395E00E941D0788E295E024
:104C40000E941D0780914A021F928F9385E295E092
:104C50009F938F930E94B60783E295E00E941D0701
:104C600081E195E00E941D07809110011F928F93B2
:104C70008EE095E09F938F930E94B6078CE095E0BD
:104C80000E941D078DEF94E00E941D0780910F0187
:104C90001F928F938AEF94E09F938F930E94B607A1
:104CA00088EF94E00E941D0787EE94E00E941D07A4
:104CB00080910E011F928F9384EE94E09F938F93C7
:104CC0000E94B60782EE94E00E941D078DEC94E0EE
:104CD0000E941D0780910C011F928F938AEC94E033
:104CE0009F938F930E94B60788EC94E00E941D0763
:104CF00081EB94E00E941D0780910B011F928F931E
:104D00008EEA94E09F938F930E94B6078CEA94E01A
:104D10000E941D078DB79EB748960FB6F8949EBFA8
:104D20000FBE8DBF18C08C2F0E947525809358022E
:104D300012C061E003C061E006C06AE080915802E1
:104D40000E94B62108C0809158020E94592203C0D7
:104D500081E595E013C080915802882369F01F9285
:104D60008F938BE495E09F938F930E94B6070F90EB
:104D70000F900F900F9004C088E495E00E941D07EB
:104D800081E006C01092590280E002C080E005CFA9
:104D9000CF9108958091650208959FB7F89410927D
:104DA0005C029FBF90918702943009F057C09091A8
:104DB000E9009F703091EC00232F217030FD20E836
:104DC000922B23E02093E9002091EB0020FF43C0C9
:104DD0002091EE0027FF3FC020915A02222321F0AC
:104DE0002091E80025FF37C010925A0226E030914A
:104DF000E80035FD15C030918702343061F53091FF
:104E0000EB0035FD28C0215021F481E080935A0247
:104E100022C0EFE9FFE03197F1F700C00000E7CFD3
:104E20008093F1008091E80085FD0AC08091E80040
:104E300080FFFCCF8091E8008E778093E80006C069
:104E40008FB7F89421E020935C028FBF9F709093FE
:104E5000E90080E008959F709093E9008FEF089536
:104E6000CF93DF9300D01F92CDB7DEB7909187022A
:104E7000943019F589837B836A8382E08093E9000B
:104E80008FEF9091E800815095FD06C095ED9A95C1
:104E9000F1F700008111F5CF8091E80085FF0DC08A
:104EA00040E050E063E070E0CE0101960E94A72947
:104EB0008091E8008E778093E8000F900F900F901C
:104EC000DF91CF910895BC0184E00C943027BC01A0
:104ED00083E00C94302722E02093E9002FEF3091FB
:104EE000E800215035FD06C035ED3A95F1F7000098
:104EF0002111F5CF2091E80025FF0BC040E050E0E4
:104F000066E070E00E94A7298091E8008E77809388
:104F1000E8000895CF93DF9321E02093E9002FEF7D
:104F20003091E800215035FD06C035ED3A95F1F796
:104F300000002111F5CF2091E80025FF14C0EC01FD
:104F400040E050E068E070E00E94A7298091E8000E
:104F50008E778093E80088E0FE01ADE5B2E0019035
:104F60000D928A95E1F7DF91CF9108958AEF9BE04A
:104F70000E941D0780918602811109C00E94382B72
:104F80000E94952B8091E20084608093E200089556
:104F900086EF9BE00E941D0710928602089582EF23
:104FA0009BE00C941D078EEE9BE00C941D078AEE8F
:104FB0009BE00E941D070C94B51D20915B022F5FA2
:104FC000822F62E30E94442E992319F020935B0202
:104FD000089510925B0280915C02882371F18091A8
:104FE0008702843041F58091E9008F702091EC00B8
:104FF000922F917020FD90E8892B93E09093E90027
:105000009091EB0090FF14C09091EE0097FF10C0BC
:105010009091E80095FF03C01092F100F9CF9091B4
:10502000E80090FF05C09091E8009E779093E8001B
:105030008F708093E90010925C02089542E061EC69
:1050400081E00E94B12A42E261EC82E00E94B12A32
:1050500042E261EC83E00C94B12A809189028330B2
:1050600009F460C030F4813071F0823009F499C0E5
:1050700008958A3009F485C08B3009F46BC08930FB
:1050800009F0A7C020C080918802813A09F0A1C030
:105090008091E800877F8093E80080918C02909156
:1050A0008D02892B21F468E08DE592E003C060E079
:1050B00080E090E070E00E94F2298091E8008B7718
:1050C0008093E800089580918802813209F081C0C0
:1050D00080918C0290918D02029708F07AC08091A5
:1050E000E800877F8093E8008091E80082FD05C09A
:1050F000809187028111F8CF6CC02091F3008091DC
:10510000F20090E0922B029729F48091F1008B7FBE
:10511000813021F48091F100809365028091E80054
:105120008B7753C080918802813A09F052C08091F8
:105130008C0290918D02892B09F04BC08091E80080
:10514000877F8093E8008091E80080FFFCCF80910A
:105150001B0136C0809188028132D9F580918C0282
:1051600090918D02892BA9F58091E800877F80932B
:10517000E8000E94E62A80918A0280931B010C9429
:105180009D1580918802813221F58091E800877F0A
:105190008093E8000E94E62A80918B028093660249
:1051A000089580918802813AA1F48091E800877F78
:1051B0008093E8008091E80080FFFCCF8091660238
:1051C0008093F1008091E8008E778093E8000C9442
:1051D000E62A089584B7877F84BF0FB6F894A89510
:1051E00080916000886180936000109260000FBE23
:1051F00090E080E80FB6F89480936100909361008E
:105200000FBE0E94DD100E94382B0E94952B8091CA
:10521000E20084608093E2008DEC96E20E94541CD0
:1052200078940E94292E0E94E31081E191E00E946F
:10523000331089ED9BE00E941D0780918702853025
:1052400089F485ED9BE00E941D070E94831D8091DB
:105250008502882391F30E946B1D882371F30E94BD
:105260009129EBCF0E9413110E94D1100E94D010FF
:10527000E4CF0C943B29292F332723303105C9F083
:1052800060F42130310581F02230310509F041C050
:105290008BE590E020E43CE040C021323105E1F0B4
:1052A0002232310531F135C082E190E02BE93CE05A
:1052B00034C099278130910549F028F0029749F5CB
:1052C000EEEFFBE005C0ECE3FCE002C0ECE2FCE04A
:1052D000849190E09F0121C063307105D0F4660F86
:1052E000771FFB01EE55FE4F2081318189E090E070
:1052F00014C06330710568F4FB01EE0FFF1FE45624
:10530000FE4F20813181FB01E756FE4F808190E006
:1053100004C080E090E020E030E0FA013183208397
:10532000089580E189BD82E189BD09B400FEFDCF09
:105330008091D8008F7D8093D8008091E0008260BA
:105340008093E0008091E00081FDFCCF0895CF9232
:10535000DF92EF92FF920F931F93CF93DF93EC01B5
:105360008B017A010E94052B811133C0E114F104F5
:1053700039F0F70180819181081B190BC80FD91FE3
:10538000C12CD12C0115110519F18091E80085FD82
:1053900016C08091E8008E778093E800E114F10454
:1053A00049F0F70180819181C80ED91ED182C08257
:1053B00085E00FC00E94052B882321F30AC0899144
:1053C0008093F10001501109FFEFCF1ADF0ADACF05
:1053D00080E0DF91CF911F910F91FF90EF90DF90D0
:1053E000CF90089520918E0230918F0226173707B3
:1053F00048F06115710539F42091E8002E7720936B
:10540000E80001C0B901FC0120E06115710579F1E6
:10541000809187028823F1F18530F1F18091E800D5
:1054200083FD3CC08091E80082FD2EC08091E800A1
:1054300080FFEBCF2091F3008091F20090E0922B5F
:105440006115710551F08830910538F42191209350
:10545000F100615071090196F3CF21E0089709F03E
:1054600020E08091E8008E778093E800CECF211174
:10547000CFCF0AC080918702882361F0853061F028
:105480008091E80083FD0AC08091E80082FFF2CF9E
:1054900080E0089582E0089583E0089581E0089512
:1054A00020918E0230918F022617370748F0611540
:1054B000710539F42091E8002E772093E80001C0AF
:1054C000B901FC0120E06115710591F1809187021D
:1054D000882309F440C0853009F43FC08091E8007A
:1054E00083FD3DC08091E80082FD2FC08091E800DF
:1054F00080FFE9CF2091F3008091F20090E0922BA1
:105500006115710559F08830910540F4249120937C
:10551000F1003196615071090196F2CF21E00897B0
:1055200009F020E08091E8008E778093E800CBCFEF
:105530002111CCCF0AC080918702882361F0853089
:1055400061F08091E80083FD0AC08091E80082FF4D
:10555000F2CF80E0089582E0089583E0089581E02D
:105560000895982F973068F59093E900981739F0CF
:105570007091EC002091ED005091F00003C0242FB9
:10558000762F50E021FD02C09F5FECCF3091EB0001
:105590003E7F3093EB003091ED003D7F3093ED0086
:1055A0003091EB0031603093EB007093EC0020936E
:1055B000ED005093F0002091EE0027FDE5CF80E054
:1055C00008958F708093E90081E0089580918802AA
:1055D00087FF11C08091E80082FD05C0809187029D
:1055E0008111F8CF11C08091E8008B770BC08091BA
:1055F0008702882349F08091E80080FFF8CF8091EE
:10560000E8008E778093E80008952091E4003091BF
:10561000E50095E64091EC00842F817040FF23C0A7
:105620008091E80080FD1DC080918702882399F059
:10563000853099F08091EB0085FD11C04091E40028
:105640005091E5002417350729F3915011F09A0184
:10565000E1CF84E0089582E0089583E0089581E039
:10566000089580E008954091E80042FFDDCF08955D
:105670000E94A62B0E94AE2BE0EEF0E080818160BC
:105680008083E8EDF0E080818F77808319BCA7EDFF
:10569000B0E08C918E7F8C9380818F7E808310927E
:1056A000860208950F931F93CF93DF930E94A62B3A
:1056B0000E94AE2BC8EDD0E088818F7788838881E7
:1056C0008068888388818F7D888319BC10928702C7
:1056D00010928302109285021092840200EE10E074
:1056E000F80180818B7F808388818160888342E09C
:1056F00060E080E00E94B12AE1EEF0E080818E7FE0
:105700008083E2EEF0E08081816080838081886028
:105710008083F80180818E7F808388818061888387
:10572000DF91CF911F910F910895E8EDF0E0808116
:105730008F7E8083E7EDF0E080818160808384E06C
:1057400082BF81E0809386020C94522BE8EDF0E05A
:1057500080818E7F80831092E20008951092DA009B
:105760001092E10008951F920F920FB60F9211242C
:105770002F933F934F935F936F937F938F939F9359
:10578000AF93BF93EF93FF938091E10082FF0BC033
:105790008091E20082FF07C08091E1008B7F8093BF
:1057A000E1000E94DD278091DA0080FF1FC0809118
:1057B000D80080FF1BC08091DA008E7F8093DA00D2
:1057C0008091D90080FF0DC080E189BD82E189BD53
:1057D00009B400FEFDCF81E0809387020E94B627C6
:1057E00005C019BC109287020E94C8278091E10071
:1057F00080FF19C08091E20080FF15C08091E20017
:105800008E7F8093E2008091E20080618093E200CD
:105810008091D80080628093D80019BC85E0809385
:1058200087020E94D3278091E10084FF30C08091DD
:10583000E20084FF2CC080E189BD82E189BD09B40A
:1058400000FEFDCF8091D8008F7D8093D80080919D
:10585000E1008F7E8093E1008091E2008F7E809353
:10586000E2008091E20081608093E20080918302F7
:10587000882311F084E007C08091E30087FD02C017
:1058800081E001C083E0809387020E94D727809146
:10589000E10083FF29C08091E20083FF25C0809151
:1058A000E100877F8093E10082E08093870210927D
:1058B00083028091E1008E7F8093E1008091E2007D
:1058C0008E7F8093E2008091E20080618093E2000D
:1058D00042E060E080E00E94B12A8091F0008860A0
:1058E0008093F0000E94CF27FF91EF91BF91AF917D
:1058F0009F918F917F916F915F914F913F912F91E8
:105900000F900FBE0F901F9018951F920F920FB619
:105910000F9211242F933F934F935F936F937F9335
:105920008F939F93AF93BF93CF93DF93EF93FF93A7
:10593000C091E900CF708091EC00D82FD17080FD2C
:10594000D0E81092E9008091F000877F8093F0000A
:1059500078940E94C92C1092E9008091F000886030
:105960008093F000CD2BCF70C093E900FF91EF91B1
:10597000DF91CF91BF91AF919F918F917F916F9167
:105980005F914F913F912F910F900FBE0F901F90FD
:1059900018951F93CF93DF93CDB7DEB7AA970FB6B5
:1059A000F894DEBF0FBECDBFE8E8F2E08091F100D1
:1059B000819322E0E039F207C9F70E942D288091F7
:1059C000E80083FF2EC18091880290918902492FBF
:1059D00050E04A30510508F024C1FA01EC58FF4F5D
:1059E0000C94642E803821F0823809F01AC108C066
:1059F0008091840290918502992389F082600FC082
:105A000080918C028F70873008F00BC18093E90081
:105A10008091EB0085FB882780F91092E900909136
:105A2000E800977F9093E8008093F1001092F100D6
:105A3000D1C0282F2D7F09F0F4C0882319F08230BF
:105A400061F0EFC080918A02813009F0EAC09330A2
:105A500009F080E0809385022EC080918A02811136
:105A60002AC080918C028F702FEF280F263008F00B
:105A7000D8C08093E9002091EB0020FF1CC0933038
:105A800021F48091EB00806214C09091EB00906152
:105A90009093EB0021E030E0A90102C0440F551FB4
:105AA0008A95E2F74093EA001092EA008091EB00B9
:105AB00088608093EB001092E9008091E800877F76
:105AC0008093E8000E94E62AACC08111AAC0109120
:105AD0008A021F778091E3008078812B8093E30016
