:100000000C94200A0C94670A0C94670A0C947D17D0
:100010000C94670A0C94670A0C94670A0C94670A9C
:100020000C94670A0C94670A0C9404340C94D6342C
:100030000C940E260C94670A0C94670A0C94670AB9
:100040000C94670A0C94670A0C94670A0C94670A6C
:100050000C94670A0C9467260C94670A0C94670A40
:100060000C94670A0C94670A0C94670A0C94670A4C
:100070000C94670A0C94670A0C94670A0C94670A3C
:100080000C94670A0C94670A0C94670A0C94670A2C
:100090000C94670A0C94670A0C94670A0C94670A1C
:1000A0000C94670A0C94670A0C94670A521B521B43
:1000B000841B841BD11BEF1B101D101DFA1B8F1CF2
:1000C000A01CA01C001D101D101D091DB01DB01D81
:1000D000C21DC21DB91DC21DC21DC21DB01DB01D55
:1000E000BE1DC21DC21DBE1D43356A3562366A354E
:1000F0006236B635D935623630363F3680818283F6
:100100008485868788898A8B8C8D8E8F9091929337
:1001100094A0A1A2A3A4A5A6A7A8A9AAABACADAE82
:10012000AFB0B1B2B3B4C0C1C2C3C4C5C6C7C8C9F9
:10013000CACBCCCDCECFD0D1D2D3D400202020205A
:100140000053435220002020202000434150200033
:1001500020202020004E554D2000556E64656669B4
:100160006E6564006E756D626572730A0066756E09
:100170006374696F6E0A00626173652071776572DE
:1001800074790A004C617965723A200035001E00CE
:100190001F0020002100220023002B0014001A0061
:1001A0000800150017002F00E100040016000700EA
:1001B00009000A004B00E0001D001B0006001900AA
:1001C00005004F00E3002C005000E200280DA800BD
:1001D000290024002500260027002D002E002A00DB
:1001E00030001C0018000C001200130031004E00FB
:1001F0000B000D000E000F00330034005100110001
:1002000010003600370038004C000153AA00A90046
:10021000025352004C00280001003A003B003C0011
:100220003D003E003F00010001000100010001000F
:10023000010001003900010001000100010001007E
:1002400001000100010001000100010001000100A6
:100250000100010001000100010001000100400057
:10026000410042004300440045000100010001003C
:100270000100010001000100010001000100010076
:100280000100010001000100010001000100010066
:1002900001000100010001530100010002530100AF
:1002A0000100010001000100010001000100010046
:1002B0000100010001000100010001000100010036
:1002C0000100010001000100010001000100010026
:1002D0000100010001000100010001000100010016
:1002E00001000100010001000100010001005300B4
:1002F0000100560057000100010001005F0060008E
:10030000610001000100010001005C005D005E0071
:10031000550001000100010059005A005B00540023
:1003200001000000010001000253010062006300AF
:1003300044454255473A2064697361626C65642E96
:100340000A0044454255473A20656E61626C656417
:100350002E0A000A0025303862003A20002530328B
:1003600058000A722F632030313233343536370A61
:10037000006F6C65645F7363726F6C6C5F6C656655
:100380007420636D64206661696C65640A006F6C3B
:1003900065645F6F666620636D64206661696C6585
:1003A000640A0000AE6F6C65645F6F6E20636D64FD
:1003B000206661696C65640A0000AF6F6C65645FFC
:1003C00072656E64657239302064617461206661A3
:1003D000696C65640A006F6C65645F72656E646564
:1003E000722064617461206661696C65640A006FE3
:1003F0006C65645F72656E646572206F66667365B6
:100400007420636F6D6D616E64206661696C6564F4
:100410000A00646973706C61795F7365747570321A
:10042000206661696C65640A0000DA0281FFD9F117
:10043000DB20A4A62EAF646973706C61795F666C73
:100440006970706564206661696C65640A0000A06B
:10045000C06F6C65645F696E697420636D64206E43
:100460006F726D616C20726F746174696F6E20665B
:1004700061696C65640A0000A1C86F6C65645F699E
:100480006E697420636D6420736574203120666129
:10049000696C65640A0000AED580A81FD300408D4A
:1004A0001420000000000000003E5B4F5B3E003E59
:1004B0006B4F6B3E001C3E7C3E1C00183C7E3C1883
:1004C000001C577D571C001C5E7F5E1C0000183C02
:1004D000180000FFE7C3E7FF00001824180000FF22
:1004E000E7DBE7FF0030483A060E00262979292687
:1004F00000407F05050700407F05253F005A3CE787
:100500003C5A007F3E1C1C0800081C1C3E7F001447
:10051000227F2214005F5F005F5F0006097F017F7A
:1005200000006689956A0060606060600094A2FFC8
:10053000A2940008047E04080010207E2010000809
:10054000082A1C0800081C2A0808001E1010101099
:10055000000C1E0C1E0C0030383E383000060E3EDB
:100560000E060000000000000000005F0000000018
:100570000700070000147F147F1400242A7F2A122A
:100580000023130864620036495620500000080713
:10059000030000001C224100000041221C00002A30
:1005A0001C7F1C2A0008083E0808000080703000EC
:1005B000000808080808000000606000002010081B
:1005C0000402003E5149453E0000427F4000007257
:1005D00049494946002141494D33001814127F1002
:1005E000002745454539003C4A4949310041211120
:1005F000090700364949493600464949291E000085
:1006000000140000000040340000000008142241E3
:10061000001414141414000041221408000201599B
:100620000906003E415D594E007C1211127C007F8C
:1006300049494936003E41414122007F4141413E06
:10064000007F49494941007F09090901003E4141B4
:100650005173007F0808087F0000417F410000209F
:1006600040413F01007F08142241007F404040404C
:10067000007F021C027F007F0408107F003E414182
:10068000413E007F09090906003E4151215E007F7D
:10069000091929460026494949320003017F01030F
:1006A000003F4040403F001F2040201F003F403897
:1006B000403F0063140814630003047804030061DE
:1006C00059494D4300007F41414100020408102078
:1006D00000004141417F000402010204004040400B
:1006E0004040000003070800002054547840007F79
:1006F0002844443800384444442800384444287F7F
:100700000038545454180000087E09020018A4A4AC
:100710009C78007F080404780000447D400000209D
:1007200040403D00007F102844000000417F400011
:10073000007C04780478007C080404780038444481
:10074000443800FC182424180018242418FC007CC9
:10075000080404080048545454240004043F44246A
:10076000003C4040207C001C2040201C003C4030CD
:10077000403C004428102844004C9090907C004459
:1007800064544C440000083641000000007700002B
:10079000000041360800000201020402003C26234A
:1007A000263C00000000000000404040F0F8F8FF48
:1007B00038FFF8F83FF8F8FF38FFF8F8F04040400D
:1007C00000000000000080C0C0C0800000C0C080E9
:1007D00000000080C0C000C0C0000080C0C0000099
:1007E000000000C0C0C0C0C000C0C00000000000C9
:1007F00000000000000000000000000000000000F9
:1008000000000000000000000000000000000000E8
:1008100000000000000000000000000000000000D8
:100820000000C0F0F8FC3E1E06010000007F4141C0
:10083000417F007F4141417F000080C0E07E5B4FEF
:100840005BFEC00000C000DCD7DEDEDED7DC00C00F
:100850000000000000000000000000000000000098
:10086000000000000000000000494949FFFFFFFFB1
:10087000E0DFBFBF00BFBFDFE0FFFFFFFF49494927
:1008800000000000001F3F6060E0BF1F007F7F0787
:100890001E381E077F7F007F7F0E1F3B71600000A8
:1008A0000000007F7F0C0C0C007E7E007F7E030327
:1008B000007F7E03037E7E03037F7E000F3E703C3D
:1008C000063C703E0F00327B49493F7E007F7E032D
:1008D00003001E3F69696F26000000000000000051
:1008E0000000030F1F3F3C7870600000007F414113
:1008F000417F007F4141417F00307B7F7830202065
:1009000030787F3B0003000F7F0F0F0F7F0F000336
:1009100000000000000000000000000000000000D7
:10092000000000000000000000010101070F0F7F20
:100930000F7F0F0F7E0F0F7F0F7F0F0F070101013A
:1009400000000000000000000000010100000000A5
:100950000000000000000000000000000000000097
:100960000000000000000000000000000000000087
:100970000000000000000000000000000000000077
:100980000000000000000000000000000000000067
:100990000000000000000000000000000000000057
:1009A0000000000000000000000000000000000047
:1009B0000000000000000000000000000000000037
:1009C0000000000000000000000000000000000027
:1009D0000000000000000000000000000000000017
:1009E0000000000A002530325820006B6579626FE4
:1009F0006172645F7265706F72743A20000A00253C
:100A0000303258006B6579626F6172645F73657430
:100A10005F6C65643A2000290A002575002F0025C7
:100A200075005D2800256400200025640020002555
:100A3000640020002564007C0025303258006D6F72
:100A40007573656B6579205B62746E7C78207920A4
:100A50007620685D287265702F61636C293A205B8F
:100A6000006D6B5F776865656C5F74696D655F7459
:100A70006F5F6D6178203D2025640A006D6B5F77A4
:100A80006865656C5F6D61785F7370656564203D56
:100A90002025640A006D6B5F74696D655F746F5F1C
:100AA0006D6178203D2025640A006D6B5F6D617873
:100AB0005F7370656564203D2025640A006D6B5F7F
:100AC000696E74657276616C203D2025640A006D44
:100AD0006B5F64656C6179203D2025640A006D6B55
:100AE0005F776865656C5F74696D655F746F5F6D76
:100AF0006178203D2025640A006D6B5F776865652D
:100B00006C5F6D61785F7370656564203D2025645E
:100B10000A006D6B5F74696D655F746F5F6D6178FE
:100B2000203D2025640A006D6B5F6D61785F7370F6
:100B3000656564203D2025640A006D6B5F696E74F5
:100B4000657276616C203D2025640A006D6B5F64E0
:100B5000656C6179203D2025640A000A0025750036
:100B6000363A20776865656C5F74696D655F746F90
:100B70005F6D61783A20000A00257500353A2077CC
:100B80006865656C5F6D61785F73706565643A2058
:100B9000000A00257500343A2074696D655F746F32
:100BA0005F6D61783A20000A00257500333A206DA8
:100BB00061785F73706565643A20000A00257500EE
:100BC000323A20696E74657276616C286D73293AC9
:100BD00020000A00257500313A2064656C6179288F
:100BE0002A31306D73293A20000A092D2056616C94
:100BF000756573202D0A004D3E004D25643E200092
:100C00003F007365742064656661756C740A004307
:100C10003E200077686572652064656C74613A20D7
:100C2000637572736F723D25642C20776865656CFF
:100C30003D25640A53656520687474703A2F2F65EA
:100C40006E2E77696B6970656469612E6F72672FAC
:100C500077696B692F4D6F7573655F6B6579730A83
:100C6000000A092D204D6F7573656B6579202D0A7B
:100C70004553432F713A09717569740A313A096411
:100C8000656C6179282A31306D73290A323A096915
:100C90006E74657276616C286D73290A333A096D3A
:100CA00061785F73706565640A343A0974696D65CB
:100CB0005F746F5F6D61780A353A09776865656CB6
:100CC0005F6D61785F73706565640A363A097768AD
:100CD00065656C5F74696D655F746F5F6D61780ADF
:100CE0000A703A097072696E742076616C7565736A
:100CF0000A643A097365742064656661756C74737F
:100D00000A75703A092B310A646F776E3A092D31F2
:100D10000A706775703A092B31300A7067646F7713
:100D20006E3A092D31300A0A7370656564203D20E2
:100D300064656C7461202A206D61785F73706565ED
:100D400064202A2028726570656174202F207469E0
:100D50006D655F746F5F6D6178290A003F004D3EDD
:100D60002000433E20004C25640A0074696D6572C2
:100D70005F72656164333228293A202530346C581B
:100D80000A006B6579626F6172645F69646C653AD1
:100D90002025580A006B6579626F6172645F70721A
:100DA0006F746F636F6C3A2025580A00686F737414
:100DB0005F6B6579626F6172645F6C65647328292B
:100DC0003A2025580A000A092D205374617475735E
:100DD000202D0A004743433A20352E342E3020413F
:100DE00056522D4C4942433A20322E302E3020416B
:100DF00056525F415243483A20617672350A004F9D
:100E00005054494F4E533A204C554641204D4F5572
:100E100053454B45592045585452414B4559204361
:100E20004F4E534F4C4520434F4D4D414E4420347F
:100E30003039360A004255494C443A202028417046
:100E4000722020322032303231290A005649443A89
:100E500020307834343444287473686F72742920D5
:100E60005049443A2030783335333728446163742D
:100E7000796C2D4D616E75666F726D2028357837EF
:100E80002929205645523A203078303030310A0036
:100E90000A092D2056657273696F6E202D0A000AAB
:100EA000092D20436F6E736F6C65202D0A455343E7
:100EB0002F713A09717569740A6D3A096D6F75730E
:100EC000656B65790A000A092D204D616769632009
:100ED0002D0A443A094465627567204D6573736154
:100EE000676520546F67676C650A583A094D6174ED
:100EF000726978204465627567204D6F646520547F
:100F00006F67676C65202D2053686F77206B65795C
:100F10007072657373657320696E206D6174726998
:100F20007820677269640A4B3A094B6579626F6190
:100F3000726420446562756720546F67676C652032
:100F40002D2053686F77206B6579707265737320FD
:100F50007265706F72740A4D3A0944656275672054
:100F60004D6F75736520546F67676C650A563A0953
:100F700056657273696F6E0A533A095374617475DA
:100F8000730A433A09416374697661746520436F5B
:100F90006E736F6C65204D6F64650A46312D463166
:100FA000303A0953776974636820746F204C617913
:100FB000657220302D392028463130203D204C30BC
:100FC000290A302D393A0953776974636820746FA0
:100FD000204C6179657220302D390A4752415645BF
:100FE0003A0953776974636820746F204C6179659E
:100FF0007220302028616C7465726E617465290AF4
:10100000423A094A756D7020746F20426F6F746C9C
:101010006F616465720A4553433A094A756D7020E1
:10102000746F20426F6F746C6F6164657220286109
:101030006C7465726E617465290A453A095072696B
:101040006E7420454550524F4D2053657474696E3F
:1010500067730A4253504143453A09436C656172D4
:1010600020454550524F4D0A000A002575002E6E4E
:101070006B726F3A20000A002575002E737761703D
:101080005F6261636B736C6173685F6261636B73F2
:10109000706163653A20000A002575002E73776140
:1010A000705F67726176655F6573633A20000A005E
:1010B0002575002E6E6F5F6775693A20000A00255E
:1010C00075002E737761705F72616C745F72677503
:1010D000693A20000A002575002E737761705F6CF5
:1010E000616C745F6C6775693A20000A00257500B1
:1010F0002E737761705F7263746C5F726775693AA3
:1011000020000A002575002E737761705F6C637490
:101110006C5F6C6775693A20000A002575002E63C4
:101120006170736C6F636B5F746F5F636F6E74720B
:101130006F6C3A20000A002575002E737761705F8E
:10114000636F6E74726F6C5F636170736C6F636BEF
:101150003A20000A0025303258006B65796D6170C5
:101160005F636F6E6669672E7261773A20000A00CE
:101170002575002E6D6F7573653A20000A00257580
:10118000002E6B6579626F6172643A20000A002557
:1011900075002E6D61747269783A20000A00257519
:1011A000002E656E61626C653A20000A00253032BF
:1011B000580064656275675F636F6E6669672E725B
:1011C00061773A20000A0025750064656661756CD8
:1011D000745F6C617965723A20003F000A6D6F752B
:1011E00073653A206F66660A000A6D6F7573653A1B
:1011F000206F6E0A000A6B6579626F6172643A2033
:101200006F66660A000A6B6579626F6172643A20E4
:101210006F6E0A000A6D61747269783A206F6666B3
:101220000A000A6D61747269783A206F6E0A000ACA
:1012300064656275673A206F66660A000A646562D3
:1012400075673A206F6E0A000A0A4A756D70696EFA
:101250006720746F20626F6F746C6F616465722EAB
:101260002E2E2000433E2000436C656172696E673C
:1012700020454550524F4D0A006565636F6E6669A3
:10128000673A0A005B735D004B6579626F61726457
:101290002073746172742E0A005B575D005B535DAE
:1012A000005B525D005B445D005B435D002C0344CA
:1012B0000061006300740079006C002D004D006136
:1012C000006E00750066006F0072006D002000283F
:1012D00000350078003700290000000E0374007309
:1012E0000068006F00720074000000040309040924
:1012F000025B00030100A0FA0904000001030101E0
:1013000000092111010001224000070581030800A6
:101310000A09040100010300000009211101000174
:101320002281000705820320000A0904020002034B
:10133000000000092111010001222200070583039A
:101340002000010705030320000112011001000025
:1013500000084D4437350100010200010631FF0944
:1013600074A1010975150026FF00952075088102FA
:101370000976150026FF00952075089102C0050129
:101380000902A10185020901A10005091901290528
:1013900015002501950575018102950175038101EF
:1013A0000501093009311581257F950275088106EF
:1013B00009381581257F950175088106050C0A38C5
:1013C000021581257F950175088106C0C0050109B8
:1013D00080A101850319012AB700150126B70095E0
:1013E0000175108100C0050C0901A10185041901D6
:1013F0002AA002150126A002950175108100C005E2
:10140000010906A101050719E029E7150025019545
:1014100008750181029501750881010507190029E8
:10142000FF150026FF0095067508810005081901C3
:101430002905950575019102950175039101C0007B
:1014400011241FBECFEFDAE0DEBFCDBF04B603FE2E
:1014500027C08091D5049091D604A091D704B09173
:10146000D8048730904BA740B04BD1F41092D504EC
:101470001092D6041092D7041092D80414BE84B7E8
:10148000877F84BF0FB6F894A8958091600088612B
:1014900080936000109260000FBEE0E0F8E30995D1
:1014A00011E0A0E0B1E0E2E5FEE602C005900D9299
:1014B000A83BB107D9F724E0A8EBB1E001C01D9229
:1014C000A53DB207E1F70E943B310C9427370C94FD
:1014D0000000FF93EF93E091B801F091B9013097CC
:1014E00009F00995EF91FF910895FC0185918030F5
:1014F00011F0EFDFFBCF0895FF27E0E230E247FF76
:101500000CC0419597FF09C0EDE2609570958095FC
:101510009095611D711D811D911D27FF02C02195B0
:1015200030E350E2AA27660F771F881F991FAA1F72
:10153000A41710F0A41B63955A95A9F7AA3008F0D8
:10154000A95FA05DAF93F3956115710581059105C4
:1015500041F7ED3211F4EF93F395F21718F43F933E
:10156000F395FBCF8F91B5DFFA95E1F70895E991F7
:10157000F9918591803021F0853219F0AADFF9CFF9
:10158000089520E0E89455915532C1F3503311F499
:10159000689455915A3348F4505390F3220F022E19
:1015A000220F220F200D250FF4CF0EF421958991E3
:1015B0009991533619F3533729F1533559F1BC0139
:1015C00088279927E8945C3621F489919991689449
:1015D0005591543639F446EF7EF077FF0DC08FEF0A
:1015E0009FEF0AC055374AE039F0583540E121F005
:1015F000523642E009F00895FF93EF937DDFEF91BB
:10160000FF91B7CFFF93EF93FC0181918030B9F345
:1016100060DFFBCFFF93EF9368DFF1CFDF93CF93D2
:10162000CDB7DEB72596A3DFCF91DF910895CF9395
:10163000C82F0E940C10882311F08C2F01C082E06B
:10164000CF910895CF930E940C1060E0882309F495
:1016500048C084E891E00E94DC11609171027091B1
:10166000720280917302909174020E945A24813018
:1016700059F030F0823071F460E084E691E007C008
:1016800060E087E791E003C060E08DE691E00E94B2
:10169000DC1105C060E08AE591E00E94EE110E9435
:1016A0002C18C82F80FD03C080E591E002C085E5BD
:1016B00091E060E00E94DC11C1FD03C086E491E08E
:1016C00002C08BE491E060E00E94DC11C2FD03C027
:1016D0008CE391E002C081E491E060E0CF910C9452
:1016E000DC118CEF90E00E94DC11CF910C9455132B
:1016F00081E0089581E008950C947A0B08950C948C
:101700007E0B1F93CF93DF9300D000D01F92CDB7F5
:10171000DEB749835A836B8330910B0289819A81AA
:10172000311114C0662359F0222349F00E9423236B
:10173000182F682F89819A810E94CC2203C00E94B1
:10174000F722182F69817A81812F04C00E942323F8
:1017500069817A810F900F900F900F900F90DF9119
:10176000CF911F910C944E0CFC01262F408151818A
:101770006281738184810C94810BCF93DF93EC01A0
:1017800060E00E94B40BBE01DF91CF910C947F0BFF
:101790000E94BC24811102C00E9463250C94AF0EEC
:1017A0000C94AB0E08950E949E1D0E94D20B2FEF49
:1017B00084E39CE0215080409040E1F700C00000AD
:1017C0000C948D260F931F93CF93DF93EC0161E070
:1017D0000E94B40B8C01BE010E947C0B882309F48B
:1017E00042C0BE01C8010E943F148823E1F1BE013E
:1017F000C8010E9491148823B1F1BE01C8010E9462
:10180000BC15882381F18A81882331F101308CE570
:10181000180751F00F3D8CE51807D9F001151C454C
:10182000D9F40E94D30B1FC080918602C82FC095A7
:10183000C170C0FB80F980938602CC2329F082E43A
:1018400093E00E94750A0FC080E393E00E94750A3E
:101850000BC00E94632507C0CE01DF91CF911F917D
:101860000F910C94780BC0E08C2FDF91CF911F91DA
:101870000F91089508950C943A0C81E008950C940A
:101880003D0CCF93C82F0E943B0C8C2F0E943F0C25
:10189000CF91089580E090E00895089526E4829F16
:1018A000C0011124FC0127E0729FE00DF11D1124FD
:1018B000E60FF11DEE0FFF1FE457FE4F8591949147
:1018C0000895880F991FFC01ED5AFC4F8591949162
:1018D0000895CF93DF930E944E0C0E94810DEC017E
:1018E0008115904508F041C0C11580E4D80708F083
:1018F000D1C0C83ED10510F5C03ED10508F0FDC0ED
:10190000C83AD10578F4C53AD10508F0A2C0C13073
:10191000D10509F4F2C008F4EEC0C430D10508F0D6
:10192000ECC0E9C0CF3BD10508F49BC0C03CD10559
:1019300008F4E1C0CE01805C91099EC0C11590E21F
:10194000D90758F4C11521E0D20708F0D6C0C03F2E
:10195000D10508F4D0C0D065D0C0C11580E3D80748
:1019600008F08EC0CE019F7087C0C11595E5D907DC
:1019700008F043C0C11524E5D20708F0A2C0C11584
:1019800082E5D80708F5C11591E5D90708F085C0AB
:10199000CE0174E0969587957A95E1F783709C2F38
:1019A000937021E030E002C0220F331F9A95E2F7D6
:1019B0003C68382BCF70C695C69580E2C89FE00181
:1019C0001124C22BD32B99C09E01237033278C2F57
:1019D00086958695C115D34508F064C0C1E0D0E076
:1019E00002C0CC0FDD1F2A95E2F720E2829FC001E2
:1019F0001124C82BD92BDC6880C0C11529E5D2077A
:101A0000A0F4C11588E5D80708F060C0C11596E5B7
:101A1000D90708F070C08C2F0E94150E8F71C82F47
:101A2000D0E0DC2FCC27D06268C0C1152AE5D207F0
:101A300008F451C0CE0190568115904208F05BC069
:101A40008D2F8F710E94150EDD27D0628F71D82BDC
:101A500054C0C55AD0E0CE5ADE4FC881D0E0D06421
:101A60004CC0C85AD0E0CC0FDD1FCC5DDE4F0990D2
:101A7000D881C02DD46441C00E94610CEC013DC0EE
:101A8000CE019927D3FF03C0EC01D86C36C0EC011E
:101A9000D06C33C0DF70D06A30C0DC2FCC27C16F70
:101AA000D06A2BC0C1E0D0E002C0CC0FDD1F2A9568
:101AB000E2F720E2829FC0011124C82BD92BDA68FB
:101AC0001CC0DC2FCC27C46FD06A17C0DC2FCC27FA
:101AD000C06FD06A12C08C2F8F700E94150E94E0D8
:101AE000D695C7959A95E1F7CF70D0E0DC2FCC273B
:101AF000D069C82B02C0C0E0D0E0CE01DF91CF9109
:101B000008958238910569F1B0F48133910509F4A3
:101B10006DC048F48932910509F463C08A32910599
:101B200009F469C008958533910509F455C08933D6
:101B30009105B9F00895833E910569F138F4803E2E
:101B40009105B1F0823E910509F10895863E910517
:101B5000A9F1873E9105B9F1843E910509F064C071
:101B600023C02091C60420FD4FC021FD4DC0089523
:101B70008091C60480FD44C08091C70480FF44C0AA
:101B80008091C60484FD42C083EE4DC08091C6049E
:101B900082FF38C0F5CF8091C60482FD33C08091AA
:101BA000C70480FD31C0ECCF8091C70481FF32C0F3
:101BB0008091C60484FD2AC087EE35C08091C6049A
:101BC00083FF26C0F5CF8091C60483FD21C080919C
:101BD000C70481FD1FC0ECCF8091C60485FD1CC0E9
:101BE0001DC08091C60485FD19C016C08091C60431
:101BF00086FD16C017C08091C60486FD13C010C0B4
:101C000089E311C082EE0FC080EE0DC080E00BC0F2
:101C100086EE09C084EE07C089E205C085E303C0F3
:101C20008AE201C081E390E008959091C60492FF9A
:101C30000DC0282F2871283019F4877F846006C0D2
:101C4000282F2471243011F48B7F886093FF0DC0FE
:101C5000282F2871283119F4877E846106C0282F27
:101C60002471243111F48B7E88612091C70420FFF8
:101C70000DC0382F3871383019F4877F816006C065
:101C8000382F3171313011F48E7F886021FF0DC003
:101C9000282F2871283119F4877E816106C0282FEA
:101CA0002171213111F48E7E886194FD877E089523
:101CB000E82FF0E0E055FD4F80810895CF92DF924C
:101CC000EF92FF920F931F93CF93DF9382E693E0FF
:101CD0000E94750A80EBE82E82E0F82EC0E0D0E08A
:101CE0009DE5C92E93E0D92E05E513E0DF93CF9350
:101CF000DF92CF920E940E0B8AE593E00E94750A54
:101D0000F70181917F010E94AA241F928F931F9354
:101D10000F930E940E0B83E593E00E94750A2196B3
:101D20008DB79EB708960FB6F8949EBF0FBE8DBFB5
:101D3000CA30D105D9F6DF91CF911F910F91FF9055
:101D4000EF90DF90CF90089580EA8A95F1F708959B
:101D500008950C94A80E0C94A90E0C94A80E0C9443
:101D6000AD0EF894E82FE295EF70F0E031A1282F46
:101D70002F7081E090E001C0880F2A95EAF7982F34
:101D80009095932391A392A1892B82A3789408958F
:101D900008950F931F93CF93DF930E942210809199
:101DA000000180910001811102C095E001C090E026
:101DB0009093BB0285E0891B8093BA0286E60E945D
:101DC000B10E87E90E94B10E86EC0E94B10E84E349
:101DD0000E94B10E85E30E94B10EC5E5D1E00CE58D
:101DE00011E089910E94B10E0C171D07D1F7E6EAA8
:101DF000F2E0A0EBB2E011921D9282E0E03BF80726
:101E0000D1F785E00E94C00F0E94C80BDF91CF91EF
:101E10001F910F910C942C100E940C10882309F133
:101E20008091BA0290E080559D4F0E943F10811131
:101E300014C08091BA018F5F8093BA01863078F028
:101E4000E091BA02F0E0E055FD4F80E090E01192A1
:101E5000019685309105D9F702C01092BA010C9411
:101E6000D00B8091BB0290E080559D4F0E945A108C
:101E70000C94C80E8F929F92AF92BF92CF92DF9236
:101E8000EF92FF920F931F93CF93DF938CE5A82ED1
:101E900081E0B82EC6EAD2E091E6E92E91E0F92E73
:101EA000912C01E010E06501F5018081F894E82FA4
:101EB000E295EF70F0E021A18F70A80102C0440FFD
:101EC000551F8A95E2F7CA01922F982B91A392A1F0
:101ED0008095892382A378940E94A40EE5E5F1E021
:101EE00020E030E0812C4191A42FA295AF70B0E0AA
:101EF00090968C9190E04F7002C0959587954A9589
:101F0000E2F780FD07C0802F022E01C0880F0A94DF
:101F1000EAF701C080E0882A2F5F3F4F2730310564
:101F200011F75FEFA51AB50AF60180810E94B10E84
:101F30008881881619F0888281E001C080E0982AA3
:101F40002196EA14FB0409F0AECF6091BB0270E069
:101F500060557D4F292D45E086EA92E00E94C10F31
:101F60000E940C0F892DDF91CF911F910F91FF904F
:101F7000EF90DF90CF90BF90AF909F908F9008959B
:101F80000895FF920F931F93CF93DF938C01F62E4A
:101F9000D72FC42F222349F081E08093BD010E94F6
:101FA00040269093BC018093BB018091BD018823A2
:101FB000C1F08091BB019091BC010E945826069708
:101FC00080F0EF2DFD2FD8014C2F50E0CD01801B6C
:101FD000910B841795071CF48D918193F7CF109284
:101FE000BD01DF91CF911F910F91FF90089588EC73
:101FF0009091E30097FD0EC0EFE3FCE93197F1F714
:1020000000C000008150A1F70E9489331092CC04D7
:1020100080E0089581E008958091BE01811109C09A
:102020000E94F70F811102C082E001C081E080931D
:10203000BE0181E09091BE01913009F080E00895E9
:102040000C940C100E942010809300010E940C1030
:1020500081110C94331008950E940C10811102C05C
:102060000C943910089561E070E081E091E00C94E7
:102070002F1761E070E081E091E00C943617CF9368
:10208000DF93D82FC92F0E94CE17892B79F4ED2F1B
:10209000FC2F80E090E0DC01A054BE4F2C912193F6
:1020A000019685309105B9F781E001C080E0DF91AC
:1020B000CF91089520E030E0FC014191CF01F9017A
:1020C000E054FE4F40832F5F3F4F25303105A1F78D
:1020D0000895EF92FF920F931F93CF93DF93EC013C
:1020E0007B0164E670E088E70E94F3158C01EC0E3A
:1020F000FD1ECE15DF0561F017FD0AC0FE018491BB
:1021000064E670E00E944A168C012196892B89F3BF
:102110000E94CE16C801DF91CF911F910F91FF90C1
:10212000EF900895ECEBF2E080E092E0DF019C019B
:102130001D9221503040E1F7F093C104E093C004B8
:102140008FEF9FEF9093F3018093F20108950E9427
:10215000170B8093EE0180FD02C080E801C080E291
:102160008093ED010E94ED156DE070E086E994E04A
:102170000E946910892B19F08AE794E00EC08091C3
:10218000EE0163E070E081FD0CC087E794E00E94FF
:102190006910892B79F081E594E00E94750A80E04E
:1021A00008958EE494E00E946910892B19F086E36B
:1021B00094E0F3CF6DE070E089E294E00E94691052
:1021C000892B19F082E194E0E8CF0E944C26DC01D3
:1021D000CB01805A9541AF4FBF4F8093BC04909381
:1021E000BD04A093BE04B093BF040E94921081E08E
:1021F0008093F1018093F0011092EF0108952091F6
:10220000ED0136E0839FC0011124629F800D911D76
:102210001124811522E0920714F080E090E08454AC
:102220009D4F9093C1048093C00408952091C004F1
:102230003091C104265B32404091ED01642F70E083
:10224000C9010E94A136481B463010F4240F311DED
:10225000211582E0380710F020E030E024543D4F93
:102260003093C1042093C0040895CF93DF938A3044
:1022700011F481E003C08D3029F480E0DF91CF912B
:102280000C94AB11C62F682F8091C0049091C104AB
:1022900026E0FC01A5ECB1E001900D922A95E1F752
:1022A000603E30F026E0FC0111922A95E9F70AC061
:1022B000F6E06F9FB00111246D557B4F46E050E072
:1022C0000E94CF36C11135C0C091C004D091C10465
:1022D00046E050E0BE0185EC91E00E94D836892BA3
:1022E000B1F1CC5BD2409E0185E0369527958A9569
:1022F000E1F781E090E0AC0102C0440F551F2A9540
:10230000E2F72091F2013091F301242B352B259631
:1023100045E0D695C7954A95E1F702C0880F991F09
:10232000CA95E2F7822B932B9093F3018093F201ED
:102330000EC0E091C004F091C1049F012A5F3F4F9D
:102340002E173F0709F2808180958193F9CFDF91A5
:10235000CF910C941611CF93E82F2091C0043091A7
:10236000C1042C5B32404091ED01642F70E0C90143
:102370000E94A136481B842FEE2359F066E00E948C
:102380009536C82FC150B0F060E080E20E94351150
:10239000F9CFA901480F511D4115524018F080E0B6
:1023A00020E030E0280F311D24543D4F3093C1040C
:1023B0002093C004CF9108951F93CF93DF93EC0136
:1023C000162FFE018491882329F0612F0E94351178
:1023D0002196F7CFDF91CF911F9108950E94DC11D4
:1023E00081E00C94AB118091F101882321F10E94CE
:1023F0004C26DC01CB01805A9541AF4FBF4F8093F3
:10240000BC049093BD04A093BE04B093BF0480911C
:10241000F001811110C062E070E089EB93E00E944E
:102420006910892B29F085EA93E00E94750A03C0A0
:1024300081E08093F0018091F00108956F927F9286
:102440008F929F92AF92BF92CF92DF92EF92FF92C4
:102450000F931F93CF93DF938091F101882309F4A9
:10246000F7C02091F2013091F3012115310509F4F3
:10247000EFC08091EF018111EBC061E070E0082FA7
:1024800010E03B01082E02C0660C771C0A94E2F7AC
:10249000A90146215721452B11F48F5FF0CF909170
:1024A000EE01980165E0220F331F6A95E1F790FD78
:1024B00012C08295880F807680930B01220F232F04
:1024C000221F330B319520930E01815E80930C0106
:1024D00010920F0112C045E0369527954A95E1F715
:1024E000220F220F220F20930B0110920E01295F61
:1024F00020930C0183E080930F0124E630E047E055
:1025000050E069E071E088E70E947A16892B19F0A3
:102510008FEE93E07EC08091EE0180FD16C0A80191
:1025200095E0440F551F9A95E1F744545D4F04E63A
:1025300010E020E230E060E488E70E94A116892BD9
:1025400009F477C086ED93E064C080E2EBECF1E043
:10255000DF011D928A95E9F785E0000F111F8A952A
:10256000E1F7AAE6B1E046E651E0992493942D9173
:10257000EA018991AE01B801680F711D64547D4F65
:1025800030E025533E4FF90197E07F01E21AF30A4C
:10259000A92C01C0AA0CEA94EAF77B01B12CE7014F
:1025A00089917E018A21892E8B18D82DD770CD2E46
:1025B0000D2E000CDD08C82F01C0CC0FDA95EAF70C
:1025C000D194C194D108D7E0CD22DD2401C08695F5
:1025D000CA94EAF78C2BD0808D298083B39488E04D
:1025E000B812DDCF915031969F3F79F6C1E0AE36FB
:1025F000BC0709F0BCCF04E610E020E230E04BEC71
:1026000051E060E488E70E94A116892B91F08BEBE2
:1026100093E0DF91CF911F910F91FF90EF90DF90AA
:10262000CF90BF90AF909F908F907F906F900C94C1
:10263000750A0E94F311E301C095D0958091F201D3
:102640009091F301C823D923D093F301C093F201F1
:10265000DF91CF911F910F91FF90EF90DF90CF907E
:10266000BF90AF909F908F907F906F9008958091D2
:10267000F1019091F0018823A9F0992389F062E09B
:1026800070E083EA93E00E946910892B39F08EE8AC
:1026900093E00E94750A8091F00108951092F00174
:1026A0009091F00181E089270895CF93DF93CDB712
:1026B000DEB729970FB6F894DEBF0FBECDBF90915D
:1026C000F1018091EF01992381F12091F201309184
:1026D000F301232B41F5811126C0198287E28A83F9
:1026E0001B828091EB018C838091EC018D83809122
:1026F00010018E831F828FEF88878FE2898724E6FF
:1027000030E049E050E0BE016F5F7F4F88E70E94F4
:102710007A16892B29F081E793E00E94750A03C09D
:1027200081E08093EF018091EF0129960FB6F89434
:10273000DEBF0FBECDBFDF91CF9108950F931F93E2
:102740008091F101882329F160E080E00E94FF1070
:102750000E94220B0E941E128091F0018823C9F072
:102760000E944C260091BC041091BD042091BE042F
:102770003091BF04DC01CB01801B910BA20BB30B8A
:102780008F3F9F4FAF4FBF4720F41F910F910C9485
:1027900037131F910F9108950F931F93CF93DF93DA
:1027A000C42FD22FFC0182818823C9F04093F60107
:1027B0000E9440269093F5018093F40180E28C0FF3
:1027C000883008F057C0C77081E001C0880FCA95F3
:1027D000EAF7DF91CF911F910F910C940E1B80911E
:1027E000F601481330C08091F4019091F5010E94E8
:1027F0005826883C910538F510E21D0FCD17B9F029
:1028000080E28C0F883040F4C77081E001C0880FEF
:10281000CA95EAF70E94151B183028F581E09D2F14
:10282000977001C0880F9A95EAF70E940E1B802FBF
:102830000E94FB1A1830F0F4D77081E001C0880FB5
:10284000DA95EAF70AC080E28C0F883098F4C770F6
:1028500081E001C0880FCA95EAF7DF91CF911F91FF
:102860000F910C94151B802FDF91CF911F910F9129
:102870000C94FB1ADF91CF911F910F9108950F9344
:102880009C01CB01243F4CE5340731F188F4293D0C
:10289000FCE53F07D9F02A3D4CE5340779F1283DA6
:1028A0003C45A9F506E221EE41EE68ED7CE52BC042
:1028B000263FFCE53F07E1F0A8F0273F3C4539F50E
:1028C00007E225EE46EE67EF7CE51DC007E225EE48
:1028D00045EE69ED7CE517C006E221EE40EE64EFBF
:1028E0007CE511C007E225EE44EE65EF7CE50BC008
:1028F00006E221EE42EE66EF7CE505C008E221E04B
:1029000045EE6AED7CE50E94CC1380E008C0FC0136
:102910008281882319F01092F60101C081E00F91A5
:102920000895CF93DF93EC01FB018281882309F4A2
:102930001FC1C230FCE5DF0708F41BC1C6319CE5AE
:10294000D90738F09E012B5F3C452930310508F04E
:1029500010C10E94CF249093C7048093C604C03155
:10296000ECE5DE0709F4C3C008F041C0C8308CE5CF
:10297000D80709F49AC0F0F4C430ECE5DE0709F496
:1029800087C068F4C2308CE5D80709F477C0C3303B
:10299000DC4509F0E3C08091C604826076C0C63091
:1029A000ECE5DE0709F46EC008F07BC08091C60438
:1029B00088606BC0CC308CE5D80709F485C068F41A
:1029C000CA30ECE5DE0709F474C008F079C00E9453
:1029D0009E1D8091C604806858C0CE308CE5D80713
:1029E00009F476C008F07FC08091C6048BC0CC3F4C
:1029F000ECE5DE0709F44FC018F5C3318CE5D807C4
:102A000009F47DC078F4C131ECE5DE0709F473C048
:102A1000C231DC4509F0A2C00E949E1D8091C6040F
:102A20008F7733C0C5318CE5D80709F472C008F43C
:102A300086C0CB3FDC4509F091C08091C7043EC001
:102A4000C115FDE5DF0709F45FC058F4CE3F9CE5F2
:102A5000D90709F444C008F43FC08091C7048260DC
:102A60002DC0C230FDE5DF0709F475C008F45DC074
:102A7000C330DD4509F072C080E06EC08091C604AD
:102A8000816003C08091C60480618093C60466C0E3
:102A90008091C60411C08091C70482608093C704EE
:102AA0005DC08091C6048062F0CF8091C6048064CE
:102AB000ECCF8091C60488608460E7CF8160EECF60
:102AC0008091C6048E7FE1CF8091C6048D7FDDCFDB
:102AD0008091C604877FD9CF8091C70418C08091A8
:102AE000C7048D7FDBCF8091C6048F7ECECF8091CF
:102AF000C6048F7DCACF8091C6048F7BC6CF8091DC
:102B0000C604877F8B7FC1CF8091C7048D7F8E7F66
:102B1000C5CF8091C60482FB222720F991E092273D
:102B200090FB82F990FB83F9B0CF8091C704982F76
:102B3000909591708E7F892B90FB81F9AFCF0E9489
:102B40009E1D8091C60487FB222720F991E09227E1
:102B500090FB87F99ACF81E00E9465258091C60499
:102B60009091C7040E94E0240E949E1D80E001C055
:102B700081E0DF91CF910895CF93DF9386319C451B
:102B800041F5EB010E94A423982F8A812091110125
:102B900030911201882379F09A7A81E009F480E07B
:102BA0008093F701911102C069E201C065E3C90198
:102BB0000E94AC250AC08091F701811102C069E230
:102BC00001C065E3C9010E94AE250E94F22380E0A6
:102BD00001C081E0DF91CF9108951092B9008CE09F
:102BE0008093B8000895EF92FF920F931F93CF93B5
:102BF000DF93182FEB011092BC0084EA8093BC0095
:102C00000E9440267C018091BC0087FD0EC0CF3F12
:102C10008FEFD807C1F30E9440268E199F098C17A9
:102C20009D0788F38EEF9FEF2EC08091B900887FBB
:102C3000883041F08091B900887F803119F08FEFA2
:102C40009FEF21C01093BB0084E88093BC000E94DA
:102C500040268C018091BC0087FD0CC0CF3F8FEFD8
:102C6000D807C1F30E944026801B910B8C179D074B
:102C700088F3D8CF8091B900887F883111F08034F3
:102C8000F1F680E090E0DF91CF911F910F91FF90DE
:102C9000EF9008950F931F93CF93DF93EB018093F1
:102CA000BB0084E88093BC000E9440268C01809188
:102CB000BC0087FD0EC0CF3F8FEFD807C1F30E9445
:102CC0004026801B910B8C179D0788F38EEF9FEF9A
:102CD0000CC02091B900287F81E090E0283211F4E7
:102CE00080E090E0919581959109DF91CF911F91BE
:102CF0000F910895CF92DF92EF92FF920F931F935F
:102D0000CF93DF936B018A017901B9010E94F3151A
:102D1000E6010C0D1D1DC017D10761F424E92093B5
:102D2000BC00DF91CF911F910F91FF90EF90DF904A
:102D3000CF90089597FDF2CFB70189910E944A166E
:102D4000EACFCF92DF92EF92FF920F931F93CF9330
:102D5000DF93C62F6A017901B8010E94F31597FD30
:102D600011C0B8018C2F0E944A16E601EC0CFD1C24
:102D7000CE15DF0539F097FD05C0B80189910E9495
:102D80004A16F6CF24E92093BC00DF91CF911F9122
:102D90000F91FF90EF90DF90CF90089584E980939A
:102DA000BC0008958EE14A9B02C08150E1F74A9B26
:102DB000FECF08955A9880E28A95F1F75A9A0895BD
:102DC000FC012AE02A95F1F728E090E080E031E06C
:102DD00040E14A95F1F7880F4A9B02C08160932732
:102DE00000C0000040E14A95F1F7215089F720E149
:102DF0002A95F1F729B100C0000030E13A95F1F7CA
:102E000022FB222720F992272081920F9083089598
:102E1000EF92FF920F931F93CF93DF931F92CDB743
:102E2000DEB719828C017C01E60EF11C0E151F0520
:102E300051F00E94D216CE0101960E94E016F801D0
:102E400081938F01F3CF81E09981911180E00F9000
:102E5000DF91CF911F910F91FF90EF900895909384
:102E6000F9018093F801529A5A9A08959093F901C2
:102E70008093F80152985A9AEA9AE9E6F0E0808144
:102E80008F7C80830895615091E001C0990F6A950D
:102E9000EAF720E031E0992361F0492F482319F047
:102EA0005A9A232701C05A9840E24A95F1F796951D
:102EB000F2CF222311F05A9A01C05A9880E28A95E3
:102EC000F1F75A980895FF920F931F93CF93DF93D2
:102ED000EC018C01060F111DC017D10741F0F990CC
:102EE0000E94DA1668E08F2D0E944317F5CFDF911C
:102EF000CF911F910F91FF9008951F920F920FB6DF
:102F00000F9211242F933F934F935F936F937F936F
:102F10008F939F93AF93BF93CF93DF93EF93FF93E1
:102F20005A98529AC091F801D091F9016D816623A7
:102F300021F08E819F810E9463170E94DA1680E142
:102F40008A95F1F75A9852985A9A80E18A95F1F742
:102F50006A81662351F08B819C810E940817E88169
:102F6000F981811104C082E003C0E881F98188E021
:102F700080830E94D216FF91EF91DF91CF91BF9194
:102F8000AF919F918F917F916F915F914F913F9101
:102F90002F910F900FBE0F901F901895CF93DF9336
:102FA000C091F801D091F901F894529A5A9885E0AD
:102FB0008A95F1F7000052985A9A80E28A95F1F7C3
:102FC0004A9B0AC0529A5A9AE881F98181E080832B
:102FD000789481E090E02CC06D81662381F08E8131
:102FE0009F810E94081781110AC0529A5A9AE8815B
:102FF000F98182E08083789482E090E019C00E9499
:10300000D21680E28A95F1F75A98529A80E18A9511
:10301000F1F76A81662321F08B819C810E946317FE
:103020000E94DA16E881F9811082789480E090E0BD
:10303000DF91CF9108959093FF018093FE01089551
:10304000E091FE01F091FF01309721F00190F081B5
:10305000E02D099480E00895E091FE01F091FF01D8
:10306000309711F480E008950190F081E02D0995EA
:103070000895EF92FF920F931F93CF93DF93E09108
:10308000FE01F091FF013097B1F18C010280F381D4
:10309000E02D09958091860282FF2DC080FF04C03B
:1030A0008BEE99E00E94750AE80118E085EEE82EA3
:1030B00089E0F82E8091860280FF0BC088811F92E4
:1030C0008F93FF92EF920E940E0B0F900F900F9034
:1030D0000F90115021961111EDCF8091860280FF43
:1030E0000AC083EE99E0DF91CF911F910F91FF907D
:1030F000EF900C94750ADF91CF911F910F91FF9083
:10310000EF900895E091FE01F091FF01309739F0C2
:1031100022E0DC012C930480F581E02D09940895D0
:103120002091FC013091FD012817390771F090932F
:10313000FD018093FC01E091FE01F091FF013097C9
:1031400021F00680F781E02D099408952091FA017D
:103150003091FB012817390771F09093FB018093A0
:10316000FA01E091FE01F091FF01309721F0008417
:10317000F185E02D0994089585B7806885BF85B7EE
:10318000806885BF08950C940C1008950C94C518A0
:103190000C94C5180C94C8180C94C5180C94CC1831
:1031A0000C94C5180E94BC180E94D0180C94CE181C
:1031B0000E9437260E94C90E80E00E94A7100E943C
:1031C0009E260C94CA18CF93C82F8091860282FF46
:1031D0001EC080FF04C084E09AE00E94750A8091BE
:1031E000860280FF0CC01F92CF938FEF99E09F93D0
:1031F0008F930E940E0B0F900F900F900F90809165
:10320000860280FF04C08DEF99E00E94750A8C2F22
:10321000CF910C94410C9F92AF92BF92CF92DF92CC
:10322000EF92FF920F931F93CF93DF93CDB7DEB74B
:103230002A970FB6F894DEBF0FBECDBF0E94C61806
:103240000E94C5180E943A0FC82E0E94C31881110F
:1032500011C08FEF89838A831B820E944026816080
:10326000782F9D838C8349815A816B818D810E9447
:10327000B01940C081E0A82E82E0B82E00E010E036
:10328000902E802F0E94580EE82EF501D1905F01FC
:10329000D82631F40F5F1F4F0A30110589F7D9CFB7
:1032A0008091860281FD0E945E0E80E0FF24F394EF
:1032B0009D2D9F21D1F08E839F82EF2081E009F424
:1032C00080E088870E9440268160782F9A878987CE
:1032D0004E815F8168858A850E94B019F801EF5F91
:1032E000FD4F8081F826F08205C08F5FFF0C87308C
:1032F000F9F6D0CF0E949E13C1100E94F3110E94D4
:10330000CF280E942018909100028917B9F00E94DE
:103310002018809300022A960FB6F894DEBF0FBEE5
:10332000CDBFDF91CF911F910F91FF90EF90DF9074
:10333000CF90BF90AF909F900C94E3182A960FB651
:10334000F894DEBF0FBECDBFDF91CF911F910F91DB
:10335000FF90EF90DF90CF90BF90AF909F90089537
:10336000CF93DF93CDB7DEB72B970FB6F894DEBFC0
:103370000FBECDBF4F83588769877A878B87DE0161
:10338000119686E0FD0111928A95E9F785E0FE012C
:10339000379601900D928A95E1F749815A816B81A8
:1033A0007C818D819E810E9491202B960FB6F8948E
:1033B000DEBF0FBECDBFDF91CF910895FC018081AC
:1033C00091810E9465230895CF93882309F4A9C0B1
:1033D000C82F8238C1F40E94201881FDA2C069E381
:1033E00080911101909112010E94AC250E94F2235C
:1033F0002FEF81EE94E0215080409040E1F700C033
:10340000000069E319C0833801F50E94201880FD8F
:1034100088C063E580911101909112010E94AC2552
:103420000E94F2232FEF81EE94E0215080409040E3
:10343000E1F700C0000063E5809111019091120155
:103440000E94AE25CF910C94F2238438C1F40E94DF
:10345000201882FD66C067E48091110190911201ED
:103460000E94AC250E94F2232FEF81EE94E02150C0
:1034700080409040E1F700C0000067E4DDCF8CEFB2
:103480008C0F813AF8F48C2F0E94D12D811149C004
:103490006C2F80911101909112010E947625882352
:1034A00049F06C2F80911101909112010E94AE257C
:1034B0000E94F2236C2F80911101909112010E94C1
:1034C000AC25C0CF80E28C0F883048F4C77081E013
:1034D00001C0880FCA95EAF70E94A723B3CFEBE596
:1034E000EC0FE33040F4F0E0E456FE4F808190E0D2
:1034F000CF910C949018E8E5EC0FE73150F4F0E030
:10350000EE0FFF1FE259FE4F80819181CF910C9405
:10351000A618C03F30F08C2F0E944227CF910C9408
:103520002F28CF910895882309F464C0823879F454
:103530000E94201881FF5EC069E380911101909183
:1035400012010E94AC250E94F22369E310C0833867
:10355000B1F40E94201880FF4DC063E580911101F5
:10356000909112010E94AC250E94F22363E58091A4
:103570001101909112010E94AE250C94F22384381F
:1035800079F40E94201882FF35C067E48091110110
:10359000909112010E94AC250E94F22367E4E7CFCC
:1035A0009CEF980F913A10F4682FE1CF90E2980FBA
:1035B000983050F4877091E001C0990F8A95EAF72E
:1035C000892F0E94AD23D9CF9BE5980F933020F42B
:1035D00080E090E00C94901898E5980F973120F4D3
:1035E00080E090E00C94A618803F20F00E94AA276B
:1035F0000C942F280895CF93C82F0E94E419C93343
:1036000049F42FEF87EE93E0215080409040E1F79E
:1036100000C000008C2FCF910C94931A882321F0C6
:103620000E94A7230C94F2230895882321F00E947E
:10363000AD230C94F2230895CF92DF92EF92FF9284
:103640000F931F93CF93DF937C01062FC72FFC01AD
:10365000158112951F70D281D1110E94C4230E943E
:103660009D23882399F0DD2389F08C2F807F80347F
:1036700021F080E2800F883048F082E00E943C24F4
:103680000E949D2391E0D82ED92601C0D12CCC2EAA
:10369000C2948FE0C8228C2D90E0FC01EA5AFF4FC3
:1036A0000C94C9368C2F807FCF70882311F0C2957F
:1036B000C07FDD2399F0CC2309F48DC180E2800F17
:1036C000883010F0011104C08C2F0E94A72303C082
:1036D0008C2F0E94B7230E94F2237DC1802F0E946D
:1036E000931ACC2309F49CC180E2800F883010F03B
:1036F000011104C08C2F0E94AD2303C08C2F0E94A7
:10370000BD230E94F2238CC18C2F807FCF7080322A
:1037100011F0C295C07F002319F00130C9F022C01A
:10372000DD2371F0112341F0113031F40E94D723D1
:103730008C2B0E94DF2374C10E94D7238C2B1DC0C9
:10374000112319F0113009F46BC10E94E82325C040
:10375000DD2321F0163008F063C10EC0153008F0EB
:103760005FC11BC0DD2361F0112331F0F7018581BA
:1037700080FF31C18F7085838C2F0E940E1B50C13A
:10378000112359F0093309F037C1FFEF27EE83E029
:10379000F15020408040E1F72DC18C2F0E94151B75
:1037A0003FC18C2F86958695837019F0813061F02A
:1037B00037C1DD2321F0802F9C2F937002C080E061
:1037C00090E00E94901834C1DD2321F0802F9C2FBF
:1037D000937002C080E090E00E94A61829C1802F5B
:1037E000DD2319F00E94422702C00E94AA270E94EE
:1037F0002F281EC18C2F837009F045C0D11114C130
:10380000402F429546954770440F440F602F6F70CC
:10381000862F90E0A0E0B0E0042E04C0880F991F2E
:10382000AA1FBB1F0A94D2F704FF10C00FE010E0DC
:1038300020E030E004C0000F111F221F331F4A9503
:10384000D2F7009510952095309503C000E010E068
:103850009801C695C695C370BC01CD01602B712B34
:10386000822B932BC23049F058F4C13019F00E94DA
:10387000E221DAC00E94D021D7C00E94F421D4C036
:103880000E94CE21D1C0DD2319F08C2F817001C0A0
:103890008695882309F4C8C0402F42954695477005
:1038A000440F440F602F6F70862F90E0A0E0B0E0CF
:1038B000042E04C0880F991FAA1FBB1F0A94D2F7B9
:1038C00004FF10C00FE010E020E030E004C0000F63
:1038D000111F221F331F4A95D2F70095109520958E
:1038E000309503C000E010E09801C695C695C370FE
:1038F000BC01CD01602B712B822B932BC23049F080
:1039000058F4C13019F00E94A7228EC00E9495225F
:103910008BC00E94B92288C00E94082285C0CF7047
:10392000DD2339F08C2F0E942E22802F0E940E1B47
:103930007BC0802F0E94151B8C2F0E944F2274C0C9
:10394000023F01F128F4003F41F0013FA1F03FC0E8
:10395000033FF9F0043F39F13AC0DD2341F015305F
:1039600008F05EC08C2F8F710E94742259C01630EF
:1039700008F056C0F7CFDD2339F08C2F8F710E94ED
:103980002E224EC0DD23C9F38C2F8F710E944F224F
:1039900047C0DD2329F08C2F8F710E94192240C06F
:1039A0000E9414223DC0DD2349F0CF718C2F0E946C
:1039B0002E2263E08C2F0E94272432C081E00E94D7
:1039C0003C24123068F182E00E943C2429C0DD23AF
:1039D00031F0112391F2802F0E94E41921C01123AC
:1039E00099F2093349F49FEFE7EEF3E09150E0409C
:1039F000F040E1F700C00000802F0E94931A10C031
:103A00004C2F4F70602FC7010E944A0C0E943F212B
:103A10000FC04C2F4F70602FC7010E944D0C08C083
:103A200088EF8C0D843020F40E9420180E94410CF5
:103A3000DD20C9F00E94992380FD15C0F701128294
:103A40000E9493230E942E22C7010E94541D0E94AF
:103A50009323DF91CF911F910F91FF90EF90DF9013
:103A6000CF900C944F22DF91CF911F910F91FF9037
:103A7000EF90DF90CF9008950F931F93CF93DF9334
:103A8000EC01688179818A810E9470238C010E94F7
:103A9000CB220E94BC21B801CE010E941C1BDF91E9
:103AA000CF911F910F910895CF93DF93EC019881EF
:103AB00089812B813C81232B31F08F3F31F481E0D0
:103AC0009F3F19F403C081E001C080E080FD19C070
:103AD000CE010E94E20B81110CC00E949D2388231D
:103AE00081F08A81882369F082E0DF91CF910C9484
:103AF0003C24CE010E943C1DCE01DF91CF910C945D
:103B0000BD0BDF91CF9108950E94C4230E94D4235E
:103B10000E94F2230E94E2290E942F2880E090E078
:103B20000E94901880E090E00C94A61880911101FA
:103B3000909112010E94B0250C94841D0E94B42320
:103B40000C94961DE92FE295EF704E2F50E0FA018C
:103B50003297EE30F105B0F4EA59FF4F0C94C936B4
:103B6000803F91F018F4883E68F40EC0843F51F411
:103B70000BC0883E48F0813F29F406C093FB88279C
:103B800080F9089580E0089581E008950E946523FA
:103B90000E94A21D0895CF93DF9300D000D01F9202
:103BA000CDB7DEB70F900F900F900F900F90DF9171
:103BB000CF910895CF93DF9300D000D000D0CDB740
:103BC000DEB726960FB6F894DEBF0FBECDBFDF91ED
:103BD000CF9108951F93CF93DF93C0910C0216E00D
:103BE00080910D02C81799F0D0E01C9FF0011D9F35
:103BF000F00D1124E25FFD4F40815181628173819C
:103C0000848195810E94DA1D2196C770E9CFDF91EA
:103C1000CF911F91089540913E0250913F026091D3
:103C200040027091410280914202909143020C94B3
:103C3000DA1D20910C0290910D0256E02917A9F08F
:103C400030E0529FF001539FF00D1124E25FFD4FD1
:103C50007181761306C07081781303C0728174136A
:103C600006C02F5F3F4F2770E9CF80E0089581E0C5
:103C700008950F931F93CF93DF9380914302829512
:103C80008F7009F05DC080914002882309F458C00C
:103C900080910C0210910D0260913E0270913F02E2
:103CA000C0914102D091420291E06F3F09F090E053
:103CB000292F06E0811709F443C0209721F07F3FA8
:103CC00021F030E003C031E001C0322F90E030FD40
:103CD00034C0089FF001099FF00D1124DF01A25F9D
:103CE000BD4F11963C911197371327C03C91361365
:103CF00024C012963C91129731111FC013964D911A
:103D00005C9114974C1B5D0B483C5105B0F48091BD
:103D100043028F70806180934302ED5EFD4F80818E
:103D20008F70806180838EE392E00E94541DDF914A
:103D3000CF911F910F910C94EA1D01968770BACF15
:103D4000DF91CF911F910F9108958F929F92AF9223
:103D5000BF92CF92DF92EF92FF920F931F93CF9378
:103D6000DF93CDB7DEB761970FB6F894DEBF0FBE15
:103D7000CDBF8C0185E0F801DE011D9601900D920A
:103D80008A95E1F7D801DC901196EC901197129684
:103D9000CC9090913E0220913F024091410250917F
:103DA00042024115510531F02F3F31F481E09F3F30
:103DB00019F403C081E001C080E080FD81C1F801F9
:103DC000838094808EE3A82E82E0B82EF09040028B
:103DD000B401641B750BFF2009F418C180914302E4
:103DE000382F307F683C710508F0D1C031118AC08E
:103DF000E21214C0D91212C0FC2CC1100FC08F7077
:103E00008061809343020E940B1EC5010E94541DD5
:103E100080914302D80115968C936FC1811491044F
:103E200039F0BFEFEB1206C081E0DB1203C003C024
:103E300081E001C080E080FD03C081E08C2502C0EC
:103E400080E090E080FF10C04C2D6E2D8D2D0E94E3
:103E5000191E882349F08EE392E00E94541DEEE380
:103E6000F2E086E0DF01A4C0892839F0BFEFEB1251
:103E700006C081E0DB1203C003C081E001C080E026
:103E800080FD03C081E08C2502C080E090E0E82F37
:103E9000E170BE2E80FF2CC04C2D6E2D8D2D0E940A
:103EA000191EF82E811124C0DD86EE868D859E8533
:103EB0000E946523292F22952F70223018F024307C
:103EC00090F405C09F7059F0811109C016C19F7010
:103ED00031F0D80115969C91907F09F40EC1805E57
:103EE000883008F40AC1C8010E94541DFB2C05C18A
:103EF000FC2CCC2009F401C18091430281608093A5
:103F000043025BC0E21206C0D91204C0C11002C055
:103F1000F801A0C0DD86EE868D859E850E94C61DB7
:103F2000882379F1CC2069F120914302822F829578
:103F30008F7090E0029774F080913E0290913F0262
:103F400098878F8319869B868A862C87CE01079651
:103F50000E94541D86E0F801AEE3B2E001900D929C
:103F60008A95E1F70E94391E0E940B1E0DC0E216D1
:103F700031F1DD86EE868D859E850E94C61D8111FC
:103F80002DC0C8010E94541DFF24F394B6C0311106
:103F9000EECF782D998A888A4D2D5E2D6C2D8989DA
:103FA0000E94CB1D8EE392E00E94541D86E0D50155
:103FB0001D928A95E9F70E940B1EF12C9EC0D91222
:103FC000D8CFC110D6CFF8018583C8010E94541DF7
:103FD00086E0D5011D928A95E9F78FC0CC2089F241
:103FE00020914302822F82958F7090E002970CF40B
:103FF000B1CF80913E0290913F029A8389831B82C8
:104000009D828C822E83CE010196A2CF683C7105E1
:1040100008F047C0FC2CCC2009F4B3CFE21230C02A
:10402000D9122EC02091430220FD21C0822F8295FB
:104030008F70482F50E041155105C9F0F8012583D4
:104040004F30510541F08F5F982F9295907F822FCE
:104050008F70892B8583C8010E94541D86E0F8016A
:10406000AEE3B2E001900D928A95E1F744C086E09C
:10407000F801AEE3B2E001900D928A95E1F73DC000
:10408000DD86EE868D859E850E94C61D811162CFDC
:1040900080914302816080934302C8010E94541DB5
:1040A0002CC0782D998A888A4D2D5E2D6C2D89899A
:1040B0000E94CB1D86E0D5011D928A95E9F71BC0B1
:1040C000CC2009F45ECFDD86EE868D859E850E942C
:1040D000C61DF82E882309F454CF86E0F801AEE31C
:1040E000B2E001900D928A95E1F78EE392E00E9492
:1040F000DE190E94391E0E940B1E8F2D61960FB68D
:10410000F894DEBF0FBECDBFDF91CF911F910F910D
:10411000FF90EF90DF90CF90BF90AF909F908F90E7
:1041200008951F93CF93DF93CDB7DEB72C970FB6CB
:10413000F894DEBF0FBECDBF4F83588769877A875B
:104140008B879C87CE0107960E94A51E8823D1F0FD
:104150009F8188852A853B85232B31F08F3F31F461
:1041600081E09F3F19F403C081E001C080E080FD41
:1041700047C04F81588569857A858B859C850E94CB
:10418000DA1D3EC086E0FE013796DE0111960190F1
:104190000D928A95E1F7FF81E8856A857B85611537
:1041A000710531F0EF3F31F481E0FF3F19F403C0B6
:1041B00081E001C080E080FD23C020910D0230E04D
:1041C000C90101968770992740910C0250E084172D
:1041D0009507F1F1F983EA837D836C8396E0929FE2
:1041E000D001939FB00D1124A25FBD4FFE01319607
:1041F00001900D929A95E1F780930D020E94EA1DBD
:1042000016E080910C0290910D02891771F1189FB0
:10421000C0011124825F9D4F0E94A51E882329F1B1
:10422000E0910C021E9FF0011124E25FFD4F4081DE
:10423000518162817381848195810E94DA1D809110
:104240000C0290E001968770992780930C02D9CFD9
:104250000E949E1D10920D0210920C02EEE3F2E0FD
:1042600086E0DF011D928A95E9F72C960FB6F89447
:10427000DEBF0FBECDBFDF91CF911F910895EF92AA
:10428000FF920F931F93CF93DF938C01892B09F437
:104290006CC0F12CEE24E394E8012196F80184919E
:1042A000843740F4843008F051C0813081F082308E
:1042B00019F15BC0853709F444C0A8F19CE7980F59
:1042C000903708F052C08F770E94931A41C00E5F5A
:1042D0001F4FFE01849190E2980F983050F4877040
:1042E000FE2D01C0FF0F8A95EAF78F2F0E94C7238A
:1042F00014C00E94E4192DC00E5F1F4FFE0184916F
:1043000090E2980F983060F48770FE2D01C0FF0F87
:104310008A95EAF78F2F0E94CD230E94F22319C0BD
:104320000E94931A16C00E5F1F4FFE01C491CC234A
:1043300081F08FE99FE00197F1F700C00000C150C4
:10434000F6CF0E5F1F4FFE01F49003C00E94E419E8
:104350008E018F2D882309F49FCFEFE9FFE031977D
:10436000F1F700C000008150F5CFDF91CF911F9190
:104370000F91FF90EF900895089508950C94BD213A
:104380000C94BE210E94C021609375027093760246
:1043900080937702909378020C94841D0C94C22130
:1043A0000F931F930091750210917602209177026E
:1043B00030917802602B712B822B932B1F910F91E0
:1043C0000C94C2210F931F930091750210917602F5
:1043D0002091770230917802602371238223932306
:1043E0001F910F910C94C2210F931F93009175029E
:1043F0001091760220917702309178026027712720
:10440000822793271F910F910C94C2210C94BD21F8
:104410000E9406226093710270937202809373026D
:10442000909374020C94841D60E070E0CB010C94B6
:1044300008220F931F9341E050E060E070E08A0192
:104440009B0104C0000F111F221F331F8A95D2F752
:10445000C901B8011F910F910C9408220F931F936B
:1044600041E050E060E070E004C0440F551F661F5B
:10447000771F8A95D2F78091710290917202A09174
:104480007302B09174028A019B01082B192B2A2B0D
:104490003B2BC901B8011F910F910C9408220F9377
:1044A0001F9341E050E060E070E004C0440F551FEE
:1044B000661F771F8A95D2F7409550956095709545
:1044C0008091710290917202A0917302B091740276
:1044D0008A019B01082319232A233B23C901B80120
:1044E0001F910F910C9408220F931F9341E050E00D
:1044F00060E070E004C0440F551F661F771F8A9567
:10450000D2F78091710290917202A0917302B091E2
:1045100074028A019B01082719272A273B27C90112
:10452000B8011F910F910C9408220F931F930091D3
:104530007102109172022091730230917402602B0B
:10454000712B822B932B1F910F910C9408220F93A8
:104550001F930091710210917202209173023091A9
:10456000740260237123822393231F910F910C9473
:1045700008220F931F9300917102109172022091F3
:1045800073023091740260277127822793271F914D
:104590000F910C940822089527E0929F800D11241A
:1045A000E82FE695E695E695877051E001C0550F36
:1045B0008A95EAF785E0E89FF0011124EC5BFD4F56
:1045C00020E030E070E04081CB01022E02C09695E1
:1045D00087950A94E2F78170819584278523842743
:1045E00081932F5F3F4F2530310569F7089527E00C
:1045F000929F800D1124682F669566956695982F79
:10460000977085E0689FB001112440E050E080E0A1
:10461000FB01E40FF51FEC5BFD4F208130E0092E1C
:1046200002C0369527950A94E2F721703327042EAD
:1046300001C0220F0A94EAF7822B4F5F5F4F45308B
:10464000510531F70895BF92CF92DF92EF92FF921A
:104650000F931F93CF93DF938C01C0907102D09082
:104660007202E0907302F090740280917502909152
:104670007602A0917702B0917802C82AD92AEA2A54
:10468000FB2ACFE1D0E0D701C6010C2E04C0B695BD
:10469000A795979587950A94D2F780FD04C0219736
:1046A00090F7B12C07C0BC2EB8018C2F0E94690C6A
:1046B0000197A9F38B2DDF91CF911F910F91FF905F
:1046C000EF90DF90CF90BF900895CF93DF93EC01F0
:1046D0000E942323BE010E94690CDF91CF910895AF
:1046E0001F93CF93DF93EB0190910B02992321F05D
:1046F000CB010E94652313C0882349F0CB010E949F
:104700002323182F682FCE010E94CC2204C0CB0196
:104710000E94F722182FBE01812F0E94690CDF91A1
:10472000CF911F9108958091790285958595859502
:104730000895809179028770089590917902977019
:1047400081E009F480E008958091850208959091B8
:104750008502892B8093850208958095909185022A
:10476000892380938502089510928502089590917F
:104770008402892B8093840208958095909184020D
:104780008923809384020895109284020895909161
:104790008302892B809383020895809590918302F0
:1047A0008923809383020895109283020895809153
:1047B0007A02089508950C94DA230C94DB239091E7
:1047C0007A02981721F080937A020C94DD230895E1
:1047D00080917A02882329F010927A0280E00C946A
:1047E000DD230895E0911101F0911201809185027D
:1047F0008083E0911101F0911201908180918402F7
:10480000892B8083E0911101F091120190818091B8
:104810008302892B808380917A02882381F0E09142
:104820001101F09112019081892B808380911101F7
:10483000909112010E946A2581110E94E8238091C3
:104840001101909112010C9439180C94DA2398E01C
:10485000899F90011124262B209379020E942E22F9
:10486000809179028595859585950C9425241092E3
:10487000790280E00C94252420917902809582238E
:1048800080937902982F977079F430E0482F082EA2
:10489000000C550B2417350739F0859585958595BE
:1048A0000E944F220C94372408959093B90180936D
:1048B000B8010895CF92DF92EF92FF926C01EE243F
:1048C000FF24C114D104E104F10421F0C701B601B1
:1048D00020E101C020E0C72ED82EE92EFF24C1140C
:1048E000D104E104F10419F0285FC701B6016B019E
:1048F0007C0154E0F694E794D794C7945A95D1F785
:10490000C114D104E104F10419F02C5FC701B60110
:104910006B017C0142E0F694E794D794C7944A95E2
:10492000D1F7C114D104E104F10419F02E5FC701DD
:10493000B601DC01CB01B695A79597958795892B94
:104940008A2B8B2B09F02F5F822FFF90EF90DF9047
:10495000CF9008958295982F937344E0949F90018F
:1049600011248C7C86958695282B822F8575880F3F
:104970002A7A2695822B089580E090E00E94ED36F9
:1049800021E08C3E9E4F09F020E0822F089582E0C6
:1049900090E00C94E53683E090E00C94E536CF93FC
:1049A00084E090E00E94E536C82F81E290E00E940A
:1049B000E5362C2F30E0A901582BCA01CF9108957C
:1049C000CF93C92F682F84E090E00E94F3366C2FBC
:1049D00081E290E0CF910C94F336AB01BC018FE003
:1049E00090E00C940537AB01BC0183E190E00C949E
:1049F000053760E070E0CB010C94F32460E070E0D8
:104A0000CB010E94ED240C94F9246CEE7EEF80E043
:104A100090E00E94113760E082E090E00E94F3365F
:104A200060E083E090E00E94F336109275021092ED
:104A30007602109277021092780260E084E090E0B3
:104A40000E94F33660E081E290E00E94F33660E07D
:104A500085E090E00E94F33660E086E090E00E94FE
:104A6000F3366FEF87E090E00E94F33640E050E0CD
:104A7000BA0188E090E00E94053760E08DE090E0A8
:104A80000E94F33640E050E0BA0188E190E00E94D5
:104A9000053760E087E190E00E94F33640E050E0A7
:104AA000BA018CE190E00E94053760E080E290E07E
:104AB0000E94F33640E050E0BA0188E190E00E94A5
:104AC00005370C94FE240C940525682F8EE090E0A9
:104AD0000C94F336FC01329697E080E0915029F077
:104AE00021912223D9F38F5FF9CF0895662349F0EE
:104AF000FC01329608962191621729F0E817F90710
:104B0000D1F780E0089581E008959C01FC01329680
:104B10009FEF80E04191461789F09F3F19F44111C2
:104B200001C0982F8F5F8630A9F79F3F39F0F901B8
:104B3000E90FF11D97FDFA956283089508959C0190
:104B40002A5F3F4FFC014281461301C01282019649
:104B500082179307B9F708950C9485250C949F2527
:104B6000029626E0FC0111922A95E9F7089508952E
:104B70000C94B7250C94B725CF930E94BA250E94B8
:104B80003A0F0E94B825C0E08C2F0E94580E811168
:104B900004C0CF5FCA30C1F701C081E0CF91089552
:104BA0000C94B7250C94D0250E94D2258091CC047A
:104BB000843049F11092870220E488E190E00FB63A
:104BC000F894A895809360000FBE2093600080E069
:104BD0000E94410C0E94D22583B7817F846083BFED
:104BE00083B7816083BF7894889583B78E7F83BFB6
:104BF0000FB6F894A895809160008861809360005A
:104C0000109260000FBE08950C94B7250E949E1D5F
:104C10000E9420180E94410C0C9404261F920F92AF
:104C20000FB60F9211248F939F93AF93BF938091F0
:104C30008702811113C08091C2049091C304A09196
:104C4000C404B091C5044196A11DB11D8093C20456
:104C50009093C304A093C404B093C504BF91AF91D3
:104C60009F918F910F900FBE0F901F90189582E02B
:104C700084BD93E095BD9AEF97BD80936E00089533
:104C80002FB7F8948091C2049091C304A091C404FA
:104C9000B091C5042FBF08952FB7F8946091C20456
:104CA0007091C3048091C4049091C5042FBF0895EE
:104CB0009C014FB7F8948091C2049091C304A091D5
:104CC000C404B091C5044FBF821B930B0895789420
:104CD0001F920F920FB60F9211248F939F93AF9351
:104CE000BF938091C2049091C304A091C404B09179
:104CF000C5040196A11DB11D8093C2049093C30405
:104D0000A093C404B093C504BF91AF919F918F91BC
:104D10000F900FBE0F901F90189587E797E790931D
:104D20000108809300089AE088E10FB6F894A895EE
:104D3000809360000FBE90936000FFCF0E94BC2460
:104D4000811102C00E9463250E94C72480938602BD
:104D50000E94CF249093C7048093C6040E94CB2462
:104D6000682F70E080E090E00E94CE216091710297
:104D70007091720280917302909174020C940622D9
:104D80008091900280FF0BC06091170185E0689FC1
:104D9000B001112475956795759567952BC081FFB6
:104DA00009C06091170185E0689FB00111247595D5
:104DB000679520C082FF07C06091170185E0689F5A
:104DC000B001112417C090918F029923D1F0609106
:104DD0001601961788F72091170185E0289F90010A
:104DE0001124929FA001939F500D112470E0CA01DD
:104DF0000E94B5366038710540F46115710519F4EB
:104E000006C065E070E0862F08958FE7089581E081
:104E100008958091900280FF08C06091140170E0B5
:104E2000759567957595679521C081FF06C060915E
:104E3000140170E07595679519C082FF04C06091F8
:104E4000140170E010C090918E02992399F0609146
:104E500013019617A0F780911401899FC0011124B6
:104E600070E00E94B5366038710540F46115710537
:104E700019F406C061E070E0862F08958FE7089569
:104E800081E00895803F21F40E94C026819504C0EE
:104E9000813F29F40E94C026809394020895823FA6
:104EA00021F40E94C026819504C0833F29F40E940A
:104EB000C026809393020895893F19F40E94092720
:104EC00005C08A3F31F40E9409278195809395029D
:104ED00008958B3F21F40E940927819504C08C3FDF
:104EE00029F40E940927809396020895843F21F4B3
:104EF00080919202816017C0853F21F480919202D7
:104F0000826011C0863F21F48091920284600BC0C0
:104F1000873F21F480919202886005C0883F31F478
:104F20008091920280618093920208958D3F21F4D6
:104F30008091900281600BC08E3F21F4809190029D
:104F4000826005C08F3F29F4809190028460809335
:104F500090020895803F39F48091940287FF6AC0DF
:104F60001092940267C0813F29F480919402181630
:104F7000BCF360C090919302823F29F497FF5AC01E
:104F80001092930257C0833F19F41916CCF352C004
:104F900090919502893F31F419160CF04BC0109294
:104FA000950248C08A3F19F497FF44C0F8CF8B3F61
:104FB00039F48091960287FF3DC0109296023AC064
:104FC0008C3F29F4809196021816BCF333C0843FBD
:104FD00021F4809192028E7F17C0853F21F4809149
:104FE00092028D7F11C0863F21F4809192028B7FC7
:104FF0000BC0873F21F480919202877F05C0883FD4
:1050000031F4809192028F7E8093920213C08D3F83
:1050100021F4809190028E7F0BC08E3F21F480910D
:1050200090028D7F05C08F3F29F4809190028B7F85
:105030008093900280919302811106C08091940226
:10504000811102C010928F0280919502811106C0D9
:1050500080919602811102C010928E020895809173
:10506000860283FF7EC08EE39AE00E94750A8091DB
:1050700092021F928F9389E39AE09F938F930E94ED
:105080000E0B87E39AE00E94750A80919302282F05
:10509000082E000C330B3F938F9384E39AE09F9389
:1050A0008F930E940E0B82E39AE00E94750A809112
:1050B0009402282F082E000C330B3F938F938FE21E
:1050C0009AE09F938F930E940E0B8DE29AE00E94CC
:1050D000750A80919502282F082E000C330B3F9300
:1050E0008F938AE29AE09F938F930E940E0B88E23F
:1050F0009AE00E94750A80919602282F082E000CD3
:10510000330B3F938F9385E29AE09F938F930E9496
:105110000E0B82E29AE00E94750A80918F021F9224
:105120008F938FE19AE09F938F930E940E0B8DE1F6
:105130009AE00E94750A809190021F928F938AE1F3
:105140009AE09F938F930E940E0B87E19AE00E9452
:10515000750A8DB79EB74C960FB6F8949EBF0FBEDA
:105160008DBF0E94402620919302211104C02091FE
:105170009402222321F090938D0280938C0220913F
:105180009502211104C020919602222321F09093D0
:105190008B0280938A0281E992E00C948218EF924C
:1051A000FF920F931F93CF93DF9300D000D000D0D6
:1051B000CDB7DEB786E0E1E9F2E0DE0111960190BD
:1051C0000D928A95E1F7E0909302F090940200919D
:1051D00095021091960210929302109294021092EE
:1051E000950210929602E11003C0FF2009F45DC001
:1051F00080918C0290918D020E945826AC01909172
:105200008F02992339F02091180130E024173507D7
:1052100058F04BC0209189028AE0289F9001112408
:105220002417350718F041C09F3F19F09F5F9093F6
:105230008F02EE2061F00E94C0261E1414F09FEF32
:1052400001C091E0989F902D112490939302FF202C
:1052500061F00E94C0261F1414F09FEF01C091E07E
:10526000989F902D112490939402309193023323B0
:10527000E1F0209194022223C1F045EB3403C001F8
:105280001124992319F09093930203C081E0809335
:10529000930235EB2303C0011124992319F0909355
:1052A000940203C081E080939402011103C0112392
:1052B00009F45DC080918A0290918B020E94582669
:1052C000AC0190918E02992339F02091150130E0C4
:1052D0002417350758F04BC0209188028AE0289F98
:1052E000900111242417350718F041C09F3F19F091
:1052F0009F5F90938E02002361F00E940927101691
:1053000014F09FEF01C091E0989F902D112490938D
:105310009502112361F00E940927111614F09FEFE6
:1053200001C091E0989F902D1124909396023091A6
:1053300095023323E1F0209196022223C1F045EB40
:105340003403C0011124992319F09093950203C0EE
:1053500081E08093950235EB2303C001112499234A
:1053600019F09093960203C081E080939602809199
:10537000930281110BC080919402811107C080912A
:105380009502811103C08091960281110E942F28FD
:10539000EB82FC820D831E8386E0FE013196A1E93B
:1053A000B2E001900D928A95E1F726960FB6F89437
:1053B000DEBF0FBECDBFDF91CF911F910F91FF9048
:1053C000EF900895E1E9F2E086E0DF011D928A9511
:1053D000E9F710928F0210928E02109290020895B7
:1053E00081E69CE00E94750A1F9281E08F931F92D4
:1053F00085E08F9383E19CE09F938F930E940E0B37
:105400000F900F900F900F900F900F900895833092
:10541000E9F128F4813061F0823009F10895853096
:1054200009F462C008F449C0863009F474C00895D4
:1054300080918902262F30E0280F311D2F3F310542
:1054400024F4680F6093890203C08FEF8093890270
:10545000809189021F928F938CE49BE072C08091AF
:105460001801262F30E0280F311D2F3F310524F47D
:10547000680F6093180103C08FEF8093180180912B
:1054800018011F928F938AE39BE05BC08091170104
:10549000262F30E0280F311D2F3F310524F4680FEF
:1054A0006093170103C08FEF80931701809117015C
:1054B0001F928F9387E29BE044C080911601262FB4
:1054C00030E0280F311D2F3F310524F4680F609321
:1054D000160103C08FEF80931601809116011F9271
:1054E0008F9382E19BE02DC080911401262F30E044
:1054F000280F311D2F3F310524F4680F60931401EC
:1055000003C08FEF80931401809114011F928F9339
:1055100089EF9AE016C080911301262F30E0280F02
:10552000311D2F3F310524F4680F6093130103C030
:105530008FEF80931301809113011F928F938EED53
:105540009AE09F938F930E940E0B0F900F900F90F5
:105550000F900895833081F128F4813059F0823022
:10556000D1F00895853009F449C0B8F1863009F4C6
:1055700056C0089580918902681720F4861B809395
:10558000890202C010928902809189021F928F9332
:105590008FEC9AE054C080911801681720F4861BA4
:1055A0008093180102C010921801809118011F9277
:1055B0008F938DEB9AE043C080911701681720F418
:1055C000861B8093170102C010921701809117016A
:1055D0001F928F938AEA9AE032C080911601681771
:1055E00020F4861B8093160102C010921601809150
:1055F00016011F928F9385E99AE021C080911401D2
:10560000681720F4861B8093140102C010921401C5
:10561000809114011F928F938CE79AE010C08091C3
:105620001301681720F4861B8093130102C01092A7
:105630001301809113011F928F9381E69AE09F934B
:105640008F930E940E0B0F900F900F900F90089564
:10565000CF93C82F1F928F9386E69DE09F938F93E1
:105660000E940E0B81E090E0A0E0B0E0BC01CD0113
:1056700004C0660F771F881F991FCA95D2F70E9432
:10568000CE210F900F900F900F90CF910C949E1DF4
:10569000CF93DF938B3109F4EAC108F08BC18B30D3
:1056A00009F4AEC108F065C1863009F4ACC120F43C
:1056B000853009F4BAC15DC2873009F4BDC18830B4
:1056C00009F057C289E792E10E94750A8AEC91E1DC
:1056D0000E94750A0E94CB241F928F9387EC91E160
:1056E0009F938F930E940E0B85EC91E10E94750AA7
:1056F0000E94C724C82F82EB91E10E94750A1F9275
:10570000CF938DEA91E19F938F930E940E0B8BEACA
:1057100091E10E94750A81EA91E10E94750A8C2F3D
:1057200081701F928F938EE991E19F938F930E94D6
:105730000E0B8CE991E10E94750A82E991E10E94C9
:10574000750AC1FB882780F91F928F938FE891E13A
:105750009F938F930E940E0B8DE891E10E94750A32
:1057600081E891E10E94750AC2FB882780F91F92A7
:105770008F938EE791E19F938F930E940E0B8CE79E
:1057800091E10E94750A83E791E10E94750AC3FBCB
:10579000CC27C0F91F92CF9380E791E19F938F931D
:1057A0000E940E0B8EE691E10E94750A0E94CF24A2
:1057B000EC018AE591E10E94750ADF93CF9385E5BC
:1057C00091E19F938F930E940E0B83E591E10E94DC
:1057D000750A8AE391E10E94750A8C2F81701F92ED
:1057E0008F9387E391E19F938F930E940E0B8DB768
:1057F0009EB780960FB6F8949EBF0FBE8DBF85E30F
:1058000091E10E94750A8EE191E10E94750AC1FB47
:10581000882780F91F928F938BE191E19F938F935B
:105820000E940E0B89E191E10E94750A87E091E1E7
:105830000E94750A8D2F81701F928F9384E091E1F1
:105840009F938F930E940E0B82E091E10E94750A54
:1058500080EF90E10E94750AD695D1701F92DF9378
:105860008DEE90E19F938F930E940E0B8BEE90E153
:105870000E94750A89ED90E10E94750AC2FB882793
:1058800080F91F928F9386ED90E19F938F930E94F2
:105890000E0B84ED90E10E94750A82EC90E10E946B
:1058A000750AC3FB882780F91F928F938FEB90E1D5
:1058B0009F938F930E940E0B8DEB90E10E94750ACF
:1058C00083EB90E10E94750AC4FB882780F91F9240
:1058D0008F9380EB90E19F938F930E940E0B8EEA43
:1058E00090E10E94750A8CE990E10E94750AC5FB5F
:1058F000882780F91F928F9389E990E19F938F9376
:105900000E940E0B87E990E10E94750A8BE790E1F7
:105910000E94750AC6FB882780F91F928F9388E73B
:1059200090E19F938F930E940E0B8DB79EB7809648
:105930000FB6F8949EBF0FBE8DBF86E790E10E9420
:10594000750A8EE690E10E94750AC7FBCC27C0F964
:105950001F92CF938BE690E19F938F930E940E0B43
:1059600089E690E10E94750A0F900F900F900F90BA
:1059700045C0803109F4A5C020F48E3009F48BC0F5
:10598000F8C0863109F4B8C0893109F0F2C080E965
:105990009EE00E94750A8CE49EE00E94750A85E3F1
:1059A0009EE00E94750A8FEF9DE00E94750A84EDCB
:1059B0009DE084C08A32E1F060F4873209F4D5C0FA
:1059C00028F48E3108F4D5C08D51D0C0893269F1E8
:1059D000D0C0833448F48A3308F0C5C0853309F455
:1059E000C4C0883369F0C5C0833409F4BEC0C1C0E7
:1059F00088E692E10E94750A0E946325C1E0BEC05C
:105A000086EC9EE05BC080918602817F8E7F8093D2
:105A100086028FE99EE00E94750A84E692E10E9468
:105A2000750A81E080939802E9CF88E492E10E94B0
:105A3000750A0E94D30BE2CF80918602C82FC095D1
:105A4000C170C0FB80F980938602CC2329F08CE3DF
:105A500092E10E94750A92C08FE292E10E94750A5B
:105A600080918602897F877F80938602C7CF90913D
:105A7000860291FBCC27C0F981E0C827892FC0FBA3
:105A800081F980938602CC2319F082E292E129C049
:105A900084E192E113C09091860292FBCC27C0F979
:105AA00081E0C827892FC0FB82F980938602CC232E
:105AB00019F085E092E115C085EF91E10E94750A29
:105AC0009DCF9091860293FBCC27C0F981E0C82737
:105AD000892FC0FB83F980938602CC2351F089EE95
