:100000000C94EC090C94330A0C94330A0C94EA1601
:100010000C94330A0C94330A0C94330A0C94330A6C
:100020000C94330A0C94330A0C9471330C944334BB
:100030000C947B250C94330A0C94330A0C94330AE9
:100040000C94330A0C94330A0C94330A0C94330A3C
:100050000C94330A0C94D4250C94330A0C94330A70
:100060000C94330A0C94330A0C94330A0C94330A1C
:100070000C94330A0C94330A0C94330A0C94330A0C
:100080000C94330A0C94330A0C94330A0C94330AFC
:100090000C94330A0C94330A0C94330A0C94330AEC
:1000A0000C94330A0C94330A0C94330ABF1ABF1A07
:1000B000F11AF11A3E1B5C1B7D1C7D1C671BFC1B8F
:1000C0000D1C0D1C6D1C7D1C7D1C761C1D1D1D1D1D
:1000D0002F1D2F1D261D2F1D2F1D2F1D1D1D1D1DED
:1000E0002B1D2F1D2F1D2B1DB034D734CF35D734EA
:1000F000CF3523354635CF359D35AC3520202020F2
:100100000053435220002020202000434150200073
:1001100020202020004E554D2000556E64656669F4
:100120006E6564004E554D5041440A00464E0A002B
:1001300044656661756C740A004C617965723A2099
:100140000035001E001F0020002100220023002B8C
:100150000014001A000800150017002F00E1000429
:10016000001600070009000A004B00E0001D001BFC
:10017000000600190005004F00E3002C005000E2CB
:1001800000280DA800290024002500260027002DA6
:10019000002E002A0030001C0018000C0012001372
:1001A0000031004E000B000D000E000F0033003434
:1001B000005100110010003600370038004C0001DB
:1001C00053AA00A900025352004C00280001003A33
:1001D000003B003C003D003E003F000100010001EB
:1001E0000052000100010001000100010050005117
:1001F000004F0001000100010001000100010001A9
:1002000000010001000100010001000100010001E6
:10021000000100400041004200430044004500014D
:1002200000010001000100010001000100010001C6
:100230000001000100010001005200010001000165
:100240000001000100500051004F00005301000167
:100250000002530100010001000100010001000142
:100260000001000100010001000100010001000186
:100270000001000100010001000100010001000176
:1002800000010001000100010001000100005C010B
:100290000001000100010001000100010001000156
:1002A0000001005300010056005700010001000149
:1002B000005F006000610001000100010001005CBE
:1002C000005D005E00550001000100010059005A68
:1002D000005B0054000100005301000100015301C4
:1002E000006200630044454255473A2064697361E7
:1002F000626C65642E0A0044454255473A20656E9B
:1003000061626C65642E0A000A0025303862003A8A
:10031000200025303258000A722F632030313233EA
:10032000343536370A006F6C65645F6F666620632C
:100330006D64206661696C65640A0000AE6F6C656F
:10034000645F6F6E20636D64206661696C65640A2A
:100350000000AF6F6C65645F72656E646572393002
:100360002064617461206661696C65640A006F6C69
:1003700065645F72656E6465722064617461206695
:1003800061696C65640A006F6C65645F72656E64B8
:100390006572206F666673657420636F6D6D616E44
:1003A00064206661696C65640A00646973706C61DD
:1003B000795F736574757032206661696C65640A73
:1003C0000000DA0281FFD9F1DB20A4A62EAF646918
:1003D00073706C61795F666C6970706564206661CA
:1003E000696C65640A0000A0C06F6C65645F696E2B
:1003F000697420636D64206E6F726D616C20726F22
:10040000746174696F6E206661696C65640A0000CE
:10041000A1C86F6C65645F696E697420636D642048
:100420007365742031206661696C65640A0000AEF2
:10043000D580A81FD300408D1420000000000000CC
:10044000003E5B4F5B3E003E6B4F6B3E001C3E7CB4
:100450003E1C00183C7E3C18001C577D571C001C9D
:100460005E7F5E1C0000183C180000FFE7C3E7FF3A
:1004700000001824180000FFE7DBE7FF0030483ACF
:10048000060E00262979292600407F050507004031
:100490007F05253F005A3CE73C5A007F3E1C1C0864
:1004A00000081C1C3E7F0014227F2214005F5F00A6
:1004B0005F5F0006097F017F00006689956A006022
:1004C000606060600094A2FFA2940008047E0408AB
:1004D0000010207E20100008082A1C0800081C2A92
:1004E0000808001E10101010000C1E0C1E0C00300E
:1004F000383E383000060E3E0E06000000000000B8
:100500000000005F000000000700070000147F14D7
:100510007F1400242A7F2A12002313086462003605
:100520004956205000000807030000001C2241002B
:10053000000041221C00002A1C7F1C2A0008083EE3
:100540000808000080703000000808080808000053
:1005500000606000002010080402003E5149453E42
:100560000000427F4000007249494946002141494C
:100570004D33001814127F10002745454539003CC3
:100580004A49493100412111090700364949493694
:1005900000464949291E00000014000000004034B4
:1005A0000000000008142241001414141414000068
:1005B00041221408000201590906003E415D594ECE
:1005C000007C1211127C007F49494936003E4141AE
:1005D0004122007F4141413E007F49494941007F1E
:1005E00009090901003E41415173007F0808087F55
:1005F0000000417F4100002040413F01007F08147E
:100600002241007F40404040007F021C027F007F6B
:100610000408107F003E4141413E007F0909090660
:10062000003E4151215E007F0919294600264949B3
:1006300049320003017F0103003F4040403F001F5B
:100640002040201F003F4038403F006314081463DF
:10065000000304780403006159494D4300007F41C1
:10066000414100020408102000004141417F000484
:10067000020102040040404040400000030708001F
:10068000002054547840007F2844443800384444C3
:10069000442800384444287F00385454541800003B
:1006A000087E09020018A4A49C78007F080404783E
:1006B0000000447D4000002040403D00007F1028A5
:1006C00044000000417F4000007C04780478007CF6
:1006D0000804047800384444443800FC18242418E2
:1006E0000018242418FC007C080404080048545412
:1006F00054240004043F4424003C4040207C001C5F
:100700002040201C003C4030403C0044281028443D
:10071000004C9090907C004464544C440000083697
:100720004100000000770000000041360800000290
:1007300001020402003C2623263C000000000000C9
:1007400000404040F0F8F8FF38FFF8F83FF8F8FFB5
:1007500038FFF8F8F040404000000000000080C082
:10076000C0C0800000C0C08000000080C0C000C0C9
:10077000C0000080C0C00000000000C0C0C0C0C0F9
:1007800000C0C000000000000000000000000000E9
:100790000000000000000000000000000000000059
:1007A0000000000000000000000000000000000049
:1007B00000000000000000000000C0F0F8FC3E1E39
:1007C00006010000007F4141417F007F4141417FA0
:1007D000000080C0E07E5B4F5BFEC00000C000DC1C
:1007E000D7DEDEDED7DC00C0000000000000000025
:1007F00000000000000000000000000000000000F9
:1008000000494949FFFFFFFFE0DFBFBF00BFBFDF77
:10081000E0FFFFFFFF49494900000000001F3F6063
:1008200060E0BF1F007F7F071E381E077F7F007FAD
:100830007F0E1F3B716000000000007F7F0C0C0CDE
:10084000007E7E007F7E0303007F7E03037E7E03A7
:10085000037F7E000F3E703C063C703E0F00327BF3
:1008600049493F7E007F7E0303001E3F69696F2672
:1008700000000000000000000000030F1F3F3C7854
:1008800070600000007F4141417F007F4141417F16
:1008900000307B7F7830202030787F3B0003000FD2
:1008A0007F0F0F0F7F0F000300000000000000000B
:1008B0000000000000000000000000000000000038
:1008C00000010101070F0F7F0F7F0F0F7E0F0F7FBA
:1008D0000F7F0F0F07010101000000000000000062
:1008E0000000010100000000000000000000000006
:1008F00000000000000000000000000000000000F8
:1009000000000000000000000000000000000000E7
:1009100000000000000000000000000000000000D7
:1009200000000000000000000000000000000000C7
:1009300000000000000000000000000000000000B7
:1009400000000000000000000000000000000000A7
:100950000000000000000000000000000000000097
:100960000000000000000000000000000000000087
:1009700000000000000000000000000A00253032E6
:100980005820006B6579626F6172645F7265706F89
:1009900072743A20000A0025303258006B65796283
:1009A0006F6172645F7365745F6C65643A200029DF
:1009B0000A002575002F002575005D2800256400BC
:1009C0002000256400200025640020002564007CB0
:1009D0000025303258006D6F7573656B6579205B4B
:1009E00062746E7C782079207620685D287265704C
:1009F0002F61636C293A205B006D6B5F77686565DA
:100A00006C5F74696D655F746F5F6D6178203D2008
:100A100025640A006D6B5F776865656C5F6D617852
:100A20005F7370656564203D2025640A006D6B5F0F
:100A300074696D655F746F5F6D6178203D2025641A
:100A40000A006D6B5F6D61785F7370656564203D52
:100A50002025640A006D6B5F696E74657276616C47
:100A6000203D2025640A006D6B5F64656C61792010
:100A70003D2025640A006D6B5F776865656C5F7467
:100A8000696D655F746F5F6D6178203D2025640A34
:100A9000006D6B5F776865656C5F6D61785F737023
:100AA000656564203D2025640A006D6B5F74696D87
:100AB000655F746F5F6D6178203D2025640A006D6D
:100AC0006B5F6D61785F7370656564203D202564A0
:100AD0000A006D6B5F696E74657276616C203D20F3
:100AE00025640A006D6B5F64656C6179203D20258B
:100AF000640A000A00257500363A20776865656C3F
:100B00005F74696D655F746F5F6D61783A20000A8C
:100B100000257500353A20776865656C5F6D6178F2
:100B20005F73706565643A20000A00257500343AE9
:100B30002074696D655F746F5F6D61783A20000A9B
:100B400000257500333A206D61785F7370656564C8
:100B50003A20000A00257500323A20696E746572E9
:100B600076616C286D73293A20000A0025750031E2
:100B70003A2064656C6179282A31306D73293A20F6
:100B8000000A092D2056616C756573202D0A004DF1
:100B90003E004D25643E20003F007365742064656F
:100BA0006661756C740A00433E2000776865726563
:100BB0002064656C74613A20637572736F723D25B1
:100BC000642C20776865656C3D25640A5365652053
:100BD000687474703A2F2F656E2E77696B69706533
:100BE0006469612E6F72672F77696B692F4D6F751E
:100BF00073655F6B6579730A000A092D204D6F7567
:100C000073656B6579202D0A4553432F713A09713D
:100C10007569740A313A0964656C6179282A313042
:100C20006D73290A323A09696E74657276616C28AF
:100C30006D73290A333A096D61785F737065656475
:100C40000A343A0974696D655F746F5F6D61780A83
:100C5000353A09776865656C5F6D61785F737065BB
:100C600065640A363A09776865656C5F74696D6515
:100C70005F746F5F6D61780A0A703A097072696E0D
:100C8000742076616C7565730A643A097365742023
:100C900064656661756C74730A75703A092B310A64
:100CA000646F776E3A092D310A706775703A092BB7
:100CB00031300A7067646F776E3A092D31300A0A55
:100CC0007370656564203D2064656C7461202A2022
:100CD0006D61785F7370656564202A202872657085
:100CE000656174202F2074696D655F746F5F6D613D
:100CF00078290A003F004D3E2000433E20004C254D
:100D0000640A0074696D65725F72656164333228CC
:100D1000293A202530346C580A006B6579626F617E
:100D200072645F69646C653A2025580A006B6579C6
:100D3000626F6172645F70726F746F636F6C3A2080
:100D400025580A00686F73745F6B6579626F617212
:100D5000645F6C65647328293A2025580A000A09E3
:100D60002D20537461747573202D0A004743433A54
:100D700020352E342E30204156522D4C4942433AD4
:100D800020322E302E30204156525F415243483A95
:100D900020617672350A004F5054494F4E533A2025
:100DA0004C554641204D4F5553454B4559204558CC
:100DB0005452414B455920434F4E534F4C452043CD
:100DC0004F4D4D414E4420343039360A004255498A
:100DD0004C443A2020284D6172203231203230328A
:100DE00031290A005649443A2030783434344428B2
:100DF0007473686F727429205049443A20307833F4
:100E00003533372844616374796C2D4D616E756696
:100E10006F726D20283578372929205645523A209F
:100E20003078303030310A000A092D20566572734F
:100E3000696F6E202D0A000A092D20436F6E736FB3
:100E40006C65202D0A4553432F713A0971756974F9
:100E50000A6D3A096D6F7573656B65790A000A0949
:100E60002D204D61676963202D0A443A094465626B
:100E70007567204D65737361676520546F67676C94
:100E8000650A583A094D6174726978204465627543
:100E900067204D6F646520546F67676C65202D2057
:100EA00053686F77206B6579707265737365732013
:100EB000696E206D617472697820677269640A4B8B
:100EC0003A094B6579626F617264204465627567A7
:100ED00020546F67676C65202D2053686F77206BF7
:100EE00065797072657373207265706F72740A4DE4
:100EF0003A094465627567204D6F75736520546FBC
:100F000067676C650A563A0956657273696F6E0AAF
:100F1000533A095374617475730A433A094163740F
:100F2000697661746520436F6E736F6C65204D6FD9
:100F300064650A46312D4631303A09537769746346
:100F40006820746F204C6179657220302D3920281B
:100F5000463130203D204C30290A302D393A095392
:100F6000776974636820746F204C617965722030F2
:100F70002D390A47524156453A09537769746368D7
:100F800020746F204C6179657220302028616C7468
:100F900065726E617465290A423A094A756D70205E
:100FA000746F20426F6F746C6F616465720A455391
:100FB000433A094A756D7020746F20426F6F746CEC
:100FC0006F616465722028616C7465726E6174650E
:100FD000290A453A095072696E7420454550524FAE
:100FE0004D2053657474696E67730A4253504143D0
:100FF000453A09436C65617220454550524F4D0A90
:10100000000A002575002E6E6B726F3A20000A00F0
:101010002575002E737761705F6261636B736C611D
:1010200073685F6261636B73706163653A20000A85
:10103000002575002E737761705F67726176655F5A
:101040006573633A20000A002575002E6E6F5F6796
:1010500075693A20000A002575002E737761705F6C
:1010600072616C745F726775693A20000A002575B9
:10107000002E737761705F6C616C745F6C6775696B
:101080003A20000A002575002E737761705F726345
:10109000746C5F726775693A20000A002575002E2E
:1010A000737761705F6C63746C5F6C6775693A200D
:1010B000000A002575002E636170736C6F636B5FAF
:1010C000746F5F636F6E74726F6C3A20000A002554
:1010D00075002E737761705F636F6E74726F6C5FF3
:1010E000636170736C6F636B3A20000A00253032C5
:1010F00058006B65796D61705F636F6E6669672E0E
:101100007261773A20000A002575002E6D6F7573A5
:10111000653A20000A002575002E6B6579626F61C3
:1011200072643A20000A002575002E6D61747269A0
:10113000783A20000A002575002E656E61626C65A4
:101140003A20000A00253032580064656275675FF6
:10115000636F6E6669672E7261773A20000A002518
:10116000750064656661756C745F6C617965723A6F
:1011700020003F000A6D6F7573653A206F66660A3E
:10118000000A6D6F7573653A206F6E0A000A6B6511
:1011900079626F6172643A206F66660A000A6B6555
:1011A00079626F6172643A206F6E0A000A6D617431
:1011B0007269783A206F66660A000A6D6174726916
:1011C000783A206F6E0A000A64656275673A206F8C
:1011D00066660A000A64656275673A206F6E0A00E7
:1011E0000A0A4A756D70696E6720746F20626F6FAE
:1011F000746C6F616465722E2E2E2000433E2000B9
:10120000436C656172696E6720454550524F4D0AC7
:10121000006565636F6E6669673A0A005B735D001F
:101220004B6579626F6172642073746172742E0A07
:10123000005B575D005B535D005B525D005B445D8E
:10124000005B435D002C034400610063007400797F
:10125000006C002D004D0061006E00750066006F8F
:101260000072006D0020002800350078003700294A
:101270000000000E037400730068006F00720074B9
:101280000000000403090409025B00030100A0FA46
:1012900009040000010301010009211101000122DC
:1012A00040000705810308000A090401000103004A
:1012B000000009211101000122810007058203209D
:1012C000000A0904020002030000000921110100C4
:1012D00001222200070583032000010705030320E4
:1012E000000112011001000000084D4437350100D3
:1012F000010200010631FF0974A1010975150026DC
:10130000FF009520750881020976150026FF0095DB
:101310002075089102C005010902A1018502090199
:10132000A10005091901290515002501950575017B
:10133000810295017503810105010930093115818B
:10134000257F95027508810609381581257F95014D
:1013500075088106050C0A38021581257F950175EF
:10136000088106C0C005010980A101850319012A71
:10137000B700150126B700950175108100C0050C56
:101380000901A101850419012AA002150126A00264
:10139000950175108100C005010906A10105071915
:1013A000E029E71500250195087501810295017571
:1013B0000881010507190029FF150026FF00950681
:1013C0007508810005081901290595057501910227
:1013D000950175039101C00011241FBECFEFDAE023
:1013E000DEBFCDBF04B603FE27C08091D304909129
:1013F000D404A091D504B091D6048730904BA74077
:10140000B04BD1F41092D3041092D4041092D504AE
:101410001092D60414BE84B7877F84BF0FB6F894A9
:10142000A8958091600088618093600010926000B0
:101430000FBEE0E0F8E3099511E0A0E0B1E0ECE2D6
:10144000FDE602C005900D92A83BB107D9F724E054
:10145000A8EBB1E001C01D92A33DB207E1F70E94E5
:10146000A8300C9494360C940000FF93EF93E09115
:10147000B801F091B901309709F00995EF91FF910A
:101480000895FC018591803011F0EFDFFBCF0895C6
:10149000FF27E0E230E247FF0CC0419597FF09C00B
:1014A000EDE26095709580959095611D711D811D8F
:1014B000911D27FF02C0219530E350E2AA27660F55
:1014C000771F881F991FAA1FA41710F0A41B6395EC
:1014D0005A95A9F7AA3008F0A95FA05DAF93F395DC
:1014E000611571058105910541F7ED3211F4EF9316
:1014F000F395F21718F43F93F395FBCF8F91B5DF77
:10150000FA95E1F70895E991F9918591803021F0FC
:10151000853219F0AADFF9CF089520E0E8945591BB
:101520005532C1F3503311F4689455915A3348F44D
:10153000505390F3220F022E220F220F200D250F61
:10154000F4CF0EF4219589919991533619F35337BD
:1015500029F1533559F1BC0188279927E8945C3665
:1015600021F48991999168945591543639F446EF54
:101570007EF077FF0DC08FEF9FEF0AC055374AE02E
:1015800039F0583540E121F0523642E009F0089533
:10159000FF93EF937DDFEF91FF91B7CFFF93EF9331
:1015A000FC0181918030B9F360DFFBCFFF93EF93B3
:1015B00068DFF1CFDF93CF93CDB7DEB72596A3DFFA
:1015C000CF91DF910895CF9360E089E391E00E948D
:1015D000921160916F0270917002809171029091EE
:1015E00072020E94C723813059F030F0823071F4CA
:1015F00060E084E291E007C060E080E391E003C036
:1016000060E08CE291E00E94921105C060E08AE106
:1016100091E00E94A4110E949917C82F80FD03C079
:1016200080E191E002C085E191E060E00E949211CA
:10163000C1FD03C086E091E002C08BE091E060E074
:101640000E949211C2FD03C08CEF90E002C081E0C5
:1016500091E060E0CF910C94921181E0089581E0D7
:1016600008950C942F0B08950C94330B1F93CF9374
:10167000DF9300D000D01F92CDB7DEB749835A83E5
:101680006B833091090289819A81311114C06623DC
:1016900059F0222349F00E949022182F682F898147
:1016A0009A810E94392203C00E946422182F698106
:1016B0007A81812F04C00E94902269817A810F90E3
:1016C0000F900F900F900F90DF91CF911F910C947E
:1016D000030CFC01262F408151816281738184813A
:1016E0000C94360BCF93DF93EC0160E00E94690B02
:1016F000BE01DF91CF910C94340B0E9429248111FB
:1017000002C00E94D0240C94640E0C94600E0895C4
:101710000E940B1D0E94870B2FEF84E39CE0215059
:1017200080409040E1F700C000000C94FA250F9330
:101730001F93CF93DF93EC0161E00E94690B8C0152
:10174000BE010E94310B882309F442C0BE01C801CA
:101750000E94AC138823E1F1BE01C8010E94FE1370
:101760008823B1F1BE01C8010E942915882381F1A7
:101770008A81882331F101308CE5180751F00F3D43
:101780008CE51807D9F001151C45D9F40E94880B87
:101790001FC080918402C82FC095C170C0FB80F922
:1017A00080938402CC2329F087EF92E00E94410AC3
:1017B0000FC085EE92E00E94410A0BC00E94D02427
:1017C00007C0CE01DF91CF911F910F910C942D0B8B
:1017D000C0E08C2FDF91CF911F910F910895089554
:1017E0000C94EF0B81E008950C94F20BCF93C82F6B
:1017F0000E94F00B8C2F0E94F40BCF91089580E093
:1018000090E00895089526E4829FC0011124FC0110
:1018100027E0729FE00DF11D1124E60FF11DEE0F80
:10182000FF1FEF5BFE4F859194910895880F991FDC
:10183000FC01E85FFC4F859194910895CF93DF936D
:101840000E94030C0E94360DEC018115904508F0B2
:1018500041C0C11580E4D80708F0D1C0C83ED10509
:1018600010F5C03ED10508F0FDC0C83AD10578F4A6
:10187000C53AD10508F0A2C0C130D10509F4F2C0C3
:1018800008F4EEC0C430D10508F0ECC0E9C0CF3B8D
:10189000D10508F49BC0C03CD10508F4E1C0CE01DD
:1018A000805C91099EC0C11590E2D90758F4C1151A
:1018B00021E0D20708F0D6C0C03FD10508F4D0C05F
:1018C000D065D0C0C11580E3D80708F08EC0CE0126
:1018D0009F7087C0C11595E5D90708F043C0C115B1
:1018E00024E5D20708F0A2C0C11582E5D80708F5A3
:1018F000C11591E5D90708F085C0CE0174E0969531
:1019000087957A95E1F783709C2F937021E030E002
:1019100002C0220F331F9A95E2F73C68382BCF7034
:10192000C695C69580E2C89FE0011124C22BD32B37
:1019300099C09E01237033278C2F86958695C115FB
:10194000D34508F064C0C1E0D0E002C0CC0FDD1F79
:101950002A95E2F720E2829FC0011124C82BD92BDF
:10196000DC6880C0C11529E5D207A0F4C11588E55F
:10197000D80708F060C0C11596E5D90708F070C017
:101980008C2F0E94CA0D8F71C82FD0E0DC2FCC277E
:10199000D06268C0C1152AE5D20708F451C0CE0153
:1019A00090568115904208F05BC08D2F8F710E9478
:1019B000CA0DDD27D0628F71D82B54C0C55AD0E034
:1019C000CF5ADE4FC881D0E0D0644CC0C85AD0E0B6
:1019D000CC0FDD1FCD5DDE4F0990D881C02DD464C2
:1019E00041C00E94160CEC013DC0CE019927D3FFE7
:1019F00003C0EC01D86C36C0EC01D06C33C0DF7092
:101A0000D06A30C0DC2FCC27C16FD06A2BC0C1E0B8
:101A1000D0E002C0CC0FDD1F2A95E2F720E2829FC2
:101A2000C0011124C82BD92BDA681CC0DC2FCC27AD
:101A3000C46FD06A17C0DC2FCC27C06FD06A12C029
:101A40008C2F8F700E94CA0D94E0D695C7959A95F9
:101A5000E1F7CF70D0E0DC2FCC27D069C82B02C0D3
:101A6000C0E0D0E0CE01DF91CF910895823891059A
:101A700069F1B0F48133910509F46DC048F48932FD
:101A8000910509F463C08A32910509F469C008958B
:101A90008533910509F455C089339105B9F008954E
:101AA000833E910569F138F4803E9105B1F0823EA4
:101AB000910509F10895863E9105A9F1873E9105AA
:101AC000B9F1843E910509F064C023C02091C4049B
:101AD00020FD4FC021FD4DC008958091C40480FDBC
:101AE00044C08091C50480FF44C08091C40484FD3B
:101AF00042C083EE4DC08091C40482FF38C0F5CF50
:101B00008091C40482FD33C08091C50480FD31C042
:101B1000ECCF8091C50481FF32C08091C40484FD64
:101B20002AC087EE35C08091C40483FF26C0F5CF5C
:101B30008091C40483FD21C08091C50481FD1FC034
:101B4000ECCF8091C40485FD1CC01DC08091C404ED
:101B500085FD19C016C08091C40486FD16C017C04B
:101B60008091C40486FD13C010C089E311C082EEC9
:101B70000FC080EE0DC080E00BC086EE09C084EE81
:101B800007C089E205C085E303C08AE201C081E3A2
:101B900090E008959091C40492FF0DC0282F287101
:101BA000283019F4877F846006C0282F24712430E0
:101BB00011F48B7F886093FF0DC0282F2871283186
:101BC00019F4877E846106C0282F2471243111F412
:101BD0008B7E88612091C50420FF0DC0382F38719D
:101BE000383019F4877F816006C0382F3171313069
:101BF00011F48E7F886021FF0DC0282F28712831B5
:101C000019F4877E816106C0282F2171213111F4DA
:101C10008E7E886194FD877E0895E82FF0E0E2557E
:101C2000FD4F80810895CF92DF92EF92FF920F9344
:101C30001F93CF93DF9387E193E00E94410A8EEADE
:101C4000E82E82E0F82EC0E0D0E092E1C92E93E0C9
:101C5000D92E0AE013E0DF93CF93DF92CF920E9458
:101C6000DA0A8FE093E00E94410AF70181917F0137
:101C70000E9417241F928F931F930F930E94DA0ADA
:101C800088E093E00E94410A21968DB79EB708969E
:101C90000FB6F8949EBF0FBE8DBFCA30D105D9F6DE
:101CA000DF91CF911F910F91FF90EF90DF90CF9038
:101CB000089580EA8A95F1F7089508950C945D0ED1
:101CC0000C945E0E0C945D0E0C94620EF894E82F4A
:101CD000E295EF70F0E031A1282F2F7081E090E0C5
:101CE00001C0880F2A95EAF7982F9095932391A326
:101CF00092A1892B82A37894089508950F931F933E
:101D0000CF93DF930E94D70F809100018091000153
:101D1000811102C095E001C090E09093B90285E086
:101D2000891B8093B80286E60E94660E87E90E94AE
:101D3000660E86EC0E94660E84E30E94660E85E3C2
:101D40000E94660EC4E5D1E00BE511E089910E9486
:101D5000660E0C171D07D1F7E4EAF2E0AEEAB2E036
:101D600011921D9282E0EE3AF807D1F785E00E94C9
:101D7000750F0E947D0BDF91CF911F910F910C94F5
:101D8000E10F0E94C10F882309F18091B80290E011
:101D900082559D4F0E94F40F811114C08091BA01A9
:101DA0008F5F8093BA01863078F0E091B802F0E05E
:101DB000E255FD4F80E090E011920196853091054B
:101DC000D9F702C01092BA010C94850B8091B90228
:101DD00090E082559D4F0E940F100C947D0E8F92C3
:101DE0009F92AF92BF92CF92DF92EF92FF920F93AA
:101DF0001F93CF93DF938BE5A82E81E0B82EC4EA22
:101E0000D2E090E6E92E91E0F92E912C01E010E06D
:101E10006501F5018081F894E82FE295EF70F0E01C
:101E200021A18F70A80102C0440F551F8A95E2F7C7
:101E3000CA01922F982B91A392A18095892382A306
:101E400078940E94590EE4E5F1E020E030E0812C26
:101E50004191A42FA295AF70B0E090968C9190E044
:101E60004F7002C0959587954A95E2F780FD07C0AF
:101E7000802F022E01C0880F0A94EAF701C080E08B
:101E8000882A2F5F3F4F2730310511F75FEFA51AE2
:101E9000B50AF60180810E94660E8881881619F0C5
:101EA000888281E001C080E0982A2196EA14FB0430
:101EB00009F0AECF6091B90270E062557D4F292DD7
:101EC00045E084EA92E00E94760F0E94C10E892DBF
:101ED000DF91CF911F910F91FF90EF90DF90CF9006
:101EE000BF90AF909F908F9008950895FF920F93A9
:101EF0001F93CF93DF938C01F62ED72FC42F22236D
:101F000049F081E08093BD010E94AD259093BC0112
:101F10008093BB018091BD018823C1F08091BB01FA
:101F20009091BC010E94C525069780F0EF2DFD2FF2
:101F3000D8014C2F50E0CD01801B910B84179507E1
:101F40001CF48D918193F7CF1092BD01DF91CF9159
:101F50001F910F91FF90089588EC9091E30097FDF9
:101F60000EC0EFE3FCE93197F1F700C000008150AB
:101F7000A1F70E94F6321092CA0480E0089581E031
:101F800008958091BE01811109C00E94AC0F81119A
:101F900002C082E001C081E08093BE0181E09091A7
:101FA000BE01913009F080E008950C94C10F0E94A9
:101FB000D50F809300010E94C10F81110C94E80F8E
:101FC00008950E94C10F811102C00C94EE0F089574
:101FD00061E070E081E091E00C949C1661E070E0BB
:101FE00081E091E00C94A316CF93DF93D82FC92FF3
:101FF0000E943B17892B79F4ED2FFC2F80E090E0B5
:10200000DC01A054BE4F2C9121930196853091059F
:10201000B9F781E001C080E0DF91CF91089520E021
:1020200030E0FC014191CF01F901E054FE4F4083C3
:102030002F5F3F4F25303105A1F70895EF92FF92B2
:102040000F931F93CF93DF93EC017B0164E670E065
:1020500088E70E9460158C01EC0EFD1ECE15DF0591
:1020600061F017FD0AC0FE01849164E670E00E94F1
:10207000B7158C012196892B89F30E943B16C80164
:10208000DF91CF911F910F91FF90EF9008950895E8
:10209000EAEBF2E080E092E0DF019C011D9221502A
:1020A0003040E1F7F093BF04E093BE048FEF9FEF61
:1020B0009093F1018093F00108950E94471080935E
:1020C000EC0180FD02C080E801C080E28093EB015A
:1020D0000E945A156DE070E08EE294E00E941E109E
:1020E000892B19F082E194E00EC08091EC0163E04D
:1020F00070E081FD0CC08FE094E00E941E10892BDF
:1021000079F089EE93E00E94410A80E0089586EE1E
:1021100093E00E941E10892B19F08EEC93E0F3CF10
:102120006DE070E081EC93E00E941E10892B19F0A5
:102130008AEA93E0E8CF0E94B925DC01CB01805AFE
:102140009541AF4FBF4F8093BA049093BB04A093C7
:10215000BC04B093BD040E94481081E08093EF015D
:102160008093EE011092ED0108952091EB0136E08D
:10217000839FC0011124629F800D911D1124811540
:1021800022E0920714F080E090E086549D4F9093F7
:10219000BF048093BE0408952091BE043091BF0413
:1021A000245B32404091EB01642F70E0C9010E9432
:1021B0000E36481B463010F4240F311D211582E0E5
:1021C000380710F020E030E026543D4F3093BF0434
:1021D0002093BE040895CF93DF938A3011F481E0F9
:1021E00003C08D3029F480E0DF91CF910C94611110
:1021F000C62F682F8091BE049091BF0426E0FC0199
:10220000A5ECB1E001900D922A95E1F7603E30F027
:1022100026E0FC0111922A95E9F70AC0F6E06F9FCB
:10222000B0011124655C7B4F46E050E00E943C36D3
:10223000C11135C0C091BE04D091BF0446E050E04A
:10224000BE0185EC91E00E944536892BB1F1CA5B55
:10225000D2409E0185E0369527958A95E1F781E089
:1022600090E0AC0102C0440F551F2A95E2F720917F
:10227000F0013091F101242B352B259645E0D695C0
:10228000C7954A95E1F702C0880F991FCA95E2F7F2
:10229000822B932B9093F1018093F0010EC0E0917B
:1022A000BE04F091BF049F012A5F3F4F2E173F07E6
:1022B00009F2808180958193F9CFDF91CF910C94C1
:1022C000CC10CF93E82F2091BE043091BF042A5B3D
:1022D00032404091EB01642F70E0C9010E940E363C
:1022E000481B842FEE2359F066E00E940236C82F67
:1022F000C150B0F060E080E20E94EB10F9CFA9017C
:10230000480F511D4115524018F080E020E030E0A8
:10231000280F311D26543D4F3093BF042093BE0437
:10232000CF9108951F93CF93DF93EC01162FFE01F9
:102330008491882329F0612F0E94EB102196F7CF1A
:10234000DF91CF911F9108950E94921181E00C942A
:1023500061118091EF01882321F10E94B925DC01F0
:10236000CB01805A9541AF4FBF4F8093BA049093F1
:10237000BB04A093BC04B093BD048091EE01811115
:1023800010C062E070E081E593E00E941E10892B8E
:1023900029F08DE393E00E94410A03C081E080931D
:1023A000EE018091EE0108956F927F928F929F923D
:1023B000AF92BF92CF92DF92EF92FF920F931F9353
:1023C000CF93DF938091EF01882309F4F7C0209128
:1023D000F0013091F1012115310509F4EFC0809130
:1023E000ED018111EBC061E070E0082F10E03B01CE
:1023F000082E02C0660C771C0A94E2F7A901462158
:102400005721452B11F48F5FF0CF9091EC0198018B
:1024100065E0220F331F6A95E1F790FD12C08295A7
:10242000880F807680930B01220F232F221F330BFE
:10243000319520930E01815E80930C0110920F0163
:1024400012C045E0369527954A95E1F7220F220FF5
:10245000220F20930B0110920E01295F20930C0193
:1024600083E080930F0124E630E047E050E069E02C
:1024700071E088E70E94E715892B19F087E893E05F
:102480007EC08091EC0180FD16C0A80195E0440F4C
:10249000551F9A95E1F746545D4F04E610E020E29F
:1024A00030E060E488E70E940E16892B09F477C0BB
:1024B0008EE693E064C080E2EBECF1E0DF011D9278
:1024C0008A95E9F785E0000F111F8A95E1F7A9E6E3
:1024D000B1E045E651E0992493942D91EA01899168
:1024E000AE01B801680F711D66547D4F30E0255371
:1024F0003E4FF90197E07F01E21AF30AA92C01C0CF
:10250000AA0CEA94EAF77B01B12CE70189917E01DC
:102510008A21892E8B18D82DD770CD2E0D2E000C28
:10252000DD08C82F01C0CC0FDA95EAF7D194C19429
:10253000D108D7E0CD22DD2401C08695CA94EAF700
:102540008C2BD0808D298083B39488E0B812DDCFA6
:10255000915031969F3F79F6C1E0AD36BC0709F046
:10256000BCCF04E610E020E230E04BEC51E060E448
:1025700088E70E940E16892B91F083E593E0DF91A6
:10258000CF911F910F91FF90EF90DF90CF90BF9070
:10259000AF909F908F907F906F900C94410A0E9413
:1025A000A911E301C095D0958091F0019091F101BE
:1025B000C823D923D093F101C093F001DF91CF91CB
:1025C0001F910F91FF90EF90DF90CF90BF90AF9051
:1025D0009F908F907F906F9008958091EF019091E0
:1025E000EE018823A9F0992389F062E070E08BE383
:1025F00093E00E941E10892B39F086E293E00E943E
:10260000410A8091EE0108951092EE019091EE0141
:1026100081E0892708950F931F938091EF0188230C
:1026200029F160E080E00E94B5100E94E30A0E9458
:10263000D4118091EE018823C9F00E94B925009140
:10264000BA041091BB042091BC043091BD04DC019C
:10265000CB01801B910BA20BB30B8F3F9F4FAF4F52
:10266000BF4720F41F910F910C94ED121F910F9111
:1026700008950F931F93CF93DF93C42FD22FFC01A4
:1026800082818823C9F04093F4010E94AD25909384
:10269000F3018093F20180E28C0F883008F057C07C
:1026A000C77081E001C0880FCA95EAF7DF91CF912A
:1026B0001F910F910C947B1A8091F401481330C044
:1026C0008091F2019091F3010E94C525883C91050B
:1026D00038F510E21D0FCD17B9F080E28C0F88306D
:1026E00040F4C77081E001C0880FCA95EAF70E94E4
:1026F000821A183028F581E09D2F977001C0880F4D
:102700009A95EAF70E947B1A802F0E94681A183067
:10271000F0F4D77081E001C0880FDA95EAF70AC0BB
:1027200080E28C0F883098F4C77081E001C0880F78
:10273000CA95EAF7DF91CF911F910F910C94821AFD
:10274000802FDF91CF911F910F910C94681ADF9128
:10275000CF911F910F9108950F939C01CB01243FBE
:102760004CE5340731F188F4293DFCE53F07D9F009
:102770002A3D4CE5340779F1283D3C45A9F506E2B0
:1027800021EE41EE68ED7CE52BC0263FFCE53F07DE
:10279000E1F0A8F0273F3C4539F507E225EE46EE8B
:1027A00067EF7CE51DC007E225EE45EE69ED7CE5AF
:1027B00017C006E221EE40EE64EF7CE511C007E2AF
:1027C00025EE44EE65EF7CE50BC006E221EE42EE1D
:1027D00066EF7CE505C008E221E045EE6AED7CE5A8
:1027E0000E94391380E008C0FC018281882319F01F
:1027F0001092F40101C081E00F910895CF93DF930F
:10280000EC01FB018281882309F41FC1C230FCE581
:10281000DF0708F41BC1C6319CE5D90738F09E01DB
:102820002B5F3C452930310508F010C10E943C2443
:102830009093C5048093C404C031ECE5DE0709F42D
:10284000C3C008F041C0C8308CE5D80709F49AC06D
:10285000F0F4C430ECE5DE0709F487C068F4C23058
:102860008CE5D80709F477C0C330DC4509F0E3C034
:102870008091C404826076C0C630ECE5DE0709F4BE
:102880006EC008F07BC08091C40488606BC0CC30FF
:102890008CE5D80709F485C068F4CA30ECE5DE079A
:1028A00009F474C008F079C00E940B1D8091C40423
:1028B000806858C0CE308CE5D80709F476C008F09F
:1028C0007FC08091C4048BC0CC3FECE5DE0709F4E7
:1028D0004FC018F5C3318CE5D80709F47DC078F4F2
:1028E000C131ECE5DE0709F473C0C231DC4509F003
:1028F000A2C00E940B1D8091C4048F7733C0C531E4
:102900008CE5D80709F472C008F486C0CB3FDC45DB
:1029100009F091C08091C5043EC0C115FDE5DF07F7
:1029200009F45FC058F4CE3F9CE5D90709F444C0D0
:1029300008F43FC08091C50482602DC0C230FDE51F
:10294000DF0709F475C008F45DC0C330DD4509F048
:1029500072C080E06EC08091C404816003C0809129
:10296000C40480618093C40466C08091C40411C013
:102970008091C50482608093C5045DC08091C404C9
:102980008062F0CF8091C4048064ECCF8091C40455
:1029900088608460E7CF8160EECF8091C4048E7F31
:1029A000E1CF8091C4048D7FDDCF8091C404877F07
:1029B000D9CF8091C50418C08091C5048D7FDBCF2D
:1029C0008091C4048F7ECECF8091C4048F7DCACF06
:1029D0008091C4048F7BC6CF8091C404877F8B7F96
:1029E000C1CF8091C5048D7F8E7FC5CF8091C404F7
:1029F00082FB222720F991E0922790FB82F990FB3D
:102A000083F9B0CF8091C504982F909591708E7FF7
:102A1000892B90FB81F9AFCF0E940B1D8091C404DC
:102A200087FB222720F991E0922790FB87F99ACF24
:102A300081E00E94D2248091C4049091C5040E9438
:102A40004D240E940B1D80E001C081E0DF91CF91F9
:102A50000895CF93DF9386319C4541F5EB010E94A9
:102A60001123982F8A812091100130911101882320
:102A700079F09A7A81E009F480E08093F501911170
:102A800002C069E201C065E3C9010E9419250AC0BC
:102A90008091F501811102C069E201C065E3C901BD
:102AA0000E941B250E945F2380E001C081E0DF912E
:102AB000CF9108951092B9008CE08093B8000895EA
:102AC000EF92FF920F931F93CF93DF93182FEB0199
:102AD0001092BC0084EA8093BC000E94AD257C016A
:102AE0008091BC0087FD0EC0CF3F8FEFD807C1F3A8
:102AF0000E94AD258E199F098C179D0788F38EEFD4
:102B00009FEF2EC08091B900887F883041F080917E
:102B1000B900887F803119F08FEF9FEF21C01093AB
:102B2000BB0084E88093BC000E94AD258C0180919D
:102B3000BC0087FD0CC0CF3F8FEFD807C1F30E94C8
:102B4000AD25801B910B8C179D0788F3D8CF809102
:102B5000B900887F883111F08034F1F680E090E090
:102B6000DF91CF911F910F91FF90EF9008950F93F8
:102B70001F93CF93DF93EB018093BB0084E8809396
:102B8000BC000E94AD258C018091BC0087FD0EC069
:102B9000CF3F8FEFD807C1F30E94AD25801B910B6B
:102BA0008C179D0788F38EEF9FEF0CC02091B90022
:102BB000287F81E090E0283211F480E090E0919548
:102BC00081959109DF91CF911F910F910895CF9237
:102BD000DF92EF92FF920F931F93CF93DF936B01DE
:102BE0008A017901B9010E946015E6010C0D1D1DD5
:102BF000C017D10761F424E92093BC00DF91CF9185
:102C00001F910F91FF90EF90DF90CF90089597FD67
:102C1000F2CFB70189910E94B715EACFCF92DF9228
:102C2000EF92FF920F931F93CF93DF93C62F6A010A
:102C30007901B8010E94601597FD11C0B8018C2F71
:102C40000E94B715E601EC0CFD1CCE15DF0539F02E
:102C500097FD05C0B80189910E94B715F6CF24E908
:102C60002093BC00DF91CF911F910F91FF90EF90C7
:102C7000DF90CF90089584E98093BC0008958EE1A1
:102C80004A9B02C08150E1F74A9BFECF08955A98B3
:102C900080E28A95F1F75A9A0895FC012AE02A9574
:102CA000F1F728E090E080E031E040E14A95F1F76B
:102CB000880F4A9B02C08160932700C0000040E15A
:102CC0004A95F1F7215089F720E12A95F1F729B1CA
:102CD00000C0000030E13A95F1F722FB222720F9ED
:102CE00092272081920F90830895EF92FF920F9385
:102CF0001F93CF93DF931F92CDB7DEB719828C015C
:102D00007C01E60EF11C0E151F0551F00E943F16C6
:102D1000CE0101960E944D16F80181938F01F3CFE9
:102D200081E09981911180E00F90DF91CF911F9107
:102D30000F91FF90EF9008959093F7018093F60123
:102D4000529A5A9A08959093F7018093F6015298F7
:102D50005A9AEA9AE9E6F0E080818F7C80830895B0
:102D6000615091E001C0990F6A95EAF720E031E0E7
:102D7000992361F0492F482319F05A9A232701C05B
:102D80005A9840E24A95F1F79695F2CF222311F036
:102D90005A9A01C05A9880E28A95F1F75A98089594
:102DA000FF920F931F93CF93DF93EC018C01060FDB
:102DB000111DC017D10741F0F9900E94471668E035
:102DC0008F2D0E94B016F5CFDF91CF911F910F91FB
:102DD000FF9008951F920F920FB60F9211242F9318
:102DE0003F934F935F936F937F938F939F93AF9393
:102DF000BF93CF93DF93EF93FF935A98529AC0916A
:102E0000F601D091F7016D81662321F08E819F81BB
:102E10000E94D0160E94471680E18A95F1F75A98D1
:102E200052985A9A80E18A95F1F76A81662351F0A7
:102E30008B819C810E947516E881F981811104C003
:102E400082E003C0E881F98188E080830E943F1618
:102E5000FF91EF91DF91CF91BF91AF919F918F91B2
:102E60007F916F915F914F913F912F910F900FBE86
:102E70000F901F901895CF93DF93C091F601D091DA
:102E8000F701F894529A5A9885E08A95F1F7000074
:102E900052985A9A80E28A95F1F74A9B0AC0529A50
:102EA0005A9AE881F98181E08083789481E090E00A
:102EB0002CC06D81662381F08E819F810E947516E2
:102EC00081110AC0529A5A9AE881F98182E080837E
:102ED000789482E090E019C00E943F1680E28A95C3
:102EE000F1F75A98529A80E18A95F1F76A81662340
:102EF00021F08B819C810E94D0160E944716E881A8
:102F0000F9811082789480E090E0DF91CF9108956C
:102F10009093FD018093FC010895E091FC01F091F4
:102F2000FD01309721F00190F081E02D099480E0BF
:102F30000895E091FC01F091FD01309711F480E0DB
:102F400008950190F081E02D09950895EF92FF9288
:102F50000F931F93CF93DF93E091FC01F091FD015C
:102F60003097B1F18C010280F381E02D09958091B9
:102F7000840282FF2DC080FF04C083E899E00E9494
:102F8000410AE80118E08DE7E82E89E0F82E8091EB
:102F9000840280FF0BC088811F928F93FF92EF9273
:102FA0000E94DA0A0F900F900F900F901150219607
:102FB0001111EDCF8091840280FF0AC08BE799E068
:102FC000DF91CF911F910F91FF90EF900C94410AE8
:102FD000DF91CF911F910F91FF90EF900895E091B5
:102FE000FC01F091FD01309739F022E0DC012C93D7
:102FF0000480F581E02D099408952091FA01309123
:10300000FB012817390771F09093FB018093FA01B7
:10301000E091FC01F091FD01309721F00680F781ED
:10302000E02D099408952091F8013091F9012817B5
:10303000390771F09093F9018093F801E091FC0158
:10304000F091FD01309721F00084F185E02D099485
:10305000089585B7806885BF85B7806885BF089566
:103060000C94C10F08950C9432180C9432180C94DF
:1030700035180C9432180C9439180C9432180E949C
:1030800029180E943D180C943B180E94A4250E9408
:103090007E0E80E00E945D100E940B260C94371873
:1030A000CF93C82F8091840282FF1EC080FF04C08E
:1030B0008CE999E00E94410A8091840280FF0CC053
:1030C0001F92CF9387E999E09F938F930E94DA0A2A
:1030D0000F900F900F900F908091840280FF04C09A
:1030E00085E999E00E94410A8C2FCF910C94F60B50
:1030F0009F92AF92BF92CF92DF92EF92FF920F9387
:103100001F93CF93DF93CDB7DEB72A970FB6F8940E
:10311000DEBF0FBECDBF0E9433180E9432180E943E
:10312000EF0EC82E0E943018811111C08FEF8983D5
:103130008A831B820E94AD258160782F9D838C83BA
:1031400049815A816B818D810E941D1940C08FEF8A
:10315000A82E81E0B82E00E010E0902E802F0E9473
:103160000D0EE82EF501D1905F01D82631F40F5FE6
:103170001F4F0A30110589F7D9CF8091840281FD54
:103180000E94130E80E0FF24F3949D2D9F21D1F027
:103190008E839F82EF2081E009F480E088870E947F
:1031A000AD258160782F9A8789874E815F816885F8
:1031B0008A850E941D19F801E150FE4F8081F82692
:1031C000F08205C08F5FFF0C8730F9F6D0CF0E94E8
:1031D0000B13C1100E94A9110E943C280E948D1758
:1031E0009091FE018917B9F00E948D178093FE011E
:1031F0002A960FB6F894DEBF0FBECDBFDF91CF91F8
:103200001F910F91FF90EF90DF90CF90BF90AF9004
:103210009F900C9450182A960FB6F894DEBF0FBEFC
:10322000CDBFDF91CF911F910F91FF90EF90DF9075
:10323000CF90BF90AF909F900895CF93DF93CDB77D
:10324000DEB72B970FB6F894DEBF0FBECDBF4F830E
:10325000588769877A878B87DE01119686E0FD01A2
:1032600011928A95E9F785E0FE01379601900D925B
:103270008A95E1F749815A816B817C818D819E819C
:103280000E94FE1F2B960FB6F894DEBF0FBECDBF77
:10329000DF91CF910895FC01808191810E94D2221B
:1032A0000895CF93882309F4A9C0C82F8238C1F4A8
:1032B0000E948D1781FDA2C069E380911001909159
:1032C00011010E9419250E945F232FEF81EE94E0E7
:1032D000215080409040E1F700C0000069E319C030
:1032E000833801F50E948D1780FD88C063E58091C9
:1032F0001001909111010E9419250E945F232FEF68
:1033000081EE94E0215080409040E1F700C0000041
:1033100063E580911001909111010E941B25CF91CE
:103320000C945F238438C1F40E948D1782FD66C01F
:1033300067E480911001909111010E9419250E946B
:103340005F232FEF81EE94E0215080409040E1F721
:1033500000C0000067E4DDCF8CEF8C0F813AF8F4F9
:103360008C2F0E943E2D811149C06C2F809110013D
:10337000909111010E94E324882349F06C2F8091E1
:103380001001909111010E941B250E945F236C2F58
:1033900080911001909111010E941925C0CF80E207
:1033A0008C0F883048F4C77081E001C0880FCA953F
:1033B000EAF70E941423B3CFEBE5EC0FE33040F4BF
:1033C000F0E0E556FE4F808190E0CF910C94FD1720
:1033D000E8E5EC0FE73150F4F0E0EE0FFF1FE359A2
:1033E000FE4F80819181CF910C941318C03F30F033
:1033F0008C2F0E94AF26CF910C949C27CF910895DB
:10340000882309F464C0823879F40E948D1781FF03
:103410005EC069E380911001909111010E9419250D
:103420000E945F2369E310C08338B1F40E948D17B6
:1034300080FF4DC063E580911001909111010E94C1
:1034400019250E945F2363E580911001909111017D
:103450000E941B250C945F23843879F40E948D17F9
:1034600082FF35C067E480911001909111010E94A4
:1034700019250E945F2367E4E7CF9CEF980F913AEC
:1034800010F4682FE1CF90E2980F983050F48770D5
:1034900091E001C0990F8A95EAF7892F0E941A23BB
:1034A000D9CF9BE5980F933020F480E090E00C9406
:1034B000FD1798E5980F973120F480E090E00C9488
:1034C0001318803F20F00E9417270C949C27089522
:1034D000CF93C82F0E945119C93349F42FEF87EEBB
:1034E00093E0215080409040E1F700C000008C2F15
:1034F000CF910C94001A882321F00E9414230C947D
:103500005F230895882321F00E941A230C945F23DF
:103510000895CF92DF92EF92FF920F931F93CF9374
:10352000DF937C01062FC72FFC01158112951F70B8
:10353000D281D1110E9431230E940A23882399F05D
:10354000DD2389F08C2F807F803421F080E2800F92
:10355000883048F082E00E94A9230E940A2391E06B
:10356000D82ED92601C0D12CCC2EC2948FE0C822EF
:103570008C2D90E0FC01EA5AFF4F0C9436368C2FCC
:10358000807FCF70882311F0C295C07FDD2399F032
:10359000CC2309F48DC180E2800F883010F0011136
:1035A00004C08C2F0E94142303C08C2F0E9424235C
:1035B0000E945F237DC1802F0E94001ACC2309F452
:1035C0009CC180E2800F883010F0011104C08C2F64
:1035D0000E941A2303C08C2F0E942A230E945F237B
:1035E0008CC18C2F807FCF70803211F0C295C07F4C
:1035F000002319F00130C9F022C0DD2371F011233E
:1036000041F0113031F40E9444238C2B0E944C2352
:1036100074C10E9444238C2B1DC0112319F011305A
:1036200009F46BC10E94552325C0DD2321F016301B
:1036300008F063C10EC0153008F05FC11BC0DD2368
:1036400061F0112331F0F701858180FF31C18F7066
:1036500085838C2F0E947B1A50C1112359F00933A6
:1036600009F037C1FFEF27EE83E0F15020408040A2
:10367000E1F72DC18C2F0E94821A3FC18C2F8695B5
:103680008695837019F0813061F037C1DD2321F018
:10369000802F9C2F937002C080E090E00E94FD1765
:1036A00034C1DD2321F0802F9C2F937002C080E075
:1036B00090E00E94131829C1802FDD2319F00E9489
:1036C000AF2602C00E9417270E949C271EC18C2F84
:1036D000837009F045C0D11114C1402F4295469521
:1036E0004770440F440F602F6F70862F90E0A0E06A
:1036F000B0E0042E04C0880F991FAA1FBB1F0A94B4
:10370000D2F704FF10C00FE010E020E030E004C06A
:10371000000F111F221F331F4A95D2F700951095F5
:103720002095309503C000E010E09801C695C6953D
:10373000C370BC01CD01602B712B822B932BC23047
:1037400049F058F4C13019F00E944F21DAC00E94AC
:103750003D21D7C00E946121D4C00E943B21D1C02D
:10376000DD2319F08C2F817001C08695882309F420
:10377000C8C0402F429546954770440F440F602FB4
:103780006F70862F90E0A0E0B0E0042E04C0880F98
:10379000991FAA1FBB1F0A94D2F704FF10C00FE0A5
:1037A00010E020E030E004C0000F111F221F331F83
:1037B0004A95D2F7009510952095309503C000E00A
:1037C00010E09801C695C695C370BC01CD01602B71
:1037D000712B822B932BC23049F058F4C13019F071
:1037E0000E9414228EC00E9402228BC00E942622B8
:1037F00088C00E94752185C0CF70DD2339F08C2FE1
:103800000E949B21802F0E947B1A7BC0802F0E94E8
:10381000821A8C2F0E94BC2174C0023F01F128F44F
:10382000003F41F0013FA1F03FC0033FF9F0043FEA
:1038300039F13AC0DD2341F0153008F05EC08C2F1D
:103840008F710E94E12159C0163008F056C0F7CFA1
:10385000DD2339F08C2F8F710E949B214EC0DD2318
:10386000C9F38C2F8F710E94BC2147C0DD2329F042
:103870008C2F8F710E94862140C00E9481213DC003
:10388000DD2349F0CF718C2F0E949B2163E08C2FA8
:103890000E94942332C081E00E94A923123068F173
:1038A00082E00E94A92329C0DD2331F0112391F287
:1038B000802F0E94511921C0112399F2093349F434
:1038C0009FEFE7EEF3E09150E040F040E1F700C0F9
:1038D0000000802F0E94001A10C04C2F4F70602FE4
:1038E000C7010E94FF0B0E94AC200FC04C2F4F70ED
:1038F000602FC7010E94020C08C088EF8C0D843035
:1039000020F40E948D170E94F60BDD20C9F00E9462
:10391000062380FD15C0F70112820E9400230E9439
:103920009B21C7010E94C11C0E940023DF91CF91FF
:103930001F910F91FF90EF90DF90CF900C94BC21DE
:10394000DF91CF911F910F91FF90EF90DF90CF907B
:1039500008950F931F93CF93DF93EC0168817981D2
:103960008A810E94DD228C010E9438220E94292136
:10397000B801CE010E94891ADF91CF911F910F915A
:103980000895CF93DF93EC01988189812B813C814D
:10399000232B31F08F3F31F481E09F3F19F403C0B6
:1039A00081E001C080E080FD19C0CE010E94970B2C
:1039B00081110CC00E940A23882381F08A81882308
:1039C00069F082E0DF91CF910C94A923CE010E948F
:1039D000A91CCE01DF91CF910C94720BDF91CF9196
:1039E00008950E9431230E9441230E945F230E9478
:1039F0004F290E949C2780E090E00E94FD1780E004
:103A000090E00C94131880911001909111010E9484
:103A10001D250C94F11C0E9421230C94031DE92FF9
:103A2000E295EF704E2F50E0FA013297EE30F1053B
:103A3000B0F4EA59FF4F0C943636803F91F018F4F9
:103A4000883E68F40EC0843F51F40BC0883E48F0B5
:103A5000813F29F406C093FB882780F9089580E010
:103A6000089581E008950E94D2220E940F1D0895BA
:103A7000CF93DF9300D000D01F92CDB7DEB70F9069
:103A80000F900F900F900F90DF91CF910895CF93EB
:103A9000DF9300D000D000D0CDB7DEB726960FB6AA
:103AA000F894DEBF0FBECDBFDF91CF9108951F9375
:103AB000CF93DF93C0910A0216E080910B02C817E2
:103AC00099F0D0E01C9FF0011D9FF00D1124E45FE0
:103AD000FD4F4081518162817381848195810E9473
:103AE000471D2196C770E9CFDF91CF911F910895AF
:103AF00040913C0250913D0260913E0270913F0224
:103B000080914002909141020C94471D20910A023D
:103B100090910B0256E02917A9F030E0529FF00176
:103B2000539FF00D1124E45FFD4F7181761306C0A1
:103B30007081781303C07281741306C02F5F3F4FEA
:103B40002770E9CF80E0089581E008950F931F93D7
:103B5000CF93DF938091410282958F7009F05DC011
:103B600080913E02882309F458C080910A02109186
:103B70000B0260913C0270913D02C0913F02D091D6
:103B8000400291E06F3F09F090E0292F06E0811795
:103B900009F443C0209721F07F3F21F030E003C0BB
:103BA00031E001C0322F90E030FD34C0089FF001B9
:103BB000099FF00D1124DF01A45FBD4F11963C91C8
:103BC0001197371327C03C91361324C012963C91AD
:103BD000129731111FC013964D915C9114974C1B95
:103BE0005D0B483C5105B0F4809141028F708061BB
:103BF00080934102EF5EFD4F80818F7080618083F2
:103C00008CE392E00E94C11CDF91CF911F910F9134
:103C10000C94571D01968770BACFDF91CF911F91F9
:103C20000F9108958F929F92AF92BF92CF92DF92A1
:103C3000EF92FF920F931F93CF93DF93CDB7DEB731
:103C400061970FB6F894DEBF0FBECDBF8C0185E043
:103C5000F801DE011D9601900D928A95E1F7D801D9
:103C6000DC901196EC9011971296CC9090913C02BA
:103C700020913D0240913F02509140024115510573
:103C800031F02F3F31F481E09F3F19F403C081E010
:103C900001C080E080FD81C1F801838094808CE3C5
:103CA000A82E82E0B82EF0903E02B401641B750B82
:103CB000FF2009F418C180914102382F307F683C01
:103CC000710508F0D1C031118AC0E21214C0D912B6
:103CD00012C0FC2CC1100FC08F7080618093410214
:103CE0000E94781DC5010E94C11C80914102D8012B
:103CF00015968C936FC18114910439F0BFEFEB12CC
:103D000006C081E0DB1203C003C081E001C080E097
:103D100080FD03C081E08C2502C080E090E080FF40
:103D200010C04C2D6E2D8D2D0E94861D882349F0CC
:103D30008CE392E00E94C11CECE3F2E086E0DF013C
:103D4000A4C0892839F0BFEFEB1206C081E0DB1276
:103D500003C003C081E001C080E080FD03C081E0BA
:103D60008C2502C080E090E0E82FE170BE2E80FF3D
:103D70002CC04C2D6E2D8D2D0E94861DF82E81118C
:103D800024C0DD86EE868D859E850E94D222292F55
:103D900022952F70223018F0243090F405C09F70C7
:103DA00059F0811109C016C19F7031F0D8011596E4
:103DB0009C91907F09F40EC1805E883008F40AC19E
:103DC000C8010E94C11CFB2C05C1FC2CCC2009F4AD
:103DD00001C1809141028160809341025BC0E21287
:103DE00006C0D91204C0C11002C0F801A0C0DD860F
:103DF000EE868D859E850E94331D882379F1CC2027
:103E000069F120914102822F82958F7090E0029794
:103E100074F080913C0290913D0298878F831986BF
:103E20009B868A862C87CE0107960E94C11C86E05D
:103E3000F801ACE3B2E001900D928A95E1F70E949F
:103E4000A61D0E94781D0DC0E21631F1DD86EE86BA
:103E50008D859E850E94331D81112DC0C8010E9451
:103E6000C11CFF24F394B6C03111EECF782D998A8E
:103E7000888A4D2D5E2D6C2D89890E94381D8CE31A
:103E800092E00E94C11C86E0D5011D928A95E9F757
:103E90000E94781DF12C9EC0D912D8CFC110D6CF68
:103EA000F8018583C8010E94C11C86E0D5011D92DE
:103EB0008A95E9F78FC0CC2089F220914102822FA8
:103EC00082958F7090E002970CF4B1CF80913C0204
:103ED00090913D029A8389831B829D828C822E83DE
:103EE000CE010196A2CF683C710508F047C0FC2CBA
:103EF000CC2009F4B3CFE21230C0D9122EC02091E9
:103F0000410220FD21C0822F82958F70482F50E002
:103F100041155105C9F0F80125834F30510541F095
:103F20008F5F982F9295907F822F8F70892B85833A
:103F3000C8010E94C11C86E0F801ACE3B2E0019028
:103F40000D928A95E1F744C086E0F801ACE3B2E057
:103F500001900D928A95E1F73DC0DD86EE868D8554
:103F60009E850E94331D811162CF80914102816044
:103F700080934102C8010E94C11C2CC0782D998AEF
:103F8000888A4D2D5E2D6C2D89890E94381D86E012
:103F9000D5011D928A95E9F71BC0CC2009F45ECFAC
:103FA000DD86EE868D859E850E94331DF82E882342
:103FB00009F454CF86E0F801ACE3B2E001900D9231
:103FC0008A95E1F78CE392E00E944B190E94A61DAE
:103FD0000E94781D8F2D61960FB6F894DEBF0FBE3C
:103FE000CDBFDF91CF911F910F91FF90EF90DF90A8
:103FF000CF90BF90AF909F908F9008951F93CF93D5
:10400000DF93CDB7DEB72C970FB6F894DEBF0FBEA7
:10401000CDBF4F83588769877A878B879C87CE016E
:1040200007960E94121E8823D1F09F8188852A85D9
:104030003B85232B31F08F3F31F481E09F3F19F412
:1040400003C081E001C080E080FD47C04F815885FA
:1040500069857A858B859C850E94471D3EC086E0D8
:10406000FE013796DE01119601900D928A95E1F7D7
:10407000FF81E8856A857B856115710531F0EF3F29
:1040800031F481E0FF3F19F403C081E001C080E01A
:1040900080FD23C020910B0230E0C901019687709A
:1040A000992740910A0250E084179507F1F1F983AE
:1040B000EA837D836C8396E0929FD001939FB00D3D
:1040C0001124A45FBD4FFE01319601900D929A9587
:1040D000E1F780930B020E94571D16E080910A02BF
:1040E00090910B02891771F1189FC0011124845F10
:1040F0009D4F0E94121E882329F1E0910A021E9F03
:10410000F0011124E45FFD4F408151816281738190
:10411000848195810E94471D80910A0290E001965A
:104120008770992780930A02D9CF0E940B1D1092A5
:104130000B0210920A02ECE3F2E086E0DF011D922E
:104140008A95E9F72C960FB6F894DEBF0FBECDBF67
:10415000DF91CF911F910895EF92FF920F931F93DC
:10416000CF93DF938C01892B09F46CC0F12CEE24E2
:10417000E394E8012196F8018491843740F4843077
:1041800008F051C0813081F0823019F15BC0853771
:1041900009F444C0A8F19CE7980F903708F052C08A
:1041A0008F770E94001A41C00E5F1F4FFE0184915D
:1041B00090E2980F983050F48770FE2D01C0FF0FE9
:1041C0008A95EAF78F2F0E94342314C00E94511958
:1041D0002DC00E5F1F4FFE01849190E2980F983022
:1041E00060F48770FE2D01C0FF0F8A95EAF78F2FCC
:1041F0000E943A230E945F2319C00E94001A16C031
:104200000E5F1F4FFE01C491CC2381F08FE99FE028
:104210000197F1F700C00000C150F6CF0E5F1F4FAD
:10422000FE01F49003C00E9451198E018F2D882346
:1042300009F49FCFEFE9FFE03197F1F700C00000EC
:104240008150F5CFDF91CF911F910F91FF90EF90AB
:104250000895089508950C942A210C942B210E940E
:104260002D21609373027093740280937502909372
:1042700076020C94F11C0C942F210F931F93009144
:104280007302109174022091750230917602602BB6
:10429000712B822B932B1F910F910C942F210F9335
:1042A0001F93009173021091740220917502309156
:1042B000760260237123822393231F910F910C9424
:1042C0002F210F931F93009173021091740220917C
:1042D00075023091760260277127822793271F91FC
:1042E0000F910C942F210C942A210E94732160932A
:1042F0006F027093700280937102909372020C941B
:10430000F11C60E070E0CB010C9475210F931F93BA
:1043100041E050E060E070E08A019B0104C0000FC2
:10432000111F221F331F8A95D2F7C901B8011F91AF
:104330000F910C9475210F931F9341E050E060E0C2
:1043400070E004C0440F551F661F771F8A95D2F78F
:1043500080916F0290917002A0917102B0917202EF
:104360008A019B01082B192B2A2B3B2BC901B80171
:104370001F910F910C9475210F931F9341E050E012
:1043800060E070E004C0440F551F661F771F8A95D8
:10439000D2F7409550956095709580916F029091FD
:1043A0007002A0917102B09172028A019B010823F0
:1043B00019232A233B23C901B8011F910F910C94A3
:1043C00075210F931F9341E050E060E070E004C05E
:1043D000440F551F661F771F8A95D2F780916F0291
:1043E00090917002A0917102B09172028A019B01BA
:1043F000082719272A273B27C901B8011F910F91C8
:104400000C9475210F931F9300916F02109170020D
:104410002091710230917202602B712B822B932BB1
:104420001F910F910C9475210F931F9300916F02B0
:1044300010917002209171023091720260237123F9
:10444000822393231F910F910C9475210F931F9337
:1044500000916F02109170022091710230917202EE
:1044600060277127822793271F910F910C94752144
:10447000089527E0929F800D1124E82FE695E69598
:10448000E695877051E001C0550F8A95EAF785E0FF
:10449000E89FF0011124EE5BFD4F20E030E070E07A
:1044A0004081CB01022E02C0969587950A94E2F7CF
:1044B0008170819584278523842781932F5F3F4FC7
:1044C0002530310569F7089527E0929F800D11246A
:1044D000682F669566956695982F977085E0689F1A
:1044E000B001112440E050E080E0FB01E40FF51F33
:1044F000EE5BFD4F208130E0092E02C036952795F6
:104500000A94E2F721703327042E01C0220F0A9487
:10451000EAF7822B4F5F5F4F4530510531F7089521
:10452000BF92CF92DF92EF92FF920F931F93CF93A0
:10453000DF938C01C0906F02D0907002E090710206
:10454000F09072028091730290917402A0917502B2
:10455000B0917602C82AD92AEA2AFB2ACFE1D0E014
:10456000D701C6010C2E04C0B695A79597958795DF
:104570000A94D2F780FD04C0219790F7B12C07C0B0
:10458000BC2EB8018C2F0E941E0C0197A9F38B2D15
:10459000DF91CF911F910F91FF90EF90DF90CF901F
:1045A000BF900895CF93DF93EC010E949022BE014B
:1045B0000E941E0CDF91CF9108951F93CF93DF933C
:1045C000EB0190910902992321F0CB010E94D222A4
:1045D00013C0882349F0CB010E949022182F682F26
:1045E000CE010E94392204C0CB010E946422182F00
:1045F000BE01812F0E941E0CDF91CF911F91089563
:1046000080917702859585958595089580917702AB
:104610008770089590917702977081E009F480E0A7
:10462000089580918302089590918302892B80934D
:104630008302089580959091830289238093830259
:10464000089510928302089590918202892B80939D
:10465000820208958095909182028923809382023C
:10466000089510928202089590918102892B80937F
:10467000810208958095909181028923809381021F
:104680000895109281020895809178020895089506
:104690000C9447230C94482390917802981721F0AA
:1046A000809378020C944A2308958091780288239D
:1046B00029F01092780280E00C944A230895E0914A
:1046C0001001F0911101809183028083E09110012B
:1046D000F0911101908180918202892B8083E09179
:1046E0001001F0911101908180918102892B8083CA
:1046F00080917802882381F0E0911001F0911101FE
:104700009081892B808380911001909111010E94EA
:10471000D72481110E94552380911001909111019D
:104720000C94A6170C94472398E0899F90011124BC
:10473000262B209377020E949B21809177028595FA
:10474000859585950C9492231092770280E00C94C5
:104750009223209177028095822380937702982F6D
:10476000977079F430E0482F082E000C550B241771
:10477000350739F08595859585950E94BC210C9467
:10478000A42308959093B9018093B8010895CF921E
:10479000DF92EF92FF926C01EE24FF24C114D1044A
:1047A000E104F10421F0C701B60120E101C020E0DD
:1047B000C72ED82EE92EFF24C114D104E104F10440
:1047C00019F0285FC701B6016B017C0154E0F69433
:1047D000E794D794C7945A95D1F7C114D104E10452
:1047E000F10419F02C5FC701B6016B017C0142E0B6
:1047F000F694E794D794C7944A95D1F7C114D1049D
:10480000E104F10419F02E5FC701B601DC01CB0110
:10481000B695A79597958795892B8A2B8B2B09F0B1
:104820002F5F822FFF90EF90DF90CF9008958295B9
:10483000982F937344E0949F900111248C7C86956B
:104840008695282B822F8575880F2A7A2695822BAC
:10485000089580E090E00E945A3621E08C3E9E4F01
:1048600009F020E0822F089582E090E00C94523607
:1048700083E090E00C945236CF9384E090E00E9465
:104880005236C82F81E290E00E9452362C2F30E041
:10489000A901582BCA01CF910895CF93C92F682F32
:1048A00084E090E00E9460366C2F81E290E0CF912E
:1048B0000C946036AB01BC018FE090E00C94723632
:1048C000AB01BC0183E190E00C94723660E070E0D3
:1048D000CB010C94602460E070E0CB010E945A246C
:1048E0000C9466246CEE7EEF80E090E00E947E36B1
:1048F00060E082E090E00E94603660E083E090E05B
:104900000E94603610927302109274021092750227
:104910001092760260E084E090E00E94603660E0F1
:1049200081E290E00E94603660E085E090E00E94C5
:10493000603660E086E090E00E9460366FEF87E0CE
:1049400090E00E94603640E050E0BA0188E090E0DC
:104950000E94723660E08DE090E00E94603640E098
:1049600050E0BA0188E190E00E94723660E087E191
:1049700090E00E94603640E050E0BA018CE190E0A7
:104980000E94723660E080E290E00E94603640E073
:1049900050E0BA0188E190E00E9472360C946B24DA
:1049A0000C947224682F8EE090E00C946036FC0129
:1049B000329697E080E0915029F021912223D9F39B
:1049C0008F5FF9CF0895662349F0FC01329608966F
:1049D0002191621729F0E817F907D1F780E00895CF
:1049E00081E008959C01FC0132969FEF80E04191A7
:1049F000461789F09F3F19F4411101C0982F8F5F2E
:104A00008630A9F79F3F39F0F901E90FF11D97FDB5
:104A1000FA956283089508959C012A5F3F4FFC0137
:104A20004281461301C01282019682179307B9F79B
:104A300008950C94F2240C940C25029626E0FC01B7
:104A400011922A95E9F7089508950C9424250C9461
:104A50002425CF930E9427250E94EF0E0E94252532
:104A6000C0E08C2F0E940D0E811104C0CF5FCA30B0
:104A7000C1F701C081E0CF9108950C9424250C94D6
:104A80003D250E943F258091CA04843049F110924F
:104A9000850220E488E190E00FB6F894A895809311
:104AA00060000FBE2093600080E00E94F60B0E9421
:104AB0003F2583B7817F846083BF83B7816083BFD5
:104AC0007894889583B78E7F83BF0FB6F894A895A6
:104AD00080916000886180936000109260000FBE3A
:104AE00008950C9424250E940B1D0E948D170E948E
:104AF000F60B0C9471251F920F920FB60F92112492
:104B00008F939F93AF93BF9380918502811113C0C0
:104B10008091C0049091C104A091C204B091C304DB
:104B20004196A11DB11D8093C0049093C104A09330
:104B3000C204B093C304BF91AF919F918F910F9026
:104B40000FBE0F901F90189582E084BD93E095BD35
:104B50009AEF97BD80936E0008952FB7F8948091D7
:104B6000C0049091C104A091C204B091C3042FBFAE
:104B700008952FB7F8946091C0047091C10480919A
:104B8000C2049091C3042FBF08959C014FB7F894BD
:104B90008091C0049091C104A091C204B091C3045B
:104BA0004FBF821B930B089578941F920F920FB6FC
:104BB0000F9211248F939F93AF93BF938091C00462
:104BC0009091C104A091C204B091C3040196A11DAB
:104BD000B11D8093C0049093C104A093C204B0930C
:104BE000C304BF91AF919F918F910F900FBE0F9013
:104BF0001F90189587E797E7909301088093000826
:104C00009AE088E10FB6F894A895809360000FBEF3
:104C100090936000FFCF0E942924811102C00E945E
:104C2000D0240E943424809384020E943C249093D8
:104C3000C5048093C4040E943824682F70E080E08B
:104C400090E00E943B2160916F0270917002809110
:104C50007102909172020C94732180918E0280FFF8
:104C60000BC06091160185E0689FB0011124759515
:104C70006795759567952BC081FF09C060911601F6
:104C800085E0689FB00111247595679520C082FF6B
:104C900007C06091160185E0689FB001112417C01C
:104CA00090918D029923D1F060911501961788F7A4
:104CB0002091160185E0289F90011124929FA00168
:104CC000939F500D112470E0CA010E942236603873
:104CD000710540F46115710519F406C065E070E0D6
:104CE000862F08958FE7089581E0089580918E02C0
:104CF00080FF08C06091130170E075956795759508
:104D0000679521C081FF06C06091130170E0759521
:104D1000679519C082FF04C06091130170E010C054
:104D200090918C02992399F0609112019617A0F747
:104D300080911301899FC001112470E00E942236E6
:104D40006038710540F46115710519F406C061E021
:104D500070E0862F08958FE7089581E00895803FE1
:104D600021F40E942D26819504C0813F29F40E94E0
:104D70002D26809392020895823F21F40E942D26D1
:104D8000819504C0833F29F40E942D2680939102CF
:104D90000895893F19F40E94762605C08A3F31F4B0
:104DA0000E94762681958093930208958B3F21F48B
:104DB0000E947626819504C08C3F29F40E947626B5
:104DC000809394020895843F21F480919002816041
:104DD00017C0853F21F480919002826011C0863F08
:104DE00021F48091900284600BC0873F21F4809170
:104DF0009002886005C0883F31F480919002806104
:104E00008093900208958D3F21F480918E028160FD
:104E10000BC08E3F21F480918E02826005C08F3FCF
:104E200029F480918E02846080938E020895803FE1
:104E300039F48091920287FF6AC01092920267C093
:104E4000813F29F4809192021816BCF360C09091C2
:104E50009102823F29F497FF5AC01092910257C0E5
:104E6000833F19F41916CCF352C090919302893FF5
:104E700031F419160CF04BC01092930248C08A3FCF
:104E800019F497FF44C0F8CF8B3F39F48091940216
:104E900087FF3DC0109294023AC08C3F29F4809164
:104EA00094021816BCF333C0843F21F48091900221
:104EB0008E7F17C0853F21F4809190028D7F11C0B5
:104EC000863F21F4809190028B7F0BC0873F21F4B5
:104ED00080919002877F05C0883F31F480919002D5
:104EE0008F7E8093900213C08D3F21F480918E02BB
:104EF0008E7F0BC08E3F21F480918E028D7F05C086
:104F00008F3F29F480918E028B7F80938E02809157
:104F10009102811106C080919202811102C010920B
:104F20008D0280919302811106C0809194028111BB
:104F300002C010928C0208958091840283FF7EC08B
:104F400086ED99E00E94410A809190021F928F9312
:104F500081ED99E09F938F930E94DA0A8FEC99E09C
:104F60000E94410A80919102282F082E000C330BD9
:104F70003F938F938CEC99E09F938F930E94DA0A72
:104F80008AEC99E00E94410A80919202282F082E13
:104F9000000C330B3F938F9387EC99E09F938F9393
:104FA0000E94DA0A85EC99E00E94410A80919302FE
:104FB000282F082E000C330B3F938F9382EC99E03F
:104FC0009F938F930E94DA0A80EC99E00E94410A35
:104FD00080919402282F082E000C330B3F938F935F
:104FE0008DEB99E09F938F930E94DA0A8AEB99E008
:104FF0000E94410A80918D021F928F9387EB99E066
:105000009F938F930E94DA0A85EB99E00E94410AF0
:1050100080918E021F928F9382EB99E09F938F93E2
:105020000E94DA0A8FEA99E00E94410A8DB79EB782
:105030004C960FB6F8949EBF0FBE8DBF0E94AD2553
:1050400020919102211104C020919202222321F08B
:1050500090938B0280938A0220919302211104C0C5
:1050600020919402222321F0909389028093880258
:105070008FE892E00C94EF17EF92FF920F931F933B
:10508000CF93DF9300D000D000D0CDB7DEB786E05D
:10509000EFE8F2E0DE01119601900D928A95E1F7BA
:1050A000E0909102F090920200919302109194028C
:1050B0001092910210929202109293021092940216
:1050C000E11003C0FF2009F45DC080918A02909135
:1050D0008B020E94C525AC0190918D02992339F075
:1050E0002091170130E02417350758F04BC020916C
:1050F00087028AE0289F900111242417350718F0B1
:1051000041C09F3F19F09F5F90938D02EE2061F0A8
:105110000E942D261E1414F09FEF01C091E0989F6D
:10512000902D112490939102FF2061F00E942D2672
:105130001F1414F09FEF01C091E0989F902D11244F
:1051400090939202309191023323E1F020919202E8
:105150002223C1F045EB3403C0011124992319F037
:105160009093910203C081E08093910235EB230379
:10517000C0011124992319F09093920203C081E099
:1051800080939202011103C0112309F45DC0809144
:105190008802909189020E94C525AC0190918C02F1
:1051A000992339F02091140130E02417350758F085
:1051B0004BC0209186028AE0289F90011124241779
:1051C000350718F041C09F3F19F09F5F90938C0204
:1051D000002361F00E947626101614F09FEF01C0A4
:1051E00091E0989F902D112490939302112361F0E8
:1051F0000E947626111614F09FEF01C091E0989F4F
:10520000902D112490939402309193023323E1F076
:10521000209194022223C1F045EB3403C0011124F4
:10522000992319F09093930203C081E08093930235
:1052300035EB2303C0011124992319F090939402B4
:1052400003C081E0809394028091910281110BC090
:1052500080919202811107C080919302811103C055
:105260008091940281110E949C27EB82FC820D8325
:105270001E8386E0FE013196AFE8B2E001900D9208
:105280008A95E1F726960FB6F894DEBF0FBECDBF24
:10529000DF91CF911F910F91FF90EF900895EFE86C
:1052A000F2E086E0DF011D928A95E9F710928D0207
:1052B00010928C0210928E02089589EF9BE00E945A
:1052C000410A1F9281E08F931F9285E08F938BEAB2
:1052D0009BE09F938F930E94DA0A0F900F900F909C
:1052E0000F900F900F9008958330E9F128F48130EA
:1052F00061F0823009F10895853009F462C008F444
:1053000049C0863009F474C0089580918702262F21
:1053100030E0280F311D2F3F310524F4680F6093D2
:10532000870203C08FEF80938702809187021F92CC
:105330008F9384EE9AE072C080911701262F30E09F
:10534000280F311D2F3F310524F4680F609317019A
:1053500003C08FEF80931701809117011F928F93E5
:1053600082ED9AE05BC080911601262F30E0280F75
:10537000311D2F3F310524F4680F6093160103C0DF
:105380008FEF80931601809116011F928F938FEB00
:105390009AE044C080911501262F30E0280F311D7E
:1053A0002F3F310524F4680F6093150103C08FEF80
:1053B00080931501809115011F928F938AEA9AE0DC
:1053C0002DC080911301262F30E0280F311D2F3F73
:1053D000310524F4680F6093130103C08FEF8093AD
:1053E0001301809113011F928F9381E99AE016C0F7
:1053F00080911201262F30E0280F311D2F3F3105FB
:1054000024F4680F6093120103C08FEF80931201A0
:10541000809112011F928F9386E79AE09F938F935A
:105420000E94DA0A0F900F900F900F90089583302A
:1054300081F128F4813059F08230D1F0089585301F
:1054400009F449C0B8F1863009F456C00895809136
:105450008702681720F4861B8093870202C010928F
:105460008702809187021F928F9387E69AE054C04B
:1054700080911701681720F4861B8093170102C0E2
:1054800010921701809117011F928F9385E59AE082
:1054900043C080911601681720F4861B8093160183
:1054A00002C010921601809116011F928F9382E420
:1054B0009AE032C080911501681720F4861B809312
:1054C000150102C010921501809115011F928F9352
:1054D0008DE29AE021C080911301681720F4861BA9
:1054E0008093130102C010921301809113011F9247
:1054F0008F9384E19AE010C080911201681720F424
:10550000861B8093120102C0109212018091120139
:105510001F928F9389EF99E09F938F930E94DA0AED
:105520000F900F900F900F900895CF93C82F1F9258
:105530008F938EEF9CE09F938F930E94DA0A81E015
:1055400090E0A0E0B0E0BC01CD0104C0660F771F81
:10555000881F991FCA95D2F70E943B210F900F9088
:105560000F900F90CF910C940B1DCF93DF938B3145
:1055700009F4EAC108F08BC18B3009F4AEC108F020
:1055800065C1863009F4ACC120F4853009F4BAC194
:105590005DC2873009F4BDC1883009F057C281E18E
:1055A00092E10E94410A82E691E10E94410A0E9432
:1055B00038241F928F938FE591E19F938F930E94E0
:1055C000DA0A8DE591E10E94410A0E943424C82F35
:1055D0008AE491E10E94410A1F92CF9385E491E110
:1055E0009F938F930E94DA0A83E491E10E94410A1B
:1055F00089E391E10E94410A8C2F81701F928F9361
:1056000086E391E19F938F930E94DA0A84E391E10C
:105610000E94410A8AE291E10E94410AC1FB882767
:1056200080F91F928F9387E291E19F938F930E945D
:10563000DA0A85E291E10E94410A89E191E10E9442
:10564000410AC2FB882780F91F928F9386E191E17E
:105650009F938F930E94DA0A84E191E10E94410AAC
:105660008BE091E10E94410AC3FBCC27C0F91F9255
:10567000CF9388E091E19F938F930E94DA0A86E0AE
:1056800091E10E94410A0E943C24EC0182EF90E1EA
:105690000E94410ADF93CF938DEE90E19F938F9309
:1056A0000E94DA0A8BEE90E10E94410A82ED90E1BD
:1056B0000E94410A8C2F81701F928F938FEC90E192
:1056C0009F938F930E94DA0A8DB79EB780960FB68C
:1056D000F8949EBF0FBE8DBF8DEC90E10E94410AF1
:1056E00086EB90E10E94410AC1FB882780F91F9256
:1056F0008F9383EB90E19F938F930E94DA0A81EB63
:1057000090E10E94410A8FE990E10E94410A8D2FA9
:1057100081701F928F938CE990E19F938F930E94E9
:10572000DA0A8AE990E10E94410A88E890E10E9441
:10573000410AD695D1701F92DF9385E890E19F933F
:105740008F930E94DA0A83E890E10E94410A81E780
:1057500090E10E94410AC2FB882780F91F928F9333
:105760008EE690E19F938F930E94DA0A8CE690E197
:105770000E94410A8AE590E10E94410AC3FB882702
:1057800080F91F928F9387E590E19F938F930E94FA
:10579000DA0A85E590E10E94410A8BE490E10E94DB
:1057A000410AC4FB882780F91F928F9388E490E117
:1057B0009F938F930E94DA0A86E490E10E94410A47
:1057C00084E390E10E94410AC5FB882780F91F927B
:1057D0008F9381E390E19F938F930E94DA0A8FE287
:1057E00090E10E94410A83E190E10E94410AC6FBD8
:1057F000882780F91F928F9380E190E19F938F9388
:105800000E94DA0A8DB79EB780960FB6F8949EBFB5
:105810000FBE8DBF8EE090E10E94410A86E090E1CC
:105820000E94410AC7FBCC27C0F91F92CF9383E0A7
:1058300090E19F938F930E94DA0A81E090E10E94A9
:10584000410A0F900F900F900F9045C0803109F4DE
:10585000A5C020F48E3009F48BC0F8C0863109F45D
:10586000B8C0893109F0F2C088E29EE00E94410A86
:1058700084EE9DE00E94410A8DEC9DE00E94410A69
:1058800087E99DE00E94410A8CE69DE084C08A324F
:10589000E1F060F4873209F4D5C028F48E3108F4C1
:1058A000D5C08D51D0C0893269F1D0C0833448F45D
:1058B0008A3308F0C5C0853309F4C4C0883369F061
:1058C000C5C0833409F4BEC0C1C080E092E10E942B
:1058D000410A0E94D024C1E0BEC08EE59EE05BC0BC
:1058E00080918402817F8E7F8093840287E39EE093
:1058F0000E94410A8CEF91E10E94410A81E080936D
:105900009602E9CF80EE91E10E94410A0E94880B45
:10591000E2CF80918402C82FC095C170C0FB80F98E
:1059200080938402CC2329F084ED91E10E94410A06
:1059300092C087EC91E10E94410A80918402897FA4
:10594000877F80938402C7CF9091840291FBCC27FC
:10595000C0F981E0C827892FC0FB81F980938402B8
:10596000CC2319F08AEB91E129C08CEA91E113C0B4
:105970009091840292FBCC27C0F981E0C827892F3F
:10598000C0FB82F980938402CC2319F08DE991E168
:1059900015C08DE891E10E94410A9DCF909184024B
:1059A00093FBCC27C0F981E0C827892FC0FB83F97E
:1059B00080938402CC2351F081E891E10E94410A56
:1059C0008091840281608093840245C084E791E1E4
:1059D000E2CF8EE59DE00E94410A0E948D171F9242
:1059E0008F9384E49DE09F938F930E94DA0A8091C5
:1059F00022011F928F938DE29DE09F938F930E94CF
:105A0000DA0A8091A3021F928F938AE19DE09F930F
:105A10008F930E94DA0A0E94B9259F938F937F93F8
:105A20006F9383E09DE09F938F930E94DA0A8DB776
:105A30009EB742960FB6F8949EBF0FBE8DBF4BCF58
:105A4000895301C080E00E94952A45CF82E791E109
:105A50000E94410AC0E08C2FDF91CF91089580E031
:105A600008950C942F2D8E518A3030F4E82FF0E0F9
:105A7000E256FE4F8081089580E00895CF93C82FAD
:105A800080919602813059F020F0823009F445C0AF
:105A900037C10E941123823209F034C104C00E9430
:105AA0001123823261F48C2F0E94312D811104C0A8
:105AB0008C2F0E94B52A2FC081E090E02CC08C2F43
:105AC0000E942F2D811126C0C431E1F070F4CB303B
:105AD00081F0C031D1F40E945D2986EF9CE00E94E4
