:100000000C9467060C94AE060C94AE060C94182360
:100010000C94AE060C94AE060C94AE060C94AE0690
:100020000C94AE060C94AE060C945F1A0C949B19BB
:100030000C9410110C94AE060C94AE060C94AE0603
:100040000C94AE060C94AE060C94AE060C94AE0660
:100050000C94AE060C94D2100C94AE060C94AE0622
:100060000C94AE060C94AE060C94AE060C94AE0640
:100070000C94AE060C94AE060C94AE060C94AE0630
:100080000C94AE060C94AE060C94AE060C94AE0620
:100090000C94AE060C94AE060C94AE060C94AE0610
:1000A0000C94AE060C94AE060C94AE06300E300ED8
:1000B0006A0E6A0EBD0E601060106010D90EB70F88
:1000C000C80FC80FB617DD177319DD177319251878
:1000D0004818731937194A191E201E203120312063
:1000E00027203120312031201E201E202C203120BD
:1000F00031202C2000DA0281FFD9F1DB20A4A62ECA
:10010000AF00A0C000A1C800AED580A81FD300409A
:100110008D1420000000000000000000000000001E
:1001200000000000000000000000000000000000CF
:1001300000000000000000000000000000000000BF
:1001400000000000000000000000000000000000AF
:10015000000000000000000000000000000000009F
:100160000000000000C0C00000000070000000009F
:100170000000000003E0C006000820E000000000CE
:1001800000000000032060060198208000000000AD
:10019000000000000330600301982180000000008F
:1001A0000000000002303003011861000000000070
:1001B0000000000002303003011841000000000080
:1001C0000000000002201801031841800000000018
:1001D0000000000002201801821841800000000089
:1001E0000000000002603C01821801800000000055
:1001F0000000000003C024008218008000000000FE
:100200000000000003802600840800C000000000F9
:100210000000000003C06200C40800C0000000002D
:100220000000000003C04300CC0800C00000000034
:100230000000000002607F804808004000000000CD
:10024000000000000260FF8048080040000000003D
:10025000000000000230C0C078080040000000002C
:1002600000000000023180607008006000000000A3
:10027000000000000219006030080040000000008B
:1002800000000000020D00303008004000000000B7
:1002900000000000020F0030300803C00000000022
:1002A00000000000000000100008018000000000B5
:1002B000000000000000000000000000000000003E
:1002C000000000000000000000000000000000002E
:1002D000000000000000000000000000000000001E
:1002E000000000000000000000000000000000000E
:1002F00000000000000000000000000000000000FE
:1003000000000000000000000000000000000000ED
:1003100000000000000000000000000000000000DD
:1003200000000000000000000000000000000000CD
:1003300000000000000000000000000000000000BD
:1003400000000000000000000000000000000000AD
:10035000000000000000000000000000000000009D
:10036000000000000000000003000000000000008A
:10037000000003000000000F0300C000F007C00EE3
:1003800060008300000000198300C0C1800E601867
:1003900060198300000000188300C0C100063030DF
:1003A00020198300000000188300C0C10004303011
:1003B00030118300000000098300C0C30004102036
:1003C00030118300000000098300C082000418205F
:1003D000103183000000000B0300C08200041820CD
:1003E000102183000000000E0300C08200041820CA
:1003F000182183000000000F0300C0820004186071
:10040000186083000000000F0300C083E004187E22
:1004100008408300000000098300C083C004187CEA
:100420000840830000000009830040820004186037
:100430000CC0830000000008C30040820004186064
:100440000480830000000008C300408200041060A4
:100450000480830000000018830041020004102083
:100460000780820000000018820061030004302031
:10047000070082000000001982007303000430307E
:10048000030082000000001F03F83E018006603078
:10049000030083780000001C03F81C01C007C01C87
:1004A000030083F80000000000000000F003000ECD
:1004B000000000000000000000000000000000003C
:1004C000000000000000000000000000000000002C
:1004D000000000000000000000000000000000001C
:1004E000000000000000000000000000000000000C
:1004F00000000000000000000000000000000000FC
:1005000000000000000000000000000000000000EB
:1005100000000000202020202020202000534352F3
:1005200020002020202020202020004341502000B7
:100530002020202020202020004E554D2000556EE8
:10054000646566696E6564004E756D626572730AF6
:100550000046756E6374696F6E0A004261736520B0
:100560005177657274790A004C617965723A20009E
:1005700000AE35001E001F002000210022002300D5
:100580002B0014001A000800150017002F00E100CE
:1005900004001600070009000A004B00E0001D00DF
:1005A0001B00060019000500E200015339002C0071
:1005B000A8004C002900E3002400250026002700A5
:1005C0002D002E002A0030001C0018000C00120024
:1005D000130031004E000B000D000E000F00330021
:1005E0003400510011001000360037003800E500DB
:1005F0005200500028002C004F00AA00A900010062
:100600003A003B003C003D003E003F00010001007D
:1006100001000100010001000100010001000100D2
:1006200001000100010001000100010001000100C2
:10063000010001000100015301000100010001005F
:100640000100010040004100420043004400450019
:100650000100010001000100010001000100010092
:100660000100010001000100010001000100010082
:100670000100010001000100010001000100010072
:100680000100010001000100010005010980A10134
:10069000850319012AB700150126B70095017510C9
:1006A0008100C0050C0901A101850419012AA002DD
:1006B000150126A002950175108100C005010906EB
:1006C000A101050719E029E7150025019508750125
:1006D00081029501750881010507190029FF1500A0
:1006E00026FF009506750881000508190129059562
:1006F0000575019102950175039101C009023B0046
:10070000020100A0FA09040000010301010009210F
:10071000110100012240000705810308000A0904B5
:100720000100010300000009211101000122320033
:100730000705820320000A12011001000000084D85
:100740004437350100010200012C034400610063BD
:1007500000740079006C002D004D0061006E007582
:100760000066006F0072006D0020002800350078E0
:10077000003700290000000E037400730068006F4A
:10078000007200740000000403090400000000006F
:10079000003E5B4F5B3E003E6B4F6B3E001C3E7C61
:1007A0003E1C00183C7E3C18001C577D571C001C4A
:1007B0005E7F5E1C0000183C180000FFE7C3E7FFE7
:1007C00000001824180000FFE7DBE7FF0030483A7C
:1007D000060E00262979292600407F0505070040DE
:1007E0007F05253F005A3CE73C5A007F3E1C1C0811
:1007F00000081C1C3E7F0014227F2214005F5F0053
:100800005F5F0006097F017F00006689956A0060CE
:10081000606060600094A2FFA2940008047E040857
:100820000010207E20100008082A1C0800081C2A3E
:100830000808001E10101010000C1E0C1E0C0030BA
:10084000383E383000060E3E0E0600000000000064
:100850000000005F000000000700070000147F1484
:100860007F1400242A7F2A120023130864620036B2
:100870004956205000000807030000001C224100D8
:10088000000041221C00002A1C7F1C2A0008083E90
:100890000808000080703000000808080808000000
:1008A00000606000002010080402003E5149453EEF
:1008B0000000427F400000724949494600214149F9
:1008C0004D33001814127F10002745454539003C70
:1008D0004A49493100412111090700364949493641
:1008E00000464949291E0000001400000000403461
:1008F0000000000008142241001414141414000015
:1009000041221408000201590906003E415D594E7A
:10091000007C1211127C007F49494936003E41415A
:100920004122007F4141413E007F49494941007FCA
:1009300009090901003E41415173007F0808087F01
:100940000000417F4100002040413F01007F08142A
:100950002241007F40404040007F021C027F007F18
:100960000408107F003E4141413E007F090909060D
:10097000003E4151215E007F091929460026494960
:1009800049320003017F0103003F4040403F001F08
:100990002040201F003F4038403F0063140814638C
:1009A000000304780403006159494D4300007F416E
:1009B000414100020408102000004141417F000431
:1009C00002010204004040404040000003070800CC
:1009D000002054547840007F284444380038444470
:1009E000442800384444287F0038545454180000E8
:1009F000087E09020018A4A49C78007F08040478EB
:100A00000000447D4000002040403D00007F102851
:100A100044000000417F4000007C04780478007CA2
:100A20000804047800384444443800FC182424188E
:100A30000018242418FC007C0804040800485454BE
:100A400054240004043F4424003C4040207C001C0B
:100A50002040201C003C4030403C004428102844EA
:100A6000004C9090907C004464544C440000083644
:100A7000410000000077000000004136080000023D
:100A800001020402003C2623263C00000000000076
:100A900000404040F0F8F8FF38FFF8F83FF8F8FF62
:100AA00038FFF8F8F040404000000000000080C02F
:100AB000C0C0800000C0C08000000080C0C000C076
:100AC000C0000080C0C00000000000C0C0C0C0C0A6
:100AD00000C0C00000000000000000000000000096
:100AE0000000000000000000000000000000000006
:100AF00000000000000000000000000000000000F6
:100B000000000000000000000000C0F0F8FC3E1EE5
:100B100006010000007F4141417F007F4141417F4C
:100B2000000080C0E07E5B4F5BFEC00000C000DCC8
:100B3000D7DEDEDED7DC00C00000000000000000D1
:100B400000000000000000000000000000000000A5
:100B500000494949FFFFFFFFE0DFBFBF00BFBFDF24
:100B6000E0FFFFFFFF49494900000000001F3F6010
:100B700060E0BF1F007F7F071E381E077F7F007F5A
:100B80007F0E1F3B716000000000007F7F0C0C0C8B
:100B9000007E7E007F7E0303007F7E03037E7E0354
:100BA000037F7E000F3E703C063C703E0F00327BA0
:100BB00049493F7E007F7E0303001E3F69696F261F
:100BC00000000000000000000000030F1F3F3C7801
:100BD00070600000007F4141417F007F4141417FC3
:100BE00000307B7F7830202030787F3B0003000F7F
:100BF0007F0F0F0F7F0F00030000000000000000B8
:100C000000000000000000000000000000000000E4
:100C100000010101070F0F7F0F7F0F0F7E0F0F7F66
:100C20000F7F0F0F0701010100000000000000000E
:100C300000000101000000000000000000000000B2
:100C400000000000000000000000000000000000A4
:100C50000000000000000000000000000000000094
:100C60000000000000000000000000000000000084
:100C70000000000000000000000000000000000074
:100C80000000000000000000000000000000000064
:100C90000000000000000000000000000000000054
:100CA0000000000000000000000000000000000044
:100CB0000000000000000000000000000000000034
:100CC000000000000000000000000000AF00112440
:100CD0001FBECFEFDAE0DEBFCDBF04B603FE27C0F4
:100CE00080916B0490916C04A0916D04B0916E049E
:100CF0008730904BA740B04BD1F410926B04109208
:100D00006C0410926D0410926E0414BE84B7877F39
:100D100084BF0FB6F894A895809160008861809395
:100D20006000109260000FBEE0E0F8E3099524E057
:100D3000A6E6B1E001C01D92AB36B207E1F711E0C3
:100D4000A0E0B1E0ECE6F8E402C005900D92A63612
:100D5000B107D9F70E9417080C9434240C940000B2
:100D6000089580913E020895CF93DF9300D01F92A3
:100D7000CDB7DEB790914902943019F589837B8312
:100D80006A8382E08093E9008FEF9091E8008150C0
:100D900095FD06C095ED9A95F1F700008111F5CF0C
:100DA0008091E80085FF0DC040E050E063E070E016
:100DB000CE0101960E94A6168091E8008E7780935E
:100DC000E8000F900F900F90DF91CF910895BC0134
:100DD00084E00C94B406BC0183E00C94B406CF9379
:100DE000DF9321E02093E9002FEF3091E8002150BC
:100DF00035FD06C035ED3A95F1F700002111F5CF2C
:100E00002091E80025FF14C0EC0140E050E068E0CC
:100E100070E00E94A6168091E8008E778093E8002B
:100E200088E0FE01AFE3B2E001900D928A95E1F710
:100E3000DF91CF9108952091E4003091E50095E68F
:100E40004091EC00842F817040FF23C08091E80026
:100E500080FD1DC080914902882399F0853099F06A
:100E60008091EB0085FD11C04091E4005091E500B8
:100E70002417350729F3915011F09A01E1CF84E04E
:100E8000089582E0089583E0089581E0089580E068
:100E900008954091E80042FFDDCF089580914B0214
:100EA00087FF11C08091E80082FD05C08091490252
:100EB0008111F8CF11C08091E8008B770BC0809131
:100EC0004902882349F08091E80080FFF8CF8091A3
:100ED000E8008E778093E8000895982F973068F5A2
:100EE0009093E900981739F07091EC002091ED0093
:100EF0005091F00003C0242F762F50E021FD02C056
:100F00009F5FECCF3091EB003E7F3093EB00309150
:100F1000ED003D7F3093ED003091EB003160309378
:100F2000EB007093EC002093ED005093F0002091C3
:100F3000EE0027FDE5CF80E008958F708093E900F3
:100F400081E008952091510230915202261737070F
:100F500048F06115710539F42091E8002E7720934F
:100F6000E80001C0B901FC0120E06115710579F1CB
:100F7000809149028823F1F18530F1F18091E800F8
:100F800083FD3CC08091E80082FD2EC08091E80086
:100F900080FFEBCF2091F3008091F20090E0922B44
:100FA0006115710551F08830910538F42191209335
:100FB000F100615071090196F3CF21E0089709F023
:100FC00020E08091E8008E778093E800CECF211159
:100FD000CFCF0AC080914902882361F0853061F04B
:100FE0008091E80083FD0AC08091E80082FFF2CF83
:100FF00080E0089582E0089583E0089581E00895F7
:101000000F931F9341E050E060E070E08A019B0184
:1010100004C0000F111F221F331F8A95D2F7C90188
:10102000B8010E94AC131F910F910C944320CF93F1
:10103000DF93CDB7DEB765970FB6F894DEBF0FBE6E
:10104000CDBF84B7877F84BF0FB6F894A8958091F1
:101050006000886180936000109260000FBE90E095
:1010600080E80FB6F89480936100909361000FBE02
:1010700085B7806885BF85B7806885BF0E94DF1906
:101080000E94FE198091E20084608093E2007894CF
:10109000809149028823A1F01091E9001F7090917E
:1010A000EC00892F817090FD80E8182B1092E900E8
:1010B0008091E80083FD0E94D2161F701093E90012
:1010C00082E084BD93E095BD9AEF97BD80936E005A
:1010D0000E94A51C809308010E94A51C882331F062
:1010E00061E070E080E091E00E94CA2280910801F6
:1010F00080910801811102C095E001C090E09093B9
:10110000770185E0891B8093760186E60E94C61CE4
:1011100087E90E94C61C86EC0E94C61C84E30E94DC
:10112000C61C85E30E94C61C05E211E06CE2E62EB7
:1011300061E0F62ED8018D918D010E94C61CE0164B
:10114000F106C1F7ECE6F1E086E791E0ABE7B1E04C
:1011500011921D928E179F07D9F780E090E00E94B0
:10116000C7238C3E9E4F11F00E9471110E94A51C56
:10117000811106C061E070E080E091E00E94D12220
:101180000E94A51C811182E08093AB0180E88093CE
:1011900053020E9488216DE070E087E091E00E9498
:1011A0007D16892B09F043C08091AB0163E070E0AC
:1011B00081FD3AC084E091E00E947D16892BB9F54B
:1011C0006DE070E084EF90E00E947D16892B79F548
:1011D0000E94F810DC01CB01805A9541AF4FBF4F00
:1011E0008093AD019093AE01A093AF01B093B00195
:1011F000E6E5F2E080E092E0DF019C011D922150E3
:101200003040E1F7F0935D04E0935C048FEF9FEFD3
:10121000909355028093540281E08093B2018093B1
:10122000B1011092AC0103C081E091E0C5CF80E034
:1012300090E00E94C7238C3E9E4F11F00E947111D6
:1012400082E090E00E94BF238093B4010E9460116D
:10125000909379018093780183E090E00E94BF230E
:10126000682F70E080E090E00E94AC1380E191E094
:10127000909386018093850144244394512C54E338
:10128000252E51E0352E80914902853009F03AC073
:1012900080914902843021F110927A0120E488E1A2
:1012A00090E00FB6F894A895809360000FBE20934D
:1012B000600083B7817F846083BF83B7816083BF11
:1012C0007894889583B78E7F83BF0FB6F894A895DE
:1012D00080916000886180936000109260000FBE72
:1012E00080914802882309F4CECF0E94181F85E818
:1012F00091E0EBE7F1E0219121113CC28E179F07AD
:10130000D1F7C1CF0E94181FD82E0E94A51C882398
:10131000A1F1E5EBF1E0ABE7B1E000E010E0302F48
:101320002D919191922721F180E0FF24F3944F2D8C
:101330004923D1F08A873B872F2181E009F480E09F
:101340008C870E9404118160782F9E878D874A8543
:101350005B856C858E850E947B1BF801EB54FE4FEC
:101360008081F826F08219C08F5FFF0C8730F9F674
:101370000F5F1F4F0A30110591F68FEF8F87888B13
:10138000198A0E9404118160782F9B8B8A8B4F856C
:10139000588969898B890E947B1B8091B2018823BF
:1013A00009F4D9C186E592E090935D0480935C04D2
:1013B0000E94A51C882309F494C088E695E00E9449
:1013C0006F16409187015091880160918901709159
:1013D0008A01CB01AA27BB270097A105B10521F0FF
:1013E000AC01BD0180E101C080E0052F162F272F41
:1013F0003327011511052105310519F0885FB90161
:10140000A8018A019B0194E03695279517950795C9
:101410009A95D1F7011511052105310519F08C5F59
:10142000B901A8018A019B01B2E03695279517956D
:101430000795BA95D1F7011511052105310519F068
:101440008E5FB901A8017695679557954795452B0D
:10145000462B472B09F08F5F813049F028F082300E
:1014600059F488E495E005C08BE595E002C081E57C
:1014700095E00E946F1607C08EE395E00E946F16FC
:1014800081E00E94751CE0918501F0918601309702
:1014900029F00190F081E02D099501C080E081FBE9
:1014A000002700F982FB112710F980FD03C080E3BB
:1014B00095E002C089E395E00E946F16011103C018
:1014C00082E295E002C08BE295E00E946F16111156
:1014D00003C084E195E002C08DE195E00E946F16A3
:1014E00036C084E191E00E946F168091B20188239A
:1014F00071F18091540290915502892B41F0209115
:101500005402309155022115310539F5FDC0809105
:10151000AC018111F4CF198287E28A831B821C827D
:101520001D8287E08E831F828FEF88878FE28987F5
:1015300024E630E049E050E0BE016F5F7F4F88E76E
:101540000E941522892B19F481E08093AC018091CF
:10155000B201882309F4D8C0D2CF8091AC018111A7
:10156000D3C0082F10E07201082E02C0EE0CFF1C41
:101570000A94E2F7A9014E215F21452B11F48F5FF8
:10158000F0CF9091AB019801F5E0220F331FFA954F
:10159000E1F790FD12C08295880F807680930B0151
:1015A000220F232F221F330B319520930E01815ED2
:1015B00080930C0110920F0112C075E036952795AB
:1015C0007A95E1F7220F220F220F20930B01109240
:1015D0000E01295F20930C0183E080930F0124E624
:1015E00030E047E050E069E071E088E70E941522B2
:1015F000892B09F089C08091AB0180FD22C0A80130
:1016000065E0440F551F6A95E1F74A5A5D4F04E6BD
:1016100010E020E230E060E488E70E943C22892B61
:1016200009F072C00E944F1CE094F0948091540223
:1016300090915502E822F922F0925502E09254026C
:1016400063C080E2ABE8B1E01D928A95E9F7A8019A
:1016500035E0440F551F3A95E1F7E0E3F1E0FD8BEB
:10166000EC8B0CE211E0AC89BD898D91BD8BAC8B0C
:10167000F80191918F01BA01690F711D6A5A7D4F6E
:1016800090E085579E4FFC0127E0922E9F01281B7A
:10169000390B742C01C0770C2A95EAF75B01812C79
:1016A000D501CD905D01C720292D28192770622E04
:1016B000022E000C330BBC2D01C0BB0F6A94EAF75D
:1016C0006B2E3195219531092770332701C0C694BF
:1016D0002A95EAF76C28C0806C286082839428E001
:1016E0008212DECF9A9431963FEF9312CFCF8C893E
:1016F0009D892816390609F0B6CF04E610E020E2ED
:1017000030E04BE851E087CF8091B101882319F197
:101710000E94F8100091AD011091AE012091AF012F
:101720003091B001DC01CB01801B910BA20BB30BFC
:101730008F3F9F4FAF4FBF4770F48091B201882316
:1017400051F062E070E080E795E00E947D16892B01
:1017500011F41092B101D1100E944F1C0E94431C41
:101760009091B301891709F48ECD0E94431C809398
:10177000B30189CD80E189BD82E189BD09B400FE54
:10178000FDCF8091D8008F7D8093D8008091E000BC
:1017900082608093E0008091E00081FDFCCF73CDFA
:1017A0008F929F92AF92BF92CF92DF92EF92FF9271
:1017B0000F931F93CF93DF93CDB7DEB72A970FB662
:1017C000F894DEBF0FBECDBFFC010081D1808381C4
:1017D0009481892B39F01FEFD11206C091E00F3FA1
:1017E00019F403C091E001C090E090FDA8C47F010E
:1017F00085E0DE01169601900D928A95E1F7F701DA
:1018000022818E819F81222349F00E949F12182FEE
:10181000682F8E819F810E94181303C00E94EC12D2
:10182000182F26E4129FF001112437E0D39EE00D1B
:10183000F11D1124E00FF11DEE0FFF1FEE58FA4FBE
:1018400005911491043F8CE5180741F190F4093D8E
:10185000ECE51E07E9F00A3DFCE51F0789F1083DAC
:101860002CE51207B1F506E221EE41EE68ED7CE5CC
:101870002CC0063F3CE51307E9F0B0F0073F9CE5BC
:10188000190739F507E225EE46EE67EF7CE51DC046
:1018900007E225EE45EE69ED7CE517C006E221EE94
:1018A00040EE64EF7CE511C007E225EE44EE65EF03
:1018B0007CE50BC006E221EE42EE66EF7CE505C05A
:1018C00008E221E045EE6AED7CE5C7010E94921E28
:1018D00060C1F7018281882309F43FC11092BF01E2
:1018E0000230FCE51F0708F422C106312CE512077F
:1018F00038F098012B5F3C452930310508F017C1BD
:101900000E946011909379018093780100313CE549
:10191000130709F4C3C008F041C008309CE519075B
:1019200009F49AC0F0F40430FCE51F0709F487C0FD
:1019300068F402303CE5130709F477C003301C4516
:1019400009F0E5C080917801826076C006309CE5A0
:10195000190709F46EC008F07BC080917801886097
:101960006BC00C30FCE51F0709F485C068F40A3031
:101970003CE5130709F474C008F079C00E944320C5
:1019800080917801806858C00E309CE5190709F4F1
:1019900076C008F07FC0809178018BC00C3FFCE5D9
:1019A0001F0709F44FC018F503313CE5130709F48C
:1019B0007DC078F401319CE5190709F473C0023148
:1019C0001C4509F0A4C00E944320809178018F77C4
:1019D00033C00531FCE51F0709F472C008F486C066
:1019E0000B3F1C4509F093C0809179013EC0011561
:1019F0008DE5180709F45FC058F40E3FECE51E07AB
:101A000009F444C008F43FC08091790182602DC080
:101A100002302DE5120709F475C008F45DC00330EB
:101A20001D4509F074C060E06EC08091780181604E
:101A300003C08091780180618093780168C08091B3
:101A4000780111C0809179018260809379015FC033
:101A5000809178018062F0CF809178018064ECCF32
:101A60008091780188608460E7CF8160EECF8091BB
:101A700078018E7FE1CF809178018D7FDDCF8091DD
:101A80007801877FD9CF8091790118C08091790141
:101A90008D7FDBCF809178018F7ECECF80917801D2
:101AA0008F7DCACF809178018F7BC6CF80917801DE
:101AB000877F8B7FC1CF809179018D7F8E7FC5CF4E
:101AC0008091780182FB222720F991E0922790FBF8
:101AD00082F990FB83F9B0CF80917901982F90958E
:101AE00091708E7F892B90FB81F9AFCF0E944320AC
:101AF0008091780187FB222720F991E0922790FBC3
:101B000087F99ACF61E08EE090E00E94CD2360914A
:101B100078011091790184E090E00E94CD23612F3B
:101B200081E290E00E94CD230E94432032C0063122
:101B30002CE5120711F5809131028A7A91E009F4BF
:101B400090E09093C001882311F065E301C069E241
:101B500081EC91E00E9446110DC006311C45C1F593
:101B60008091C001882309F4E8C265E381EC91E02B
:101B70000E9439110E9472120CC001159CE51907D0
:101B800031F00F3D1C4521F50E94711102C00E94E9
:101B9000761E80912E02877009F4D1C2F7018281EE
:101BA000882309F4CCC282E02A960FB6F894DEBFEF
:101BB0000FBECDBFDF91CF911F910F91FF90EF909E
:101BC000DF90CF90BF90AF909F908F900C94721346
:101BD000F70100811181882349F0C8010E949F12FA
:101BE000D82E682FC8010E94181304C0C8010E9493
:101BF000EC12D82EB8018D2D0E94DD1C8C01982E80
:101C0000F701A580A2942FE0A222D280D1101092D9
:101C1000300280912E02877099F0DD2089F0812FAB
:101C2000807F803421F080E2800F883048F082E0AD
:101C30000E94721380912E028770CC24C39481116C
:101C4000C12CB12EB2949FE0B9228B2D90E08C3044
:101C5000910508F035C2FC01EA5AFF4F0C9421248B
:101C6000812F807F1F70882311F01295107FDD2057
:101C7000B9F0112309F40FC280E2800F883010F010
:101C8000911006C080913102182B1093310205C0CB
:101C900080913002182B109330020E947212FBC107
:101CA000802F0E946320112309F40AC2005E109560
:101CB000083010F0911006C0809131021823109363
:101CC000310205C0809130021823109330020E9427
:101CD0007212F6C1812F807F1F70803211F0129531
:101CE000107F992021F0F1E09F16E1F02AC0DD205D
:101CF00081F080913202AA2051F001E0A01207C0C9
:101D0000182B181709F4DCC110933202D9C1812BAA
:101D100010C0AA2021F021E0A21609F4D1C10E942E
:101D20006C1227C0DD2041F035E03A1508F4C8C137
:101D3000812F0E945920C4C184E08A1508F4C0C1D3
:101D400018C0DD2049F0AA2099F3F701858180FFB2
:101D5000A2C18F708583ECCFAA2059F0093309F016
:101D6000ACC1FFEF17EE23E0F15010402040E1F747
:101D7000A2C1812F0E944E20A3C1812F86958695F6
:101D8000837019F0813059F09BC1DD2019F0C80132
:101D9000937002C080E090E00E942D1C97C1DD206E
:101DA00019F0C801937002C080E090E00E94171CF7
:101DB0008DC1812F837009F069C0D11085C1902F2A
:101DC000929596959770990F990F802F8F70882E06
:101DD000912CA12CB12C092E04C0880C991CAA1C92
:101DE000BB1C0A94D2F704FF12C04FE050E060E041
:101DF00070E004C0440F551F661F771F9A95D2F7F5
:101E0000DB01CA0180959095A095B09503C080E054
:101E100090E0DC0116951695412F4370423019F180
:101E2000C8F40091330210913402209135023091B0
:101E30003602413059F088299929AA29BB29BC01C9
:101E4000CD0160237123822393230AC0802A912A23
:101E5000A22AB32ABC01CD01682979298A299B29A4
:101E60000E94AC1331C188299929AA29BB29009164
:101E70003302109134022091350230913602BC01B8
:101E8000CD016027712782279327EACFDD2019F043
:101E9000812F817001C08695882309F415C1902F88
:101EA000929596959770990F990F802F8F70882E25
:101EB000912CA12CB12C092E04C0880C991CAA1CB1
:101EC000BB1C0A94D2F704FF12C04FE050E060E060
:101ED00070E004C0440F551F661F771F9A95D2F714
:101EE000DB01CA0180959095A095B09503C080E074
:101EF00090E0DC0116951695412F43704230D9F0E1
:101F000068F5009187011091880120918901309135
:101F10008A01413059F088299929AA29BB29BC0195
:101F2000CD0160237123822393231EC0802A912A2E
:101F3000A22AB32A13C088299929AA29BB2900916A
:101F40008701109188012091890130918A01BC019B
:101F5000CD01602771278227932706C0BC01CD01E0
:101F6000682979298A299B290E944313ADC01F70D3
:101F7000DD2039F0812F0E948B13802F0E94592081
:101F8000A3C0802F0E944E20812F0E944D139CC021
:101F9000802F32EF931609F440C0391538F090EFD6
:101FA000991661F0E1EF9E1699F170C0F3EF9F165C
:101FB000D9F124EF921609F44EC068C0DD2019F162
:101FC00034E03A1508F47CC01F7181E090E0A0E095
:101FD000B0E0AC01BD0104C0440F551F661F771F60
:101FE0001A95D2F78091870190918801A09189017B
:101FF000B0918A018A019B01082719272A273B27CC
:10200000C901B80125C025E02A1508F459C0DCCF64
:10201000DD2029F0812F8F712CC0DD20D9F3812F95
:102020008F710E944D134CC0DD2079F01F7181E04B
:1020300090E0A0E0B0E0BC01CD0104C0660F771FC6
:10204000881F991F1A95D2F703C060E070E0CB019A
:102050000E94431335C0DD2079F01F71812F0E944B
:102060008B1338E0139FC0011124836080932E02EC
:10207000812F0E948B1324C081E00E94721381E0A3
:102080008A15F0F482E00E9472131AC0DD2039F044
:10209000AA2009F4BFCF802F0E94BF2011C0AA2020
:1020A00009F4BDCF893349F49FEFE7EEF3E0915097
:1020B000E040F040E1F700C00000802F0E94632064
:1020C00088EF8B0D843010F40E94431CCC20A9F0C3
:1020D00080912E0280FD11C0F701128285958595B1
:1020E00085950E948B13C7010E94D00B80912E0210
:1020F0008595859585950E944D1385E0F701DE0154
:10210000119601900D928A95E1F789819A810E943A
:10211000EC129A8106E4809FF001112417E0919F50
:10212000E00DF11D11248981E80FF11DEE0FFF1F55
:10213000EE58FA4F8591949102C069E217CD2A9624
:102140000FB6F894DEBF0FBECDBFDF91CF911F91C8
:102150000F91FF90EF90DF90CF90BF90AF909F9046
:102160008F900895209100029091CF0156E0291799
:10217000A9F030E0529FF001539FF00D1124E0537D
:10218000FE4F7181761306C07081781303C072818F
:10219000741306C02F5F3F4F2770E9CF80E008958A
:1021A00081E0089578941F920F920FB60F92112438
:1021B0008F939F93AF93BF93809137029091380292
:1021C000A0913902B0913A020196A11DB11D8093F0
:1021D000370290933802A0933902B0933A02BF912C
:1021E000AF919F918F910F900FBE0F901F901895F8
:1021F0002FB7F894609137027091380280913902BC
:1022000090913A022FBF08952FB7F894809137022A
:1022100090913802A0913902B0913A022FBF0895EF
:102220001F920F920FB60F9211248F939F93AF932B
:10223000BF9380917A01811113C0809137029091F0
:102240003802A0913902B0913A024196A11DB11D08
:102250008093370290933802A0933902B0933A02E8
:10226000BF91AF919F918F910F900FBE0F901F90D4
:1022700018959C012A5F3F4FFC014281461301C023
:102280001282019682179307B9F708959C01FC0109
:1022900032969FEF80E04191461789F09F3F19F4F5
:1022A000411101C0982F8F5F8630A9F79F3F39F009
:1022B000F901E90FF11D97FDFA95628308950895DC
:1022C000CF9384E090E00E94BF23C82F81E290E08A
:1022D0000E94BF232C2F30E0A901582BCA01CF91B7
:1022E00008956CEE7EEF80E090E00E94EB2360E0CA
:1022F00082E090E00E94CD2360E083E090E00E94C5
:10230000CD231092330210923402109235021092B3
:10231000360260E084E090E00E94CD2360E081E23C
:1023200090E00E94CD2360E085E090E00E94CD2304
:1023300060E086E090E00E94CD236FEF87E090E0C0
:102340000E94CD2340E050E0BA0188E090E00E9476
:10235000DF2360E08DE090E00E94CD2340E050E07C
:10236000BA0188E190E00E94DF2360E087E190E01D
:102370000E94CD2340E050E0BA018CE190E00E9441
:10238000DF2360E080E290E00E94CD2340E050E057
:10239000BA0188E190E00E94DF2340E050E0BA01FA
:1023A0008FE090E00E94DF2340E050E0BA0183E13B
:1023B00090E00C94DF238B3109F468C058F58B3022
:1023C00009F486C078F4863009F445C020F48530DD
:1023D00009F44BC07FC0873009F44AC0883009F443
:1023E00077C078C0803109F464C068F48E3009F099
:1023F00071C08091B40182FB222720F991E09227DD
:1024000090FB82F94CC0863109F462C0893109F42D
:102410005FC060C08A32E1F060F4873209F455C0D1
:1024200028F48E3108F456C08D5150C08932E9F03D
:1024300051C0833450F48A3308F045C0853309F421
:1024400044C0883309F444C045C08334F1F142C02C
:102450000E9471113DC08091B401817F8E7F809375
:10246000B40181E080933B0208950E94761E30C043
:102470008091B401982F9095917090FB80F9809392
:10248000B401911125C0897F877F10C08091B4016C
:1024900081FB222720F991E0922790FB81F980931C
:1024A000B4019923A9F08091B40181608093B401B3
:1024B0000FC08091B40183FB222720F991E092277D
:1024C00090FB83F9ECCF895301C080E00E940008A3
:1024D00081E0089580E00895809132028111109288
:1024E000320208959091310280913002892B20911F
:1024F0002F02982F922B9093C10180913202882352
:1025000089F0892B8093C101E3ECF1E097E080E052
:10251000915029F021912223D9F38F5FF9CF8111B6
:102520000E946C12E0918501F0918601309731F0A4
:102530000280F381E02D81EC91E009940895BF922F
:10254000CF92DF92EF92FF920F931F93CF93DF937F
:102550008C01C0908701D0908801E0908901F090B3
:102560008A018091330290913402A0913502B0919A
:102570003602C82AD92AEA2AFB2ACFE1D0E0D701BD
:10258000C6010C2E04C0B695A795979587950A9419
:10259000D2F780FD04C0219790F7B12C07C0BC2E64
:1025A000B8018C2F0E94DD1C0197A9F38B2DDF91C0
:1025B000CF911F910F91FF90EF90DF90CF90BF9040
:1025C0000895CF93DF93EC010E949F12BE010E94F9
:1025D000DD1CDF91CF91089527E0929F800D11249B
:1025E000682F669566956695982F977085E0689F29
:1025F000B001112440E050E080E0FB01E40FF51F42
:10260000EF5FFD4F208130E0092E02C036952795FF
:102610000A94E2F721703327042E01C0220F0A9496
:10262000EAF7822B4F5F5F4F4530510531F7089530
:1026300027E0929F800D1124E82FE695E695E69518
:10264000877051E001C0550F8A95EAF785E0E89F51
:10265000F0011124EF5FFD4F20E030E070E0408199
:10266000CB01022E02C0969587950A94E2F78170FD
:10267000819584278523842781932F5F3F4F2530C1
:10268000310569F7089560938701709388018093FD
:10269000890190938A010C9435200F931F9341E098
:1026A00050E060E070E004C0440F551F661F771FC4
:1026B0008A95D2F7409550956095709580918701E5
:1026C00090918801A0918901B0918A018A019B01B2
:1026D000082319232A233B23C901B8011F910F9115
:1026E0000C94431320912E028095822380932E0216
:1026F000982F977079F430E0482F082E000C550B76
:102700002417350739F08595859585950E944D13D9
:1027100010922E0208950F931F9341E050E060E065
:1027200070E004C0440F551F661F771F8A95D2F7CB
:102730008091870190918801A0918901B0918A01CF
:102740008A019B01082B192B2A2B3B2BC901B801AD
:102750001F910F910C9443136093330270933402D2
:1027600080933502909336020C94352080910002BC
:102770009091CF01891719F08F5F8770FBCF089573
:102780000F931F93CF93DF938091CE0182958F702B
:1027900009F05DC08091CB01882309F458C0809175
:1027A00000021091CF016091C9017091CA01C091DE
:1027B000CC01D091CD0191E06F3F09F090E0292F3D
:1027C00006E0811709F443C0209721F07F3F21F0F4
:1027D00030E003C031E001C0322F90E030FD34C062
:1027E000089FF001099FF00D1124DF01A053BE4F97
:1027F00011963C911197371327C03C91361324C092
:1028000012963C91129731111FC013964D915C9115
:1028100014974C1B5D0B483C5105B0F48091CE01E0
:102820008F7080618093CE01EB52FE4F80818F705C
:102830008061808389EC91E00E94D00BDF91CF9181
:102840001F910F910C94B61301968770BACFDF9148
:10285000CF911F910F9108958F929F92AF92BF9247
:10286000CF92DF92EF92FF920F931F93CF93DF935C
:10287000CDB7DEB761970FB6F894DEBF0FBECDBF00
:102880008C0185E0F801DE011D9601900D928A957C
:10289000E1F7D801DC901196EC9011971296CC904C
:1028A0009091C9012091CA014091CC015091CD0174
:1028B0004115510531F02F3F31F481E09F3F19F46C
:1028C00003C081E001C080E080FD58C1F801A38011
:1028D000B48089EC882E81E0982EF090CB01B50170
:1028E000641B750BFF2009F403C18091CE01382FC2
:1028F000307F683C710508F0CDC0311188C02E11C1
:1029000012C09D1110C0FC2CC1100DC08F708061D1
:102910008093CE01C4010E94D00B8091CE01D801DA
:1029200015968C9348C1A114B10439F0BFEFEB1296
:1029300006C081E0DB1203C003C081E001C080E07B
:1029400080FD03C081E08C2502C080E090E080FF24
:1029500010C04C2D6E2D8D2D0E94B210882349F091
:1029600089EC91E00E94D00BE9ECF1E086E0DF0118
:1029700099C0AB2839F0BFEFEB1206C081E0DB1243
:1029800003C003C081E001C080E080FD03C081E09E
:102990008C2502C080E090E0E82FE170BE2E80FF21
:1029A0002CC04C2D6E2D8D2D0E94B210F82E811151
:1029B00024C0DD86EE868D859E850E94E112292F3A
:1029C00022952F70223018F0243090F405C09F70AB
:1029D00059F0811109C0EFC09F7031F0D8011596F0
:1029E0009C91907F09F4E7C0805E883008F4E3C0D2
:1029F000C8010E94D00BFB2CDEC0FC2CCC2009F4BB
:102A0000DAC08091CE0181608093CE014EC02E113C
:102A100006C09D1104C0C11002C0F8018BC0DD8644
:102A2000EE868D859E850E940C20882369F1CC203E
:102A300059F12091CE01822F82958F7090E00297FC
:102A400074F08091C9019091CA0198878F8319868B
:102A5000BB86AA862C87CE0107960E94D00B86E003
:102A6000F801A9ECB1E001900D928A95E1F70E947E
:102A7000C0130DC02E15D9F0DD86EE868D859E859E
:102A80000E940C2081111DC0C8010E94D00BFF24A0
:102A9000F39491C03111EECF89EC91E00E94D00BFC
:102AA00086E0D4011D928A95E9F7F12C84C09D112E
:102AB000E3CFC110E1CFF8018583C8010E94D00B9C
:102AC00057C0CC2009F32091CE01822F82958F70C0
:102AD00090E0029724F28091C9019091CA019A83F3
:102AE00089831B82BD82AC822E83CE010196B5CF35
:102AF000683C7105E8F5FC2CCC2031F22E1127C082
:102B00009D1125C02091CE0120FD18C0822F8295F5
:102B10008F70482F50E04115510581F0F801258351
:102B20004F30510541F08F5F982F9295907F822F03
:102B30008F70892B8583C8010E94D00B86E0F80135
:102B4000A9ECB1E001900D928A95E1F734C0DD86E1
:102B5000EE868D859E850E940C20811180CF80910C
:102B6000CE0181608093CE01C8010E94D00B23C0AA
:102B700086E0D4011D928A95E9F71DC0CC2009F4A6
:102B800083CFDD86EE868D859E850E940C20F82EF3
:102B9000882309F479CF86E0F801A9ECB1E001902F
:102BA0000D928A95E1F78091C9019091CA010E9426
:102BB000E1120E94C0138F2D61960FB6F894DEBF0C
:102BC0000FBECDBFDF91CF911F910F91FF90EF907E
:102BD000DF90CF90BF90AF909F908F900895CF934C
:102BE000DF938A3011F481E003C08D3029F480E056
:102BF000DF91CF910C94751C682F80915C049091AB
:102C00005D0426E0FC01A6E5B4E001900D922A9552
:102C1000E1F7603E30F026E0FC0111922A95E9F7D9
:102C20000AC0F6E06F9FB00111246557784F46E067
:102C300050E00E94B623C0915C04D0915D0446E050
:102C400050E0BE0186E594E00E942724892B49F1DB
:102C50009E0126553240A90185E0569547958A95F3
:102C6000E1F781E090E0BC0102C0660F771F4A9552
:102C7000E2F74091540250915502462B572B2B5F9F
:102C80003F4F65E0369527956A95E1F702C0880FBA
:102C9000991F2A95E2F7842B952B909355028093E8
:102CA00054029E012055324040915302642F70E03F
:102CB000C9010E940D24481B463010F4240F311D19
:102CC000211582E0380710F020E030E02A5A3D4F0D
:102CD00030935D0420935C04DF91CF910895CF93EE
:102CE000DF93EC01FE018491882321F00E94EF150F
:102CF0002196F8CFDF91CF910895EF92FF920F9335
:102D00001F93CF93DF93EC017B0164E670E088E7CB
:102D10000E948E218C01EC0EFD1ECE15DF0561F0A8
:102D200017FD0AC0FE01849164E670E00E94E5216F
:102D30008C012196892B89F30E946922C801DF91B9
:102D4000CF911F910F91FF90EF900895EF92FF9216
:102D50000F931F93CF93DF937C018B010E941B077E
:102D6000811119C0E70101151105A1F08091E8005A
:102D700085FD0AC08091E8008E778093E8000E946C
:102D80001B07882381F307C089918093F1000150CC
:102D90001109E9CF80E0DF91CF911F910F91FF9052
:102DA000EF9008951F93CF93DF93CDB7DEB7AA9727
:102DB0000FB6F894DEBF0FBECDBFEBE4F2E080911A
:102DC000F100819322E0E335F207C9F780914C02CC
:102DD000833009F460C030F4813071F0823009F43E
:102DE0009AC0B1C08A3009F486C08B3009F46BC038
:102DF000893009F0A8C020C080914B02813A09F0C7
:102E0000A2C08091E800877F8093E80080914F0204
:102E100090915002892B21F468E08FE392E003C087
:102E200060E080E090E070E00E94A2078091E800FE
:102E30008B778093E80087C080914B02813209F044
:102E400082C080914F0290915002029708F07BC09F
:102E50008091E800877F8093E8008091E80082FD00
:102E600005C0809149028111F8CF6DC02091F30017
:102E70008091F20090E0922B029729F48091F1006A
:102E80008B7F813021F48091F10080933E0280910C
:102E9000E8008B7754C080914B02813A09F053C00F
:102EA00080914F0290915002892B09F04CC0809183
:102EB000E800877F8093E8008091E80080FFFCCFE6
:102EC00080911A0137C080914B028132E1F58091E7
:102ED0004F0290915002892BB1F58091E800877FD5
:102EE0008093E8000E944E0780914D0280931A0162
:102EF0000E94432028C080914B02813221F58091AD
:102F0000E800877F8093E8000E944E0780914E0280
:102F100080933D0218C080914B02813AA1F48091C8
:102F2000E800877F8093E8008091E80080FFFCCF75
:102F300080913D028093F1008091E8008E7780932C
:102F4000E8000E944E078091E80083FFCCC1809189
:102F50004B0290914C02492F50E04A30510508F045
:102F6000C2C1FA01EE59FF4F0C942124803821F0A0
:102F7000823809F0B8C108C0809147029091480298
:102F8000992389F082600FC080914F028F70873043
:102F900008F0A9C18093E9008091EB0085FB8827A8
:102FA00080F91092E9009091E800977F9093E800F3
:102FB0008093F1001092F10065C1282F2D7F09F058
:102FC00092C1882319F0823061F08DC180914D0249
:102FD000813009F088C1933009F080E08093480285
:102FE0002EC080914D0281112AC080914F028F70B6
:102FF0002FEF280F263008F076C18093E90020914A
:10300000EB0020FF1CC0933021F48091EB00806224
:1030100014C09091EB0090619093EB0021E030E0C0
:10302000A90102C0440F551F8A95E2F74093EA00B8
:103030001092EA008091EB0088608093EB00109280
:10304000E9008091E800877F20C181114CC1109177
:103050004D021F778091E3008078812B8093E300FD
:103060008091E800877F8093E8000E944E0780915E
:10307000E80080FFFCCF8091E30080688093E3004C
:10308000111102C082E001C083E0809349022BC18C
:103090008058823008F027C180914D0290914E02F5
:1030A0008C3D53E0950779F583E08A838AE2898332
:1030B0004FB7F894DE01139620E03EE051E2E32F93
:1030C000F0E050935700E49120FF03C0E295EF70C9
:1030D0003F5FEF708E2F90E0EA3010F0C79601C08E
:1030E000C0968D939D932F5F243149F74FBF8091F8
:1030F000E800877F8093E8006AE270E0CE010196E5
:103100000E94A207AEC040914F0250915002292F59
:10311000332723303105A9F068F42130310509F453
:10312000F1C02230310509F0DEC08BE390E0ECEF16
:10313000F6E044C02132310521F12232310571F12E
:10314000D2C0992781309105A1F058F0029709F07B
:10315000CAC0E9E4F7E0E4918E2F90E0E9E4F7E0FB
:103160002AC0E7E8F7E0E4918E2F90E0E7E8F7E087
:1031700022C0E7E7F7E0E4918E2F90E0E7E7F7E081
:103180001AC04115510509F4C2C04130510509F07A
:10319000AAC089E090E0E7E2F7E010C041155105D0
:1031A00009F4BAC04130510509F09DC082E390E0B6
:1031B000EAE8F6E003C0009709F495C02091E80022
:1031C000277F2093E800209151023091520282170C
:1031D000930708F49C0140E02115310589F18091A5
:1031E0004902882309F43DC08530D9F18091E80077
:1031F00083FD37C08091E80082FD2FC08091E800F8
:1032000080FFEACF4091F3008091F20090E0942B90
:103210002115310559F08830910540F444914093CF
:10322000F1003196215031090196F2CF41E0089723
:1032300009F040E08091E8008E778093E800CCCFE1
:103240004111CDCF0AC080914902882351F08530C9
:1032500041F08091E80083FD04C08091E80082FF86
:10326000F2CF8091E8008B778093E8003CC08038F3
:10327000D1F58091E800877F8093E80080914A0231
:103280008093F1008091E8008E778093E8000E949F
:103290004E0729C0811127C080914D0290914E02A6
:1032A0009927029704F58091E800877F8093E800D2
:1032B00010914D0210934A020E944E07111106C050
:1032C0008091E30087FD02C081E001C084E080932B
:1032D000490242E061EC81E00E946D0742E261EC4C
:1032E00082E00E946D078091E80083FF1AC0809100
:1032F000E800877F8093E8008091EB0080628093F4
:10330000EB000FC082E190E0E7E3F7E057CF89E000
:1033100090E0EEE0F7E052CF80E490E0ECEBF6E0F6
:103320004DCFAA960FB6F894DEBF0FBECDBFDF918A
:10333000CF911F9108951F920F920FB60F921124F3
:103340002F933F934F935F936F937F938F939F93AD
:10335000AF93BF93CF93DF93EF93FF93C091E900B7
:10336000CF708091EC00D82FD17080FDD0E8109202
:10337000E9008091F000877F8093F00078940E94AC
:10338000D2161092E9008091F00088608093F000DE
:10339000CD2BCF70C093E900FF91EF91DF91CF91DA
:1033A000BF91AF919F918F917F916F915F914F915D
:1033B0003F912F910F900FBE0F901F901895E8ED41
:1033C000F0E080818E7F80831092E2001092DA001C
:1033D0001092E100A0EEB0E08C9181608C9380812E
:1033E0008F77808319BCA7EDB0E08C918E7F8C9392
:1033F00080818F7E808310923C020895CF92DF926D
:10340000EF92FF920F931F93CF93DF93C8EDD0E01D
:1034100088818F7E8883E7EDF0E080818160808302
:1034200084E082BF81E080933C0288818E7F888324
:1034300002EE10E0F80110821092DA0081EEC82E40
:10344000D12CF601108288818F77888388818068EB
:10345000888388818F7D888319BC109249021092DD
:103460004A02109248021092470290EEE92EF12C87
:10347000F70180818B7F808388818160888342E02F
:1034800060E080E00E946D07F60180818E7F80837E
:10349000F801808181608083808188608083F7016A
:1034A00080818E7F8083888180618883DF91CF9146
:1034B0001F910F91FF90EF90DF90CF9008951F9292
:1034C0000F920FB60F9211242F933F934F935F9358
:1034D0006F937F938F939F93AF93BF93EF93FF93DC
:1034E0008091E10082FF09C08091E20082FF05C067
:1034F0008091E1008B7F8093E1008091DA0080FF72
:103500002AC08091D80080FF26C08091DA008E7F8B
:103510008093DA008091D90080FF18C080E189BDD6
:1035200082E189BD09B400FEFDCF81E080934902AC
:1035300080913C0281110FC00E94DF190E94FE1988
:103540008091E20084608093E20005C019BC109273
:10355000490210923C028091E10080FF17C08091E7
:10356000E20080FF13C08091E2008E7F8093E20032
:103570008091E20080618093E2008091D8008062B7
:103580008093D80019BC85E0809349028091E100C6
:1035900084FF32C08091E20084FF2EC080E189BDAB
:1035A00082E189BD09B400FEFDCF8091D8008F7DF6
:1035B0008093D8008091E1008F7E8093E10080911C
:1035C000E2008F7E8093E2008091E2008160809330
:1035D000E20080914A02882311F084E007C08091C4
:1035E000E30087FD02C081E001C083E080934902CF
:1035F0000E9443200E94431C8091E10083FF27C06A
:103600008091E20083FF23C08091E100877F809357
:10361000E10082E08093490210924A028091E10029
:103620008E7F8093E1008091E2008E7F8093E200A4
:103630008091E20080618093E20042E060E080E0FF
:103640000E946D078091F00088608093F000FF91E8
:10365000EF91BF91AF919F918F917F916F915F910A
:103660004F913F912F910F900FBE0F901F90189583
:103670009091780192FF0DC0282F2871283019F4FD
:10368000877F846006C0282F2471243011F48B7F3B
:10369000886093FF0DC0282F2871283119F4877E88
:1036A000846106C0282F2471243111F48B7E886137
:1036B0002091790120FF0DC0382F3871383019F46E
:1036C000877F816006C0382F3171313011F48E7FD1
:1036D000886021FF0DC0282F2871283119F4877EBA
:1036E000816106C0282F2171213111F48E7E8861FD
:1036F00094FD877E08951F93CF93DF93CDB7DEB7F8
:1037000067970FB6F894DEBF0FBECDBF4B8B5C8BB7
:103710006D8B7E8B8F8B86E09E01235F3F4FD9019F
:10372000E82F1D92EA95E9F795E0FE017396D9011D
:1037300001900D929A95E1F7F901DE01179601903B
:103740000D928A95E1F7CE0107960E942C14811103
:103750003EC086E0FE013796DE01119601900D9283
:103760008A95E1F7FF81E8856A857B85611571059A
:1037700031F0EF3F31F481E0FF3F19F403C081E005
:1037800001C080E080FD23C02091CF0130E0C9015D
:103790000196877099274091000250E084179507A1
:1037A00079F1F983EA837D836C8396E0929FD0015F
:1037B000939FB00D1124A053BE4FFE01319601908E
:1037C0000D929A95E1F78093CF010E94B61316E00F
:1037D000809100029091CF018917F9F0189FC001E4
:1037E000112480539E4F0E942C148823B1F08091A5
:1037F000000290E001968770992780930002E8CF3D
:103800000E9443201092CF0110920002E9ECF1E0F7
:1038100086E0DF011D928A95E9F767960FB6F89466
:10382000DEBF0FBECDBFDF91CF911F9108952091D4
:103830006704309168042817390771F09093680481
:1038400080936704E0918501F0918601309721F023
:103850000084F185E02D099408952091650430914C
:1038600066042817390771F0909366048093650405
:10387000E0918501F0918601309721F00680F78173
:10388000E02D09940895E0918501F091860130972B
:1038900021F00190F081E02D099480E0089580915D
:1038A000B2018823F9F00E94F810DC01CB01805AA4
:1038B0009541AF4FBF4F8093AD019093AE01A09360
:1038C000AF01B093B0018091B10181110BC062E0F2
:1038D00070E08BEC9CE00E947D16892B19F481E04E
:1038E0008093B1018091B1010895CF93E82F209189
:1038F0005C0430915D042655324040915302642FA0
:1039000070E0C9010E940D24481B842FEE2351F062
:1039100066E00E940124C82FC150A8F080E20E94F6
:10392000EF15FACFA901480F511D4115524018F06B
:1039300080E020E030E0280F311D2A5A3D4F3093BF
:103940005D0420935C04CF910895809162048111FD
:1039500016C088EC9091E30097FD0EC0EFE3FCE900
:103960003197F1F700C000008150A1F70E94DF19E4
:103970001092490282E001C081E08093620481E0FC
:1039800090916204913009F080E00895F894E82F56
:10399000E295EF70F0E031A1282F2F7081E090E0E8
:1039A00001C0880F2A95EAF7982F9095932391A349
:1039B00092A1892B82A378940895CF93DF9326E474
:1039C000829FC0011124FC0147E0749FE00DF11DAE
:1039D0001124E60FF11DEE0FFF1FEE58FA4FC591AF
:1039E000D491CE01C238D10569F1B0F4C133D1050B
:1039F00009F475C048F4C932D10509F469C0CA3266
:103A0000D10509F473C085C0C533D10509F459C087
:103A1000C933D105B9F07DC0C33ED10571F138F489
:103A2000C03ED105B1F0C23ED10511F172C0C63E13
:103A3000D105B9F1C73ED105C9F1C43ED10509F0A0
:103A400068C024C02091780120FD5DC021FD5BC0CD
:103A500060C02091780120FD50C02091790120FFA5
:103A600042C18091780184FD3CC183EE90E03BC16E
:103A70002091780122FF37C1F4CF8091780182FD37
:103A80003FC08091790180FD3EC0EBCF209179014C
:103A900021FF29C18091780184FD23C187EE90E048
:103AA00022C12091780123FF1EC1F4CF80917801BB
:103AB00083FD2CC08091790181FFECCF84EE90E0F2
:103AC00012C12091780125FF0EC189E290E00BC15F
:103AD0002091780125FF07C185E390E004C1209182
:103AE000780126FF00C18AE290E0FDC020917801B4
:103AF00026FFF9C081E390E0F6C089E390E0F3C0CF
:103B000082EE90E0F0C080EE90E0EDC086EE90E0B6
:103B1000EAC0C11552E5D50708F06BC0C11521E513
:103B2000D20728F09C2F8827816F906ADCC0C83E9E
:103B3000D10570F5C03ED10508F0D5C0C83AD10511
:103B4000B8F4C53AD10550F08C2F855AC82FD0E073
:103B5000CC5CDE4F888190E09064C5C0C130D10557
:103B600009F4C1C008F4BDC0249708F4BAC0BBC0B2
:103B7000CF3BD10508F0B5C08C2F885AC82FD0E0B4
:103B8000CC0FDD1FC95CDE4F888199819464ABC086
:103B9000C11540E5D407F0F0CE01F4E09695879585
:103BA000FA95E1F7282F23703C2F337081E090E0E5
:103BB00002C0880F991F3A95E2F79C68922B2C2F30
:103BC0002F702695269550E2259F90011124822B77
:103BD000932B89C0C11550E4D50720F0CE019F700A
:103BE000906A81C09E013A9521153F4108F47BC03F
:103BF00078C0C11556E5D50708F03FC0C11585E569
:103C0000D80748F08C2F0E94381B8F7190E0982FB6
:103C10008827906268C0C11524E5D20728F09C2F40
:103C20008827846F906A5FC09E01237033279C2F82
:103C300096959695C115D34580F441E050E002C0B9
:103C4000440F551F2A95E2F780E2989F90011124B6
:103C5000CA01822B932B9C6846C041E050E002C011
:103C6000440F551F2A95E2F780E2989F9001112496
:103C7000CA01822B932B9A6836C0C1155AE5D50725
:103C8000B0F4C11589E5D80718F18C2F8F700E9408
:103C9000381B9E0194E0369527959A95E1F72F7091
:103CA00030E0322F22273069A901482B0FC0CE0106
:103CB000905681159042A8F48D2F8F710E94381B69
:103CC0009E01332730628F71A901582BCA010BC0A6
:103CD000C11528E5D20728F09C2F8827806F906AAD
:103CE00002C080E090E0DF91CF9108950E944320D0
:103CF0002FEF84E39CE0215080409040E1F700C02A
:103D0000000087E797E790930108809300089AE006
:103D100088E10FB6F894A895809360000FBE909349
:103D20006000FFCF0F931F93CF93DF93C42F122F09
:103D3000FC0182818823C9F04093BF010E940411D5
:103D4000909364048093630480E28C0F883008F0C1
:103D50006AC0C77081E001C0880FCA95EAF7DF9199
:103D6000CF911F910F910C9459208091BF0148135E
:103D70004AC020916304309164044FB7F894809155
:103D8000370290913802A0913902B0913A024FBFA8
:103D9000821B930B883C9105B0F5D0E2D10FC1177F
:103DA000B9F080E28C0F883040F4C77081E001C028
:103DB000880FCA95EAF70E944E20D83048F481E077
:103DC000912F977001C0880F9A95EAF70E945920A9
:103DD000802F0E94BF20093349F4FFEF27EE83E0D4
:103DE000F15020408040E1F700C00000802F0E9489
:103DF0006320D830C0F4212F277081E001C0880FE4
:103E00002A95EAF70AC080E28C0F883060F4C77008
:103E100081E001C0880FCA95EAF7DF91CF911F9129
:103E20000F910C944E20DF91CF911F910F91089527
:103E30008F929F92AF92BF92CF92DF92EF92FF92BA
:103E40000F931F93CF93DF930BE111E08CE6C82E05
:103E500081E0D82E90E2892E91E0992E7601D0E073
:103E6000AA24A394B12CB801D8018C91F894E82F1E
:103E7000E295EF70F0E021A18F70A50102C0440F20
:103E8000551F8A95E2F7CA01922F982B91A392A110
:103E90008095892382A3789450EA5A95F1F7E5E258
:103EA000F1E020E030E0C0E04191842F82958F70F6
:103EB00090E0DC0190968C9190E04F7002C0959557
:103EC00087954A95E2F780FD07C08A2D022E01C032
:103ED000880F0A94EAF701C080E0C82B2F5F3F4F9C
:103EE0002730310509F70F5F1F4FFB0180810E94CA
:103EF000C61CD7018C91C81719F0CC9381E001C082
:103F000080E0D82BBFEFEB1AFB0A8016910609F070
:103F1000AACFE09177010E2F10E0DD2349F081E078
:103F2000809360040E94041190935F0480935E0468
:103F300080916004882309F120915E0430915F0430
:103F40004FB7F8948091370290913802A0913902CE
:103F5000B0913A024FBF821B930B069770F0F801A5
:103F6000E558FE4FD6018D916D018193B1E7CB16D7
:103F7000B1E0DB06B9F7109260040E94A51C88230B
:103F8000B1F0C09176010E946923892B21F5EC2FB5
:103F9000F0E0E558FE4F80E090E0DC01AA59BE4F0A
:103FA0002C912193019685309105B9F711C0E091CC
:103FB0007701F0E0E558FE4F80E090E02191DC01D0
:103FC000AA59BE4F2C93019685309105B9F716C0BA
:103FD0001092610413C0809161048F5F809361042B
:103FE000863060F0E0917601F0E0E558FE4F80E029
:103FF00090E01192019685309105D9F78D2FDF91D0
:10400000CF911F910F91FF90EF90DF90CF90BF90D5
:10401000AF909F908F9008950E94E112292F2F70EA
:10402000E92FE295EF704E2F50E0FA013297EE3013
:10403000F105B8F4E459FF4F0C942124803F99F026
:1040400018F4883E70F40FC0843F59F40CC0883EC9
:1040500050F0813F31F407C0822F86958695869572
:10406000089580E0089581E0089510923002109242
:104070002F020E94721280E090E00E942D1C80E0CE
:1040800090E00C94171C1092310286E0E3ECF1E012
:10409000DF011D928A95E9F70C943520882341F0C1
:1040A0008095909131028923809331020C94721291
:1040B0000895882339F090913102892B8093310241
:1040C0000C9472120895882309F458C0682F82381E
:1040D00069F40E94431C81FF51C069E381EC91E0C7
:1040E0000E9446110E94721269E30EC0833891F457
:1040F0000E94431C80FF42C063E581EC91E00E9476
:1041000046110E94721263E581EC91E00E94391120
:104110000C947212843869F40E94431C82FF2EC0F2
:1041200067E481EC91E00E9446110E94721267E4FC
:10413000EBCF8CEF860F813A38F380E2860F883020
:1041400070F4677081E090E001C0880F6A95EAF72B
:10415000809590913102892380933102D9CF8BE5EC
:10416000860F833020F480E090E00C942D1C685A78
:10417000673120F480E090E00C94171C0895CF93F1
:10418000882309F4C3C0C82F8238B1F40E94431CAD
:1041900081FDBCC069E381EC91E00E9446110E9460
:1041A00072122FEF81EE94E0215080409040E1F7B1
:1041B00000C0000069E317C08338E1F40E94431C8B
:1041C00080FDA4C063E581EC91E00E9446110E944D
:1041D00072122FEF81EE94E0215080409040E1F781
:1041E00000C0000063E581EC91E00E943911CF919D
:1041F0000C9472128438B1F40E94431C82FD86C074
:1042000067E481EC91E00E9446110E9472122FEF48
:1042100081EE94E0215080409040E1F700C0000022
:1042200067E4E1CF8CEF8C0F813A58F580913B0227
:10423000882319F0813051F01EC080913102823202
:1042400009F04CC08C2F0E94DB1118C08091310204
:104250008232C1F3C43149F018F4CB3049F03CC08C
:10426000C93219F0C83321F037C010923B0234C074
:1042700081E0817003C010923B0230C0811146C0C2
:104280002DC080E28C0F883068F4C77081E090E028
:1042900001C0880FCA95EAF790913102892B80936B
:1042A0003102A5CFEBE5EC0FE33040F4F0E0EC5C3D
:1042B000FE4F808190E0CF910C942D1CC85AC731DD
:1042C00028F5EC2FF0E0EE0FFF1FE95CFE4F808138
:1042D0009181CF910C94171C80E0CBCFE3ECF1E0FF
:1042E00089EC91E02191C21749F08E179F07D1F711
:1042F0006C2F81EC91E00E94461179CF6C2F81ECFC
:1043000091E00E9439110E947212F2CFCF9108956C
:104310001092B9008CE08093B8000895EF92FF925C
:104320000F931F93CF93DF93182FEB011092BC00D4
:1043300084EA8093BC000E9404117C018091BC003F
:1043400087FD0EC0CF3F8FEFD807C1F30E94041145
:104350008E199F098C179D0788F38EEF9FEF2EC053
:104360008091B900887F883041F08091B900887FC2
:10437000803119F08FEF9FEF21C01093BB0084E8CC
:104380008093BC000E9404118C018091BC0087FDC9
:104390000CC0CF3F8FEFD807C1F30E940411801BE0
:1043A000910B8C179D0788F3D8CF8091B900887F37
:1043B000883111F08034F1F680E090E0DF91CF9108
:1043C0001F910F91FF90EF9008950F931F93CF933C
:1043D000DF93EB018093BB0084E88093BC000E94D4
:1043E00004118C018091BC0087FD0EC0CF3F8FEF80
:1043F000D807C1F30E940411801B910B8C179D07F5
:1044000088F38EEF9FEF0CC02091B900287F81E0E8
:1044100090E0283211F480E090E091958195910927
:10442000DF91CF911F910F910895CF92DF92EF927C
:10443000FF920F931F93CF93DF936B018A01790152
:10444000B9010E948E21E6010C0D1D1DC017D10778
:1044500061F424E92093BC00DF91CF911F910F916B
:10446000FF90EF90DF90CF90089597FDF2CFB701C6
:1044700089910E94E521EACFCF92DF92EF92FF92DD
:104480000F931F93CF93DF93C62F6A017901B80171
:104490000E948E2197FD11C0B8018C2F0E94E5214A
:1044A000E601EC0CFD1CCE15DF0539F097FD05C0CB
:1044B000B80189910E94E521F6CF24E92093BC0040
:1044C000DF91CF911F910F91FF90EF90DF90CF90F0
:1044D000089584E98093BC0008958EE14A9B02C050
:1044E0008150E1F74A9BFECF08955A9880E28A9561
:1044F000F1F75A9A0895FC012AE02A95F1F728E08D
:1045000090E080E031E040E14A95F1F7880F4A9B66
:1045100002C08160932700C0000040E14A95F1F796
:10452000215089F720E12A95F1F729B100C0000058
:1045300030E13A95F1F722FB222720F992272081DA
:10454000920F90830895EF92FF920F931F93CF9352
:10455000DF931F92CDB7DEB719828C017C01E60E86
:10456000F11C0E151F0551F00E946D22CE0101961F
:104570000E947B22F80181938F01F3CF81E0998122
:10458000911180E00F90DF91CF911F910F91FF90DB
:10459000EF90089590936A0480936904529A5A9A0E
:1045A000089590936A048093690452985A9AEA9AFB
:1045B000E9E6F0E080818F7C80830895615091E08E
:1045C00001C0990F6A95EAF720E031E0992361F084
:1045D000492F482319F05A9A232701C05A9840E2DC
:1045E0004A95F1F79695F2CF222311F05A9A01C01D
:1045F0005A9880E28A95F1F75A980895FF920F939E
:104600001F93CF93DF93EC018C01060F111DC01790
:10461000D10741F0F9900E94752268E08F2D0E9429
:10462000DE22F5CFDF91CF911F910F91FF9008957A
:104630001F920F920FB60F9211242F933F934F9317
:104640005F936F937F938F939F93AF93BF93CF931A
:10465000DF93EF93FF935A98529AC0916904D091D7
:104660006A046D81662321F08E819F810E94FE2263
:104670000E94752280E18A95F1F75A9852985A9AC9
:1046800080E18A95F1F76A81662351F08B819C81E4
:104690000E94A322E881F981811104C082E003C055
:1046A000E881F98188E080830E946D22FF91EF917B
:1046B000DF91CF91BF91AF919F918F917F916F913A
:1046C0005F914F913F912F910F900FBE0F901F90D0
:1046D0001895CF93DF93C0916904D0916A04F89440
:1046E000529A5A9885E08A95F1F7000052985A9AA2
:1046F00080E28A95F1F74A9B0AC0529A5A9AE88159
:10470000F98181E08083789481E090E02CC06D8114
:10471000662381F08E819F810E94A32281110AC0AD
:10472000529A5A9AE881F98182E08083789482E0F3
:1047300090E019C00E946D2280E28A95F1F75A98A4
:10474000529A80E18A95F1F76A81662321F08B8184
:104750009C810E94FE220E947522E881F9811082CC
:10476000789480E090E0DF91CF910895FB01DC0127
:1047700002C005900D9241505040D8F70895F99924
:10478000FECF92BD81BDF89A992780B50895A8E122
:10479000B0E042E050E00C94F323262FF999FECFCD
:1047A00092BD81BDF89A019700B4021639F01FBA84
:1047B00020BD0FB6F894FA9AF99A0FBE08950396A1
:1047C000272F0E94CE230E94CD23252F0E94CE2387
:1047D000242F0C94CE230196272F0E94CE230C94D5
:1047E000CD23DC01CB01FC01F999FECF06C0F2BD5F
:1047F000E1BDF89A319600B40D9241505040B8F79F
:104800000895991B79E004C0991F961708F0961B2C
:10481000881F7A95C9F780950895AA1BBB1B51E1A3
:1048200007C0AA1FBB1FA617B70710F0A61BB70B20
:10483000881F991F5A95A9F780959095BC01CD01C5
:104840000895EE0FFF1F0590F491E02D0994FB01F0
:10485000DC0104C08D910190801921F44150504039
:0C486000C8F7881B990B0895F894FFCF4F
:10486C006B01006B01056601010021007F22000332
:10487C00B106EF06B006EB06E706016697C63435BF
:10488C000000000000F5F6F731333236000810183E
:10489C0018100800818283E200E900EA00B500B636
:1048AC0000B700CD008301CC008A01920194012154
:1048BC0002230224022502260227022A02B300B494
:0648CC00006F0070000007
:00000001FF
