:100000000C94F8010C9490090C943F020C943F025C
:100010000C943F020C943F020C943F020C943F025C
:100020000C943F020C943F020C94C0200C9492213B
:100030000C943B170C943F020C943F020C943F022B
:100040000C943F020C943F020C943F020C943F022C
:100050000C943F020C9488170C943F020C943F02BE
:100060000C943F020C943F020C943F020C943F020C
:100070000C943F020C943F020C943F020C943F02FC
:100080000C943F020C943F020C943F020C943F02EC
:100090000C943F020C943F020C943F020C943F02DC
:1000A0000C943F020C943F020C943F02E60CE60CC9
:1000B000180D180D650D830DA40EA40E8E0D230EC4
:1000C000340E340E940EA40EA40E9D0E440F440F55
:1000D000560F560F4D0F560F560F560F440F440F25
:1000E000520F560F560F520FFF2126221E23262293
:1000F0001E23722295221E23EC22FB2235001E00B5
:100100001F0020002100220023002B0014001A00F1
:100110000800150017002F00E1000400160007007A
:1001200009000A004B00E0001D001B00060019003A
:1001300005004F00E3002C005000E2002900280DCC
:10014000A80024002500260027002D002E002A00EC
:1001500030001C0018000C001200130031004E008B
:100160000B000D000E000F00330034005100110091
:1001700010003600370038004C000153AA0002532B
:10018000A90052004C00280001003A003B003C004E
:100190003D003E003F00010001000100520001004F
:1001A0000100010001000100500051004F0001005A
:1001B0000100010001000100010001000100010037
:1001C00001000100010001000100010001004000E8
:1001D00041004200430044004500010001000100CD
:1001E0000100010001000100010001000100010007
:1001F00001000100520001000100010001000100A6
:10020000500051004F000053010002530100010053
:1002100001000100010001000100010001000100D6
:1002200001000100010001000100010001000100C6
:1002300001000100010001000100010001000100B6
:100240000100010001000100005C0100010001004B
:100250000100010001000100010001000100530044
:100260000100560057000100010001005F0060001E
:10027000610001000100010001005C005D005E0002
:10028000550001000100010059005A005B005400B4
:1002900001000053010001530100010062006300EE
:1002A0002C03440061006300740079006C002D0091
:1002B0004D0061006E00750066006F0072006D00F9
:1002C00020002800350078003700290000000E03C8
:1002D0007400730068006F00720074000000040373
:1002E000090409023B00020100A0FA090400000110
:1002F00003010100092111010001224000070581CD
:100300000308000A0904010001030000000921118B
:100310000100012281000705820320000A1201105A
:1003200001000000084D44373501000102000105BD
:10033000010902A10185020901A10005091901298C
:10034000051500250195057501810295017503814B
:10035000010501093009311581257F950275088154
:100360000609381581257F950175088106050C0A57
:1003700038021581257F950175088106C0C00501E9
:100380000980A101850319012AB700150126B700CC
:10039000950175108100C0050C0901A101850419A2
:1003A000012AA002150126A002950175108100C046
:1003B00005010906A101050719E029E71500250136
:1003C00095087501810295017508810105071900DD
:1003D00029FF150026FF00950675088100050819FC
:1003E000012905950575019102950175039101C0DB
:1003F00011241FBECFEFDAE0DEBFCDBF04B603FE8F
:1004000027C080917D0290917E02A0917F02B091E1
:1004100080028730904BA740B04BD1F410927D0200
:1004200010927E0210927F021092800214BE84B756
:10043000877F84BF0FB6F894A8958091600088618B
:1004400080936000109260000FBEE0E0F8E3099531
:1004500011E0A0E0B1E0E8E8F7E402C005900D92F9
:10046000AA39B107D9F722E0AAE9B1E001C01D928B
:10047000AD37B207E1F70E94001E0C94C2230C9422
:10048000000081E0089581E008950C9443020895EE
:100490000C9447021F93CF93DF9300D000D01F929C
:1004A000CDB7DEB749835A836B833091BC01898114
:1004B0009A81311114C0662359F0222349F00E9419
:1004C000B714182F682F89819A810E94601403C085
:1004D0000E948B14182F69817A81812F04C00E9499
:1004E000B71469817A810F900F900F900F900F9041
:1004F000DF91CF911F910C94FC02FC01262F4081CB
:1005000051816281738184810C944A02CF93DF937D
:10051000EC0160E00E947D02BE01DF91CF910C945E
:1005200048020E94E915811102C00E9490160C94A5
:1005300018050C94140508950E94320F0E949B0226
:100540002FEF84E39CE0215080409040E1F700C011
:1005500000000C94AE170F931F93CF93DF93EC0121
:1005600061E00E947D028C01BE010E944502882349
:1005700049F1BE01C8010E943907882319F1BE0163
:10058000C8010E948B078823E9F0BE01C8010E94C0
:10059000B6088823B9F08A81882369F001158CE5B3
:1005A000180731F00F3D1C4531F40E9490160AC027
:1005B0000E949C0207C0CE01DF91CF911F910F9145
:1005C0000C94410280E0DF91CF911F910F9108952B
:1005D00008950C94E80281E008950C94EB02CF9307
:1005E000C82F0E94E9028C2F0E94ED02CF9108953E
:1005F00080E090E00895089526E4829FC0011124D0
:10060000FC0127E0729FE00DF11D1124E60FF11DA2
:10061000EE0FFF1FE450FF4F859194910895880FCE
:10062000991FFC01E056FD4F859194910895CF9359
:10063000DF930E94FC020E942F04EC01811590457B
:1006400008F041C0C11580E4D80708F0D1C0C83E09
:10065000D10510F5C03ED10508F0FDC0C83AD1055E
:1006600078F4C53AD10508F0A2C0C130D10509F42B
:10067000F2C008F4EEC0C430D10508F0ECC0E9C007
:10068000CF3BD10508F49BC0C03CD10508F4E1C0C4
:10069000CE01805C91099EC0C11590E2D90758F443
:1006A000C11521E0D20708F0D6C0C03FD10508F43B
:1006B000D0C0D065D0C0C11580E3D80708F08EC087
:1006C000CE019F7087C0C11595E5D90708F043C0DA
:1006D000C11524E5D20708F0A2C0C11582E5D807EC
:1006E00008F5C11591E5D90708F085C0CE0174E081
:1006F000969587957A95E1F783709C2F937021E00A
:1007000030E002C0220F331F9A95E2F73C68382B85
:10071000CF70C695C69580E2C89FE0011124C22B18
:10072000D32B99C09E01237033278C2F86958695F5
:10073000C115D34508F064C0C1E0D0E002C0CC0FC1
:10074000DD1F2A95E2F720E2829FC0011124C82B09
:10075000D92BDC6880C0C11529E5D207A0F4C115EA
:1007600088E5D80708F060C0C11596E5D90708F0FC
:1007700070C08C2F0E94C3048F71C82FD0E0DC2F73
:10078000CC27D06268C0C1152AE5D20708F451C051
:10079000CE0190568115904208F05BC08D2F8F716D
:1007A0000E94C304DD27D0628F71D82B54C0C55A74
:1007B000D0E0C65BDE4FC881D0E0D0644CC0C85AE0
:1007C000D0E0CC0FDD1FC45EDE4F0990D881C02D74
:1007D000D46441C00E940F03EC013DC0CE019927B3
:1007E000D3FF03C0EC01D86C36C0EC01D06C33C031
:1007F000DF70D06A30C0DC2FCC27C16FD06A2BC02D
:10080000C1E0D0E002C0CC0FDD1F2A95E2F720E264
:10081000829FC0011124C82BD92BDA681CC0DC2FA1
:10082000CC27C46FD06A17C0DC2FCC27C06FD06A2A
:1008300012C08C2F8F700E94C30494E0D695C79588
:100840009A95E1F7CF70D0E0DC2FCC27D069C82B88
:1008500002C0C0E0D0E0CE01DF91CF910895823890
:10086000910569F1B0F48133910509F46DC048F444
:100870008932910509F463C08A32910509F469C08F
:1008800008958533910509F455C089339105B9F070
:100890000895833E910569F138F4803E9105B1F0E9
:1008A000823E910509F10895863E9105A9F1873EA2
:1008B0009105B9F1843E910509F064C023C02091EF
:1008C0006E0220FD4FC021FD4DC0089580916E0243
:1008D00080FD44C080916F0280FF44C080916E0211
:1008E00084FD42C083EE4DC080916E0282FF38C00D
:1008F000F5CF80916E0282FD33C080916F0280FD42
:1009000031C0ECCF80916F0281FF32C080916E02C6
:1009100084FD2AC087EE35C080916E0283FF26C019
:10092000F5CF80916E0283FD21C080916F0281FD21
:100930001FC0ECCF80916E0285FD1CC01DC0809150
:100940006E0285FD19C016C080916E0286FD16C02C
:1009500017C080916E0286FD13C010C089E311C0DC
:1009600082EE0FC080EE0DC080E00BC086EE09C0A5
:1009700084EE07C089E205C085E303C08AE201C0B6
:1009800081E390E0089590916E0292FF0DC0282FB0
:100990002871283019F4877F846006C0282F2471BD
:1009A000243011F48B7F886093FF0DC0282F2871AD
:1009B000283119F4877E846106C0282F24712431E0
:1009C00011F48B7E886120916F0220FF0DC0382FBB
:1009D0003871383019F4877F816006C0382F317143
:1009E000313011F48E7F886021FF0DC0282F2871CF
:1009F000283119F4877E816106C0282F21712131A9
:100A000011F48E7E886194FD877E0895E82FF0E0D2
:100A1000E25AFD4F80810895089580EA8A95F1F7A2
:100A2000089508950C9411050C9412050C94110569
:100A30000C941605F894E82FE295EF70F0E031A1E0
:100A4000282F2F7081E090E001C0880F2A95EAF7E7
:100A5000982F9095932391A392A1892B82A37894A8
:100A6000089508950F931F93CF93DF930E947F06FD
:100A70008091000180910001811102C095E001C0C8
:100A800090E09093690285E0891B8093680286E676
:100A90000E941A0587E90E941A0586EC0E941A0531
:100AA00084E30E941A0585E30E941A05CDE4D1E093
:100AB00004E511E089910E941A050C171D07D1F772
:100AC000E4E5F2E0AEE5B2E011921D9282E0EE358F
:100AD000F807D1F785E00E9429060E949102DF9174
:100AE000CF911F910F910C9489060E946006882374
:100AF00009F18091680290E0825A9D4F0E949C0605
:100B0000811114C080919A018F5F80939A01863081
:100B100078F0E0916802F0E0E25AFD4F80E090E06A
:100B20001192019685309105D9F702C010929A0171
:100B30000C9499028091690290E0825A9D4F0E9424
:100B4000B7060C9431058F929F92AF92BF92CF92CD
:100B5000DF92EF92FF920F931F93CF93DF9384E581
:100B6000A82E81E0B82EC4E5D2E099E5E92E91E007
:100B7000F92E912C01E010E06501F5018081F894D7
:100B8000E82FE295EF70F0E021A18F70A80102C07C
:100B9000440F551F8A95E2F7CA01922F982B91A313
:100BA00092A18095892382A378940E940D05EDE49B
:100BB000F1E020E030E0812C4191A42FA295AF70AC
:100BC000B0E090968C9190E04F7002C0959587951B
:100BD0004A95E2F780FD07C0802F022E01C0880FE2
:100BE0000A94EAF701C080E0882A2F5F3F4F273040
:100BF000310511F75FEFA51AB50AF60180810E9451
:100C00001A058881881619F0888281E001C080E089
:100C1000982A2196EA14FB0409F0AECF609169028C
:100C200070E0625A7D4F292D45E084E592E00E94F4
:100C30002A060E947505892DDF91CF911F910F9192
:100C4000FF90EF90DF90CF90BF90AF909F908F90EC
:100C500008950895FF920F931F93CF93DF938C0114
:100C6000F62ED72FC42F222349F081E080939D01D7
:100C70000E946D1790939C0180939B0180919D0130
:100C80008823C1F080919B0190919C010E9479176B
:100C9000069780F0EF2DFD2FD8014C2F50E0CD01AD
:100CA000801B910B841795071CF48D918193F7CFCE
:100CB00010929D01DF91CF911F910F91FF900895A8
:100CC00080919E01811112C08091D8008061809333
:100CD000D8008AE18A95F1F700C08091D90080FDA3
:100CE00002C082E001C081E080939E0181E090918A
:100CF0009E01913009F080E008950C9460060E94F6
:100D00007D06809300010E94600681110C9490067C
:100D100008950E946006811102C00C949606089501
:100D200061E070E081E091E00C94420961E070E0E4
:100D300081E091E00C944909CF93DF93D82FC92F1C
:100D40000E94E109892B79F4ED2FFC2F80E090E0DF
:100D5000DC01A056BE4F2C91219301968530910560
:100D6000B9F781E001C080E0DF91CF91089520E0E4
:100D700030E0FC014191CF01F901E056FE4F408384
:100D80002F5F3F4F25303105A1F708950F931F9333
:100D9000CF93DF93C42FD22FFC0182818823C9F027
:100DA0004093A7010E946D179093A6018093A5011F
:100DB00080E28C0F883008F057C0C77081E001C016
:100DC000880FCA95EAF7DF91CF911F910F910C948C
:100DD000A20C8091A701481330C08091A501909189
:100DE000A6010E947917883C910538F510E21D0F85
:100DF000CD17B9F080E28C0F883040F4C77081E0E5
:100E000001C0880FCA95EAF70E94A90C183028F58E
:100E100081E09D2F977001C0880F9A95EAF70E9494
:100E2000A20C802F0E948F0C1830F0F4D77081E054
:100E300001C0880FDA95EAF70AC080E28C0F88308B
:100E400098F4C77081E001C0880FCA95EAF7DF9176
:100E5000CF911F910F910C94A90C802FDF91CF910E
:100E60001F910F910C948F0CDF91CF911F910F91D7
:100E700008950F939C01CB01243F4CE5340731F1D9
:100E800088F4293DFCE53F07D9F02A3D4CE53407BD
:100E900079F1283D3C45A9F506E221EE41EE68EDE9
:100EA0007CE52BC0263FFCE53F07E1F0A8F0273F9B
:100EB0003C4539F507E225EE46EE67EF7CE51DC0BF
:100EC00007E225EE45EE69ED7CE517C006E221EE6E
:100ED00040EE64EF7CE511C007E225EE44EE65EFDD
:100EE0007CE50BC006E221EE42EE66EF7CE505C034
:100EF00008E221E045EE6AED7CE50E94C60680E04E
:100F000008C0FC018281882319F01092A70101C05A
:100F100081E00F910895CF93DF93EC01FB01828173
:100F2000882309F41FC1C230FCE5DF0708F41BC1A8
:100F3000C6319CE5D90738F09E012B5F3C4529302E
:100F4000310508F010C10E94FC1590936F02809348
:100F50006E02C031ECE5DE0709F4C3C008F041C001
:100F6000C8308CE5D80709F49AC0F0F4C430ECE539
:100F7000DE0709F487C068F4C2308CE5D80709F4AD
:100F800077C0C330DC4509F0E3C080916E02826017
:100F900076C0C630ECE5DE0709F46EC008F07BC011
:100FA00080916E0288606BC0CC308CE5D80709F464
:100FB00085C068F4CA30ECE5DE0709F474C008F0B7
:100FC00079C00E94320F80916E02806858C0CE3086
:100FD0008CE5D80709F476C008F07FC080916E02D6
:100FE0008BC0CC3FECE5DE0709F44FC018F5C331E8
:100FF0008CE5D80709F47DC078F4C131ECE5DE0753
:1010000009F473C0C231DC4509F0A2C00E94320F5E
:1010100080916E028F7733C0C5318CE5D80709F413
:1010200072C008F486C0CB3FDC4509F091C08091C6
:101030006F023EC0C115FDE5DF0709F45FC058F43B
:10104000CE3F9CE5D90709F444C008F43FC0809125
:101050006F0282602DC0C230FDE5DF0709F475C064
:1010600008F45DC0C330DD4509F072C080E06EC099
:1010700080916E02816003C080916E0280618093D6
:101080006E0266C080916E0211C080916F02826014
:1010900080936F025DC080916E028062F0CF80917C
:1010A0006E028064ECCF80916E0288608460E7CF2E
:1010B0008160EECF80916E028E7FE1CF80916E02D3
:1010C0008D7FDDCF80916E02877FD9CF80916F02B7
:1010D00018C080916F028D7FDBCF80916E028F7E72
:1010E000CECF80916E028F7DCACF80916E028F7BB2
:1010F000C6CF80916E02877F8B7FC1CF80916F02B8
:101100008D7F8E7FC5CF80916E0282FB222720F9D2
:1011100091E0922790FB82F990FB83F9B0CF809108
:101120006F02982F909591708E7F892B90FB81F99B
:10113000AFCF0E94320F80916E0287FB222720F9E9
:1011400091E0922790FB87F99ACF81E00E94921656
:1011500080916E0290916F020E940D160E94320FD4
:1011600080E001C081E0DF91CF910895CF93DF93BC
:1011700086319C4541F5EB010E943815982F8A81F4
:101180002091090130910A01882379F09A7A81E04F
:1011900009F480E08093A801911102C069E201C0C6
:1011A00065E3C9010E94D9160AC08091A801811186
:1011B00002C069E201C065E3C9010E94DB160E941A
:1011C000861580E001C081E0DF91CF9108958EE126
:1011D000489B02C08150E1F7489BFECF0895589884
:1011E00080E28A95F1F7589A0895FC012AE02A9541
:1011F000F1F728E090E080E031E040E14A95F1F736
:10120000880F489B02C08160932700C0000040E126
:101210004A95F1F7215089F720E12A95F1F729B194
:1012200000C0000030E13A95F1F72170922720814B
:10123000920F90830895EF92FF920F931F93CF9395
:10124000DF931F92CDB7DEB719828C017C01E60EC9
:10125000F11C0E151F0551F00E94E708CE01019602
:101260000E94F508F80181938F01F3CF81E0998105
:10127000911180E00F90DF91CF911F910F91FF901E
:10128000EF9008959093AA018093A901509A589ADB
:1012900008959093AA018093A9015098589AE89ACA
:1012A000E9E6F0E080818C7F80830895615091E0D1
:1012B00001C0990F6A95EAF720E031E0992361F0C7
:1012C000492F482319F0589A232701C0589840E223
:1012D0004A95F1F79695F2CF222311F0589A01C062
:1012E000589880E28A95F1F758980895FF920F93E5
:1012F0001F93CF93DF93EC018C01060F111DC017D4
:10130000D10741F0F9900E94EF0868E08F2D0E940C
:101310005609F5CFDF91CF911F910F91FF9008955E
:101320001F920F920FB60F9211242F933F934F935A
:101330005F936F937F938F939F93AF93BF93CF935D
:10134000DF93EF93FF935898509AC091A901D091E1
:10135000AA016D81662321F08E819F810E9476090A
:101360000E94EF0880E18A95F1F758985098589AB2
:1013700080E18A95F1F76A81662351F08B819C8127
:101380000E941B09E881F981811104C082E003C039
:10139000E881F98188E080830E94E708FF91EF915E
:1013A000DF91CF91BF91AF919F918F917F916F917D
:1013B0005F914F913F912F910F900FBE0F901F9013
:1013C0001895CF93DF93C091A901D091AA01F89409
:1013D000509A589885E08A95F1F700005098589AED
:1013E00080E28A95F1F7489B0AC0509A589AE881A2
:1013F000F98181E08083789481E090E02CC06D8158
:10140000662381F08E819F810E941B0981110AC091
:10141000509A589AE881F98182E08083789482E03A
:1014200090E019C00E94E70880E28A95F1F7589889
:10143000509A80E18A95F1F76A81662321F08B81C9
:101440009C810E9476090E94EF08E881F981108250
:10145000789480E090E0DF91CF9108959093B0016F
:101460008093AF010895E091AF01F091B001309702
:1014700021F00190F081E02D099480E00895E09141
:10148000AF01F091B001309721F00280F381E02D9F
:1014900009940895E091AF01F091B001309739F0CF
:1014A00022E0DC012C930480F581E02D099408955D
:1014B0002091AD013091AE012817390771F090935A
:1014C000AE018093AD01E091AF01F091B001309792
:1014D00021F00680F781E02D099408952091AB0159
:1014E0003091AC012817390771F09093AC018093CB
:1014F000AB01E091AF01F091B001309721F0008491
:10150000F185E02D0994089585B7806885BF85B77A
:10151000806885BF08950C94600608950C948D0A28
:101520000C948D0A0C94900A0C948D0A0C94940AD5
:101530000C948D0A0E94840A0E94980A0C94960AC0
:101540000E9464170E9432050E94BF170C94920AF1
:10155000AF92BF92CF92DF92EF92FF920F931F93C1
:10156000CF93DF93CDB7DEB72A970FB6F894DEBFDF
:101570000FBECDBF0E948E0A0E948D0A0E94A30555
:101580000E948B0A811111C08FEF89838A831B828D
:101590000E946D178160782F9D838C8349815A81C9
:1015A0006B818D810E94440B40C082EBA82E81E0AC
:1015B000B82E00E010E0C02E802F0E940605E82E15
:1015C000F501D1905F01D82631F40F5F1F4F0A302B
:1015D000110589F7D9CF8091370281FD0E940C0552
:1015E00080E0FF24F3949D2D9F21D1F08E83CF8244
:1015F000EF2081E009F480E088870E946D17816008
:10160000782F9A8789874E815F8168858A850E94B5
:10161000440BF801EE54FE4F8081F826F08205C09D
:101620008F5FFF0C8730F9F6D0CF0E946E190E94B1
:10163000330A9091B1018917B1F00E94330A809367
:10164000B1012A960FB6F894DEBF0FBECDBFDF9171
:10165000CF911F910F91FF90EF90DF90CF90BF90AF
:10166000AF900C94EF022A960FB6F894DEBF0FBE2F
:10167000CDBFDF91CF911F910F91FF90EF90DF9041
:10168000CF90BF90AF900895CF93DF93CDB7DEB7E3
:101690002B970FB6F894DEBF0FBECDBF4F83588790
:1016A00069877A878B87DE01119686E0FD011192AA
:1016B0008A95E9F785E0FE01379601900D928A95AB
:1016C000E1F749815A816B817C818D819E810E94E5
:1016D00025122B960FB6F894DEBF0FBECDBFDF915B
:1016E000CF910895FC01808191810E94F9140895A1
:1016F000CF93882309F4A9C0C82F8238C1F40E946F
:10170000330A81FDA2C069E38091090190910A0129
:101710000E94D9160E9486152FEF81EE94E0215089
:1017200080409040E1F700C0000069E319C08338B1
:1017300001F50E94330A80FD88C063E580910901AC
:1017400090910A010E94D9160E9486152FEF81EE12
:1017500094E0215080409040E1F700C0000063E534
:101760008091090190910A010E94DB16CF910C949F
:1017700086158438C1F40E94330A82FD66C067E48E
:101780008091090190910A010E94D9160E94861544
:101790002FEF81EE94E0215080409040E1F700C0AF
:1017A000000067E4DDCF8CEF8C0F813AF8F48C2FCA
:1017B0000E940C1C811149C06C2F809109019091ED
:1017C0000A010E94A316882349F06C2F8091090119
:1017D00090910A010E94DB160E9486156C2F809161
:1017E000090190910A010E94D916C0CF80E28C0FA6
:1017F000883048F4C77081E001C0880FCA95EAF7C5
:101800000E943B15B3CFEBE5EC0FE33040F4F0E082
:10181000E457FE4F808190E0CF910C94580AE8E5A0
:10182000EC0FE73150F4F0E0EE0FFF1FE25AFE4FED
:1018300080819181CF910C946E0AC03F30F08C2F43
:101840000E946318CF910C945019CF91089588236A
:1018500009F464C0823879F40E94330A81FF5EC0C3
:1018600069E38091090190910A010E94D9160E94B2
:10187000861569E310C08338B1F40E94330A80FFF3
:101880004DC063E58091090190910A010E94D9162B
:101890000E94861563E58091090190910A010E94DA
:1018A000DB160C948615843879F40E94330A82FF83
:1018B00035C067E48091090190910A010E94D91610
:1018C0000E94861567E4E7CF9CEF980F913A10F4D9
:1018D000682FE1CF90E2980F983050F4877091E034
:1018E00001C0990F8A95EAF7892F0E944115D9CF37
:1018F0009BE5980F933020F480E090E00C94580A18
:1019000098E5980F973120F480E090E00C946E0AEF
:10191000803F20F00E94CB180C9450190895CF936B
:10192000C82F0E94780BC93349F42FEF87EE93E05C
:10193000215080409040E1F700C000008C2FCF91F3
:101940000C94270C882321F00E943B150C948615DB
:101950000895882321F00E9441150C94861508955E
:10196000CF92DF92EF92FF920F931F93CF93DF936B
:101970007C01062FC72FFC01158112951F70D281A3
:10198000D1110E9458150E943115882399F0DD234A
:1019900089F08C2F807F803421F080E2800F8830A6
:1019A00048F082E00E94D0150E94311591E0D82EB7
:1019B000D92601C0D12CCC2EC2948FE0C8228C2D08
:1019C00090E0FC01EA5AFF4F0C9466238C2F807F35
:1019D000CF70882311F0C295C07FDD2399F0CC230E
:1019E00009F48DC180E2800F883010F0011104C02D
:1019F0008C2F0E943B1503C08C2F0E944B150E9418
:101A000086157DC1802F0E94270CCC2309F49CC130
:101A100080E2800F883010F0011104C08C2F0E94EA
:101A2000411503C08C2F0E9451150E9486158CC150
:101A30008C2F807FCF70803211F0C295C07F002341
:101A400019F00130C9F022C0DD2371F0112341F0FB
:101A5000113031F40E946B158C2B0E94731574C1E8
:101A60000E946B158C2B1DC0112319F0113009F445
:101A70006BC10E947C1525C0DD2321F0163008F0D3
:101A800063C10EC0153008F05FC11BC0DD2361F0DB
:101A9000112331F0F701858180FF31C18F7085837B
:101AA0008C2F0E94A20C50C1112359F0093309F068
:101AB00037C1FFEF27EE83E0F15020408040E1F78F
:101AC0002DC18C2F0E94A90C3FC18C2F8695869525
:101AD000837019F0813061F037C1DD2321F0802F50
:101AE0009C2F937002C080E090E00E94580A34C19D
:101AF000DD2321F0802F9C2F937002C080E090E0C6
:101B00000E946E0A29C1802FDD2319F00E946318FC
:101B100002C00E94CB180E9450191EC18C2F8370E6
:101B200009F045C0D11114C1402F42954695477028
:101B3000440F440F602F6F70862F90E0A0E0B0E05C
:101B4000042E04C0880F991FAA1FBB1F0A94D2F746
:101B500004FF10C00FE010E020E030E004C0000FF0
:101B6000111F221F331F4A95D2F70095109520951B
:101B7000309503C000E010E09801C695C695C3708B
:101B8000BC01CD01602B712B822B932BC23049F00D
:101B900058F4C13019F00E947613DAC00E94641321
:101BA000D7C00E948813D4C00E946213D1C0DD2325
:101BB00019F08C2F817001C08695882309F4C8C064
:101BC000402F429546954770440F440F602F6F7029
:101BD000862F90E0A0E0B0E0042E04C0880F991F8B
:101BE000AA1FBB1F0A94D2F704FF10C00FE010E039
:101BF00020E030E004C0000F111F221F331F4A9560
:101C0000D2F7009510952095309503C000E010E0C4
:101C10009801C695C695C370BC01CD01602B712B90
:101C2000822B932BC23049F058F4C13019F00E9436
:101C30003B148EC00E9429148BC00E944D1488C092
:101C40000E949C1385C0CF70DD2339F08C2F0E9439
:101C5000C213802F0E94A20C7BC0802F0E94A90C6F
:101C60008C2F0E94E31374C0023F01F128F4003F5F
:101C700041F0013FA1F03FC0033FF9F0043F39F1CB
:101C80003AC0DD2341F0153008F05EC08C2F8F7113
:101C90000E94081459C0163008F056C0F7CFDD2353
:101CA00039F08C2F8F710E94C2134EC0DD23C9F30F
:101CB0008C2F8F710E94E31347C0DD2329F08C2FF6
:101CC0008F710E94AD1340C00E94A8133DC0DD2358
:101CD00049F0CF718C2F0E94C21363E08C2F0E94B9
:101CE000BB1532C081E00E94D015123068F182E04D
:101CF0000E94D01529C0DD2331F0112391F2802FED
:101D00000E94780B21C0112399F2093349F49FEF07
:101D1000E7EEF3E09150E040F040E1F700C0000052
:101D2000802F0E94270C10C04C2F4F70602FC701CE
:101D30000E94F8020E94D3120FC04C2F4F70602FE8
:101D4000C7010E94FB0208C088EF8C0D843020F48C
:101D50000E94330A0E94EF02DD20C9F00E942D1577
:101D600080FD15C0F70112820E9427150E94C21340
:101D7000C7010E94E80E0E942715DF91CF911F91A5
:101D80000F91FF90EF90DF90CF900C94E313DF91D1
:101D9000CF911F910F91FF90EF90DF90CF9008951A
:101DA0000F931F93CF93DF93EC01688179818A8130
:101DB0000E9404158C010E945F140E945013B80108
:101DC000CE010E94B00CDF91CF911F910F91089529
:101DD000CF93DF93EC01988189812B813C81232B68
:101DE00031F08F3F31F481E09F3F19F403C081E06F
:101DF00001C080E080FD19C0CE010E94AB028111BC
:101E00000CC00E943115882381F08A81882369F0F3
:101E100082E0DF91CF910C94D015CE010E94D00EBC
:101E2000CE01DF91CF910C948602DF91CF9108957E
:101E30000E9458150E9468150E9486150E94811AFA
:101E40000E94501980E090E00E94580A80E090E0E3
:101E50000C946E0A8091090190910A010E94DD168E
:101E60000C94180F0E9448150C942A0FE92FE29544
:101E7000EF704E2F50E0FA013297EE30F105B0F4DA
:101E8000EA59FF4F0C946623803F91F018F4883E86
:101E900068F40EC0843F51F40BC0883E48F0813F87
:101EA00029F406C093FB882780F9089580E00895FF
:101EB00081E008950E94F9140E94360F0895CF938F
:101EC000DF9300D000D01F92CDB7DEB70F900F90F8
:101ED0000F900F900F90DF91CF910895CF93DF93E4
:101EE00000D000D000D0CDB7DEB726960FB6F8945C
:101EF000DEBF0FBECDBFDF91CF9108951F93CF936B
:101F0000DF93C091BD0116E08091BE01C81799F022
:101F1000D0E01C9FF0011D9FF00D1124E154FE4FF5
:101F20004081518162817381848195810E946E0F0D
:101F30002196C770E9CFDF91CF911F91089540910D
:101F4000EF015091F0016091F1017091F2018091E7
:101F5000F3019091F4010C946E0F2091BD019091CA
:101F6000BE0156E02917A9F030E0529FF001539FBF
:101F7000F00D1124E154FE4F7181761306C070817B
:101F8000781303C07281741306C02F5F3F4F277010
:101F9000E9CF80E0089581E008950F931F93CF93D8
:101FA000DF938091F40182958F7009F05DC080917C
:101FB000F101882309F458C08091BD011091BE0140
:101FC0006091EF017091F001C091F201D091F301A5
:101FD00091E06F3F09F090E0292F06E0811709F4A6
:101FE00043C0209721F07F3F21F030E003C031E073
:101FF00001C0322F90E030FD34C0089FF001099FEE
:10200000F00D1124DF01A154BE4F11963C911197A0
:10201000371327C03C91361324C012963C91129777
:1020200031111FC013964D915C9114974C1B5D0BA1
:10203000483C5105B0F48091F4018F708061809329
:10204000F401EC53FE4F80818F70806180838FEEAE
:1020500091E00E94E80EDF91CF911F910F910C94B7
:102060007E0F01968770BACFDF91CF911F910F91AC
:1020700008958F929F92AF92BF92CF92DF92EF928C
:10208000FF920F931F93CF93DF93CDB7DEB7619786
:102090000FB6F894DEBF0FBECDBF8C0185E0F8010E
:1020A000DE011D9601900D928A95E1F7D801DC9032
:1020B0001196EC9011971296CC909091EF0120918F
:1020C000F0014091F2015091F3014115510531F0B9
:1020D0002F3F31F481E09F3F19F403C081E001C03C
:1020E00080E080FD81C1F801838094808FEEA82E6E
:1020F00081E0B82EF090F101B401641B750BFF2054
:1021000009F418C18091F401382F307F683C7105C3
:1021100008F0D1C031118AC0E21214C0D91212C025
:10212000FC2CC1100FC08F7080618093F4010E945D
:102130009F0FC5010E94E80E8091F401D801159609
:102140008C936FC18114910439F0BFEFEB1206C07C
:1021500081E0DB1203C003C081E001C080E080FDAC
:1021600003C081E08C2502C080E090E080FF10C0B9
:102170004C2D6E2D8D2D0E94AD0F882349F08FEED2
:1021800091E00E94E80EEFEEF1E086E0DF01A4C0EE
:10219000892839F0BFEFEB1206C081E0DB1203C0E3
:1021A00003C081E001C080E080FD03C081E08C2598
:1021B00002C080E090E0E82FE170BE2E80FF2CC0CE
:1021C0004C2D6E2D8D2D0E94AD0FF82E811124C047
:1021D000DD86EE868D859E850E94F914292F229535
:1021E0002F70223018F0243090F405C09F7059F001
:1021F000811109C016C19F7031F0D80115969C91CC
:10220000907F09F40EC1805E883008F40AC1C801CD
:102210000E94E80EFB2C05C1FC2CCC2009F401C166
:102220008091F40181608093F4015BC0E21206C0EA
:10223000D91204C0C11002C0F801A0C0DD86EE862C
:102240008D859E850E945A0F882379F1CC2069F1F3
:102250002091F401822F82958F7090E0029774F0A4
:102260008091EF019091F00198878F8319869B866A
:102270008A862C87CE0107960E94E80E86E0F80138
:10228000AFEEB1E001900D928A95E1F70E94CD0F7B
:102290000E949F0F0DC0E21631F1DD86EE868D851E
:1022A0009E850E945A0F81112DC0C8010E94E80E20
:1022B000FF24F394B6C03111EECF782D998A888A25
:1022C0004D2D5E2D6C2D89890E945F0F8FEE91E060
:1022D0000E94E80E86E0D5011D928A95E9F70E94DA
:1022E0009F0FF12C9EC0D912D8CFC110D6CFF801C4
:1022F0008583C8010E94E80E86E0D5011D928A956B
:10230000E9F78FC0CC2089F22091F401822F8295C9
:102310008F7090E002970CF4B1CF8091EF01909113
:10232000F0019A8389831B829D828C822E83CE0149
:102330000196A2CF683C710508F047C0FC2CCC2068
:1023400009F4B3CFE21230C0D9122EC02091F401AB
:1023500020FD21C0822F82958F70482F50E04115BB
:102360005105C9F0F80125834F30510541F08F5FC9
:10237000982F9295907F822F8F70892B8583C8012B
:102380000E94E80E86E0F801AFEEB1E001900D92F8
:102390008A95E1F744C086E0F801AFEEB1E0019024
:1023A0000D928A95E1F73DC0DD86EE868D859E858E
:1023B0000E945A0F811162CF8091F4018160809355
:1023C000F401C8010E94E80E2CC0782D998A888AF1
:1023D0004D2D5E2D6C2D89890E945F0F86E0D50101
:1023E0001D928A95E9F71BC0CC2009F45ECFDD86EB
:1023F000EE868D859E850E945A0FF82E882309F45B
:1024000054CF86E0F801AFEEB1E001900D928A95CD
:10241000E1F78FEE91E00E94720B0E94CD0F0E94B7
:102420009F0F8F2D61960FB6F894DEBF0FBECDBF04
:10243000DF91CF911F910F91FF90EF90DF90CF90A0
:10244000BF90AF909F908F9008951F93CF93DF938D
:10245000CDB7DEB72C970FB6F894DEBF0FBECDBF59
:102460004F83588769877A878B879C87CE01079629
:102470000E9439108823D1F09F8188852A853B8569
:10248000232B31F08F3F31F481E09F3F19F403C0DB
:1024900081E001C080E080FD47C04F81588569859B
:1024A0007A858B859C850E946E0F3EC086E0FE017A
:1024B0003796DE01119601900D928A95E1F7FF8122
:1024C000E8856A857B856115710531F0EF3F31F450
:1024D00081E0FF3F19F403C081E001C080E080FD8E
:1024E00023C02091BE0130E0C90101968770992771
:1024F0004091BD0150E084179507F1F1F983EA831B
:102500007D836C8396E0929FD001939FB00D112440
:10251000A154BE4FFE01319601900D929A95E1F7BC
:102520008093BE010E947E0F16E08091BD019091C4
:10253000BE01891771F1189FC001112481549E4F6B
:102540000E943910882329F1E091BD011E9FF001FE
:102550001124E154FE4F4081518162817381848155
:1025600095810E946E0F8091BD0190E00196877069
:1025700099278093BD01D9CF0E94320F1092BE01DE
:102580001092BD01EFEEF1E086E0DF011D928A9529
:10259000E9F72C960FB6F894DEBF0FBECDBFDF91E2
:1025A000CF911F910895EF92FF920F931F93CF93B6
:1025B000DF938C01892B09F46CC0F12CEE24E39499
:1025C000E8012196F8018491843740F4843008F0C2
:1025D00051C0813081F0823019F15BC0853709F438
:1025E00044C0A8F19CE7980F903708F052C08F774D
:1025F0000E94270C41C00E5F1F4FFE01849190E2A4
:10260000980F983050F48770FE2D01C0FF0F8A9507
:10261000EAF78F2F0E945B1514C00E94780B2DC023
:102620000E5F1F4FFE01849190E2980F983060F486
:102630008770FE2D01C0FF0F8A95EAF78F2F0E9449
:1026400061150E94861519C00E94270C16C00E5FE6
:102650001F4FFE01C491CC2381F08FE99FE00197C9
:10266000F1F700C00000C150F6CF0E5F1F4FFE0112
:10267000F49003C00E94780B8E018F2D882309F4FB
:102680009FCFEFE9FFE03197F1F700C000008150E4
:10269000F5CFDF91CF911F910F91FF90EF900895AB
:1026A000089508950C9451130C9452130E945413DE
:1026B0006093260270932702809328029093290248
:1026C0000C94180F0C9456130F931F93009126022D
:1026D000109127022091280230912902602B712B42
:1026E000822B932B1F910F910C9456130F931F93D2
:1026F0000091260210912702209128023091290290
:1027000060237123822393231F910F910C945613FE
:102710000F931F9300912602109127022091280207
:102720003091290260277127822793271F910F91EB
:102730000C9456130C9451130E949A136093220226
:102740007093230280932402909325020C94180F17
:1027500060E070E0CB010C949C130F931F9341E059
:1027600050E060E070E08A019B0104C0000F111F7F
:10277000221F331F8A95D2F7C901B8011F910F910B
:102780000C949C130F931F9341E050E060E070E0C5
:1027900004C0440F551F661F771F8A95D2F780919A
:1027A000220290912302A0912402B09125028A0175
:1027B0009B01082B192B2A2B3B2BC901B8011F9118
:1027C0000F910C949C130F931F9341E050E060E035
:1027D00070E004C0440F551F661F771F8A95D2F71B
:1027E00040955095609570958091220290912302BA
:1027F000A0912402B09125028A019B01082319238C
:102800002A233B23C901B8011F910F910C949C13FB
:102810000F931F9341E050E060E070E004C0440F6C
:10282000551F661F771F8A95D2F7809122029091DB
:102830002302A0912402B09125028A019B0108275E
:1028400019272A273B27C901B8011F910F910C9422
:102850009C130F931F930091220210912302209149
:10286000240230912502602B712B822B932B1F9118
:102870000F910C949C130F931F93009122021091BF
:1028800023022091240230912502602371238223A8
:1028900093231F910F910C949C130F931F930091FE
:1028A00022021091230220912402309125026027F8
:1028B0007127822793271F910F910C949C130895E1
:1028C00027E0929F800D1124E82FE695E695E69586
:1028D000877051E001C0550F8A95EAF785E0E89FBF
:1028E000F0011124EB50FE4F20E030E070E0408119
:1028F000CB01022E02C0969587950A94E2F781706B
:10290000819584278523842781932F5F3F4F25302E
:10291000310569F7089527E0929F800D1124682FF3
:10292000669566956695982F977085E0689FB001CB
:10293000112440E050E080E0FB01E40FF51FEB5074
:10294000FE4F208130E0092E02C0369527950A946B
:10295000E2F721703327042E01C0220F0A94EAF710
:10296000822B4F5F5F4F4530510531F70895BF927D
:10297000CF92DF92EF92FF920F931F93CF93DF934B
:102980008C01C0902202D0902302E0902402F090AB
:1029900025028091260290912702A0912802B091F1
:1029A0002902C82AD92AEA2AFB2ACFE1D0E0D70196
:1029B000C6010C2E04C0B695A795979587950A94E5
:1029C000D2F780FD04C0219790F7B12C07C0BC2E30
:1029D000B8018C2F0E9417030197A9F38B2DDF916B
:1029E000CF911F910F91FF90EF90DF90CF90BF900C
:1029F0000895CF93DF93EC010E94B714BE010E94AB
:102A00001703DF91CF9108951F93CF93DF93EB01CD
:102A10009091BC01992321F0CB010E94F91413C0BD
:102A2000882349F0CB010E94B714182F682FCE01DC
:102A30000E94601404C0CB010E948B14182FBE01A9
:102A4000812F0E941703DF91CF911F9108958091EC
:102A50002A02859585958595089580912A0287702B
:102A6000089590912A02977081E009F480E008951A
:102A700080913602089590913602892B8093360218
:102A800008958095909136028923809336020895A7
:102A900010923602089590913502892B8093350269
:102AA0000895809590913502892380933502089589
:102AB00010923502089590913402892B809334024C
:102AC000089580959091340289238093340208956B
:102AD00010923402089580912B02089508950C9469
:102AE0006E150C946F1590912B02981721F080931E
:102AF0002B020C947115089580912B02882329F0E4
:102B000010922B0280E00C9471150895E091090158
:102B1000F0910A01809136028083E0910901F091E1
:102B20000A01908180913502892B8083E09109010F
:102B3000F0910A01908180913402892B80838091E9
:102B40002B02882381F0E0910901F0910A01908124
:102B5000892B80838091090190910A010E94971628
:102B600081110E947C158091090190910A010C94B9
:102B70003F0A0C946E1598E0899F90011124262B32
:102B800020932A020E94C21380912A02859585957E
:102B900085950C94B91510922A0280E00C94B91511
:102BA00020912A028095822380932A02982F977081
:102BB00079F430E0482F082E000C550B2417350708
:102BC00039F08595859585950E94E3130C94CB1576
:102BD000089580E090E00E94882321E08C3E9E4F83
:102BE00009F020E0822F089582E090E00C94802389
:102BF00083E090E00C948023CF9384E090E00E94E7
:102C00008023C82F81E290E00E9480232C2F30E0A7
:102C1000A901582BCA01CF910895CF93C92F682FCE
:102C200084E090E00E948E236C2F81E290E0CF91AF
:102C30000C948E23AB01BC018FE090E00C94A02398
:102C4000AB01BC0183E190E00C94A02360E070E054
:102C5000CB010C94201660E070E0CB010E941A16A4
:102C60000C9426166CEE7EEF80E090E00E94AC2380
:102C700060E082E090E00E948E2360E083E090E0DC
:102C80000E948E2310922602109227021092280290
:102C90001092290260E084E090E00E948E2360E0C0
:102CA00081E290E00E948E2360E085E090E00E9447
:102CB0008E2360E086E090E00E948E236FEF87E035
:102CC00090E00E948E2340E050E0BA0188E090E05E
:102CD0000E94A02360E08DE090E00E948E2340E0FF
:102CE00050E0BA0188E190E00E94A02360E087E113
:102CF00090E00E948E2340E050E0BA018CE190E029
:102D00000E94A02360E080E290E00E948E2340E0D9
:102D100050E0BA0188E190E00E94A0230C942B16A9
:102D20000C943216682F8EE090E00C948E23FC01F8
:102D3000329697E080E0915029F021912223D9F337
:102D40008F5FF9CF0895662349F0FC01329608960B
:102D50002191621729F0E817F907D1F780E008956B
:102D600081E008959C01FC0132969FEF80E0419143
:102D7000461789F09F3F19F4411101C0982F8F5FCA
:102D80008630A9F79F3F39F0F901E90FF11D97FD52
:102D9000FA956283089508959C012A5F3F4FFC01D4
:102DA0004281461301C01282019682179307B9F738
:102DB00008950C94B2160C94CC16029626E0FC01F1
:102DC00011922A95E9F7089508950C94E4160C944D
:102DD000E416CF930E94E7160E94A3050E94E51611
:102DE000C0E08C2F0E940605811104C0CF5FCA305D
:102DF000C1F701C081E0CF9108950C94E4160C94C2
:102E0000FD160E94FF1680917402843049F11092E1
:102E1000380220E488E190E00FB6F894A8958093FA
:102E200060000FBE2093600080E00E94EF020E94CD
:102E3000FF1683B7817F846083BF83B7816083BFC0
:102E40007894889583B78E7F83BF0FB6F894A89542
:102E500080916000886180936000109260000FBED6
:102E600008950C94E4160E94320F0E94330A0E94C7
:102E7000EF020C9431171F920F920FB60F9211248C
:102E80008F939F93AF93BF9380913802811113C0AA
:102E900080916A0290916B02A0916C02B0916D02D8
:102EA0004196A11DB11D80936A0290936B02A0937D
:102EB0006C02B0936D02BF91AF919F918F910F9073
:102EC0000FBE0F901F90189582E084BD93E095BDD2
:102ED0009AEF97BD80936E0008952FB7F894809174
:102EE0006A0290916B02A0916C02B0916D022FBFAB
:102EF00008959C014FB7F89480916A0290916B02FB
:102F0000A0916C02B0916D024FBF821B930B08958C
:102F100078941F920F920FB60F9211248F939F9364
:102F2000AF93BF9380916A0290916B02A0916C0263
:102F3000B0916D020196A11DB11D80936A0290931C
:102F40006B02A0936C02B0936D02BF91AF919F9101
:102F50008F910F900FBE0F901F90189587E797E7FE
:102F600090930108809300089AE088E10FB6F894E6
:102F7000A895809360000FBE90936000FFCF0E94E1
:102F8000E915811102C00E9490160E94F4158093E9
:102F900037020E94FC1590936F0280936E020E948C
:102FA000F815682F70E080E090E00E946213609155
:102FB00022027091230280912402909125020C94A8
:102FC0009A138091410280FF0BC060910F0185E050
:102FD000689FB001112475956795759567952BC00D
:102FE00081FF09C060910F0185E0689FB001112445
:102FF0007595679520C082FF07C060910F0185E03D
:10300000689FB001112417C0909140029923D1F01C
:1030100060910E01961788F720910F0185E0289F97
:1030200090011124929FA001939F500D112470E0F4
:10303000CA010E9452236038710540F46115710580
:1030400019F406C065E070E0862F08958FE70895B3
:1030500081E008958091410280FF08C060910C01D9
:1030600070E0759567957595679521C081FF06C0DD
:1030700060910C0170E07595679519C082FF04C0DE
:1030800060910C0170E010C090913F02992399F07B
:1030900060910B019617A0F780910C01899FC001E8
:1030A000112470E00E9452236038710540F46115CC
:1030B000710519F406C061E070E0862F08958FE76E
:1030C000089581E00895803F21F40E94E1178195E1
:1030D00004C0813F29F40E94E117809345020895BE
:1030E000823F21F40E94E117819504C0833F29F4B7
:1030F0000E94E117809344020895893F19F40E94C9
:103100002A1805C08A3F31F40E942A1881958093BD
:10311000460208958B3F21F40E942A18819504C02D
:103120008C3F29F40E942A18809347020895843F17
:1031300021F480914302816017C0853F21F4809182
:103140004302826011C0863F21F480914302846073
:103150000BC0873F21F480914302886005C0883FFF
:1031600031F48091430280618093430208958D3F42
:1031700021F48091410281600BC08E3F21F4809147
:103180004102826005C08F3F29F480914102846032
:10319000809341020895803F39F48091450287FF72
:1031A0006AC01092450267C0813F29F480914502B0
:1031B0001816BCF360C090914402823F29F497FF37
:1031C0005AC01092440257C0833F19F41916CCF329
:1031D00052C090914602893F31F419160CF04BC051
:1031E0001092460248C08A3F19F497FF44C0F8CFB6
:1031F0008B3F39F48091470287FF3DC01092470210
:103200003AC08C3F29F4809147021816BCF333C0B2
:10321000843F21F4809143028E7F17C0853F21F4C3
:10322000809143028D7F11C0863F21F4809143023B
:103230008B7F0BC0873F21F480914302877F05C0BD
:10324000883F31F4809143028F7E8093430213C004
:103250008D3F21F4809141028E7F0BC08E3F21F47F
:10326000809141028D7F05C08F3F29F480914102FA
:103270008B7F8093410280914402811106C080912E
:103280004502811102C010924002809146028111D4
:1032900006C080914702811102C010923F0208953A
:1032A0000E946D1720914402211104C02091450213
:1032B000222321F090933E0280933D02209146020A
:1032C000211104C020914702222321F090933C0257
:1032D00080933B0282E492E00C944A0AEF92FF92C0
:1032E0000F931F93CF93DF9300D000D000D0CDB7C2
:1032F000DEB786E0E2E4F2E0DE01119601900D9285
:103300008A95E1F7E0904402F09045020091460270
:103310001091470210924402109245021092460208
:1033200010924702E11003C0FF2009F45DC08091B4
:103330003D0290913E020E947917AC0190914002AB
:10334000992339F02091100130E02417350758F007
:103350004BC020913A028AE0289F90011124241743
:10336000350718F041C09F3F19F09F5F90934002CE
:10337000EE2061F00E94E1171E1414F09FEF01C0CF
:1033800091E0989F902D112490934402FF2061F0CA
:103390000E94E1171F1414F09FEF01C091E0989F65
:1033A000902D112490934502309144023323E1F093
:1033B000209145022223C1F045EB3403C0011124C2
:1033C000992319F09093440203C081E08093440252
:1033D00035EB2303C0011124992319F09093450282
:1033E00003C081E080934502011103C0112309F459
:1033F0005DC080913B0290913C020E947917AC0124
:1034000090913F02992339F020910D0130E024176B
:10341000350758F04BC0209139028AE0289F90016F
:1034200011242417350718F041C09F3F19F09F5F02
:1034300090933F02002361F00E942A18101614F0A6
:103440009FEF01C091E0989F902D11249093460228
:10345000112361F00E942A18111614F09FEF01C089
:1034600091E0989F902D112490934702309146024D
:103470003323E1F0209147022223C1F045EB3403CE
:10348000C0011124992319F09093460203C081E0F2
:103490008093460235EB2303C0011124992319F0D0
:1034A0009093470203C081E08093470280914402D9
:1034B00081110BC080914502811107C080914602A5
:1034C000811103C08091470281110E945019EB8243
:1034D000FC820D831E8386E0FE013196A2E4B2E0F9
:1034E00001900D928A95E1F726960FB6F894DEBF0B
:1034F0000FBECDBFDF91CF911F910F91FF90EF9045
:103500000895E2E4F2E086E0DF011D928A95E9F792
:103510001092400210923F021092410208958330AF
:1035200081F128F4813059F08230D1F0089585304E
:1035300009F449C0B8F1863009F456C00895809165
:103540003A02262F30E0280F311D2F3F310524F499
:10355000680F60933A0208958FEF80933A020895BE
:1035600080911001262F30E0280F311D2F3F3105AB
:1035700024F4680F6093100108958FEF8093100179
:10358000089580910F01262F30E0280F311D2F3F25
:10359000310524F4680F60930F0108958FEF809335
:1035A0000F01089580910E01262F30E0280F311D64
:1035B0002F3F310524F4680F60930E0108958FEFBB
:1035C00080930E01089580910C01262F30E0280F82
:1035D000311D2F3F310524F4680F60930C010895CD
:1035E0008FEF80930C01089580910B01262F30E01E
:1035F000280F311D2F3F310524F4680F60930B0114
:1036000008958FEF80930B010895833011F128F412
:10361000813049F0823091F00895853081F120F1B8
:103620008630C1F1089580913A02681720F4861B14
:1036300080933A02089510923A0208958091100101
:10364000681720F4861B80931001089510921001D2
:10365000089580910F01681720F4861B80930F0155
:10366000089510920F01089580910E01681720F4BB
:10367000861B80930E01089510920E01089580918B
:103680000C01681720F4861B80930C01089510929A
:103690000C01089580910B01681720F4861B80931C
:1036A0000B01089510920B0108950F931F9341E0B1
:1036B00050E060E070E08A019B0104C0000F111F20
:1036C000221F331F8A95D2F7C901B8010E946213E5
:1036D0001F910F910C94320F8B3109F468C058F58B
:1036E0008B3009F486C078F4863009F445C020F4A4
:1036F000853009F44BC07FC0873009F44AC0883058
:1037000009F477C078C0803109F464C068F48E3061
:1037100009F071C08091370282FB222720F991E0E5
:10372000922790FB82F94CC0863109F462C089313E
:1037300009F45FC060C08A32E1F060F4873209F4B6
:1037400055C028F48E3108F456C08D5150C08932CE
:10375000E9F051C0833450F48A3308F045C0853312
:1037600009F444C0883309F444C045C08334F1F1FE
:1037700042C00E9490163DC080913702817F8E7FAB
:103780008093370281E08093490208950E949C0251
:1037900030C080913702982F9095917090FB80F9FE
:1037A00080933702911125C0897F877F10C0809157
:1037B000370281FB222720F991E0922790FB81F9C3
:1037C000809337029923A9F080913702816080931A
:1037D00037020FC08091370283FB222720F991E046
:1037E000922790FB83F9ECCF895301C080E00E94BF
:1037F000551B81E0089580E0089580E008950C94C1
:10380000FD1B8E518A3030F4E82FF0E0E157FE4F77
:103810008081089580E00895CF93C82F8091490258
:10382000813051F018F0823099F17BC00E94381538
:10383000823209F078C004C00E943815823261F4E7
:103840008C2F0E94FF1B811104C08C2F0E946C1BC7
:103850001DC081E090E01AC08C2F0E94FD1B8111D9
:1038600014C0C43179F048F4CB3079F0C03109F09C
:103870005EC082E08093490208C0C93219F0C833A3
:1038800021F055C01092490252C081E0817051C0B0
:10389000C93279F108F5C43161F1A0F4C73009F0FB
:1038A00044C010923A0284E180931001C0930F014A
:1038B0008CE380930E0188E080930C0188E2809372
:1038C0000B0133C082EE8C0F863078F58C2F0E946E
:1038D000011C8093480229C0CE34E9F020F4CB3497
:1038E00021F56AE013C0C13579F0C235F1F461E029
:1038F0000DC080914802882319F01092480215C02B
:1039000081E08093490215C061E006C080914802C1
:103910000E948F1A0AC06AE0809148020E94051B2B
:1039200004C01092490280E004C081E002C080E03F
:10393000ADCFCF910895809152020895CF93DF9338
:1039400000D01F92CDB7DEB790917402943019F574
:1039500089837B836A8382E08093E9008FEF909173
:10396000E800815095FD06C095ED9A95F1F70000AD
:103970008111F5CF8091E80085FF0DC040E050E057
:1039800063E070E0CE0101960E94B41E8091E800D1
:103990008E778093E8000F900F900F90DF91CF917A
:1039A0000895BC0184E00C949E1CBC0183E00C943F
:1039B0009E1C22E02093E9002FEF3091E800215077
:1039C00035FD06C035ED3A95F1F700002111F5CF30
:1039D0002091E80025FF0BC040E050E066E070E079
:1039E0000E94B41E8091E8008E778093E8000895CD
:1039F000CF93DF9321E02093E9002FEF3091E8008F
:103A0000215035FD06C035ED3A95F1F70000211142
:103A1000F5CF2091E80025FF14C0EC0140E050E014
:103A200068E070E00E94B41E8091E8008E77809379
:103A3000E80088E0FE01AAE4B2E001900D928A95C8
:103A4000E1F7DF91CF91089580917302811109C050
:103A50000E9445200E94A2208091E2008460809311
:103A6000E2000895109273020895089508950C9449
:103A7000331742E061EC81E00E94BE1F42E261EC3C
:103A800082E00C94BE1F80917602833009F460C0FE
:103A900030F4813071F0823009F499C008958A3091
:103AA00009F485C08B3009F46BC0893009F0A7C0D8
:103AB00020C080917502813A09F0A1C08091E80090
:103AC000877F8093E8008091790290917A02892B18
:103AD00021F468E08AE492E003C060E080E090E0D6
:103AE00070E00E94FF1E8091E8008B778093E800D1
:103AF000089580917502813209F081C08091790228
:103B000090917A02029708F07AC08091E800877F4E
:103B10008093E8008091E80082FD05C080917402E6
:103B20008111F8CF6CC02091F3008091F20090E0F9
:103B3000922B029729F48091F1008B7F813021F440
:103B40008091F100809352028091E8008B7753C0FE
:103B500080917502813A09F052C08091790290916A
:103B60007A02892B09F04BC08091E800877F80930F
:103B7000E8008091E80080FFFCCF80911B0136C0F7
:103B8000809175028132D9F58091790290917A0203
:103B9000892BA9F58091E800877F8093E8000E9437
:103BA000F31F8091770280931B010C94320F809158
:103BB0007502813221F58091E800877F8093E800CB
:103BC0000E94F31F809178028093530208958091A0
:103BD0007502813AA1F48091E800877F8093E80024
:103BE0008091E80080FFFCCF809153028093F10028
:103BF0008091E8008E778093E8000C94F31F08957D
:103C000084B7877F84BF0FB6F894A8958091600031
:103C1000886180936000109260000FBE90E080E8A1
:103C20000FB6F89480936100909361000FBE0E94DC
:103C30009A0A0E9445200E94A2208091E20084609E
:103C40008093E20078940E9437230E94A00A81E1C9
:103C500091E00E942E0A80917402853069F40E94DE
:103C60000117809172028823B1F30E94E91688231C
:103C700091F30E949E1EEFCF0E94A80A0E948E0A16
:103C80000E948D0AE8CF0C94451E292F332723303C
:103C90003105C9F060F42130310581F02230310561
:103CA00009F044C08BE390E022EE32E043C02132C1
:103CB0003105E1F02232310549F138C082E190E06E
:103CC0002DE133E037C099278130910549F028F084
:103CD000029761F5E0EAF2E005C0EEEDF2E002C025
:103CE000EEECF2E0849190E09F0124C06115710533
:103CF00041F061307105D1F489E090E02DE033E0CE
:103D000019C089E090E024EF32E014C0611571051C
:103D100041F06130710551F481E890E02FE233E029
:103D200009C080E490E020EB33E004C080E090E044
:103D300020E030E0FA0131832083089580E189BDDD
:103D400082E189BD09B400FEFDCF8091D8008F7D4E
:103D50008093D8008091E00082608093E0008091A1
:103D6000E00081FDFCCF0895CF92DF92EF92FF92A9
:103D70000F931F93CF93DF93EC018B017A010E9485
:103D80001220811133C0E114F10439F0F701808170
:103D90009181081B190BC80FD91FC12CD12C0115FB
:103DA000110519F18091E80085FD16C08091E800A9
:103DB0008E778093E800E114F10449F0F7018081E7
:103DC0009181C80ED91ED182C08285E00FC00E94A9
:103DD0001220882321F30AC089918093F1000150B9
:103DE0001109FFEFCF1ADF0ADACF80E0DF91CF9120
:103DF0001F910F91FF90EF90DF90CF900895209149
:103E00007B0230917C022617370748F06115710557
:103E100039F42091E8002E772093E80001C0B90121
:103E2000FC0120E06115710579F18091740288230D
:103E3000F1F18530F1F18091E80083FD3CC0809183
:103E4000E80082FD2EC08091E80080FFEBCF20913A
:103E5000F3008091F20090E0922B6115710551F012
:103E60008830910538F421912093F1006150710957
:103E70000196F3CF21E0089709F020E08091E80057
:103E80008E778093E800CECF2111CFCF0AC08091EA
:103E90007402882361F0853061F08091E80083FD31
:103EA0000AC08091E80082FFF2CF80E0089582E0AE
:103EB000089583E0089581E0089520917B02309178
:103EC0007C022617370748F06115710539F42091F7
:103ED000E8002E772093E80001C0B901FC0120E042
:103EE0006115710591F180917402882309F440C035
:103EF000853009F43FC08091E80083FD3DC080918A
:103F0000E80082FD2FC08091E80080FFE9CF20917A
:103F1000F3008091F20090E0922B6115710559F049
:103F20008830910540F424912093F100319661503E
:103F300071090196F2CF21E0089709F020E0809105
:103F4000E8008E778093E800CBCF2111CCCF0AC058
:103F500080917402882361F0853061F08091E800DF
:103F600083FD0AC08091E80082FFF2CF80E00895CF
:103F700082E0089583E0089581E00895982F9730B6
:103F800068F59093E900981739F07091EC00209152
:103F9000ED005091F00003C0242F762F50E021FD5A
:103FA00002C09F5FECCF3091EB003E7F3093EB007F
:103FB0003091ED003D7F3093ED003091EB003160AA
:103FC0003093EB007093EC002093ED005093F000E1
:103FD0002091EE0027FDE5CF80E008958F7080935B
:103FE000E90081E008958091750287FF11C08091FA
:103FF000E80082FD05C0809174028111F8CF11C0E4
:104000008091E8008B770BC080917402882349F07F
:104010008091E80080FFF8CF8091E8008E77809350
:10402000E80008952091E4003091E50095E6409184
:10403000EC00842F817040FF23C08091E80080FD58
:104040001DC080917402882399F0853099F0809189
:10405000EB0085FD11C04091E4005091E50024176C
:10406000350729F3915011F09A01E1CF84E00895CA
:1040700082E0089583E0089581E0089580E0089546
:104080004091E80042FFDDCF08950E94B3200E94D6
:10409000BB20E0EEF0E0808181608083E8EDF0E01D
:1040A00080818F77808319BCA7EDB0E08C918E7FE3
:1040B0008C9380818F7E80831092730208950F937A
:1040C0001F93CF93DF930E94B3200E94BB20C8EDC3
:1040D000D0E088818F778883888180688883888111
:1040E0008F7D888319BC1092740210927002109216
:1040F00072021092710200EE10E0F80180818B7F55
:10410000808388818160888342E060E080E00E9453
:10411000BE1FE1EEF0E080818E7F8083E2EEF0E072
:10412000808181608083808188608083F8018081C4
:104130008E7F8083888180618883DF91CF911F91FA
:104140000F910895E8EDF0E080818F7E8083E7EDA8
:10415000F0E080818160808384E082BF81E0809391
:1041600073020C945F20E8EDF0E080818E7F808305
:104170001092E20008951092DA001092E100089582
:104180001F920F920FB60F9211242F933F934F93CC
:104190005F936F937F938F939F93AF93BF93EF93AF
:1041A000FF938091E10082FF0BC08091E20082FFCB
:1041B00007C08091E1008B7F8093E1000E9436234D
:1041C0008091DA0080FF1FC08091D80080FF1BC063
:1041D0008091DA008E7F8093DA008091D90080FF91
:1041E0000DC080E189BD82E189BD09B400FEFDCF2B
:1041F00081E0809374020E94241D05C019BC1092B6
:1042000074020E94321D8091E10080FF19C08091EC
:10421000E20080FF15C08091E2008E7F8093E20073
:104220008091E20080618093E2008091D8008062FA
:104230008093D80019BC85E0809374020E94361DDB
:104240008091E10084FF30C08091E20084FF2CC0A7
:1042500080E189BD82E189BD09B400FEFDCF809176
:10426000D8008F7D8093D8008091E1008F7E80936D
:10427000E1008091E2008F7E8093E2008091E20075
:1042800081608093E20080917002882311F084E0C5
:1042900007C08091E30087FD02C081E001C083E098
:1042A000809374020E94371D8091E10083FF29C032
:1042B0008091E20083FF25C08091E100877F809399
:1042C000E10082E080937402109270028091E1001C
:1042D0008E7F8093E1008091E2008E7F8093E200E8
:1042E0008091E20080618093E20042E060E080E043
:1042F0000E94BE1F8091F00088608093F0000E94B1
:10430000351DFF91EF91BF91AF919F918F917F915B
:104310006F915F914F913F912F910F900FBE0F9032
:104320001F9018951F920F920FB60F9211242F9382
:104330003F934F935F936F937F938F939F93AF932D
:10434000BF93CF93DF93EF93FF93C091E900CF70BA
:104350008091EC00D82FD17080FDD0E81092E90058
:104360008091F000877F8093F00078940E94D6219E
:104370001092E9008091F00088608093F000CD2BCE
:10438000CF70C093E900FF91EF91DF91CF91BF9182
:10439000AF919F918F917F916F915F914F913F91DD
:1043A0002F910F900FBE0F901F9018951F93CF93D2
:1043B000DF93CDB7DEB7AA970FB6F894DEBF0FBE76
:1043C000CDBFE5E7F2E08091F100819322E0ED3787
:1043D000F207C9F70E94431D8091E80083FF2EC1B8
:1043E0008091750290917602492F50E04A30510534
:1043F00008F024C1FA01EC58FF4F0C946623803872
:1044000021F0823809F01AC108C0809171029091A0
:104410007202992389F082600FC0809179028F70B7
:10442000873008F00BC18093E9008091EB0085FB99
:10443000882780F91092E9009091E800977F909387
:10444000E8008093F1001092F100D1C0282F2D7F59
:1044500009F0F4C0882319F0823061F0EFC0809138
:104460007702813009F0EAC0933009F080E0809350
:1044700072022EC08091770281112AC08091790248
:104480008F702FEF280F263008F0D8C08093E900F6
:104490002091EB0020FF1CC0933021F48091EB00B1
:1044A000806214C09091EB0090619093EB0021E04A
:1044B00030E0A90102C0440F551F8A95E2F74093EE
:1044C000EA001092EA008091EB0088608093EB0094
:1044D0001092E9008091E800877F8093E8000E94B5
:1044E000F31FACC08111AAC0109177021F77809191
:1044F000E3008078812B8093E3008091E800877F40
:104500008093E8000E94F31F8091E80080FFFCCFB9
:104510008091E30080688093E300111102C082E083
:1045200001C083E08093740289C08058823008F013
:1045300085C080917702909178028C3D53E0950779
:1045400079F583E08A838AE289834FB7F894DE01A4
:10455000139620E03EE051E2E32FF0E05093570045
:10456000E49120FF03C0E295EF703F5FEF708E2F64
:1045700090E0EA3010F0C79601C0C0968D939D93ED
:104580002F5F243149F74FBF8091E800877F8093E8
:10459000E8006AE270E0CE0101960E94FF1E16C09C
:1045A0006091790270917A02AE014F5F5F4F0E9475
:1045B000431EBC01892B09F441C09091E800977F0C
:1045C0009093E80089819A810E945D1F8091E800A4
:1045D0008B778093E80032C0803881F58091E800C5
:1045E000877F8093E800809170028093F100809132
:1045F000E8008E7772CF811121C08091770290916F
:10460000780299270297D4F48091E800877F8093FD
:10461000E80080917702809370020E94F31F8091DE
:104620007002811106C08091E30087FD02C081E025
:1046300001C084E0809374020E94391D8091E800DB
:1046400083FF0AC08091E800877F8093E800809113
:10465000EB0080628093EB00AA960FB6F894DEBF61
:104660000FBECDBFDF91CF911F9108950895CF93D5
:10467000809174028823A1F0C091E900CF709091DD
:10468000EC00892F817090FD80E8C82B1092E90022
:104690008091E80083FD0E94D621CF70C093E9008D
:1046A000CF91089597FB072E16F4009407D077FD5D
:1046B00009D00E946C2307FC05D03EF490958195AB
:1046C0009F4F0895709561957F4F0895EE0FFF1FDE
:1046D0000590F491E02D0994AA1BBB1B51E107C082
:1046E000AA1FBB1FA617B70710F0A61BB70B881F82
:1046F000991F5A95A9F780959095BC01CD01089511
:10470000F999FECF92BD81BDF89A992780B5089599
:10471000A8E1B0E042E050E00C94B423262FF999D0
:10472000FECF92BD81BDF89A019700B4021639F010
:104730001FBA20BD0FB6F894FA9AF99A0FBE0895E1
:104740000396272F0E948F230E948E23252F0E94DD
:104750008F23242F0C948F230196272F0E948F23C1
:104760000C948E23DC01CB01FC01F999FECF06C02D
:10477000F2BDE1BDF89A319600B40D92415050401F
:08478000B8F70895F894FFCF8B
:10478800019F0100A00105A0012C022808643C0734
:10479800149B1CF81CD91CD51CD11C01E200E90093
:1047A800EA00B500B600B700CD008301CC008A014D
:1047B80092019401210223022402250226022702E3
:1047C8002A02B300B4006F007000818283F5F6F707
:1047D800313332366697C634350000000000E200F7
:1047E800E900EA00B500B600B700CD008301CC00AF
:1047F8008A01920194012102230224022502260241
:1048080027022A02B300B4006F007000818283017E
:0A481800020304050607080900006A
:00000001FF
